{
  "contractName": "DcaHodlup",
  "abi": [
    {
      "anonymous": false,
      "inputs": [
        {
          "indexed": false,
          "internalType": "address",
          "name": "user",
          "type": "address"
        },
        {
          "indexed": false,
          "internalType": "string",
          "name": "name",
          "type": "string"
        },
        {
          "indexed": false,
          "internalType": "address",
          "name": "token_from",
          "type": "address"
        },
        {
          "indexed": false,
          "internalType": "address",
          "name": "token_to",
          "type": "address"
        },
        {
          "indexed": false,
          "internalType": "uint256",
          "name": "amountToSwap",
          "type": "uint256"
        },
        {
          "indexed": false,
          "internalType": "uint256",
          "name": "amountSwapped",
          "type": "uint256"
        },
        {
          "indexed": false,
          "internalType": "uint256",
          "name": "date",
          "type": "uint256"
        }
      ],
      "name": "DCAExecuted",
      "type": "event"
    },
    {
      "anonymous": false,
      "inputs": [
        {
          "indexed": true,
          "internalType": "address",
          "name": "previousOwner",
          "type": "address"
        },
        {
          "indexed": true,
          "internalType": "address",
          "name": "newOwner",
          "type": "address"
        }
      ],
      "name": "OwnershipTransferred",
      "type": "event"
    },
    {
      "anonymous": false,
      "inputs": [
        {
          "indexed": true,
          "internalType": "address",
          "name": "sender",
          "type": "address"
        },
        {
          "indexed": false,
          "internalType": "address",
          "name": "token_from",
          "type": "address"
        },
        {
          "indexed": false,
          "internalType": "address",
          "name": "token_to",
          "type": "address"
        },
        {
          "indexed": false,
          "internalType": "string",
          "name": "name",
          "type": "string"
        },
        {
          "indexed": false,
          "internalType": "uint256",
          "name": "date",
          "type": "uint256"
        }
      ],
      "name": "PositionCreated",
      "type": "event"
    },
    {
      "anonymous": false,
      "inputs": [
        {
          "indexed": true,
          "internalType": "address",
          "name": "sender",
          "type": "address"
        },
        {
          "indexed": false,
          "internalType": "address",
          "name": "token_from",
          "type": "address"
        },
        {
          "indexed": false,
          "internalType": "address",
          "name": "token_to",
          "type": "address"
        },
        {
          "indexed": false,
          "internalType": "string",
          "name": "name",
          "type": "string"
        },
        {
          "indexed": false,
          "internalType": "enum DcaHodlup.Status",
          "name": "status",
          "type": "uint8"
        },
        {
          "indexed": false,
          "internalType": "uint256",
          "name": "date",
          "type": "uint256"
        }
      ],
      "name": "PositionStatusChanged",
      "type": "event"
    },
    {
      "inputs": [],
      "name": "owner",
      "outputs": [
        {
          "internalType": "address",
          "name": "",
          "type": "address"
        }
      ],
      "stateMutability": "view",
      "type": "function"
    },
    {
      "inputs": [],
      "name": "renounceOwnership",
      "outputs": [],
      "stateMutability": "nonpayable",
      "type": "function"
    },
    {
      "inputs": [],
      "name": "swapFee",
      "outputs": [
        {
          "internalType": "uint256",
          "name": "",
          "type": "uint256"
        }
      ],
      "stateMutability": "view",
      "type": "function"
    },
    {
      "inputs": [
        {
          "internalType": "address",
          "name": "newOwner",
          "type": "address"
        }
      ],
      "name": "transferOwnership",
      "outputs": [],
      "stateMutability": "nonpayable",
      "type": "function"
    },
    {
      "inputs": [
        {
          "internalType": "uint256",
          "name": "",
          "type": "uint256"
        }
      ],
      "name": "userAddresses",
      "outputs": [
        {
          "internalType": "address",
          "name": "",
          "type": "address"
        }
      ],
      "stateMutability": "view",
      "type": "function"
    },
    {
      "inputs": [
        {
          "internalType": "address",
          "name": "_inputToken",
          "type": "address"
        },
        {
          "internalType": "address",
          "name": "_outputToken",
          "type": "address"
        },
        {
          "internalType": "address",
          "name": "_uniswapRouter",
          "type": "address"
        },
        {
          "internalType": "uint256",
          "name": "_swapFee",
          "type": "uint256"
        }
      ],
      "name": "initialize",
      "outputs": [],
      "stateMutability": "nonpayable",
      "type": "function"
    },
    {
      "inputs": [
        {
          "internalType": "string",
          "name": "_name",
          "type": "string"
        },
        {
          "internalType": "uint256",
          "name": "_totalAmountToSwap",
          "type": "uint256"
        },
        {
          "internalType": "uint256",
          "name": "_interval",
          "type": "uint256"
        },
        {
          "internalType": "uint256",
          "name": "_amountPerSwap",
          "type": "uint256"
        },
        {
          "internalType": "uint256",
          "name": "_dcaIterations",
          "type": "uint256"
        }
      ],
      "name": "createPosition",
      "outputs": [],
      "stateMutability": "nonpayable",
      "type": "function"
    },
    {
      "inputs": [
        {
          "internalType": "string",
          "name": "_name",
          "type": "string"
        },
        {
          "internalType": "enum DcaHodlup.Status",
          "name": "_status",
          "type": "uint8"
        }
      ],
      "name": "setPositionStatus",
      "outputs": [],
      "stateMutability": "nonpayable",
      "type": "function"
    },
    {
      "inputs": [
        {
          "internalType": "string",
          "name": "_name",
          "type": "string"
        }
      ],
      "name": "closePosition",
      "outputs": [],
      "stateMutability": "nonpayable",
      "type": "function"
    },
    {
      "inputs": [],
      "name": "claimFees",
      "outputs": [
        {
          "internalType": "uint256",
          "name": "fees",
          "type": "uint256"
        }
      ],
      "stateMutability": "nonpayable",
      "type": "function"
    },
    {
      "inputs": [
        {
          "internalType": "string",
          "name": "_name",
          "type": "string"
        }
      ],
      "name": "getPosition",
      "outputs": [
        {
          "components": [
            {
              "internalType": "string",
              "name": "name",
              "type": "string"
            },
            {
              "internalType": "uint256",
              "name": "totalAmountToSwap",
              "type": "uint256"
            },
            {
              "internalType": "uint256",
              "name": "interval",
              "type": "uint256"
            },
            {
              "internalType": "uint256",
              "name": "dcaIterations",
              "type": "uint256"
            },
            {
              "internalType": "uint256",
              "name": "amountPerSwap",
              "type": "uint256"
            },
            {
              "internalType": "uint256",
              "name": "lastPurchaseTimestamp",
              "type": "uint256"
            },
            {
              "internalType": "uint256",
              "name": "createdTimestamp",
              "type": "uint256"
            },
            {
              "internalType": "uint256",
              "name": "SwappedFromBalance",
              "type": "uint256"
            },
            {
              "internalType": "uint256",
              "name": "SwappedToBalance",
              "type": "uint256"
            },
            {
              "internalType": "enum DcaHodlup.Status",
              "name": "status",
              "type": "uint8"
            },
            {
              "internalType": "address",
              "name": "recipient",
              "type": "address"
            },
            {
              "internalType": "enum DcaHodlup.DcaMode",
              "name": "mode",
              "type": "uint8"
            }
          ],
          "internalType": "struct DcaHodlup.Position",
          "name": "",
          "type": "tuple"
        }
      ],
      "stateMutability": "view",
      "type": "function"
    },
    {
      "inputs": [],
      "name": "executeSwap",
      "outputs": [],
      "stateMutability": "nonpayable",
      "type": "function"
    }
  ],
  "bytecode": "0x608060405234801561001057600080fd5b5061001a3361001f565b61006f565b600080546001600160a01b038381166001600160a01b0319831681178455604051919092169283917f8be0079c531659141344cd1fd0a4f28419497f9722a3daafe3b4186f6b6457e09190a35050565b612f40806200007f6000396000f3fe608060405234801561001057600080fd5b50600436106100b45760003560e01c80639c89bb3d116100715780639c89bb3d14610147578063cf756fdf1461015a578063d294f0931461016d578063d2ad500314610175578063d816b20414610188578063f2fde38b1461019b57600080fd5b806310fb6fc1146100b9578063502c9bd5146100e257806354cf2aeb1461010d578063599f581014610124578063715018a61461012e5780638da5cb5b14610136575b600080fd5b6100cc6100c7366004612654565b6101ae565b6040516100d99190612720565b60405180910390f35b6100f56100f03660046127e6565b61035b565b6040516001600160a01b0390911681526020016100d9565b61011660075481565b6040519081526020016100d9565b61012c610385565b005b61012c610397565b6000546001600160a01b03166100f5565b61012c610155366004612654565b6103a9565b61012c61016836600461281b565b6103fb565b6101166104a9565b61012c610183366004612866565b6105c7565b61012c6101963660046128c1565b6106b8565b61012c6101a9366004612923565b610bbb565b6101b661254b565b336000908152600460205260409081902090516101d69085908590612945565b90815260200160405180910390206040518061018001604052908160008201805461020090612955565b80601f016020809104026020016040519081016040528092919081815260200182805461022c90612955565b80156102795780601f1061024e57610100808354040283529160200191610279565b820191906000526020600020905b81548152906001019060200180831161025c57829003601f168201915b50505091835250506001820154602082015260028201546040820152600380830154606083015260048301546080830152600583015460a0830152600683015460c0830152600783015460e0830152600883015461010083015260098301546101209092019160ff16908111156102f2576102f26126e6565b6003811115610303576103036126e6565b8152600982015461010081046001600160a01b03166020830152604090910190600160a81b900460ff16600181111561033e5761033e6126e6565b600181111561034f5761034f6126e6565b90525090505b92915050565b6005818154811061036b57600080fd5b6000918252602090912001546001600160a01b0316905081565b61038d610c34565b610395610c8e565b565b61039f610c34565b6103956000611898565b81818080601f0160208091040260200160405190810160405280939291908181526020018383808284376000920191909152506103eb92508391506118e89050565b6103f633848461195d565b505050565b6001546001600160a01b0316156104675760405162461bcd60e51b815260206004820152602560248201527f436f6e74726163742068617320616c7265616479206265656e20696e697469616044820152641b1a5e995960da1b60648201526084015b60405180910390fd5b600180546001600160a01b03199081166001600160a01b0396871617909155600280548216948616949094179093556003805490931691909316179055600755565b60006104b3610c34565b506001546001600160a01b0316600081815260066020526040908190205490516370a0823160e01b8152306004820152909182916370a0823190602401602060405180830381865afa15801561050d573d6000803e3d6000fd5b505050506040513d601f19601f82011682018060405250810190610531919061298f565b1061056b5760015461054d906001600160a01b03163383611e8d565b6001546001600160a01b031660009081526006602052604081205590565b60405162461bcd60e51b815260206004820152602b60248201527f4e6f2073756666696369656e742066756e6473206f6e20636f6e74726163742060448201526a746f20676574206665657360a81b606482015260840161045e565b82828080601f01602080910402602001604051908101604052809392919081815260200183838082843760009201919091525061060992508391506118e89050565b3360009081526004602052604090819020905183919061062c9087908790612945565b908152604051908190036020019020600901805460ff19166001836003811115610658576106586126e6565b02179055506001805460025460405133937f0aeed090124458b07ced6994263a843236db56546c55434529a62a575818833f936106aa936001600160a01b03918216939116918a918a919042906129d1565b60405180910390a250505050565b846106f85760405162461bcd60e51b815260206004820152601060248201526f1b985b59481b5d5cdd081899481cd95d60821b604482015260640161045e565b336000908152600460205260409081902090516107189088908890612945565b9081526020016040518091039020600601546000146107795760405162461bcd60e51b815260206004820152601c60248201527f506f736974696f6e20697320616c7265616479206578697374696e6700000000604482015260640161045e565b60038310156107ca5760405162461bcd60e51b815260206004820152601c60248201527f7468697320696e74657276616c206973206e6f7420616c6c6f77656400000000604482015260640161045e565b600084116108125760405162461bcd60e51b81526020600482015260156024820152744e6f20616d6f756e742073657420666f722044434160581b604482015260640161045e565b8115801561081f57508015155b8061083257508115801590610832575080155b6108975760405162461bcd60e51b815260206004820152603060248201527f536574206f6e6c7920616d6f756e74207065722073776170206f72206e756d6260448201526f6572206f6620697465726174696f6e7360801b606482015260840161045e565b6108d56040518060400160405280601f81526020017f706f757575757575757575757575757575757575657421212121212121212100815250611ef0565b600080831161090557612710826108ec8783612a34565b6108f69190612a4b565b6109009190612a4b565b610907565b825b905061091233611f33565b61095957600580546001810182556000919091527f036b6384b5eca791c62761152d0c79bb0604c104a5fb6f4eb0703f3154bb3db00180546001600160a01b031916331790555b60405180610180016040528088888080601f0160208091040260200160405190810160405280939291908181526020018383808284376000920182905250938552505050602082018890526040820187905260608201859052608082018490524260a0830181905260c083015260e082018190526101008201819052610120820152336101408201526101600183156109f35760006109f6565b60015b6001811115610a0757610a076126e6565b905233600090815260046020526040908190209051610a29908a908a90612945565b90815260405190819003602001902081518190610a469082612ae6565b506020820151816001015560408201518160020155606082015181600301556080820151816004015560a0820151816005015560c0820151816006015560e0820151816007015561010082015181600801556101208201518160090160006101000a81548160ff02191690836003811115610ac357610ac36126e6565b02179055506101408201516009820180546001600160a01b0390921661010002610100600160a81b03198316811782556101608501519260ff60a81b19909116610100600160b01b031990911617600160a81b836001811115610b2857610b286126e6565b021790555050336000908152600460209081526040822060019081018054918201815583529120019050610b5d878983612ba0565b5060015460025460405133927f2c7b57ffa9ff86280c81f437c215c7efeb16c055c6ea6e9b892af17cb10f9bcf92610baa926001600160a01b0392831692909116908c908c904290612c5b565b60405180910390a250505050505050565b610bc3610c34565b6001600160a01b038116610c285760405162461bcd60e51b815260206004820152602660248201527f4f776e61626c653a206e6577206f776e657220697320746865207a65726f206160448201526564647265737360d01b606482015260840161045e565b610c3181611898565b50565b6000546001600160a01b031633146103955760405162461bcd60e51b815260206004820181905260248201527f4f776e61626c653a2063616c6c6572206973206e6f7420746865206f776e6572604482015260640161045e565b60005b600554811015610c315760006004600060058481548110610cb457610cb4612c9a565b60009182526020808320909101546001600160a01b031683528281019390935260409182019020600101548151808301909252601082526f626f75636c653121212121212121212160801b92820192909252909150610d1290611ef0565b60005b818110156118835760006004600060058681548110610d3657610d36612c9a565b60009182526020808320909101546001600160a01b031683528201929092526040019020600101805483908110610d6f57610d6f612c9a565b906000526020600020018054610d8490612955565b80601f0160208091040260200160405190810160405280929190818152602001828054610db090612955565b8015610dfd5780601f10610dd257610100808354040283529160200191610dfd565b820191906000526020600020905b815481529060010190602001808311610de057829003601f168201915b5050505050905060006004600060058781548110610e1d57610e1d612c9a565b60009182526020808320909101546001600160a01b0316835282019290925260409081019091209051610e51908490612cb0565b908152602001604051809103902060405180610180016040529081600082018054610e7b90612955565b80601f0160208091040260200160405190810160405280929190818152602001828054610ea790612955565b8015610ef45780601f10610ec957610100808354040283529160200191610ef4565b820191906000526020600020905b815481529060010190602001808311610ed757829003601f168201915b50505091835250506001820154602082015260028201546040820152600380830154606083015260048301546080830152600583015460a0830152600683015460c0830152600783015460e0830152600883015461010083015260098301546101209092019160ff1690811115610f6d57610f6d6126e6565b6003811115610f7e57610f7e6126e6565b8152600982015461010081046001600160a01b03166020830152604090910190600160a81b900460ff166001811115610fb957610fb96126e6565b6001811115610fca57610fca6126e6565b8152505090506110016040518060400160405280601081526020016f626f75636c653221212121212121212160801b815250611ef0565b6000816101200151600381111561101a5761101a6126e6565b148015611039575080604001518160a001516110369190612ccc565b42115b1561186e5761106b6040518060400160405280600c81526020016b69663121212121212121212160a01b815250611ef0565b8060e00151816020015161107f9190612cdf565b816080015111156111dd57600160046000600588815481106110a3576110a3612c9a565b60009182526020808320909101546001600160a01b03168352820192909252604090810190912090516110d7908590612cb0565b908152604051908190036020019020600901805460ff19166001836003811115611103576111036126e6565b02179055506111356040518060400160405280600c81526020016b69663221212121212121212160a01b815250611ef0565b6005858154811061114857611148612c9a565b600091825260209091200154600180546002546040516001600160a01b03948516947f0aeed090124458b07ced6994263a843236db56546c55434529a62a575818833f946111a194821693909116918891904290612cf2565b60405180910390a26111d86040518060400160405280600e81526020016d6966322e3121212121212121212160901b815250611ef0565b61186e565b61120c6040518060400160405280600e81526020016d656c73653121212121212121212160901b815250611ef0565b604080518082019091526016815275212121212121212121696e707574746f6b656e20257360501b602082015260015461124f91906001600160a01b0316611f78565b6112b56040518060400160405280601981526020017f21212121212121212175736572416464726573736573202573000000000000008152506005878154811061129b5761129b612c9a565b6000918252602090912001546001600160a01b0316611f78565b6112f46040518060400160405280601981526020017f212121212121212121616464726573732874686973292025730000000000000081525030611f78565b6113376040518060400160405280601981526020017f212121212121212121616d6f756e7450657253776170202564000000000000008152508260800151611fc1565b6003600460006005888154811061135057611350612c9a565b60009182526020808320909101546001600160a01b0316835282019290925260409081019091209051611384908590612cb0565b908152604051908190036020019020600901805460ff191660018360038111156113b0576113b06126e6565b0217905550600154600580546113ff926001600160a01b03169190889081106113db576113db612c9a565b60009182526020909120015460808401516001600160a01b03909116903090612006565b61142d6040518060400160405280600d81526020016c7361666521212121212121212160981b815250611ef0565b600061271060075483608001516114449190612a34565b61144e9190612a4b565b905060008183608001516114629190612cdf565b9050611497604051806040016040528060128152602001716176616e745377617021212121212121212160701b815250611ef0565b60006114a882856101400151612044565b90506114dd6040518060400160405280601281526020017161707265735377617021212121212121212160701b815250611ef0565b6001546001600160a01b031660009081526006602052604081208054859290611507908490612ccc565b90915550600090508461016001516001811115611526576115266126e6565b036115cb5760016004600060058b8154811061154457611544612c9a565b60009182526020808320909101546001600160a01b0316835282019290925260409081019091209051611578908890612cb0565b908152602001604051809103902060030160008282546115989190612cdf565b909155505060408051808201909152600e81526d656c73653221212121212121212160901b60208201526115cb90611ef0565b806004600060058b815481106115e3576115e3612c9a565b60009182526020808320909101546001600160a01b0316835282019290925260409081019091209051611617908890612cb0565b908152602001604051809103902060080160008282546116379190612ccc565b9250508190555083608001516004600060058b8154811061165a5761165a612c9a565b60009182526020808320909101546001600160a01b031683528201929092526040908101909120905161168e908890612cb0565b908152602001604051809103902060070160008282546116ae9190612ccc565b9250508190555060006004600060058b815481106116ce576116ce612c9a565b60009182526020808320909101546001600160a01b0316835282019290925260409081019091209051611702908890612cb0565b908152604051908190036020019020600901805460ff1916600183600381111561172e5761172e6126e6565b0217905550426004600060058b8154811061174b5761174b612c9a565b60009182526020808320909101546001600160a01b031683528201929092526040908101909120905161177f908890612cb0565b9081526020016040518091039020600501819055506117c36040518060400160405280600e81526020016d656c73653321212121212121212160901b815250611ef0565b7fb59d2884dc4704cee22474623144a36d0c59d281b8eb5a128761e01325691393600589815481106117f7576117f7612c9a565b6000918252602090912001546001546002546080880151604051611833946001600160a01b03908116948c949082169391169188904290612d3d565b60405180910390a161186a6040518060400160405280600e81526020016d656c73653421212121212121212160901b815250611ef0565b5050505b5050808061187b90612d8d565b915050610d15565b5050808061189090612d8d565b915050610c91565b600080546001600160a01b038381166001600160a01b0319831681178455604051919092169283917f8be0079c531659141344cd1fd0a4f28419497f9722a3daafe3b4186f6b6457e09190a35050565b336000908152600460205260408082209051611905908490612cb0565b90815260200160405180910390206006015411610c315760405162461bcd60e51b8152602060048201526016602482015275141bdcda5d1a5bdb88191bd95cdb89dd08195e1a5cdd60521b604482015260640161045e565b6001600160a01b0383166000908152600460205260409081902090516002919061198a9085908590612945565b908152604051908190036020019020600901805460ff191660018360038111156119b6576119b66126e6565b02179055506001600160a01b0383166000908152600460209081526040822060030180546001810182559083529120016119f1828483612ba0565b506001600160a01b038316600090815260046020526040908190209051611a1b9084908490612945565b908152602001604051809103902060046000856001600160a01b03166001600160a01b031681526020019081526020016000206002018383604051611a61929190612945565b90815260405190819003602001902080611a7b8382612da6565b5060018201548160010155600282015481600201556003820154816003015560048201548160040155600582015481600501556006820154816006015560078201548160070155600882015481600801556009820160009054906101000a900460ff168160090160006101000a81548160ff02191690836003811115611b0357611b036126e6565b02179055506009828101805491830180546001600160a01b036101009485900416909302610100600160a81b0319841681178255915460ff600160a81b918290041693919260ff60a81b1916610100600160b01b03199092169190911790836001811115611b7357611b736126e6565b021790555050506001600160a01b038316600090815260046020526040908190209051611ba39084908490612945565b9081526040519081900360200190206000611bbe82826125bd565b50600060018281018290556002830182905560038301829055600480840183905560058401839055600684018390556007840183905560088401839055600990930180546001600160b01b03191690556001600160a01b03861682526020929092526040812090910154905b81811015611e3c576001600160a01b0385166000908152600460205260408120600101805483908110611c5f57611c5f612c9a565b906000526020600020018054611c7490612955565b80601f0160208091040260200160405190810160405280929190818152602001828054611ca090612955565b8015611ced5780601f10611cc257610100808354040283529160200191611ced565b820191906000526020600020905b815481529060010190602001808311611cd057829003601f168201915b5050505050905080604051602001611d059190612cb0565b604051602081830303815290604052805190602001208585604051602001611d2e929190612945565b6040516020818303038152906040528051906020012003611e29576001600160a01b0386166000908152600460205260409020600190810190611d719085612cdf565b81548110611d8157611d81612c9a565b9060005260206000200160046000886001600160a01b03166001600160a01b031681526020019081526020016000206001018381548110611dc457611dc4612c9a565b906000526020600020019081611dda9190612da6565b506001600160a01b0386166000908152600460205260409020600101805480611e0557611e05612e73565b600190038181906000526020600020016000611e2191906125bd565b905550611e3c565b5080611e3481612d8d565b915050611c2a565b50600154600280546040516001600160a01b03888116947f0aeed090124458b07ced6994263a843236db56546c55434529a62a575818833f946106aa949183169392909116918991899142906129d1565b6040516001600160a01b0383166024820152604481018290526103f690849063a9059cbb60e01b906064015b60408051601f198184030181529190526020810180516001600160e01b03166001600160e01b0319909316929092179091526122c7565b610c3181604051602401611f049190612e89565b60408051601f198184030181529190526020810180516001600160e01b031663104c13eb60e21b179052612399565b6001600160a01b0381166000908152600460205260408120600101541515806103555750506001600160a01b0316600090815260046020526040902060030154151590565b611fbd8282604051602401611f8e929190612e9c565b60408051601f198184030181529190526020810180516001600160e01b031663319af33360e01b179052612399565b5050565b611fbd8282604051602401611fd7929190612ec6565b60408051601f198184030181529190526020810180516001600160e01b0316632d839cb360e21b179052612399565b6040516001600160a01b038085166024830152831660448201526064810182905261203e9085906323b872dd60e01b90608401611eb9565b50505050565b6001546040516370a0823160e01b815230600482015260009184916001600160a01b03909116906370a0823190602401602060405180830381865afa158015612091573d6000803e3d6000fd5b505050506040513d601f19601f820116820180604052508101906120b5919061298f565b1161210e5760405162461bcd60e51b8152602060048201526024808201527f496e73756666696369656e742062616c616e6365206f66206f726967696e205460448201526337b5b2b760e11b606482015260840161045e565b60015460035460405163095ea7b360e01b81526001600160a01b0391821660048201526024810186905291169063095ea7b3906044016020604051808303816000875af1158015612163573d6000803e3d6000fd5b505050506040513d601f19601f820116820180604052508101906121879190612ee8565b5060408051610100810182526001546001600160a01b03908116825260025481166020830152610bb8928201929092529083166060820152600090608081016121d242610708612ccc565b815260208101869052600060408201819052606090910152905083156122bd576003546040805163414bf38960e01b815283516001600160a01b0390811660048301526020850151811660248301529184015162ffffff1660448201526060840151821660648201526080840151608482015260a084015160a482015260c084015160c482015260e0840151821660e482015291169063414bf38990610104016020604051808303816000875af1158015612291573d6000803e3d6000fd5b505050506040513d601f19601f820116820180604052508101906122b5919061298f565b915050610355565b6000915050610355565b600061231c826040518060400160405280602081526020017f5361666545524332303a206c6f772d6c6576656c2063616c6c206661696c6564815250856001600160a01b03166123bb9092919063ffffffff16565b8051909150156103f6578080602001905181019061233a9190612ee8565b6103f65760405162461bcd60e51b815260206004820152602a60248201527f5361666545524332303a204552433230206f7065726174696f6e20646964206e6044820152691bdd081cdd58d8d9595960b21b606482015260840161045e565b80516a636f6e736f6c652e6c6f6790602083016000808383865afa5050505050565b60606123ca84846000856123d2565b949350505050565b6060824710156124335760405162461bcd60e51b815260206004820152602660248201527f416464726573733a20696e73756666696369656e742062616c616e636520666f6044820152651c8818d85b1b60d21b606482015260840161045e565b600080866001600160a01b0316858760405161244f9190612cb0565b60006040518083038185875af1925050503d806000811461248c576040519150601f19603f3d011682016040523d82523d6000602084013e612491565b606091505b50915091506124a2878383876124ad565b979650505050505050565b6060831561251c578251600003612515576001600160a01b0385163b6125155760405162461bcd60e51b815260206004820152601d60248201527f416464726573733a2063616c6c20746f206e6f6e2d636f6e7472616374000000604482015260640161045e565b50816123ca565b6123ca83838151156125315781518083602001fd5b8060405162461bcd60e51b815260040161045e9190612e89565b604051806101800160405280606081526020016000815260200160008152602001600081526020016000815260200160008152602001600081526020016000815260200160008152602001600060038111156125a9576125a96126e6565b815260006020820181905260409091015290565b5080546125c990612955565b6000825580601f106125d9575050565b601f016020900490600052602060002090810190610c3191905b8082111561260757600081556001016125f3565b5090565b60008083601f84011261261d57600080fd5b50813567ffffffffffffffff81111561263557600080fd5b60208301915083602082850101111561264d57600080fd5b9250929050565b6000806020838503121561266757600080fd5b823567ffffffffffffffff81111561267e57600080fd5b61268a8582860161260b565b90969095509350505050565b60005b838110156126b1578181015183820152602001612699565b50506000910152565b600081518084526126d2816020860160208601612696565b601f01601f19169290920160200192915050565b634e487b7160e01b600052602160045260246000fd5b6004811061270c5761270c6126e6565b9052565b6002811061270c5761270c6126e6565b602081526000825161018080602085015261273f6101a08501836126ba565b9150602085015160408501526040850151606085015260608501516080850152608085015160a085015260a085015160c085015260c085015160e085015260e08501516101008181870152808701519150506101208181870152808701519150506101406127af818701836126fc565b86015190506101606127cb868201836001600160a01b03169052565b86015190506127dc85830182612710565b5090949350505050565b6000602082840312156127f857600080fd5b5035919050565b80356001600160a01b038116811461281657600080fd5b919050565b6000806000806080858703121561283157600080fd5b61283a856127ff565b9350612848602086016127ff565b9250612856604086016127ff565b9396929550929360600135925050565b60008060006040848603121561287b57600080fd5b833567ffffffffffffffff81111561289257600080fd5b61289e8682870161260b565b9094509250506020840135600481106128b657600080fd5b809150509250925092565b60008060008060008060a087890312156128da57600080fd5b863567ffffffffffffffff8111156128f157600080fd5b6128fd89828a0161260b565b909a90995060208901359860408101359850606081013597506080013595509350505050565b60006020828403121561293557600080fd5b61293e826127ff565b9392505050565b8183823760009101908152919050565b600181811c9082168061296957607f821691505b60208210810361298957634e487b7160e01b600052602260045260246000fd5b50919050565b6000602082840312156129a157600080fd5b5051919050565b81835281816020850137506000828201602090810191909152601f909101601f19169091010190565b6001600160a01b0387811682528616602082015260a0604082018190526000906129fe90830186886129a8565b9050612a0d60608301856126fc565b826080830152979650505050505050565b634e487b7160e01b600052601160045260246000fd5b808202811582820484141761035557610355612a1e565b600082612a6857634e487b7160e01b600052601260045260246000fd5b500490565b634e487b7160e01b600052604160045260246000fd5b601f8211156103f657600081815260208120601f850160051c81016020861015612aaa5750805b601f850160051c820191505b81811015612ac957828155600101612ab6565b505050505050565b600019600383901b1c191660019190911b1790565b815167ffffffffffffffff811115612b0057612b00612a6d565b612b1481612b0e8454612955565b84612a83565b602080601f831160018114612b435760008415612b315750858301515b612b3b8582612ad1565b865550612ac9565b600085815260208120601f198616915b82811015612b7257888601518255948401946001909101908401612b53565b5085821015612b905787850151600019600388901b60f8161c191681555b5050505050600190811b01905550565b67ffffffffffffffff831115612bb857612bb8612a6d565b612bcc83612bc68354612955565b83612a83565b6000601f841160018114612bfa5760008515612be85750838201355b612bf28682612ad1565b845550612c54565b600083815260209020601f19861690835b82811015612c2b5786850135825560209485019460019092019101612c0b565b5086821015612c485760001960f88860031b161c19848701351681555b505060018560011b0183555b5050505050565b6001600160a01b03868116825285166020820152608060408201819052600090612c8890830185876129a8565b90508260608301529695505050505050565b634e487b7160e01b600052603260045260246000fd5b60008251612cc2818460208701612696565b9190910192915050565b8082018082111561035557610355612a1e565b8181038181111561035557610355612a1e565b6001600160a01b0386811682528516602082015260a060408201819052600090612d1e908301866126ba565b9050612d2d60608301856126fc565b8260808301529695505050505050565b600060018060a01b03808a16835260e06020840152612d5f60e084018a6126ba565b9781166040840152959095166060820152608081019390935260a083019190915260c0909101525092915050565b600060018201612d9f57612d9f612a1e565b5060010190565b818103612db1575050565b612dbb8254612955565b67ffffffffffffffff811115612dd357612dd3612a6d565b612de181612b0e8454612955565b6000601f821160018114612e0f5760008315612dfd5750848201545b612e078482612ad1565b855550612c54565b600085815260209020601f19841690600086815260209020845b83811015612e495782860154825560019586019590910190602001612e29565b5085831015612b905793015460001960f8600387901b161c19169092555050600190811b01905550565b634e487b7160e01b600052603160045260246000fd5b60208152600061293e60208301846126ba565b604081526000612eaf60408301856126ba565b905060018060a01b03831660208301529392505050565b604081526000612ed960408301856126ba565b90508260208301529392505050565b600060208284031215612efa57600080fd5b8151801515811461293e57600080fdfea2646970667358221220de238c4ddccbe6229618a0212790683b3c3428ae20af2530433405cc283fc27d64736f6c63430008120033",
  "immutableReferences": {},
  "source": "// SPDX-License-Identifier: MIT\n\npragma solidity ^0.8.18;\n\nimport \"../node_modules/@uniswap/v3-periphery/contracts/interfaces/ISwapRouter.sol\";\nimport \"../node_modules/@openzeppelin/contracts/access/Ownable.sol\";\nimport \"../node_modules/@openzeppelin/contracts/token/ERC20/IERC20.sol\";\n//import \"../node_modules/@openzeppelin/contracts/token/ERC20/ERC20.sol\";\nimport \"../node_modules/@openzeppelin/contracts/token/ERC20/utils/SafeERC20.sol\";\nimport \"../node_modules/@ganache/console.log/console.sol\";\n\nusing SafeERC20 for IERC20;\n\n/**\n * @title HodlUpHub contract\n * @dev This contract is used for hodling tokens and executing automated periodic swaps.\n */\ncontract DcaHodlup is Ownable {\n    /**\n     * @dev Enum representing the available statuses for a position.\n     * Active: the position is currently being executed\n     * Pause: the position is temporarily paused\n     * Closed: the position has been fully executed and cannot be reopened\n     * Locked: the position is locked for DCA, meaning that the tokens have been swapped but not transferred to the user\n     */\n    enum Status {\n        Active,\n        Pause,\n        Closed,\n        Locked\n    }\n\n    /**\n     * @dev Enum representing the available DCA modes.\n     * Limited: the position has a fixed number of swaps.\n     * Unlimited: the position will continue to swap indefinitely.\n     */\n    enum DcaMode {\n        Limited,\n        Unlimited\n    }\n\n    /**\n     * @dev The available pairs for swapping.\n     */\n    IERC20 inputToken;\n    IERC20 outputToken;\n\n    /**\n     * @dev The Uniswap V3 router.\n     */\n    ISwapRouter swapRouter;\n\n    /**\n     * @dev Struct representing a user's data.\n     * positions: An array of the user's open positions.\n     * closedPositions: An array of the user's closed positions.\n     */\n    struct Account {\n        mapping(string => Position) positions;\n        string[] positionsKeys;\n        mapping(string => Position) closedPositions;\n        string[] closedPositionsKeys;\n    }\n\n    /**\n     * @dev Struct representing a user's position.\n     * name: The name of the position.\n     * totalAmountToSwap: The total amount of token_from to be swapped.\n     * interval: The time interval (in seconds) between swaps.\n     * dcaIterations: The number of swaps remaining for the position (in case of Limited DCA mode).\n     * amountPerSwap: The amount of token_from to be swapped per interval.\n     * lastPurchaseTimestamp: The timestamp of the last swap.\n     * createdTimestamp: The timestamp of the position creation.\n     * SwappedFromBalance: The total amount of token_from swapped so far.\n     * SwappedToBalance: The total amount of token_to received so far.\n     * status: The current status of the position.\n     * recipient: The address to receive the swapped tokens.\n     * mode: The DCA mode of the position.\n     */\n    struct Position {\n        string name;\n        uint256 totalAmountToSwap;\n        uint256 interval;\n        uint256 dcaIterations;\n        uint256 amountPerSwap;\n        uint256 lastPurchaseTimestamp;\n        uint256 createdTimestamp;\n        uint256 SwappedFromBalance;\n        uint256 SwappedToBalance;\n        Status status;\n        address recipient;\n        DcaMode mode;\n    }\n\n    /**\n     * @dev Mapping that stores information about each user.\n     */\n    mapping(address => Account) accounts;\n\n    /**\n     * @dev Array that stores the addresses of all registered accounts.\n     */\n    address[] public userAddresses;\n\n    /**\n     * @dev Mapping that stores the balances of fees collected for each ERC20 token.\n     */\n    mapping(IERC20 => uint256) feesBalances;\n\n    /**\n     * @dev Represents the fee percentage taken for swaps.\n     *      To avoid rounding errors, the percentage is multiplied by 10000.\n     *      For example, 1% is represented by 100.\n     */\n    uint256 public swapFee;\n\n    uint256 private currentUserindex;\n    uint256 private operationsLimit;\n\n    /**\n     * @dev HodlUpHub constructor.\n     * @param _uniswapRouter Address of the Uniswap router contract.\n     * @param _swapFee Swap fee percentage charged from each swap.\n     */\n    function initialize(address _inputToken, address _outputToken, address _uniswapRouter, uint256 _swapFee) public {\n        require(address(inputToken) == address(0), \"Contract has already been initialized\");\n        inputToken = IERC20(_inputToken);\n        outputToken = IERC20(_outputToken);\n        swapRouter = ISwapRouter(_uniswapRouter);\n        swapFee = _swapFee;\n    }\n\n    /**\n     * @dev Emitted when a new position is created.\n     * @param sender The address of the user who created the position.\n     * @param name The name of the position created.\n     * @param date The timestamp of when the event was emitted.\n     */\n    event PositionCreated(address indexed sender, address token_from, address token_to, string name, uint256 date);\n\n    /**\n     * @dev Emitted when the status of a position is changed.\n     * @param sender The address of the user who changed the position status.\n     * @param name The name of the position whose status was changed.\n     * @param status The new status of the position.\n     * @param date The timestamp of when the event was emitted.\n     */\n    event PositionStatusChanged(\n        address indexed sender, address token_from, address token_to, string name, Status status, uint256 date\n    );\n\n    /**\n     * @dev Emitted when a DCA is executed.\n     * @param user The address of the user who executed the DCA.\n     * @param name The name of the position associated with the DCA.\n     * @param token_from The address of the ERC20 token being swapped from.\n     * @param token_to The address of the ERC20 token being swapped to.\n     * @param amountToSwap The amount of token_from being swapped.\n     * @param amountSwapped The amount of token_to received in the swap.\n     * @param date The timestamp of when the event was emitted.\n     */\n    event DCAExecuted(\n        address user,\n        string name,\n        address token_from,\n        address token_to,\n        uint256 amountToSwap,\n        uint256 amountSwapped,\n        uint256 date\n    );\n\n    modifier positionExists(string memory _positionName) {\n        _positionExists(_positionName);\n        _;\n    }\n\n    function _positionExists(string memory _positionName) internal view {\n        require(accounts[msg.sender].positions[_positionName].createdTimestamp > 0, \"Position doesn't exist\");\n    }\n\n    /**\n     * @dev Returns a boolean indicating whether a user with the specified address exists in the `accounts` mapping.\n     * @param _userAddress The address of the user to check.\n     * @return True if the user exists, false otherwise.\n     */\n    function _userExists(address _userAddress) internal view returns (bool) {\n        return\n            (accounts[_userAddress].positionsKeys.length > 0 || accounts[_userAddress].closedPositionsKeys.length > 0);\n    }\n\n    /**\n     * @dev Executes the DCA strategy for all active positions of all accounts.\n     * Checks if the current time is greater than the last purchase timestamp\n     * plus the interval of the position. If so, executes a swap of the amountPerSwap\n     * for the token_from in the position's pair to the token_to in the pair,\n     * subtracts the swap fee from the amount and adds it to the feesBalances,\n     * and updates the balances and status of the position.\n     * If the amountPerSwap is greater than the remaining amount to swap,\n     * pauses the position and emits a PositionStatusChanged event.\n     * Emits a DCAExecuted event on successful execution of the swap.\n     */\n    function _executeIndividualDCA() internal {\n        for (uint256 i = 0; i < userAddresses.length; i++) {\n            uint256 posKeysLength = accounts[userAddresses[i]].positionsKeys.length;\n            console.log(\"boucle1!!!!!!!!!\");\n            for (uint256 j = 0; j < posKeysLength; j++) {\n                string memory positionName = accounts[userAddresses[i]].positionsKeys[j];\n                Position memory position = accounts[userAddresses[i]].positions[positionName];\n                console.log(\"boucle2!!!!!!!!!\");\n                if (\n                    position.status == Status.Active\n                        && block.timestamp > (position.lastPurchaseTimestamp + position.interval)\n                ) {\n                    console.log(\"if1!!!!!!!!!\");\n\n                    if (position.amountPerSwap > (position.totalAmountToSwap - position.SwappedFromBalance)) {\n                        accounts[userAddresses[i]].positions[positionName].status = Status.Pause;\n                        console.log(\"if2!!!!!!!!!\");\n\n                        emit PositionStatusChanged(\n                            userAddresses[i],\n                            address(inputToken),\n                            address(outputToken),\n                            positionName,\n                            Status.Pause,\n                            block.timestamp\n                        );\n                        console.log(\"if2.1!!!!!!!!!\");\n                    } else {\n                        console.log(\"else1!!!!!!!!!\");\n\n                        console.log(\"!!!!!!!!!inputtoken %s\",\n                            address(inputToken)\n                        );\n                        console.log(\"!!!!!!!!!userAddresses %s\",\n                            userAddresses[i]\n                        );\n                        console.log(\"!!!!!!!!!address(this) %s\",\n                           address(this)\n                        );\n                        console.log(\"!!!!!!!!!amountPerSwap %d\",\n                           position.amountPerSwap\n                        );\n                        \n                        accounts[userAddresses[i]].positions[positionName].status = Status.Locked;\n                        SafeERC20.safeTransferFrom(inputToken, userAddresses[i], address(this), position.amountPerSwap);\n                        console.log(\"safe!!!!!!!!!\");\n                        uint256 swapFees = (position.amountPerSwap * swapFee / 10000);\n                        uint256 amoutPerSwapAfterFees = position.amountPerSwap - (swapFees);\n                        console.log(\"avantSwap!!!!!!!!!\");\n                        uint256 resultSwap = _swap(amoutPerSwapAfterFees, position.recipient);\n                        console.log(\"apresSwap!!!!!!!!!\");\n                        feesBalances[inputToken] += swapFees;\n                        if (position.mode == DcaMode.Limited) {\n                            accounts[userAddresses[i]].positions[positionName].dcaIterations -= 1;\n                            console.log(\"else2!!!!!!!!!\");\n                        }\n                        accounts[userAddresses[i]].positions[positionName].SwappedToBalance += resultSwap;\n                        accounts[userAddresses[i]].positions[positionName].SwappedFromBalance += position.amountPerSwap;\n                        accounts[userAddresses[i]].positions[positionName].status = Status.Active;\n                        accounts[userAddresses[i]].positions[positionName].lastPurchaseTimestamp = block.timestamp;\n                        console.log(\"else3!!!!!!!!!\");\n                        emit DCAExecuted(\n                            userAddresses[i],\n                            positionName,\n                            address(inputToken),\n                            address(outputToken),\n                            position.amountPerSwap,\n                            resultSwap,\n                            block.timestamp\n                        );\n                        console.log(\"else4!!!!!!!!!\");\n                    }\n                }\n            }\n        }\n    }\n\n    function _swap(uint256 _amount, address _receiver) internal returns (uint256) {\n        require(inputToken.balanceOf(address(this)) > _amount, \"Insufficient balance of origin Token\");\n\n        inputToken.approve(address(swapRouter), _amount);\n\n        ISwapRouter.ExactInputSingleParams memory params = ISwapRouter.ExactInputSingleParams({\n            tokenIn: address(inputToken),\n            tokenOut: address(outputToken),\n            fee: 3000,\n            recipient: _receiver,\n            deadline: block.timestamp + 1800,\n            amountIn: _amount,\n            amountOutMinimum: 0,\n            sqrtPriceLimitX96: 0\n        });\n\n        if (_amount != 0) {\n            return swapRouter.exactInputSingle(params);\n        } else {\n            return 0;\n        }\n    }\n\n    // don't forget to add a removing for approve ( for example mister T approved 1000 USD but stop position after 800 USD. We need to remove 200 USD of allowance)\n    function _closePosition(address _user, string calldata _name) internal {\n        accounts[_user].positions[_name].status = Status.Closed;\n        accounts[_user].closedPositionsKeys.push(_name);\n        accounts[_user].closedPositions[_name] = accounts[_user].positions[_name];\n        delete(accounts[_user].positions[_name]);\n        uint256 posKeysLength = accounts[_user].positionsKeys.length;\n        for (uint256 i = 0; i < posKeysLength; i++) {\n            string memory _key = accounts[_user].positionsKeys[i];\n            if (keccak256(abi.encodePacked(_name)) == keccak256(abi.encodePacked(_key))) {\n                accounts[_user].positionsKeys[i] = accounts[_user].positionsKeys[posKeysLength - 1];\n                accounts[_user].positionsKeys.pop();\n                break;\n            }\n        }\n        emit PositionStatusChanged(\n            _user, address(inputToken), address(outputToken), _name, Status.Closed, block.timestamp\n        );\n    }\n\n    /**\n     * @dev Create a new position for the user.\n     * @param _name The name of the position.\n     * @param _totalAmountToSwap The total amount to swap for the position.\n     * @param _interval The interval for DCA swaps.\n     * @param _amountPerSwap The amount to swap per DCA iteration.\n     * @param _dcaIterations The number of DCA iterations.\n     * Requirements:\n     * - The name must be set.\n     * - The position does not already exist for the user.\n     * - The interval exists in intervalsAvailable.\n     * - The total amount to swap is greater than 0.\n     * - Either the amount per swap or the number of DCA iterations is set, but not both.\n     */\n    function createPosition(\n        string calldata _name,\n        uint256 _totalAmountToSwap,\n        uint256 _interval,\n        uint256 _amountPerSwap,\n        uint256 _dcaIterations\n    ) external {\n        require(bytes(_name).length > 0, \"name must be set\");\n        require(accounts[msg.sender].positions[_name].createdTimestamp == 0, \"Position is already existing\");\n        require(_interval >= 3, \"this interval is not allowed\"); // in production mode 86400\n        require(_totalAmountToSwap > 0, \"No amount set for DCA\");\n        require(\n            (_amountPerSwap == 0 && _dcaIterations != 0) || (_amountPerSwap != 0 && _dcaIterations == 0),\n            \"Set only amount per swap or number of iterations\"\n        );\n\n        console.log(\"pouuuuuuuuuuuuuuuuuuet!!!!!!!!!\");\n\n        // uint256 totalToSwapAfterFees = _totalAmountToSwap - (_totalAmountToSwap * depositFee / 10000);\n        uint256 amountPerSwap =\n            _amountPerSwap > 0 ? _amountPerSwap : ((_totalAmountToSwap * 10000) / _dcaIterations) / 10000;\n\n        //SafeERC20.safeTransferFrom(inputToken, msg.sender, address(this), _totalAmountToSwap);\n        // uint256 allowanceAmount = _pair.token_from.allowance(address(_pair.token_from), msg.sender);\n        // if ( allowanceAmount == 0) {\n        //     SafeERC20.safeApprove(_pair.token_from, msg.sender, _totalAmountToSwap);\n        // } else {\n        //     SafeERC20.safeIncreaseAllowance(_pair.token_from, msg.sender, _totalAmountToSwap);\n        // }\n\n        if (!_userExists(msg.sender)) {\n            userAddresses.push(msg.sender);\n        }\n        accounts[msg.sender].positions[_name] = Position(\n            _name,\n            _totalAmountToSwap,\n            _interval,\n            _dcaIterations,\n            amountPerSwap,\n            block.timestamp,\n            block.timestamp,\n            0,\n            0,\n            Status.Active,\n            msg.sender,\n            _dcaIterations == 0 ? DcaMode.Unlimited : DcaMode.Limited\n        );\n\n        accounts[msg.sender].positionsKeys.push(_name);\n\n        emit PositionCreated(msg.sender, address(inputToken), address(outputToken), _name, block.timestamp);\n    }\n\n    /**\n     * @dev Set the status of a user's position.\n     * @param _name The name of the position to update.\n     * @param _status The new status of the position.\n     * Emits a {PositionStatusChanged} event.\n     * Requirements:\n     * - The position must exist.\n     */\n    function setPositionStatus(string calldata _name, Status _status) external positionExists(_name) {\n        accounts[msg.sender].positions[_name].status = _status;\n        emit PositionStatusChanged(\n            msg.sender, address(inputToken), address(outputToken), _name, Status.Pause, block.timestamp\n        );\n    }\n\n    /**\n     * @dev Close a position and transfer any remaining tokens back to the user's wallet.\n     * @param _name The ID of the position to close.\n     * Requirements:\n     * - The position must exist.\n     * - The position must not be locked.\n     */\n    function closePosition(string calldata _name) external positionExists(_name) {\n        _closePosition(msg.sender, _name);\n    }\n\n    /**\n     * @dev Claim all fees collected by the contract.\n     * Requirements:\n     * - The caller must be the contract owner.\n     */\n    function claimFees() external onlyOwner returns (uint256 fees) {\n        fees = feesBalances[inputToken];\n        if (inputToken.balanceOf(address(this)) >= fees) {\n            SafeERC20.safeTransfer(inputToken, msg.sender, fees);\n            feesBalances[inputToken] = 0;\n        } else {\n            revert(\"No sufficient funds on contract to get fees\");\n        }\n    }\n\n    /**\n     * @dev Get a position by name.\n     * @param _name The name of the position to get.\n     * @return The position object.\n     */\n    function getPosition(string calldata _name) external view returns (Position memory) {\n        return accounts[msg.sender].positions[_name];\n    }\n\n    /**\n     * @dev Execute swaps for all individual and staked DCA positions.\n     * Requirements:\n     * - The caller must be the contract owner.\n     */\n    function executeSwap() external onlyOwner {\n        _executeIndividualDCA();\n    }\n}\n",
  "sourcePath": "/home/sjouany/ProjetFinal/HodlUp/truffle/contracts/DcaHodlup.sol",
  "compiler": {
    "name": "solc",
    "version": "0.8.18+commit.87f61d96.Emscripten.clang"
  },
  "schemaVersion": "3.4.13",
  "updatedAt": "2023-09-04T21:28:42.934Z",
  "devdoc": {
    "details": "This contract is used for hodling tokens and executing automated periodic swaps.",
    "events": {
      "DCAExecuted(address,string,address,address,uint256,uint256,uint256)": {
        "details": "Emitted when a DCA is executed.",
        "params": {
          "amountSwapped": "The amount of token_to received in the swap.",
          "amountToSwap": "The amount of token_from being swapped.",
          "date": "The timestamp of when the event was emitted.",
          "name": "The name of the position associated with the DCA.",
          "token_from": "The address of the ERC20 token being swapped from.",
          "token_to": "The address of the ERC20 token being swapped to.",
          "user": "The address of the user who executed the DCA."
        }
      },
      "PositionCreated(address,address,address,string,uint256)": {
        "details": "Emitted when a new position is created.",
        "params": {
          "date": "The timestamp of when the event was emitted.",
          "name": "The name of the position created.",
          "sender": "The address of the user who created the position."
        }
      },
      "PositionStatusChanged(address,address,address,string,uint8,uint256)": {
        "details": "Emitted when the status of a position is changed.",
        "params": {
          "date": "The timestamp of when the event was emitted.",
          "name": "The name of the position whose status was changed.",
          "sender": "The address of the user who changed the position status.",
          "status": "The new status of the position."
        }
      }
    },
    "kind": "dev",
    "methods": {
      "claimFees()": {
        "details": "Claim all fees collected by the contract. Requirements: - The caller must be the contract owner."
      },
      "closePosition(string)": {
        "details": "Close a position and transfer any remaining tokens back to the user's wallet.",
        "params": {
          "_name": "The ID of the position to close. Requirements: - The position must exist. - The position must not be locked."
        }
      },
      "createPosition(string,uint256,uint256,uint256,uint256)": {
        "details": "Create a new position for the user.",
        "params": {
          "_amountPerSwap": "The amount to swap per DCA iteration.",
          "_dcaIterations": "The number of DCA iterations. Requirements: - The name must be set. - The position does not already exist for the user. - The interval exists in intervalsAvailable. - The total amount to swap is greater than 0. - Either the amount per swap or the number of DCA iterations is set, but not both.",
          "_interval": "The interval for DCA swaps.",
          "_name": "The name of the position.",
          "_totalAmountToSwap": "The total amount to swap for the position."
        }
      },
      "executeSwap()": {
        "details": "Execute swaps for all individual and staked DCA positions. Requirements: - The caller must be the contract owner."
      },
      "getPosition(string)": {
        "details": "Get a position by name.",
        "params": {
          "_name": "The name of the position to get."
        },
        "returns": {
          "_0": "The position object."
        }
      },
      "initialize(address,address,address,uint256)": {
        "details": "HodlUpHub constructor.",
        "params": {
          "_swapFee": "Swap fee percentage charged from each swap.",
          "_uniswapRouter": "Address of the Uniswap router contract."
        }
      },
      "owner()": {
        "details": "Returns the address of the current owner."
      },
      "renounceOwnership()": {
        "details": "Leaves the contract without owner. It will not be possible to call `onlyOwner` functions anymore. Can only be called by the current owner. NOTE: Renouncing ownership will leave the contract without an owner, thereby removing any functionality that is only available to the owner."
      },
      "setPositionStatus(string,uint8)": {
        "details": "Set the status of a user's position.",
        "params": {
          "_name": "The name of the position to update.",
          "_status": "The new status of the position. Emits a {PositionStatusChanged} event. Requirements: - The position must exist."
        }
      },
      "transferOwnership(address)": {
        "details": "Transfers ownership of the contract to a new account (`newOwner`). Can only be called by the current owner."
      }
    },
    "stateVariables": {
      "accounts": {
        "details": "Mapping that stores information about each user."
      },
      "feesBalances": {
        "details": "Mapping that stores the balances of fees collected for each ERC20 token."
      },
      "inputToken": {
        "details": "The available pairs for swapping."
      },
      "swapFee": {
        "details": "Represents the fee percentage taken for swaps.      To avoid rounding errors, the percentage is multiplied by 10000.      For example, 1% is represented by 100."
      },
      "swapRouter": {
        "details": "The Uniswap V3 router."
      },
      "userAddresses": {
        "details": "Array that stores the addresses of all registered accounts."
      }
    },
    "title": "HodlUpHub contract",
    "version": 1
  },
  "userdoc": {
    "kind": "user",
    "methods": {},
    "version": 1
  }
}