{
  "contractName": "DcaHodlup",
  "abi": [
    {
      "anonymous": false,
      "inputs": [
        {
          "indexed": false,
          "internalType": "address",
          "name": "user",
          "type": "address"
        },
        {
          "indexed": false,
          "internalType": "string",
          "name": "name",
          "type": "string"
        },
        {
          "indexed": false,
          "internalType": "address",
          "name": "token_from",
          "type": "address"
        },
        {
          "indexed": false,
          "internalType": "address",
          "name": "token_to",
          "type": "address"
        },
        {
          "indexed": false,
          "internalType": "uint256",
          "name": "amountToSwap",
          "type": "uint256"
        },
        {
          "indexed": false,
          "internalType": "uint256",
          "name": "amountSwapped",
          "type": "uint256"
        },
        {
          "indexed": false,
          "internalType": "uint256",
          "name": "date",
          "type": "uint256"
        }
      ],
      "name": "DCAExecuted",
      "type": "event"
    },
    {
      "anonymous": false,
      "inputs": [
        {
          "indexed": true,
          "internalType": "address",
          "name": "previousOwner",
          "type": "address"
        },
        {
          "indexed": true,
          "internalType": "address",
          "name": "newOwner",
          "type": "address"
        }
      ],
      "name": "OwnershipTransferred",
      "type": "event"
    },
    {
      "anonymous": false,
      "inputs": [
        {
          "indexed": true,
          "internalType": "address",
          "name": "sender",
          "type": "address"
        },
        {
          "indexed": false,
          "internalType": "address",
          "name": "token_from",
          "type": "address"
        },
        {
          "indexed": false,
          "internalType": "address",
          "name": "token_to",
          "type": "address"
        },
        {
          "indexed": false,
          "internalType": "string",
          "name": "name",
          "type": "string"
        },
        {
          "indexed": false,
          "internalType": "uint256",
          "name": "date",
          "type": "uint256"
        }
      ],
      "name": "PositionCreated",
      "type": "event"
    },
    {
      "anonymous": false,
      "inputs": [
        {
          "indexed": true,
          "internalType": "address",
          "name": "sender",
          "type": "address"
        },
        {
          "indexed": false,
          "internalType": "address",
          "name": "token_from",
          "type": "address"
        },
        {
          "indexed": false,
          "internalType": "address",
          "name": "token_to",
          "type": "address"
        },
        {
          "indexed": false,
          "internalType": "string",
          "name": "name",
          "type": "string"
        },
        {
          "indexed": false,
          "internalType": "enum DcaHodlup.Status",
          "name": "status",
          "type": "uint8"
        },
        {
          "indexed": false,
          "internalType": "uint256",
          "name": "date",
          "type": "uint256"
        }
      ],
      "name": "PositionStatusChanged",
      "type": "event"
    },
    {
      "inputs": [],
      "name": "Paraswap",
      "outputs": [
        {
          "internalType": "address",
          "name": "",
          "type": "address"
        }
      ],
      "stateMutability": "view",
      "type": "function",
      "constant": true
    },
    {
      "inputs": [],
      "name": "ParaswapProxy",
      "outputs": [
        {
          "internalType": "address",
          "name": "",
          "type": "address"
        }
      ],
      "stateMutability": "view",
      "type": "function",
      "constant": true
    },
    {
      "inputs": [],
      "name": "owner",
      "outputs": [
        {
          "internalType": "address",
          "name": "",
          "type": "address"
        }
      ],
      "stateMutability": "view",
      "type": "function",
      "constant": true
    },
    {
      "inputs": [],
      "name": "renounceOwnership",
      "outputs": [],
      "stateMutability": "nonpayable",
      "type": "function"
    },
    {
      "inputs": [],
      "name": "swapFee",
      "outputs": [
        {
          "internalType": "uint256",
          "name": "",
          "type": "uint256"
        }
      ],
      "stateMutability": "view",
      "type": "function",
      "constant": true
    },
    {
      "inputs": [
        {
          "internalType": "address",
          "name": "newOwner",
          "type": "address"
        }
      ],
      "name": "transferOwnership",
      "outputs": [],
      "stateMutability": "nonpayable",
      "type": "function"
    },
    {
      "inputs": [
        {
          "internalType": "uint256",
          "name": "",
          "type": "uint256"
        }
      ],
      "name": "userAddresses",
      "outputs": [
        {
          "internalType": "address",
          "name": "",
          "type": "address"
        }
      ],
      "stateMutability": "view",
      "type": "function",
      "constant": true
    },
    {
      "inputs": [
        {
          "internalType": "address",
          "name": "_inputToken",
          "type": "address"
        },
        {
          "internalType": "address",
          "name": "_outputToken",
          "type": "address"
        },
        {
          "internalType": "address",
          "name": "_uniswapRouter",
          "type": "address"
        },
        {
          "internalType": "uint256",
          "name": "_swapFee",
          "type": "uint256"
        }
      ],
      "name": "initialize",
      "outputs": [],
      "stateMutability": "nonpayable",
      "type": "function"
    },
    {
      "inputs": [
        {
          "internalType": "string",
          "name": "_name",
          "type": "string"
        },
        {
          "internalType": "uint256",
          "name": "_totalAmountToSwap",
          "type": "uint256"
        },
        {
          "internalType": "uint256",
          "name": "_interval",
          "type": "uint256"
        },
        {
          "internalType": "uint256",
          "name": "_amountPerSwap",
          "type": "uint256"
        },
        {
          "internalType": "uint256",
          "name": "_dcaIterations",
          "type": "uint256"
        }
      ],
      "name": "createPosition",
      "outputs": [],
      "stateMutability": "nonpayable",
      "type": "function"
    },
    {
      "inputs": [
        {
          "internalType": "string",
          "name": "_name",
          "type": "string"
        },
        {
          "internalType": "enum DcaHodlup.Status",
          "name": "_status",
          "type": "uint8"
        }
      ],
      "name": "setPositionStatus",
      "outputs": [],
      "stateMutability": "nonpayable",
      "type": "function"
    },
    {
      "inputs": [
        {
          "internalType": "string",
          "name": "_name",
          "type": "string"
        }
      ],
      "name": "closePosition",
      "outputs": [],
      "stateMutability": "nonpayable",
      "type": "function"
    },
    {
      "inputs": [],
      "name": "claimFees",
      "outputs": [
        {
          "internalType": "uint256",
          "name": "fees",
          "type": "uint256"
        }
      ],
      "stateMutability": "nonpayable",
      "type": "function"
    },
    {
      "inputs": [
        {
          "internalType": "string",
          "name": "_name",
          "type": "string"
        }
      ],
      "name": "getPosition",
      "outputs": [
        {
          "components": [
            {
              "internalType": "string",
              "name": "name",
              "type": "string"
            },
            {
              "internalType": "uint256",
              "name": "totalAmountToSwap",
              "type": "uint256"
            },
            {
              "internalType": "uint256",
              "name": "interval",
              "type": "uint256"
            },
            {
              "internalType": "uint256",
              "name": "dcaIterations",
              "type": "uint256"
            },
            {
              "internalType": "uint256",
              "name": "amountPerSwap",
              "type": "uint256"
            },
            {
              "internalType": "uint256",
              "name": "lastPurchaseTimestamp",
              "type": "uint256"
            },
            {
              "internalType": "uint256",
              "name": "createdTimestamp",
              "type": "uint256"
            },
            {
              "internalType": "uint256",
              "name": "SwappedFromBalance",
              "type": "uint256"
            },
            {
              "internalType": "uint256",
              "name": "SwappedToBalance",
              "type": "uint256"
            },
            {
              "internalType": "enum DcaHodlup.Status",
              "name": "status",
              "type": "uint8"
            },
            {
              "internalType": "address",
              "name": "recipient",
              "type": "address"
            },
            {
              "internalType": "enum DcaHodlup.DcaMode",
              "name": "mode",
              "type": "uint8"
            }
          ],
          "internalType": "struct DcaHodlup.Position",
          "name": "",
          "type": "tuple"
        }
      ],
      "stateMutability": "view",
      "type": "function",
      "constant": true
    },
    {
      "inputs": [
        {
          "internalType": "address",
          "name": "user",
          "type": "address"
        }
      ],
      "name": "getPositionsToSwap",
      "outputs": [
        {
          "components": [
            {
              "internalType": "string",
              "name": "name",
              "type": "string"
            },
            {
              "internalType": "uint256",
              "name": "totalAmountToSwap",
              "type": "uint256"
            },
            {
              "internalType": "uint256",
              "name": "interval",
              "type": "uint256"
            },
            {
              "internalType": "uint256",
              "name": "dcaIterations",
              "type": "uint256"
            },
            {
              "internalType": "uint256",
              "name": "amountPerSwap",
              "type": "uint256"
            },
            {
              "internalType": "uint256",
              "name": "lastPurchaseTimestamp",
              "type": "uint256"
            },
            {
              "internalType": "uint256",
              "name": "createdTimestamp",
              "type": "uint256"
            },
            {
              "internalType": "uint256",
              "name": "SwappedFromBalance",
              "type": "uint256"
            },
            {
              "internalType": "uint256",
              "name": "SwappedToBalance",
              "type": "uint256"
            },
            {
              "internalType": "enum DcaHodlup.Status",
              "name": "status",
              "type": "uint8"
            },
            {
              "internalType": "address",
              "name": "recipient",
              "type": "address"
            },
            {
              "internalType": "enum DcaHodlup.DcaMode",
              "name": "mode",
              "type": "uint8"
            }
          ],
          "internalType": "struct DcaHodlup.Position[]",
          "name": "",
          "type": "tuple[]"
        }
      ],
      "stateMutability": "view",
      "type": "function",
      "constant": true
    },
    {
      "inputs": [],
      "name": "executeSwap",
      "outputs": [],
      "stateMutability": "nonpayable",
      "type": "function"
    },
    {
      "inputs": [
        {
          "internalType": "address",
          "name": "_userAddress",
          "type": "address"
        },
        {
          "internalType": "address",
          "name": "_inputToken",
          "type": "address"
        },
        {
          "internalType": "uint256",
          "name": "_amount",
          "type": "uint256"
        },
        {
          "internalType": "address",
          "name": "_outputToken",
          "type": "address"
        },
        {
          "internalType": "address",
          "name": "receiver",
          "type": "address"
        },
        {
          "internalType": "bytes",
          "name": "_swapdata",
          "type": "bytes"
        }
      ],
      "name": "swapIt",
      "outputs": [],
      "stateMutability": "nonpayable",
      "type": "function"
    }
  ],
  "bytecode": "0x608060405234801561001057600080fd5b5061001a3361001f565b61006f565b600080546001600160a01b038381166001600160a01b0319831681178455604051919092169283917f8be0079c531659141344cd1fd0a4f28419497f9722a3daafe3b4186f6b6457e09190a35050565b612d21806200007f6000396000f3fe608060405234801561001057600080fd5b50600436106101005760003560e01c806399b240ac11610097578063d294f09311610066578063d294f09314610212578063d2ad50031461021a578063d816b2041461022d578063f2fde38b1461024057600080fd5b806399b240ac146101c65780639c89bb3d146101d9578063c6ac4339146101ec578063cf756fdf146101ff57600080fd5b8063599f5810116100d3578063599f581014610190578063715018a61461019a5780638204b199146101a25780638da5cb5b146101b557600080fd5b806310fb6fc11461010557806316aab88f1461012e578063502c9bd51461014e57806354cf2aeb14610179575b600080fd5b610118610113366004612396565b610253565b6040516101259190612513565b60405180910390f35b61014161013c366004612544565b610400565b604051610125919061255f565b61016161015c3660046125c1565b6106ec565b6040516001600160a01b039091168152602001610125565b61018260075481565b604051908152602001610125565b610198610716565b005b610198610728565b600a54610161906001600160a01b031681565b6000546001600160a01b0316610161565b6101986101d43660046125da565b61073a565b6101986101e7366004612396565b61090c565b600b54610161906001600160a01b031681565b61019861020d36600461266a565b61095e565b610182610a4c565b6101986102283660046126b5565b610b6a565b61019861023b366004612710565b610c5b565b61019861024e366004612544565b611120565b61025b61228d565b3360009081526004602052604090819020905161027b9085908590612772565b9081526020016040518091039020604051806101800160405290816000820180546102a590612782565b80601f01602080910402602001604051908101604052809291908181526020018280546102d190612782565b801561031e5780601f106102f35761010080835404028352916020019161031e565b820191906000526020600020905b81548152906001019060200180831161030157829003601f168201915b50505091835250506001820154602082015260028201546040820152600380830154606083015260048301546080830152600583015460a0830152600683015460c0830152600783015460e0830152600883015461010083015260098301546101209092019160ff169081111561039757610397612428565b60038111156103a8576103a8612428565b8152600982015461010081046001600160a01b03166020830152604090910190600160a81b900460ff1660018111156103e3576103e3612428565b60018111156103f4576103f4612428565b90525090505b92915050565b606061040a611199565b6001600160a01b0382166000908152600460205260408120600181015490916060905b828110156106e157600084600101828154811061044c5761044c6127bc565b90600052602060002001805461046190612782565b80601f016020809104026020016040519081016040528092919081815260200182805461048d90612782565b80156104da5780601f106104af576101008083540402835291602001916104da565b820191906000526020600020905b8154815290600101906020018083116104bd57829003601f168201915b50505050509050600085600001826040516104f591906127d2565b90815260405190819003602001902090506000600982015460ff16600381111561052157610521612428565b14801561054057508060020154816005015461053d9190612804565b42115b156106cc57806040518061018001604052908160008201805461056290612782565b80601f016020809104026020016040519081016040528092919081815260200182805461058e90612782565b80156105db5780601f106105b0576101008083540402835291602001916105db565b820191906000526020600020905b8154815290600101906020018083116105be57829003601f168201915b50505091835250506001820154602082015260028201546040820152600380830154606083015260048301546080830152600583015460a0830152600683015460c0830152600783015460e0830152600883015461010083015260098301546101209092019160ff169081111561065457610654612428565b600381111561066557610665612428565b8152600982015461010081046001600160a01b03166020830152604090910190600160a81b900460ff1660018111156106a0576106a0612428565b60018111156106b1576106b1612428565b905250845185906106c06127bc565b60200260200101819052505b505080806106d990612817565b91505061042d565b50925050505b919050565b600581815481106106fc57600080fd5b6000918252602090912001546001600160a01b0316905081565b61071e611199565b6107266111f3565b565b610730611199565b610726600061161b565b6107468688308861166b565b600a5461075e9087906001600160a01b0316876116dc565b6040516370a0823160e01b81523060048201526000906001600160a01b038616906370a0823190602401602060405180830381865afa1580156107a5573d6000803e3d6000fd5b505050506040513d601f19601f820116820180604052508101906107c99190612830565b600b546040519192506000916001600160a01b03909116906107ee9086908690612772565b6000604051808303816000865af19150503d806000811461082b576040519150601f19603f3d011682016040523d82523d6000602084013e610830565b606091505b50509050806108765760405162461bcd60e51b815260206004820152600d60248201526c4661696c6564206174206f6e6560981b60448201526064015b60405180910390fd5b6040516370a0823160e01b81523060048201526000906001600160a01b038816906370a0823190602401602060405180830381865afa1580156108bd573d6000803e3d6000fd5b505050506040513d601f19601f820116820180604052508101906108e19190612830565b905082811115610900576109008730886108fb8786612849565b61166b565b50505050505050505050565b81818080601f01602080910402602001604051908101604052809392919081815260200183838082843760009201919091525061094e925083915061178e9050565b610959338484611803565b505050565b6001546001600160a01b0316156109c55760405162461bcd60e51b815260206004820152602560248201527f436f6e74726163742068617320616c7265616479206265656e20696e697469616044820152641b1a5e995960da1b606482015260840161086d565b600180546001600160a01b039586166001600160a01b0319918216179091556002805494861694821694909417909355600380549290941691831691909117909255600791909155600a8054821673216b4b4ba9f3e719726886d34a177484278bfcae179055600b805490911673def171fe48cf0115b1d80b88dc8eab59176fee57179055565b6000610a56611199565b506001546001600160a01b0316600081815260066020526040908190205490516370a0823160e01b8152306004820152909182916370a0823190602401602060405180830381865afa158015610ab0573d6000803e3d6000fd5b505050506040513d601f19601f82011682018060405250810190610ad49190612830565b10610b0e57600154610af0906001600160a01b03163383611d33565b6001546001600160a01b031660009081526006602052604081205590565b60405162461bcd60e51b815260206004820152602b60248201527f4e6f2073756666696369656e742066756e6473206f6e20636f6e74726163742060448201526a746f20676574206665657360a81b606482015260840161086d565b82828080601f016020809104026020016040519081016040528093929190818152602001838380828437600092019190915250610bac925083915061178e9050565b33600090815260046020526040908190209051839190610bcf9087908790612772565b908152604051908190036020019020600901805460ff19166001836003811115610bfb57610bfb612428565b02179055506001805460025460405133937f0aeed090124458b07ced6994263a843236db56546c55434529a62a575818833f93610c4d936001600160a01b03918216939116918a918a91904290612885565b60405180910390a250505050565b84610c9b5760405162461bcd60e51b815260206004820152601060248201526f1b985b59481b5d5cdd081899481cd95d60821b604482015260640161086d565b33600090815260046020526040908190209051610cbb9088908890612772565b908152602001604051809103902060060154600014610d1c5760405162461bcd60e51b815260206004820152601c60248201527f506f736974696f6e20697320616c7265616479206578697374696e6700000000604482015260640161086d565b6003831015610d6d5760405162461bcd60e51b815260206004820152601c60248201527f7468697320696e74657276616c206973206e6f7420616c6c6f77656400000000604482015260640161086d565b60008411610db55760405162461bcd60e51b81526020600482015260156024820152744e6f20616d6f756e742073657420666f722044434160581b604482015260640161086d565b81158015610dc257508015155b80610dd557508115801590610dd5575080155b610e3a5760405162461bcd60e51b815260206004820152603060248201527f536574206f6e6c7920616d6f756e74207065722073776170206f72206e756d6260448201526f6572206f6620697465726174696f6e7360801b606482015260840161086d565b6000808311610e6a5761271082610e5187836128d2565b610e5b91906128e9565b610e6591906128e9565b610e6c565b825b9050610e7733611d63565b610ebe57600580546001810182556000919091527f036b6384b5eca791c62761152d0c79bb0604c104a5fb6f4eb0703f3154bb3db00180546001600160a01b031916331790555b60405180610180016040528088888080601f0160208091040260200160405190810160405280939291908181526020018383808284376000920182905250938552505050602082018890526040820187905260608201859052608082018490524260a0830181905260c083015260e08201819052610100820181905261012082015233610140820152610160018315610f58576000610f5b565b60015b6001811115610f6c57610f6c612428565b905233600090815260046020526040908190209051610f8e908a908a90612772565b90815260405190819003602001902081518190610fab9082612984565b506020820151816001015560408201518160020155606082015181600301556080820151816004015560a0820151816005015560c0820151816006015560e0820151816007015561010082015181600801556101208201518160090160006101000a81548160ff0219169083600381111561102857611028612428565b02179055506101408201516009820180546001600160a01b0390921661010002610100600160a81b03198316811782556101608501519260ff60a81b19909116610100600160b01b031990911617600160a81b83600181111561108d5761108d612428565b0217905550503360009081526004602090815260408220600190810180549182018155835291200190506110c2878983612a3e565b5060015460025460405133927f2c7b57ffa9ff86280c81f437c215c7efeb16c055c6ea6e9b892af17cb10f9bcf9261110f926001600160a01b0392831692909116908c908c904290612af9565b60405180910390a250505050505050565b611128611199565b6001600160a01b03811661118d5760405162461bcd60e51b815260206004820152602660248201527f4f776e61626c653a206e6577206f776e657220697320746865207a65726f206160448201526564647265737360d01b606482015260840161086d565b6111968161161b565b50565b6000546001600160a01b031633146107265760405162461bcd60e51b815260206004820181905260248201527f4f776e61626c653a2063616c6c6572206973206e6f7420746865206f776e6572604482015260640161086d565b60005b6005548110156111965760006004600060058481548110611219576112196127bc565b60009182526020808320909101546001600160a01b0316835282019290925260400181206001810154909250905b81811015611605576000836001018281548110611266576112666127bc565b90600052602060002001805461127b90612782565b80601f01602080910402602001604051908101604052809291908181526020018280546112a790612782565b80156112f45780601f106112c9576101008083540402835291602001916112f4565b820191906000526020600020905b8154815290600101906020018083116112d757829003601f168201915b505050505090506000846000018260405161130f91906127d2565b90815260405190819003602001902090506000600982015460ff16600381111561133b5761133b612428565b14801561135a5750806002015481600501546113579190612804565b42115b156115f0576000816007015482600101546113759190612849565b9050808260040154111561140c5760098201805460ff1916600117905560058054889081106113a6576113a66127bc565b600091825260209091200154600180546002546040516001600160a01b03948516947f0aeed090124458b07ced6994263a843236db56546c55434529a62a575818833f946113ff94821693909116918991904290612b38565b60405180910390a26115ee565b60098201805460ff19166003179055600482015460015460058054611462926001600160a01b031691908b908110611446576114466127bc565b6000918252602090912001546001600160a01b0316308461166b565b60006127106007548361147591906128d2565b61147f91906128e9565b9050600061148d8284612849565b905060006114b2828760090160019054906101000a90046001600160a01b0316611da8565b6001546001600160a01b03166000908152600660205260408120805492935085929091906114e1908490612804565b90915550600090506009870154600160a81b900460ff16600181111561150957611509612428565b036115295760018660030160008282546115239190612849565b90915550505b8086600801600082825461153d9190612804565b92505081905550838660070160008282546115589190612804565b909155505060098601805460ff191690554260058088019190915580547fb59d2884dc4704cee22474623144a36d0c59d281b8eb5a128761e0132569139391908d9081106115a8576115a86127bc565b6000918252602090912001546001546002546040516115e1936001600160a01b03908116938d93908216929116908a9088904290612b83565b60405180910390a1505050505b505b505080806115fd90612817565b915050611247565b505050808061161390612817565b9150506111f6565b600080546001600160a01b038381166001600160a01b0319831681178455604051919092169283917f8be0079c531659141344cd1fd0a4f28419497f9722a3daafe3b4186f6b6457e09190a35050565b6040516001600160a01b03808516602483015283166044820152606481018290526116d69085906323b872dd60e01b906084015b60408051601f198184030181529190526020810180516001600160e01b03166001600160e01b03199093169290921790915261202b565b50505050565b604051636eb1769f60e11b81523060048201526001600160a01b038381166024830152600091839186169063dd62ed3e90604401602060405180830381865afa15801561172d573d6000803e3d6000fd5b505050506040513d601f19601f820116820180604052508101906117519190612830565b61175b9190612804565b6040516001600160a01b0385166024820152604481018290529091506116d690859063095ea7b360e01b9060640161169f565b3360009081526004602052604080822090516117ab9084906127d2565b908152602001604051809103902060060154116111965760405162461bcd60e51b8152602060048201526016602482015275141bdcda5d1a5bdb88191bd95cdb89dd08195e1a5cdd60521b604482015260640161086d565b6001600160a01b038316600090815260046020526040908190209051600291906118309085908590612772565b908152604051908190036020019020600901805460ff1916600183600381111561185c5761185c612428565b02179055506001600160a01b038316600090815260046020908152604082206003018054600181018255908352912001611897828483612a3e565b506001600160a01b0383166000908152600460205260409081902090516118c19084908490612772565b908152602001604051809103902060046000856001600160a01b03166001600160a01b031681526020019081526020016000206002018383604051611907929190612772565b908152604051908190036020019020806119218382612bd3565b5060018201548160010155600282015481600201556003820154816003015560048201548160040155600582015481600501556006820154816006015560078201548160070155600882015481600801556009820160009054906101000a900460ff168160090160006101000a81548160ff021916908360038111156119a9576119a9612428565b02179055506009828101805491830180546001600160a01b036101009485900416909302610100600160a81b0319841681178255915460ff600160a81b918290041693919260ff60a81b1916610100600160b01b03199092169190911790836001811115611a1957611a19612428565b021790555050506001600160a01b038316600090815260046020526040908190209051611a499084908490612772565b9081526040519081900360200190206000611a6482826122ff565b50600060018281018290556002830182905560038301829055600480840183905560058401839055600684018390556007840183905560088401839055600990930180546001600160b01b03191690556001600160a01b03861682526020929092526040812090910154905b81811015611ce2576001600160a01b0385166000908152600460205260408120600101805483908110611b0557611b056127bc565b906000526020600020018054611b1a90612782565b80601f0160208091040260200160405190810160405280929190818152602001828054611b4690612782565b8015611b935780601f10611b6857610100808354040283529160200191611b93565b820191906000526020600020905b815481529060010190602001808311611b7657829003601f168201915b5050505050905080604051602001611bab91906127d2565b604051602081830303815290604052805190602001208585604051602001611bd4929190612772565b6040516020818303038152906040528051906020012003611ccf576001600160a01b0386166000908152600460205260409020600190810190611c179085612849565b81548110611c2757611c276127bc565b9060005260206000200160046000886001600160a01b03166001600160a01b031681526020019081526020016000206001018381548110611c6a57611c6a6127bc565b906000526020600020019081611c809190612bd3565b506001600160a01b0386166000908152600460205260409020600101805480611cab57611cab612ca0565b600190038181906000526020600020016000611cc791906122ff565b905550611ce2565b5080611cda81612817565b915050611ad0565b50600154600280546040516001600160a01b03888116947f0aeed090124458b07ced6994263a843236db56546c55434529a62a575818833f94610c4d94918316939290911691899189914290612885565b6040516001600160a01b03831660248201526044810182905261095990849063a9059cbb60e01b9060640161169f565b6001600160a01b0381166000908152600460205260408120600101541515806103fa5750506001600160a01b0316600090815260046020526040902060030154151590565b6001546040516370a0823160e01b815230600482015260009184916001600160a01b03909116906370a0823190602401602060405180830381865afa158015611df5573d6000803e3d6000fd5b505050506040513d601f19601f82011682018060405250810190611e199190612830565b11611e725760405162461bcd60e51b8152602060048201526024808201527f496e73756666696369656e742062616c616e6365206f66206f726967696e205460448201526337b5b2b760e11b606482015260840161086d565b60015460035460405163095ea7b360e01b81526001600160a01b0391821660048201526024810186905291169063095ea7b3906044016020604051808303816000875af1158015611ec7573d6000803e3d6000fd5b505050506040513d601f19601f82011682018060405250810190611eeb9190612cb6565b5060408051610100810182526001546001600160a01b03908116825260025481166020830152610bb892820192909252908316606082015260009060808101611f3642610708612804565b81526020810186905260006040820181905260609091015290508315612021576003546040805163414bf38960e01b815283516001600160a01b0390811660048301526020850151811660248301529184015162ffffff1660448201526060840151821660648201526080840151608482015260a084015160a482015260c084015160c482015260e0840151821660e482015291169063414bf38990610104016020604051808303816000875af1158015611ff5573d6000803e3d6000fd5b505050506040513d601f19601f820116820180604052508101906120199190612830565b9150506103fa565b60009150506103fa565b6000612080826040518060400160405280602081526020017f5361666545524332303a206c6f772d6c6576656c2063616c6c206661696c6564815250856001600160a01b03166120fd9092919063ffffffff16565b805190915015610959578080602001905181019061209e9190612cb6565b6109595760405162461bcd60e51b815260206004820152602a60248201527f5361666545524332303a204552433230206f7065726174696f6e20646964206e6044820152691bdd081cdd58d8d9595960b21b606482015260840161086d565b606061210c8484600085612114565b949350505050565b6060824710156121755760405162461bcd60e51b815260206004820152602660248201527f416464726573733a20696e73756666696369656e742062616c616e636520666f6044820152651c8818d85b1b60d21b606482015260840161086d565b600080866001600160a01b0316858760405161219191906127d2565b60006040518083038185875af1925050503d80600081146121ce576040519150601f19603f3d011682016040523d82523d6000602084013e6121d3565b606091505b50915091506121e4878383876121ef565b979650505050505050565b6060831561225e578251600003612257576001600160a01b0385163b6122575760405162461bcd60e51b815260206004820152601d60248201527f416464726573733a2063616c6c20746f206e6f6e2d636f6e7472616374000000604482015260640161086d565b508161210c565b61210c83838151156122735781518083602001fd5b8060405162461bcd60e51b815260040161086d9190612cd8565b604051806101800160405280606081526020016000815260200160008152602001600081526020016000815260200160008152602001600081526020016000815260200160008152602001600060038111156122eb576122eb612428565b815260006020820181905260409091015290565b50805461230b90612782565b6000825580601f1061231b575050565b601f01602090049060005260206000209081019061119691905b808211156123495760008155600101612335565b5090565b60008083601f84011261235f57600080fd5b50813567ffffffffffffffff81111561237757600080fd5b60208301915083602082850101111561238f57600080fd5b9250929050565b600080602083850312156123a957600080fd5b823567ffffffffffffffff8111156123c057600080fd5b6123cc8582860161234d565b90969095509350505050565b60005b838110156123f35781810151838201526020016123db565b50506000910152565b600081518084526124148160208601602086016123d8565b601f01601f19169290920160200192915050565b634e487b7160e01b600052602160045260246000fd5b6004811061244e5761244e612428565b9052565b6002811061244e5761244e612428565b60006101808251818552612478828601826123fc565b9150506020830151602085015260408301516040850152606083015160608501526080830151608085015260a083015160a085015260c083015160c085015260e083015160e0850152610100808401518186015250610120808401516124e08287018261243e565b5050610140838101516001600160a01b0316908501526101608084015161250982870182612452565b5090949350505050565b6020815260006125266020830184612462565b9392505050565b80356001600160a01b03811681146106e757600080fd5b60006020828403121561255657600080fd5b6125268261252d565b6000602080830181845280855180835260408601915060408160051b870101925083870160005b828110156125b457603f198886030184526125a2858351612462565b94509285019290850190600101612586565b5092979650505050505050565b6000602082840312156125d357600080fd5b5035919050565b600080600080600080600060c0888a0312156125f557600080fd5b6125fe8861252d565b965061260c6020890161252d565b9550604088013594506126216060890161252d565b935061262f6080890161252d565b925060a088013567ffffffffffffffff81111561264b57600080fd5b6126578a828b0161234d565b989b979a50959850939692959293505050565b6000806000806080858703121561268057600080fd5b6126898561252d565b93506126976020860161252d565b92506126a56040860161252d565b9396929550929360600135925050565b6000806000604084860312156126ca57600080fd5b833567ffffffffffffffff8111156126e157600080fd5b6126ed8682870161234d565b90945092505060208401356004811061270557600080fd5b809150509250925092565b60008060008060008060a0878903121561272957600080fd5b863567ffffffffffffffff81111561274057600080fd5b61274c89828a0161234d565b909a90995060208901359860408101359850606081013597506080013595509350505050565b8183823760009101908152919050565b600181811c9082168061279657607f821691505b6020821081036127b657634e487b7160e01b600052602260045260246000fd5b50919050565b634e487b7160e01b600052603260045260246000fd5b600082516127e48184602087016123d8565b9190910192915050565b634e487b7160e01b600052601160045260246000fd5b808201808211156103fa576103fa6127ee565b600060018201612829576128296127ee565b5060010190565b60006020828403121561284257600080fd5b5051919050565b818103818111156103fa576103fa6127ee565b81835281816020850137506000828201602090810191909152601f909101601f19169091010190565b6001600160a01b0387811682528616602082015260a0604082018190526000906128b2908301868861285c565b90506128c1606083018561243e565b826080830152979650505050505050565b80820281158282048414176103fa576103fa6127ee565b60008261290657634e487b7160e01b600052601260045260246000fd5b500490565b634e487b7160e01b600052604160045260246000fd5b601f82111561095957600081815260208120601f850160051c810160208610156129485750805b601f850160051c820191505b8181101561296757828155600101612954565b505050505050565b600019600383901b1c191660019190911b1790565b815167ffffffffffffffff81111561299e5761299e61290b565b6129b2816129ac8454612782565b84612921565b602080601f8311600181146129e157600084156129cf5750858301515b6129d9858261296f565b865550612967565b600085815260208120601f198616915b82811015612a10578886015182559484019460019091019084016129f1565b5085821015612a2e5787850151600019600388901b60f8161c191681555b5050505050600190811b01905550565b67ffffffffffffffff831115612a5657612a5661290b565b612a6a83612a648354612782565b83612921565b6000601f841160018114612a985760008515612a865750838201355b612a90868261296f565b845550612af2565b600083815260209020601f19861690835b82811015612ac95786850135825560209485019460019092019101612aa9565b5086821015612ae65760001960f88860031b161c19848701351681555b505060018560011b0183555b5050505050565b6001600160a01b03868116825285166020820152608060408201819052600090612b26908301858761285c565b90508260608301529695505050505050565b6001600160a01b0386811682528516602082015260a060408201819052600090612b64908301866123fc565b9050612b73606083018561243e565b8260808301529695505050505050565b600060018060a01b03808a16835260e06020840152612ba560e084018a6123fc565b9781166040840152959095166060820152608081019390935260a083019190915260c0909101525092915050565b818103612bde575050565b612be88254612782565b67ffffffffffffffff811115612c0057612c0061290b565b612c0e816129ac8454612782565b6000601f821160018114612c3c5760008315612c2a5750848201545b612c34848261296f565b855550612af2565b600085815260209020601f19841690600086815260209020845b83811015612c765782860154825560019586019590910190602001612c56565b5085831015612a2e5793015460001960f8600387901b161c19169092555050600190811b01905550565b634e487b7160e01b600052603160045260246000fd5b600060208284031215612cc857600080fd5b8151801515811461252657600080fd5b60208152600061252660208301846123fc56fea26469706673582212204334d269b4310aa6f9d49818ec9da1a1b3c0ef52a652320a20e4fda5ecb9417864736f6c63430008120033",
  "immutableReferences": {},
  "source": "// SPDX-License-Identifier: MIT\n\npragma solidity ^0.8.18;\n\nimport \"../node_modules/@uniswap/v3-periphery/contracts/interfaces/ISwapRouter.sol\";\nimport \"../node_modules/@openzeppelin/contracts/access/Ownable.sol\";\nimport \"../node_modules/@openzeppelin/contracts/token/ERC20/IERC20.sol\";\n//import \"../node_modules/@openzeppelin/contracts/token/ERC20/ERC20.sol\";\nimport \"../node_modules/@openzeppelin/contracts/token/ERC20/utils/SafeERC20.sol\";\n//import \"../node_modules/@ganache/console.log/console.sol\";\n\nusing SafeERC20 for IERC20;\n\n/**\n * @title DcaHodlup\n * @notice A contract for DCA investment strategy with swapping functionality.\n * @dev This contract allows users to create DCA positions and execute periodic swaps using a Uniswap router.\n * @dev Users can create, manage, and close DCA positions, and the owner can execute swaps and claim fees.\n */\ncontract DcaHodlup is Ownable {\n    /**\n     * @dev Enum representing the possible status of a DCA position.\n     */\n    enum Status {\n        Active,\n        Pause,\n        Closed,\n        Locked\n    }\n    /**\n     * @dev Enum representing the DCA mode (Limited or Unlimited) for a position.\n     */\n    enum DcaMode {\n        Limited,\n        Unlimited\n    }\n\n    IERC20 inputToken;\n    IERC20 outputToken;\n\n    ISwapRouter swapRouter;\n\n    struct Account {\n        mapping(string => Position) positions;\n        string[] positionsKeys;\n        mapping(string => Position) closedPositions;\n        string[] closedPositionsKeys;\n    }\n\n    struct Position {\n        string name;\n        uint256 totalAmountToSwap;\n        uint256 interval;\n        uint256 dcaIterations;\n        uint256 amountPerSwap;\n        uint256 lastPurchaseTimestamp;\n        uint256 createdTimestamp;\n        uint256 SwappedFromBalance;\n        uint256 SwappedToBalance;\n        Status status;\n        address recipient;\n        DcaMode mode;\n    }\n\n    mapping(address => Account) accounts;\n    address[] public userAddresses;\n    mapping(IERC20 => uint256) feesBalances;\n    uint256 public swapFee;\n    uint256 private currentUserindex;\n    uint256 private operationsLimit;\n    address public ParaswapProxy;\n    address public Paraswap;\n\n    /**\n     * @dev Initializes the contract with the specified parameters.\n     * @param _inputToken Address of the input token for swaps.\n     * @param _outputToken Address of the output token for swaps.\n     * @param _uniswapRouter Address of the Uniswap router.\n     * @param _swapFee The swap fee percentage.\n     */\n    function initialize(address _inputToken, address _outputToken, address _uniswapRouter, uint256 _swapFee) public {\n        require(address(inputToken) == address(0), \"Contract has already been initialized\");\n        inputToken = IERC20(_inputToken);\n        outputToken = IERC20(_outputToken);\n        swapRouter = ISwapRouter(_uniswapRouter);\n        swapFee = _swapFee;\n        ParaswapProxy = 0x216B4B4Ba9F3e719726886d34a177484278Bfcae;\n\n        Paraswap = 0xDEF171Fe48CF0115B1d80b88dc8eAB59176FEe57;\n    }\n\n    /**\n     * @dev Event emitted when a new DCA position is created.\n     * @param sender The address of the sender.\n     * @param token_from The address of the input token.\n     * @param token_to The address of the output token.\n     * @param name The name of the DCA position.\n     * @param date The timestamp of the event.\n     */\n    event PositionCreated(address indexed sender, address token_from, address token_to, string name, uint256 date);\n\n    /**\n     * @dev Event emitted when the status of a DCA position is changed.\n     * @param sender The address of the sender.\n     * @param token_from The address of the input token.\n     * @param token_to The address of the output token.\n     * @param name The name of the DCA position.\n     * @param status The new status of the DCA position.\n     * @param date The timestamp of the event.\n     */\n    event PositionStatusChanged(\n        address indexed sender, address token_from, address token_to, string name, Status status, uint256 date\n    );\n\n    /**\n     * @dev Event emitted when a DCA is executed.\n     * @param user The address of the user.\n     * @param name The name of the DCA position.\n     * @param token_from The address of the input token.\n     * @param token_to The address of the output token.\n     * @param amountToSwap The amount to swap.\n     * @param amountSwapped The amount swapped.\n     * @param date The timestamp of the event.\n     */\n    event DCAExecuted(\n        address user,\n        string name,\n        address token_from,\n        address token_to,\n        uint256 amountToSwap,\n        uint256 amountSwapped,\n        uint256 date\n    );\n\n    /**\n     * @dev Modifier to check if a DCA position exists.\n     * @param _positionName The name of the DCA position.\n     */\n    modifier positionExists(string memory _positionName) {\n        _positionExists(_positionName);\n        _;\n    }\n\n    /**\n     * @dev Checks if a DCA position with a given name exists for the caller.\n     * @param _positionName The name of the DCA position to check.\n     */\n    function _positionExists(string memory _positionName) internal view {\n        require(accounts[msg.sender].positions[_positionName].createdTimestamp > 0, \"Position doesn't exist\");\n    }\n\n    /**\n     * @dev Checks if a user account exists based on the presence of DCA positions.\n     * @param _userAddress The address of the user to check.\n     * @return True if the user account exists, false otherwise.\n     */\n    function _userExists(address _userAddress) internal view returns (bool) {\n        return\n            (accounts[_userAddress].positionsKeys.length > 0 || accounts[_userAddress].closedPositionsKeys.length > 0);\n    }\n\n    /**\n     * @dev Executes Dollar-Cost Averaging (DCA) swaps for all active positions of all users.\n     * @dev This function iterates through user accounts and their DCA positions, executing swaps as necessary.\n     * @dev It checks the status and timing of each position to determine if a swap should be executed.\n     */\n    function _executeIndividualDCA() internal {\n        for (uint256 i = 0; i < userAddresses.length; i++) {\n            Account storage account = accounts[userAddresses[i]];\n            uint256 posKeysLength = account.positionsKeys.length;\n\n            for (uint256 j = 0; j < posKeysLength; j++) {\n                string memory positionName = account.positionsKeys[j];\n                Position storage position = account.positions[positionName];\n\n                if (\n                    position.status == Status.Active\n                        && block.timestamp > (position.lastPurchaseTimestamp + position.interval)\n                ) {\n                    uint256 remainingToSwap = position.totalAmountToSwap - position.SwappedFromBalance;\n\n                    if (position.amountPerSwap > remainingToSwap) {\n                        position.status = Status.Pause;\n                        emit PositionStatusChanged(\n                            userAddresses[i],\n                            address(inputToken),\n                            address(outputToken),\n                            positionName,\n                            Status.Pause,\n                            block.timestamp\n                        );\n                    } else {\n                        position.status = Status.Locked;\n                        uint256 swapAmount = position.amountPerSwap;\n                        SafeERC20.safeTransferFrom(inputToken, userAddresses[i], address(this), swapAmount);\n\n                        uint256 swapFees = (swapAmount * swapFee) / 10000;\n                        uint256 amountPerSwapAfterFees = swapAmount - swapFees;\n                        uint256 resultSwap = _swap(amountPerSwapAfterFees, position.recipient);\n\n                        feesBalances[inputToken] += swapFees;\n\n                        if (position.mode == DcaMode.Limited) {\n                            position.dcaIterations -= 1;\n                        }\n\n                        position.SwappedToBalance += resultSwap;\n                        position.SwappedFromBalance += swapAmount;\n                        position.status = Status.Active;\n                        position.lastPurchaseTimestamp = block.timestamp;\n\n                        emit DCAExecuted(\n                            userAddresses[i],\n                            positionName,\n                            address(inputToken),\n                            address(outputToken),\n                            swapAmount,\n                            resultSwap,\n                            block.timestamp\n                        );\n                    }\n                }\n            }\n        }\n    }\n\n    /**\n     * @dev Executes a token swap operation using the Uniswap router.\n     * @param _amount The amount of the input token to swap.\n     * @param _receiver The address to receive the swapped tokens.\n     * @return The amount of output tokens received from the swap.\n     * @notice This function swaps a specified amount of the input token for output tokens\n     * using the Uniswap router. It checks the balance of the input token to ensure sufficient funds,\n     * approves the router to spend the input token, and sets the swap parameters.\n     */\n    function _swap(uint256 _amount, address _receiver) internal returns (uint256) {\n        require(inputToken.balanceOf(address(this)) > _amount, \"Insufficient balance of origin Token\");\n\n        inputToken.approve(address(swapRouter), _amount);\n\n        ISwapRouter.ExactInputSingleParams memory params = ISwapRouter.ExactInputSingleParams({\n            tokenIn: address(inputToken),\n            tokenOut: address(outputToken),\n            fee: 3000,\n            recipient: _receiver,\n            deadline: block.timestamp + 1800,\n            amountIn: _amount,\n            amountOutMinimum: 0,\n            sqrtPriceLimitX96: 0\n        });\n\n        if (_amount != 0) {\n            return swapRouter.exactInputSingle(params);\n        } else {\n            return 0;\n        }\n    }\n\n    /**\n     * @dev Closes a Dollar-Cost Averaging (DCA) position for a user.\n     * @param _user The address of the user who owns the DCA position.\n     * @param _name The name of the DCA position to be closed.\n     * @notice This function closes a DCA position by updating its status to 'Closed', moving it\n     * to the 'closedPositions' mapping, and removing it from the 'positions' mapping for the specified user.\n     * Additionally, it updates the user's list of DCA position keys and emits an event to indicate the closure.\n     */\n    function _closePosition(address _user, string calldata _name) internal {\n        // don't forget to add a removing for approve ( for example mister T approved 1000 USD but stop position after 800 USD. We need to remove 200 USD of allowance)\n        accounts[_user].positions[_name].status = Status.Closed;\n        accounts[_user].closedPositionsKeys.push(_name);\n        accounts[_user].closedPositions[_name] = accounts[_user].positions[_name];\n        delete(accounts[_user].positions[_name]);\n        uint256 posKeysLength = accounts[_user].positionsKeys.length;\n        for (uint256 i = 0; i < posKeysLength; i++) {\n            string memory _key = accounts[_user].positionsKeys[i];\n            if (keccak256(abi.encodePacked(_name)) == keccak256(abi.encodePacked(_key))) {\n                accounts[_user].positionsKeys[i] = accounts[_user].positionsKeys[posKeysLength - 1];\n                accounts[_user].positionsKeys.pop();\n                break;\n            }\n        }\n        emit PositionStatusChanged(\n            _user, address(inputToken), address(outputToken), _name, Status.Closed, block.timestamp\n        );\n    }\n\n    /**\n     * @dev Creates a new DCA position.\n     * @param _name The name of the DCA position.\n     * @param _totalAmountToSwap The total amount to swap.\n     * @param _interval The swap interval.\n     * @param _amountPerSwap The amount to swap per interval.\n     * @param _dcaIterations The number of DCA iterations.\n     */\n    function createPosition(\n        string calldata _name,\n        uint256 _totalAmountToSwap,\n        uint256 _interval,\n        uint256 _amountPerSwap,\n        uint256 _dcaIterations\n    ) external {\n        require(bytes(_name).length > 0, \"name must be set\");\n        require(accounts[msg.sender].positions[_name].createdTimestamp == 0, \"Position is already existing\");\n        require(_interval >= 3, \"this interval is not allowed\"); // in production mode 86400\n        require(_totalAmountToSwap > 0, \"No amount set for DCA\");\n        require(\n            (_amountPerSwap == 0 && _dcaIterations != 0) || (_amountPerSwap != 0 && _dcaIterations == 0),\n            \"Set only amount per swap or number of iterations\"\n        );\n\n        uint256 amountPerSwap =\n            _amountPerSwap > 0 ? _amountPerSwap : ((_totalAmountToSwap * 10000) / _dcaIterations) / 10000;\n\n        //SafeERC20.safeTransferFrom(inputToken, msg.sender, address(this), _totalAmountToSwap);\n        // uint256 allowanceAmount = _pair.token_from.allowance(address(_pair.token_from), msg.sender);\n        // if ( allowanceAmount == 0) {\n        //     SafeERC20.safeApprove(_pair.token_from, msg.sender, _totalAmountToSwap);\n        // } else {\n        //     SafeERC20.safeIncreaseAllowance(_pair.token_from, msg.sender, _totalAmountToSwap);\n        // }\n\n        if (!_userExists(msg.sender)) {\n            userAddresses.push(msg.sender);\n        }\n        accounts[msg.sender].positions[_name] = Position(\n            _name,\n            _totalAmountToSwap,\n            _interval,\n            _dcaIterations,\n            amountPerSwap,\n            block.timestamp,\n            block.timestamp,\n            0,\n            0,\n            Status.Active,\n            msg.sender,\n            _dcaIterations == 0 ? DcaMode.Unlimited : DcaMode.Limited\n        );\n\n        accounts[msg.sender].positionsKeys.push(_name);\n\n        emit PositionCreated(msg.sender, address(inputToken), address(outputToken), _name, block.timestamp);\n    }\n\n    /**\n     * @dev Sets the status of a DCA position.\n     * @param _name The name of the DCA position.\n     * @param _status The new status of the DCA position.\n     */\n    function setPositionStatus(string calldata _name, Status _status) external positionExists(_name) {\n        accounts[msg.sender].positions[_name].status = _status;\n        emit PositionStatusChanged(\n            msg.sender, address(inputToken), address(outputToken), _name, Status.Pause, block.timestamp\n        );\n    }\n\n    /**\n     * @dev Closes a DCA position.\n     * @param _name The name of the DCA position.\n     */\n    function closePosition(string calldata _name) external positionExists(_name) {\n        _closePosition(msg.sender, _name);\n    }\n\n    /**\n     * @dev Claims accumulated fees.\n     * @return fees The fees claimed.\n     */\n    function claimFees() external onlyOwner returns (uint256 fees) {\n        fees = feesBalances[inputToken];\n        if (inputToken.balanceOf(address(this)) >= fees) {\n            SafeERC20.safeTransfer(inputToken, msg.sender, fees);\n            feesBalances[inputToken] = 0;\n        } else {\n            revert(\"No sufficient funds on contract to get fees\");\n        }\n    }\n\n    /**\n     * @dev Retrieves the details of a DCA position for the caller.\n     * @param _name The name of the DCA position to retrieve.\n     * @return Position struct containing position details.\n     */\n    function getPosition(string calldata _name) external view returns (Position memory) {\n        return accounts[msg.sender].positions[_name];\n    }\n\n    function getPositionsToSwap(address user) external view onlyOwner returns (Position[] memory) {\n        Account storage account = accounts[user];\n        uint256 posKeysLength = account.positionsKeys.length;\n        Position[] memory positionsToSwap;\n        for (uint256 j = 0; j < posKeysLength; j++) {\n            string memory positionName = account.positionsKeys[j];\n            Position storage position = account.positions[positionName];\n            if (\n                position.status == Status.Active\n                    && block.timestamp > (position.lastPurchaseTimestamp + position.interval)\n            ) {\n                positionsToSwap[positionsToSwap.length] = position;\n            }\n        }\n        return positionsToSwap;\n    }\n\n    // function getPositionsToSwap(address user) external view onlyOwner returns (Position[] memory) {\n    //     Account storage account = accounts[user];\n    //     uint256 posKeysLength = account.positionsKeys.length;\n    //     Position[] memory positionsToSwap;\n\n    //     for (uint256 j = 0; j < posKeysLength; j++) {\n    //         string memory positionName = account.positionsKeys[j];\n    //         Position storage position = account.positions[positionName];\n    //         if (\n    //             position.status == Status.Active\n    //                 && block.timestamp > (position.lastPurchaseTimestamp + position.interval)\n    //         ) {\n    //             positionsToSwap.push(position);\n    //         }\n    //     }\n    //     return positionsToSwap;\n    // }\n\n    /**\n     * @dev Executes swaps for all active DCA positions of all users.\n     * @dev Only the contract owner can execute this function.\n     */\n    function executeSwap() external onlyOwner {\n        _executeIndividualDCA();\n    }\n\n    function swapIt(\n        address _userAddress,\n        address _inputToken,\n        uint256 _amount,\n        address _outputToken,\n        address receiver,\n        bytes calldata _swapdata\n    ) external {\n        SafeERC20.safeTransferFrom(IERC20(_inputToken), _userAddress, address(this), _amount);\n        //SafeERC20.safeIncreaseAllowance(IERC20(_inputToken), ParaswapProxy, 100000000000);\n        SafeERC20.safeIncreaseAllowance(IERC20(_inputToken), ParaswapProxy, _amount);\n        ////IERC20(_inputToken).approve(ParaswapProxy, _amount);\n        uint256 balanceBefore = IERC20(_outputToken).balanceOf(address(this));\n        (bool success1,) = Paraswap.call(_swapdata);\n        require(success1, \"Failed at one\");\n        uint256 balanceAfter = IERC20(_outputToken).balanceOf(address(this));\n        if (balanceAfter > balanceBefore){\n            SafeERC20.safeTransferFrom(IERC20(_outputToken), address(this), receiver , balanceAfter - balanceBefore );\n        }\n\n        ////IERC20(_outputToken).transferFrom(address(this), receiver, _amount);\n    }\n}\n",
  "sourcePath": "/home/sjouany/ProjetFinal/HodlUp/truffle/contracts/DcaHodlup.sol",
  "compiler": {
    "name": "solc",
    "version": "0.8.18+commit.87f61d96.Emscripten.clang"
  },
  "schemaVersion": "3.4.13",
  "updatedAt": "2023-12-11T21:53:44.892Z",
  "networkType": "ethereum",
  "devdoc": {
    "details": "This contract allows users to create DCA positions and execute periodic swaps using a Uniswap router.Users can create, manage, and close DCA positions, and the owner can execute swaps and claim fees.",
    "events": {
      "DCAExecuted(address,string,address,address,uint256,uint256,uint256)": {
        "details": "Event emitted when a DCA is executed.",
        "params": {
          "amountSwapped": "The amount swapped.",
          "amountToSwap": "The amount to swap.",
          "date": "The timestamp of the event.",
          "name": "The name of the DCA position.",
          "token_from": "The address of the input token.",
          "token_to": "The address of the output token.",
          "user": "The address of the user."
        }
      },
      "PositionCreated(address,address,address,string,uint256)": {
        "details": "Event emitted when a new DCA position is created.",
        "params": {
          "date": "The timestamp of the event.",
          "name": "The name of the DCA position.",
          "sender": "The address of the sender.",
          "token_from": "The address of the input token.",
          "token_to": "The address of the output token."
        }
      },
      "PositionStatusChanged(address,address,address,string,uint8,uint256)": {
        "details": "Event emitted when the status of a DCA position is changed.",
        "params": {
          "date": "The timestamp of the event.",
          "name": "The name of the DCA position.",
          "sender": "The address of the sender.",
          "status": "The new status of the DCA position.",
          "token_from": "The address of the input token.",
          "token_to": "The address of the output token."
        }
      }
    },
    "kind": "dev",
    "methods": {
      "claimFees()": {
        "details": "Claims accumulated fees.",
        "returns": {
          "fees": "The fees claimed."
        }
      },
      "closePosition(string)": {
        "details": "Closes a DCA position.",
        "params": {
          "_name": "The name of the DCA position."
        }
      },
      "createPosition(string,uint256,uint256,uint256,uint256)": {
        "details": "Creates a new DCA position.",
        "params": {
          "_amountPerSwap": "The amount to swap per interval.",
          "_dcaIterations": "The number of DCA iterations.",
          "_interval": "The swap interval.",
          "_name": "The name of the DCA position.",
          "_totalAmountToSwap": "The total amount to swap."
        }
      },
      "executeSwap()": {
        "details": "Executes swaps for all active DCA positions of all users.Only the contract owner can execute this function."
      },
      "getPosition(string)": {
        "details": "Retrieves the details of a DCA position for the caller.",
        "params": {
          "_name": "The name of the DCA position to retrieve."
        },
        "returns": {
          "_0": "Position struct containing position details."
        }
      },
      "initialize(address,address,address,uint256)": {
        "details": "Initializes the contract with the specified parameters.",
        "params": {
          "_inputToken": "Address of the input token for swaps.",
          "_outputToken": "Address of the output token for swaps.",
          "_swapFee": "The swap fee percentage.",
          "_uniswapRouter": "Address of the Uniswap router."
        }
      },
      "owner()": {
        "details": "Returns the address of the current owner."
      },
      "renounceOwnership()": {
        "details": "Leaves the contract without owner. It will not be possible to call `onlyOwner` functions anymore. Can only be called by the current owner. NOTE: Renouncing ownership will leave the contract without an owner, thereby removing any functionality that is only available to the owner."
      },
      "setPositionStatus(string,uint8)": {
        "details": "Sets the status of a DCA position.",
        "params": {
          "_name": "The name of the DCA position.",
          "_status": "The new status of the DCA position."
        }
      },
      "transferOwnership(address)": {
        "details": "Transfers ownership of the contract to a new account (`newOwner`). Can only be called by the current owner."
      }
    },
    "title": "DcaHodlup",
    "version": 1
  },
  "userdoc": {
    "kind": "user",
    "methods": {},
    "notice": "A contract for DCA investment strategy with swapping functionality.",
    "version": 1
  }
}