{
  "contractName": "DcaHodlup",
  "abi": [
    {
      "inputs": [
        {
          "internalType": "address",
          "name": "_inputToken",
          "type": "address"
        },
        {
          "internalType": "address",
          "name": "_outputToken",
          "type": "address"
        },
        {
          "internalType": "address",
          "name": "_uniswapRouter",
          "type": "address"
        },
        {
          "internalType": "uint256",
          "name": "_swapFee",
          "type": "uint256"
        }
      ],
      "stateMutability": "nonpayable",
      "type": "constructor"
    },
    {
      "anonymous": false,
      "inputs": [
        {
          "indexed": false,
          "internalType": "address",
          "name": "user",
          "type": "address"
        },
        {
          "indexed": false,
          "internalType": "string",
          "name": "name",
          "type": "string"
        },
        {
          "indexed": false,
          "internalType": "address",
          "name": "token_from",
          "type": "address"
        },
        {
          "indexed": false,
          "internalType": "address",
          "name": "token_to",
          "type": "address"
        },
        {
          "indexed": false,
          "internalType": "uint256",
          "name": "amountToSwap",
          "type": "uint256"
        },
        {
          "indexed": false,
          "internalType": "uint256",
          "name": "amountSwapped",
          "type": "uint256"
        },
        {
          "indexed": false,
          "internalType": "uint256",
          "name": "date",
          "type": "uint256"
        }
      ],
      "name": "DCAExecuted",
      "type": "event"
    },
    {
      "anonymous": false,
      "inputs": [
        {
          "indexed": true,
          "internalType": "address",
          "name": "previousOwner",
          "type": "address"
        },
        {
          "indexed": true,
          "internalType": "address",
          "name": "newOwner",
          "type": "address"
        }
      ],
      "name": "OwnershipTransferred",
      "type": "event"
    },
    {
      "anonymous": false,
      "inputs": [
        {
          "indexed": true,
          "internalType": "address",
          "name": "sender",
          "type": "address"
        },
        {
          "indexed": false,
          "internalType": "address",
          "name": "token_from",
          "type": "address"
        },
        {
          "indexed": false,
          "internalType": "address",
          "name": "token_to",
          "type": "address"
        },
        {
          "indexed": false,
          "internalType": "string",
          "name": "name",
          "type": "string"
        },
        {
          "indexed": false,
          "internalType": "uint256",
          "name": "date",
          "type": "uint256"
        }
      ],
      "name": "PositionCreated",
      "type": "event"
    },
    {
      "anonymous": false,
      "inputs": [
        {
          "indexed": true,
          "internalType": "address",
          "name": "sender",
          "type": "address"
        },
        {
          "indexed": false,
          "internalType": "address",
          "name": "token_from",
          "type": "address"
        },
        {
          "indexed": false,
          "internalType": "address",
          "name": "token_to",
          "type": "address"
        },
        {
          "indexed": false,
          "internalType": "string",
          "name": "name",
          "type": "string"
        },
        {
          "indexed": false,
          "internalType": "enum DcaHodlup.Status",
          "name": "status",
          "type": "uint8"
        },
        {
          "indexed": false,
          "internalType": "uint256",
          "name": "date",
          "type": "uint256"
        }
      ],
      "name": "PositionStatusChanged",
      "type": "event"
    },
    {
      "inputs": [],
      "name": "owner",
      "outputs": [
        {
          "internalType": "address",
          "name": "",
          "type": "address"
        }
      ],
      "stateMutability": "view",
      "type": "function",
      "constant": true
    },
    {
      "inputs": [],
      "name": "renounceOwnership",
      "outputs": [],
      "stateMutability": "nonpayable",
      "type": "function"
    },
    {
      "inputs": [],
      "name": "swapFee",
      "outputs": [
        {
          "internalType": "uint256",
          "name": "",
          "type": "uint256"
        }
      ],
      "stateMutability": "view",
      "type": "function",
      "constant": true
    },
    {
      "inputs": [
        {
          "internalType": "address",
          "name": "newOwner",
          "type": "address"
        }
      ],
      "name": "transferOwnership",
      "outputs": [],
      "stateMutability": "nonpayable",
      "type": "function"
    },
    {
      "inputs": [
        {
          "internalType": "uint256",
          "name": "",
          "type": "uint256"
        }
      ],
      "name": "userAddresses",
      "outputs": [
        {
          "internalType": "address",
          "name": "",
          "type": "address"
        }
      ],
      "stateMutability": "view",
      "type": "function",
      "constant": true
    },
    {
      "inputs": [
        {
          "internalType": "string",
          "name": "_name",
          "type": "string"
        },
        {
          "internalType": "uint256",
          "name": "_totalAmountToSwap",
          "type": "uint256"
        },
        {
          "internalType": "uint256",
          "name": "_interval",
          "type": "uint256"
        },
        {
          "internalType": "uint256",
          "name": "_amountPerSwap",
          "type": "uint256"
        },
        {
          "internalType": "uint256",
          "name": "_dcaIterations",
          "type": "uint256"
        }
      ],
      "name": "createPosition",
      "outputs": [],
      "stateMutability": "nonpayable",
      "type": "function"
    },
    {
      "inputs": [
        {
          "internalType": "string",
          "name": "_name",
          "type": "string"
        },
        {
          "internalType": "enum DcaHodlup.Status",
          "name": "_status",
          "type": "uint8"
        }
      ],
      "name": "setPositionStatus",
      "outputs": [],
      "stateMutability": "nonpayable",
      "type": "function"
    },
    {
      "inputs": [
        {
          "internalType": "string",
          "name": "_name",
          "type": "string"
        }
      ],
      "name": "closePosition",
      "outputs": [],
      "stateMutability": "nonpayable",
      "type": "function"
    },
    {
      "inputs": [],
      "name": "claimFees",
      "outputs": [],
      "stateMutability": "nonpayable",
      "type": "function"
    },
    {
      "inputs": [
        {
          "internalType": "string",
          "name": "_name",
          "type": "string"
        }
      ],
      "name": "getPosition",
      "outputs": [
        {
          "components": [
            {
              "internalType": "string",
              "name": "name",
              "type": "string"
            },
            {
              "internalType": "uint256",
              "name": "totalAmountToSwap",
              "type": "uint256"
            },
            {
              "internalType": "uint256",
              "name": "interval",
              "type": "uint256"
            },
            {
              "internalType": "uint256",
              "name": "dcaIterations",
              "type": "uint256"
            },
            {
              "internalType": "uint256",
              "name": "amountPerSwap",
              "type": "uint256"
            },
            {
              "internalType": "uint256",
              "name": "lastPurchaseTimestamp",
              "type": "uint256"
            },
            {
              "internalType": "uint256",
              "name": "createdTimestamp",
              "type": "uint256"
            },
            {
              "internalType": "uint256",
              "name": "SwappedFromBalance",
              "type": "uint256"
            },
            {
              "internalType": "uint256",
              "name": "SwappedToBalance",
              "type": "uint256"
            },
            {
              "internalType": "enum DcaHodlup.Status",
              "name": "status",
              "type": "uint8"
            },
            {
              "internalType": "address",
              "name": "recipient",
              "type": "address"
            },
            {
              "internalType": "enum DcaHodlup.DcaMode",
              "name": "mode",
              "type": "uint8"
            }
          ],
          "internalType": "struct DcaHodlup.Position",
          "name": "",
          "type": "tuple"
        }
      ],
      "stateMutability": "view",
      "type": "function",
      "constant": true
    },
    {
      "inputs": [],
      "name": "executeSwap",
      "outputs": [],
      "stateMutability": "nonpayable",
      "type": "function"
    }
  ],
  "bytecode": "0x60806040523480156200001157600080fd5b5060405162002a1638038062002a168339810160408190526200003491620000f2565b6200003f3362000085565b600180546001600160a01b03199081166001600160a01b039687161790915560028054821694861694909417909355600380549093169190931617905560075562000144565b600080546001600160a01b038381166001600160a01b0319831681178455604051919092169283917f8be0079c531659141344cd1fd0a4f28419497f9722a3daafe3b4186f6b6457e09190a35050565b80516001600160a01b0381168114620000ed57600080fd5b919050565b600080600080608085870312156200010957600080fd5b6200011485620000d5565b93506200012460208601620000d5565b92506200013460408601620000d5565b6060959095015193969295505050565b6128c280620001546000396000f3fe608060405234801561001057600080fd5b50600436106100a95760003560e01c80638da5cb5b116100715780638da5cb5b1461012b5780639c89bb3d1461013c578063d294f0931461014f578063d2ad500314610157578063d816b2041461016a578063f2fde38b1461017d57600080fd5b806310fb6fc1146100ae578063502c9bd5146100d757806354cf2aeb14610102578063599f581014610119578063715018a614610123575b600080fd5b6100c16100bc36600461207b565b610190565b6040516100ce9190612147565b60405180910390f35b6100ea6100e536600461220d565b61033d565b6040516001600160a01b0390911681526020016100ce565b61010b60075481565b6040519081526020016100ce565b610121610367565b005b610121610379565b6000546001600160a01b03166100ea565b61012161014a36600461207b565b61038b565b6101216103dd565b610121610165366004612226565b610484565b610121610178366004612281565b610575565b61012161018b3660046122e3565b610a3f565b610198611f72565b336000908152600460205260409081902090516101b89085908590612313565b9081526020016040518091039020604051806101800160405290816000820180546101e290612323565b80601f016020809104026020016040519081016040528092919081815260200182805461020e90612323565b801561025b5780601f106102305761010080835404028352916020019161025b565b820191906000526020600020905b81548152906001019060200180831161023e57829003601f168201915b50505091835250506001820154602082015260028201546040820152600380830154606083015260048301546080830152600583015460a0830152600683015460c0830152600783015460e0830152600883015461010083015260098301546101209092019160ff16908111156102d4576102d461210d565b60038111156102e5576102e561210d565b8152600982015461010081046001600160a01b03166020830152604090910190600160a81b900460ff1660018111156103205761032061210d565b60018111156103315761033161210d565b90525090505b92915050565b6005818154811061034d57600080fd5b6000918252602090912001546001600160a01b0316905081565b61036f610ab5565b610377610b0f565b565b610381610ab5565b61037760006113b2565b81818080601f0160208091040260200160405190810160405280939291908181526020018383808284376000920191909152506103cd92508391506114029050565b6103d8338484611477565b505050565b6103e5610ab5565b6001546040516370a0823160e01b81523060048201526000916001600160a01b0316906370a0823190602401602060405180830381865afa15801561042e573d6000803e3d6000fd5b505050506040513d601f19601f82011682018060405250810190610452919061235d565b90508015610481576001546001600160a01b0316600081815260066020526040902054610481919033906119a7565b50565b82828080601f0160208091040260200160405190810160405280939291908181526020018383808284376000920191909152506104c692508391506114029050565b336000908152600460205260409081902090518391906104e99087908790612313565b908152604051908190036020019020600901805460ff191660018360038111156105155761051561210d565b02179055506001805460025460405133937f0aeed090124458b07ced6994263a843236db56546c55434529a62a575818833f93610567936001600160a01b03918216939116918a918a9190429061239f565b60405180910390a250505050565b846105ba5760405162461bcd60e51b815260206004820152601060248201526f1b985b59481b5d5cdd081899481cd95d60821b60448201526064015b60405180910390fd5b336000908152600460205260409081902090516105da9088908890612313565b90815260200160405180910390206006015460001461063b5760405162461bcd60e51b815260206004820152601c60248201527f506f736974696f6e20697320616c7265616479206578697374696e670000000060448201526064016105b1565b600383101561068c5760405162461bcd60e51b815260206004820152601c60248201527f7468697320696e74657276616c206973206e6f7420616c6c6f7765640000000060448201526064016105b1565b600084116106d45760405162461bcd60e51b81526020600482015260156024820152744e6f20616d6f756e742073657420666f722044434160581b60448201526064016105b1565b811580156106e157508015155b806106f4575081158015906106f4575080155b6107595760405162461bcd60e51b815260206004820152603060248201527f536574206f6e6c7920616d6f756e74207065722073776170206f72206e756d6260448201526f6572206f6620697465726174696f6e7360801b60648201526084016105b1565b600080831161078957612710826107708783612402565b61077a9190612419565b6107849190612419565b61078b565b825b905061079633611a0a565b6107dd57600580546001810182556000919091527f036b6384b5eca791c62761152d0c79bb0604c104a5fb6f4eb0703f3154bb3db00180546001600160a01b031916331790555b60405180610180016040528088888080601f0160208091040260200160405190810160405280939291908181526020018383808284376000920182905250938552505050602082018890526040820187905260608201859052608082018490524260a0830181905260c083015260e0820181905261010082018190526101208201523361014082015261016001831561087757600061087a565b60015b600181111561088b5761088b61210d565b9052336000908152600460205260409081902090516108ad908a908a90612313565b908152604051908190036020019020815181906108ca90826124b4565b506020820151816001015560408201518160020155606082015181600301556080820151816004015560a0820151816005015560c0820151816006015560e0820151816007015561010082015181600801556101208201518160090160006101000a81548160ff021916908360038111156109475761094761210d565b02179055506101408201516009820180546001600160a01b0390921661010002610100600160a81b03198316811782556101608501519260ff60a81b19909116610100600160b01b031990911617600160a81b8360018111156109ac576109ac61210d565b0217905550503360009081526004602090815260408220600190810180549182018155835291200190506109e187898361256e565b5060015460025460405133927f2c7b57ffa9ff86280c81f437c215c7efeb16c055c6ea6e9b892af17cb10f9bcf92610a2e926001600160a01b0392831692909116908c908c904290612629565b60405180910390a250505050505050565b610a47610ab5565b6001600160a01b038116610aac5760405162461bcd60e51b815260206004820152602660248201527f4f776e61626c653a206e6577206f776e657220697320746865207a65726f206160448201526564647265737360d01b60648201526084016105b1565b610481816113b2565b6000546001600160a01b031633146103775760405162461bcd60e51b815260206004820181905260248201527f4f776e61626c653a2063616c6c6572206973206e6f7420746865206f776e657260448201526064016105b1565b60005b6005548110156104815760006004600060058481548110610b3557610b35612668565b60009182526020808320909101546001600160a01b0316835282019290925260400181206001015491505b8181101561139d5760006004600060058681548110610b8157610b81612668565b60009182526020808320909101546001600160a01b031683528201929092526040019020600101805483908110610bba57610bba612668565b906000526020600020018054610bcf90612323565b80601f0160208091040260200160405190810160405280929190818152602001828054610bfb90612323565b8015610c485780601f10610c1d57610100808354040283529160200191610c48565b820191906000526020600020905b815481529060010190602001808311610c2b57829003601f168201915b5050505050905060006004600060058781548110610c6857610c68612668565b60009182526020808320909101546001600160a01b0316835282019290925260409081019091209051610c9c90849061267e565b908152602001604051809103902060405180610180016040529081600082018054610cc690612323565b80601f0160208091040260200160405190810160405280929190818152602001828054610cf290612323565b8015610d3f5780601f10610d1457610100808354040283529160200191610d3f565b820191906000526020600020905b815481529060010190602001808311610d2257829003601f168201915b50505091835250506001820154602082015260028201546040820152600380830154606083015260048301546080830152600583015460a0830152600683015460c0830152600783015460e0830152600883015461010083015260098301546101209092019160ff1690811115610db857610db861210d565b6003811115610dc957610dc961210d565b8152600982015461010081046001600160a01b03166020830152604090910190600160a81b900460ff166001811115610e0457610e0461210d565b6001811115610e1557610e1561210d565b905250905060008161012001516003811115610e3357610e3361210d565b148015610e52575080604001518160a00151610e4f919061269a565b42115b15611388578060e001518160200151610e6b91906126ad565b81608001511115610f6d5760016004600060058881548110610e8f57610e8f612668565b60009182526020808320909101546001600160a01b0316835282019290925260409081019091209051610ec390859061267e565b908152604051908190036020019020600901805460ff19166001836003811115610eef57610eef61210d565b021790555060058581548110610f0757610f07612668565b600091825260209091200154600180546002546040516001600160a01b03948516947f0aeed090124458b07ced6994263a843236db56546c55434529a62a575818833f94610f60948216939091169188919042906126c0565b60405180910390a2611388565b60036004600060058881548110610f8657610f86612668565b60009182526020808320909101546001600160a01b0316835282019290925260409081019091209051610fba90859061267e565b908152604051908190036020019020600901805460ff19166001836003811115610fe657610fe661210d565b021790555060015460058054611035926001600160a01b031691908890811061101157611011612668565b60009182526020909120015460808401516001600160a01b03909116903090611a4f565b6000612710600754836080015161104c9190612402565b6110569190612419565b9050600081836080015161106a91906126ad565b9050600061107d82856101400151611a8d565b6001546001600160a01b03166000908152600660205260408120805492935085929091906110ac90849061269a565b909155506000905084610160015160018111156110cb576110cb61210d565b036111435760016004600060058b815481106110e9576110e9612668565b60009182526020808320909101546001600160a01b031683528201929092526040908101909120905161111d90889061267e565b9081526020016040518091039020600301600082825461113d91906126ad565b90915550505b806004600060058b8154811061115b5761115b612668565b60009182526020808320909101546001600160a01b031683528201929092526040908101909120905161118f90889061267e565b908152602001604051809103902060080160008282546111af919061269a565b9250508190555083608001516004600060058b815481106111d2576111d2612668565b60009182526020808320909101546001600160a01b031683528201929092526040908101909120905161120690889061267e565b90815260200160405180910390206007016000828254611226919061269a565b9250508190555060006004600060058b8154811061124657611246612668565b60009182526020808320909101546001600160a01b031683528201929092526040908101909120905161127a90889061267e565b908152604051908190036020019020600901805460ff191660018360038111156112a6576112a661210d565b0217905550426004600060058b815481106112c3576112c3612668565b60009182526020808320909101546001600160a01b03168352820192909252604090810190912090516112f790889061267e565b9081526020016040518091039020600501819055507fb59d2884dc4704cee22474623144a36d0c59d281b8eb5a128761e013256913936005898154811061134057611340612668565b600091825260209091200154600154600254608088015160405161137c946001600160a01b03908116948c94908216939116918890429061270b565b60405180910390a15050505b505080806113959061275b565b915050610b60565b505080806113aa9061275b565b915050610b12565b600080546001600160a01b038381166001600160a01b0319831681178455604051919092169283917f8be0079c531659141344cd1fd0a4f28419497f9722a3daafe3b4186f6b6457e09190a35050565b33600090815260046020526040808220905161141f90849061267e565b908152602001604051809103902060060154116104815760405162461bcd60e51b8152602060048201526016602482015275141bdcda5d1a5bdb88191bd95cdb89dd08195e1a5cdd60521b60448201526064016105b1565b6001600160a01b038316600090815260046020526040908190209051600291906114a49085908590612313565b908152604051908190036020019020600901805460ff191660018360038111156114d0576114d061210d565b02179055506001600160a01b03831660009081526004602090815260408220600301805460018101825590835291200161150b82848361256e565b506001600160a01b0383166000908152600460205260409081902090516115359084908490612313565b908152602001604051809103902060046000856001600160a01b03166001600160a01b03168152602001908152602001600020600201838360405161157b929190612313565b908152604051908190036020019020806115958382612774565b5060018201548160010155600282015481600201556003820154816003015560048201548160040155600582015481600501556006820154816006015560078201548160070155600882015481600801556009820160009054906101000a900460ff168160090160006101000a81548160ff0219169083600381111561161d5761161d61210d565b02179055506009828101805491830180546001600160a01b036101009485900416909302610100600160a81b0319841681178255915460ff600160a81b918290041693919260ff60a81b1916610100600160b01b0319909216919091179083600181111561168d5761168d61210d565b021790555050506001600160a01b0383166000908152600460205260409081902090516116bd9084908490612313565b90815260405190819003602001902060006116d88282611fe4565b50600060018281018290556002830182905560038301829055600480840183905560058401839055600684018390556007840183905560088401839055600990930180546001600160b01b03191690556001600160a01b03861682526020929092526040812090910154905b81811015611956576001600160a01b038516600090815260046020526040812060010180548390811061177957611779612668565b90600052602060002001805461178e90612323565b80601f01602080910402602001604051908101604052809291908181526020018280546117ba90612323565b80156118075780601f106117dc57610100808354040283529160200191611807565b820191906000526020600020905b8154815290600101906020018083116117ea57829003601f168201915b505050505090508060405160200161181f919061267e565b604051602081830303815290604052805190602001208585604051602001611848929190612313565b6040516020818303038152906040528051906020012003611943576001600160a01b038616600090815260046020526040902060019081019061188b90856126ad565b8154811061189b5761189b612668565b9060005260206000200160046000886001600160a01b03166001600160a01b0316815260200190815260200160002060010183815481106118de576118de612668565b9060005260206000200190816118f49190612774565b506001600160a01b038616600090815260046020526040902060010180548061191f5761191f612841565b60019003818190600052602060002001600061193b9190611fe4565b905550611956565b508061194e8161275b565b915050611744565b50600154600280546040516001600160a01b03888116947f0aeed090124458b07ced6994263a843236db56546c55434529a62a575818833f946105679491831693929091169189918991429061239f565b6040516001600160a01b0383166024820152604481018290526103d890849063a9059cbb60e01b906064015b60408051601f198184030181529190526020810180516001600160e01b03166001600160e01b031990931692909217909152611d10565b6001600160a01b0381166000908152600460205260408120600101541515806103375750506001600160a01b0316600090815260046020526040902060030154151590565b6040516001600160a01b0380851660248301528316604482015260648101829052611a879085906323b872dd60e01b906084016119d3565b50505050565b6001546040516370a0823160e01b815230600482015260009184916001600160a01b03909116906370a0823190602401602060405180830381865afa158015611ada573d6000803e3d6000fd5b505050506040513d601f19601f82011682018060405250810190611afe919061235d565b11611b575760405162461bcd60e51b8152602060048201526024808201527f496e73756666696369656e742062616c616e6365206f66206f726967696e205460448201526337b5b2b760e11b60648201526084016105b1565b60015460035460405163095ea7b360e01b81526001600160a01b0391821660048201526024810186905291169063095ea7b3906044016020604051808303816000875af1158015611bac573d6000803e3d6000fd5b505050506040513d601f19601f82011682018060405250810190611bd09190612857565b5060408051610100810182526001546001600160a01b03908116825260025481166020830152610bb892820192909252908316606082015260009060808101611c1b4261070861269a565b81526020810186905260006040820181905260609091015290508315611d06576003546040805163414bf38960e01b815283516001600160a01b0390811660048301526020850151811660248301529184015162ffffff1660448201526060840151821660648201526080840151608482015260a084015160a482015260c084015160c482015260e0840151821660e482015291169063414bf38990610104016020604051808303816000875af1158015611cda573d6000803e3d6000fd5b505050506040513d601f19601f82011682018060405250810190611cfe919061235d565b915050610337565b6000915050610337565b6000611d65826040518060400160405280602081526020017f5361666545524332303a206c6f772d6c6576656c2063616c6c206661696c6564815250856001600160a01b0316611de29092919063ffffffff16565b8051909150156103d85780806020019051810190611d839190612857565b6103d85760405162461bcd60e51b815260206004820152602a60248201527f5361666545524332303a204552433230206f7065726174696f6e20646964206e6044820152691bdd081cdd58d8d9595960b21b60648201526084016105b1565b6060611df18484600085611df9565b949350505050565b606082471015611e5a5760405162461bcd60e51b815260206004820152602660248201527f416464726573733a20696e73756666696369656e742062616c616e636520666f6044820152651c8818d85b1b60d21b60648201526084016105b1565b600080866001600160a01b03168587604051611e76919061267e565b60006040518083038185875af1925050503d8060008114611eb3576040519150601f19603f3d011682016040523d82523d6000602084013e611eb8565b606091505b5091509150611ec987838387611ed4565b979650505050505050565b60608315611f43578251600003611f3c576001600160a01b0385163b611f3c5760405162461bcd60e51b815260206004820152601d60248201527f416464726573733a2063616c6c20746f206e6f6e2d636f6e747261637400000060448201526064016105b1565b5081611df1565b611df18383815115611f585781518083602001fd5b8060405162461bcd60e51b81526004016105b19190612879565b60405180610180016040528060608152602001600081526020016000815260200160008152602001600081526020016000815260200160008152602001600081526020016000815260200160006003811115611fd057611fd061210d565b815260006020820181905260409091015290565b508054611ff090612323565b6000825580601f10612000575050565b601f01602090049060005260206000209081019061048191905b8082111561202e576000815560010161201a565b5090565b60008083601f84011261204457600080fd5b50813567ffffffffffffffff81111561205c57600080fd5b60208301915083602082850101111561207457600080fd5b9250929050565b6000806020838503121561208e57600080fd5b823567ffffffffffffffff8111156120a557600080fd5b6120b185828601612032565b90969095509350505050565b60005b838110156120d85781810151838201526020016120c0565b50506000910152565b600081518084526120f98160208601602086016120bd565b601f01601f19169290920160200192915050565b634e487b7160e01b600052602160045260246000fd5b600481106121335761213361210d565b9052565b600281106121335761213361210d565b60208152600082516101808060208501526121666101a08501836120e1565b9150602085015160408501526040850151606085015260608501516080850152608085015160a085015260a085015160c085015260c085015160e085015260e08501516101008181870152808701519150506101208181870152808701519150506101406121d681870183612123565b86015190506101606121f2868201836001600160a01b03169052565b860151905061220385830182612137565b5090949350505050565b60006020828403121561221f57600080fd5b5035919050565b60008060006040848603121561223b57600080fd5b833567ffffffffffffffff81111561225257600080fd5b61225e86828701612032565b90945092505060208401356004811061227657600080fd5b809150509250925092565b60008060008060008060a0878903121561229a57600080fd5b863567ffffffffffffffff8111156122b157600080fd5b6122bd89828a01612032565b909a90995060208901359860408101359850606081013597506080013595509350505050565b6000602082840312156122f557600080fd5b81356001600160a01b038116811461230c57600080fd5b9392505050565b8183823760009101908152919050565b600181811c9082168061233757607f821691505b60208210810361235757634e487b7160e01b600052602260045260246000fd5b50919050565b60006020828403121561236f57600080fd5b5051919050565b81835281816020850137506000828201602090810191909152601f909101601f19169091010190565b6001600160a01b0387811682528616602082015260a0604082018190526000906123cc9083018688612376565b90506123db6060830185612123565b826080830152979650505050505050565b634e487b7160e01b600052601160045260246000fd5b8082028115828204841417610337576103376123ec565b60008261243657634e487b7160e01b600052601260045260246000fd5b500490565b634e487b7160e01b600052604160045260246000fd5b601f8211156103d857600081815260208120601f850160051c810160208610156124785750805b601f850160051c820191505b8181101561249757828155600101612484565b505050505050565b600019600383901b1c191660019190911b1790565b815167ffffffffffffffff8111156124ce576124ce61243b565b6124e2816124dc8454612323565b84612451565b602080601f83116001811461251157600084156124ff5750858301515b612509858261249f565b865550612497565b600085815260208120601f198616915b8281101561254057888601518255948401946001909101908401612521565b508582101561255e5787850151600019600388901b60f8161c191681555b5050505050600190811b01905550565b67ffffffffffffffff8311156125865761258661243b565b61259a836125948354612323565b83612451565b6000601f8411600181146125c857600085156125b65750838201355b6125c0868261249f565b845550612622565b600083815260209020601f19861690835b828110156125f957868501358255602094850194600190920191016125d9565b50868210156126165760001960f88860031b161c19848701351681555b505060018560011b0183555b5050505050565b6001600160a01b038681168252851660208201526080604082018190526000906126569083018587612376565b90508260608301529695505050505050565b634e487b7160e01b600052603260045260246000fd5b600082516126908184602087016120bd565b9190910192915050565b80820180821115610337576103376123ec565b81810381811115610337576103376123ec565b6001600160a01b0386811682528516602082015260a0604082018190526000906126ec908301866120e1565b90506126fb6060830185612123565b8260808301529695505050505050565b600060018060a01b03808a16835260e0602084015261272d60e084018a6120e1565b9781166040840152959095166060820152608081019390935260a083019190915260c0909101525092915050565b60006001820161276d5761276d6123ec565b5060010190565b81810361277f575050565b6127898254612323565b67ffffffffffffffff8111156127a1576127a161243b565b6127af816124dc8454612323565b6000601f8211600181146127dd57600083156127cb5750848201545b6127d5848261249f565b855550612622565b600085815260209020601f19841690600086815260209020845b8381101561281757828601548255600195860195909101906020016127f7565b508583101561255e5793015460001960f8600387901b161c19169092555050600190811b01905550565b634e487b7160e01b600052603160045260246000fd5b60006020828403121561286957600080fd5b8151801515811461230c57600080fd5b60208152600061230c60208301846120e156fea26469706673582212202744edab5c443e88b15d4d1b2140c587d20aeb47002e635597239d47b83dd8e664736f6c63430008120033",
  "immutableReferences": {},
  "source": "// SPDX-License-Identifier: MIT\n\npragma solidity ^0.8.18;\n\nimport \"../node_modules/@uniswap/v3-periphery/contracts/interfaces/ISwapRouter.sol\";\nimport \"../node_modules/@openzeppelin/contracts/access/Ownable.sol\";\nimport \"../node_modules/@openzeppelin/contracts/token/ERC20/IERC20.sol\";\n//import \"../node_modules/@openzeppelin/contracts/token/ERC20/ERC20.sol\";\nimport \"../node_modules/@openzeppelin/contracts/token/ERC20/utils/SafeERC20.sol\";\n\nusing SafeERC20 for IERC20;\n\n/**\n * @title HodlUpHub contract\n * @dev This contract is used for hodling tokens and executing automated periodic swaps.\n */\ncontract DcaHodlup is Ownable {\n    /**\n     * @dev Enum representing the available statuses for a position.\n     * Active: the position is currently being executed\n     * Pause: the position is temporarily paused\n     * Closed: the position has been fully executed and cannot be reopened\n     * Locked: the position is locked for DCA, meaning that the tokens have been swapped but not transferred to the user\n     */\n    enum Status {\n        Active,\n        Pause,\n        Closed,\n        Locked\n    }\n\n    /**\n     * @dev Enum representing the available DCA modes.\n     * Limited: the position has a fixed number of swaps.\n     * Unlimited: the position will continue to swap indefinitely.\n     */\n    enum DcaMode {\n        Limited,\n        Unlimited\n    }\n\n    /**\n     * @dev The available pairs for swapping.\n     */\n    IERC20 inputToken;\n    IERC20 outputToken;\n\n    /**\n     * @dev The Uniswap V3 router.\n     */\n    ISwapRouter swapRouter;\n\n    /**\n     * @dev Struct representing a user's data.\n     * positions: An array of the user's open positions.\n     * closedPositions: An array of the user's closed positions.\n     */\n    struct Account {\n        mapping(string => Position) positions;\n        string[] positionsKeys;\n        mapping(string => Position) closedPositions;\n        string[] closedPositionsKeys;\n    }\n\n    /**\n     * @dev Struct representing a user's position.\n     * name: The name of the position.\n     * totalAmountToSwap: The total amount of token_from to be swapped.\n     * interval: The time interval (in seconds) between swaps.\n     * dcaIterations: The number of swaps remaining for the position (in case of Limited DCA mode).\n     * amountPerSwap: The amount of token_from to be swapped per interval.\n     * lastPurchaseTimestamp: The timestamp of the last swap.\n     * createdTimestamp: The timestamp of the position creation.\n     * SwappedFromBalance: The total amount of token_from swapped so far.\n     * SwappedToBalance: The total amount of token_to received so far.\n     * status: The current status of the position.\n     * recipient: The address to receive the swapped tokens.\n     * mode: The DCA mode of the position.\n     */\n    struct Position {\n        string name;\n        uint256 totalAmountToSwap;\n        uint256 interval;\n        uint256 dcaIterations;\n        uint256 amountPerSwap;\n        uint256 lastPurchaseTimestamp;\n        uint256 createdTimestamp;\n        uint256 SwappedFromBalance;\n        uint256 SwappedToBalance;\n        Status status;\n        address recipient;\n        DcaMode mode;\n    }\n\n    /**\n     * @dev Mapping that stores information about each user.\n     */\n    mapping(address => Account) accounts;\n\n    /**\n     * @dev Array that stores the addresses of all registered accounts.\n     */\n    address[] public userAddresses;\n\n    /**\n     * @dev Mapping that stores the balances of fees collected for each ERC20 token.\n     */\n    mapping(IERC20 => uint256) feesBalances;\n\n    /**\n     * @dev Represents the fee percentage taken for swaps.\n     *      To avoid rounding errors, the percentage is multiplied by 10000.\n     *      For example, 1% is represented by 100.\n     */\n    uint256 public swapFee;\n\n    uint256 private currentUserindex;\n    uint256 private operationsLimit;\n\n    /**\n     * @dev HodlUpHub constructor.\n     * @param _uniswapRouter Address of the Uniswap router contract.\n     * @param _swapFee Swap fee percentage charged from each swap.\n     */\n    constructor(address _inputToken, address _outputToken, address _uniswapRouter, uint256 _swapFee) {\n        inputToken = IERC20(_inputToken);\n        outputToken = IERC20(_outputToken);\n        swapRouter = ISwapRouter(_uniswapRouter);\n        swapFee = _swapFee;\n    }\n\n    /**\n     * @dev Emitted when a new position is created.\n     * @param sender The address of the user who created the position.\n     * @param name The name of the position created.\n     * @param date The timestamp of when the event was emitted.\n     */\n    event PositionCreated(address indexed sender, address token_from, address token_to, string name, uint256 date);\n\n    /**\n     * @dev Emitted when the status of a position is changed.\n     * @param sender The address of the user who changed the position status.\n     * @param name The name of the position whose status was changed.\n     * @param status The new status of the position.\n     * @param date The timestamp of when the event was emitted.\n     */\n    event PositionStatusChanged(\n        address indexed sender, address token_from, address token_to, string name, Status status, uint256 date\n    );\n\n    /**\n     * @dev Emitted when a DCA is executed.\n     * @param user The address of the user who executed the DCA.\n     * @param name The name of the position associated with the DCA.\n     * @param token_from The address of the ERC20 token being swapped from.\n     * @param token_to The address of the ERC20 token being swapped to.\n     * @param amountToSwap The amount of token_from being swapped.\n     * @param amountSwapped The amount of token_to received in the swap.\n     * @param date The timestamp of when the event was emitted.\n     */\n    event DCAExecuted(\n        address user,\n        string name,\n        address token_from,\n        address token_to,\n        uint256 amountToSwap,\n        uint256 amountSwapped,\n        uint256 date\n    );\n\n    modifier positionExists(string memory _positionName) {\n        _positionExists(_positionName);\n        _;\n    }\n\n    function _positionExists(string memory _positionName) internal view {\n        require(accounts[msg.sender].positions[_positionName].createdTimestamp > 0, \"Position doesn't exist\");\n    }\n\n    /**\n     * @dev Returns a boolean indicating whether a user with the specified address exists in the `accounts` mapping.\n     * @param _userAddress The address of the user to check.\n     * @return True if the user exists, false otherwise.\n     */\n    function _userExists(address _userAddress) internal view returns (bool) {\n        return\n            (accounts[_userAddress].positionsKeys.length > 0 || accounts[_userAddress].closedPositionsKeys.length > 0);\n    }\n\n    /**\n     * @dev Executes the DCA strategy for all active positions of all accounts.\n     * Checks if the current time is greater than the last purchase timestamp\n     * plus the interval of the position. If so, executes a swap of the amountPerSwap\n     * for the token_from in the position's pair to the token_to in the pair,\n     * subtracts the swap fee from the amount and adds it to the feesBalances,\n     * and updates the balances and status of the position.\n     * If the amountPerSwap is greater than the remaining amount to swap,\n     * pauses the position and emits a PositionStatusChanged event.\n     * Emits a DCAExecuted event on successful execution of the swap.\n     */\n    function _executeIndividualDCA() internal {\n        for (uint256 i = 0; i < userAddresses.length; i++) {\n            uint256 posKeysLength = accounts[userAddresses[i]].positionsKeys.length;\n            for (uint256 j = 0; j < posKeysLength; j++) {\n                string memory positionName = accounts[userAddresses[i]].positionsKeys[j];\n                Position memory position = accounts[userAddresses[i]].positions[positionName];\n                if (\n                    position.status == Status.Active\n                        && block.timestamp > (position.lastPurchaseTimestamp + position.interval)\n                ) {\n                    if (position.amountPerSwap > (position.totalAmountToSwap - position.SwappedFromBalance)) {\n                        accounts[userAddresses[i]].positions[positionName].status = Status.Pause;\n                        emit PositionStatusChanged(\n                            userAddresses[i],\n                            address(inputToken),\n                            address(outputToken),\n                            positionName,\n                            Status.Pause,\n                            block.timestamp\n                        );\n                    } else {\n                        accounts[userAddresses[i]].positions[positionName].status = Status.Locked;\n                        SafeERC20.safeTransferFrom(inputToken, userAddresses[i], address(this), position.amountPerSwap);\n                        uint256 swapFees = (position.amountPerSwap * swapFee / 10000);\n                        uint256 amoutPerSwapAfterFees = position.amountPerSwap - (swapFees);\n                        uint256 resultSwap = _swap(amoutPerSwapAfterFees, position.recipient);\n                        feesBalances[inputToken] += swapFees;\n                        if (position.mode == DcaMode.Limited) {\n                            accounts[userAddresses[i]].positions[positionName].dcaIterations -= 1;\n                        }\n                        accounts[userAddresses[i]].positions[positionName].SwappedToBalance += resultSwap;\n                        accounts[userAddresses[i]].positions[positionName].SwappedFromBalance += position.amountPerSwap;\n                        accounts[userAddresses[i]].positions[positionName].status = Status.Active;\n                        accounts[userAddresses[i]].positions[positionName].lastPurchaseTimestamp = block.timestamp;\n                        emit DCAExecuted(\n                            userAddresses[i],\n                            positionName,\n                            address(inputToken),\n                            address(outputToken),\n                            position.amountPerSwap,\n                            resultSwap,\n                            block.timestamp\n                        );\n                    }\n                }\n            }\n        }\n    }\n\n    function _executeStakedDCA() internal {\n        uint256 totalToSwap = _getTotalToSwap();\n        uint256 swapFees = (totalToSwap * swapFee / 10000);\n        uint256 totalToSwapAfterFees = totalToSwap - swapFees;\n        uint256 totalSwapped = _swap(totalToSwapAfterFees, address(this));\n        feesBalances[inputToken] += swapFees;\n        uint256 userAddLength = userAddresses.length;\n        for (uint256 i = 0; i < userAddLength; i++) {\n            uint256 posKeysLength = accounts[userAddresses[i]].positionsKeys.length;\n            for (uint256 j = 0; j < posKeysLength; j++) {\n                string memory positionName = accounts[userAddresses[i]].positionsKeys[j];\n                Position memory position = accounts[userAddresses[i]].positions[positionName];\n                if (\n                    position.status == Status.Locked\n                        && block.timestamp > position.lastPurchaseTimestamp + position.interval\n                ) {\n                    if (position.amountPerSwap > (position.totalAmountToSwap - position.SwappedFromBalance)) {\n                        accounts[userAddresses[i]].positions[positionName].status = Status.Pause;\n                        emit PositionStatusChanged(\n                            userAddresses[i],\n                            address(inputToken),\n                            address(outputToken),\n                            positionName,\n                            Status.Pause,\n                            block.timestamp\n                        );\n                    } else {\n                        uint256 amountSwapped =\n                            (((position.amountPerSwap * 10000) / totalToSwap) * totalSwapped) / 10000;\n                        if (position.mode == DcaMode.Limited) {\n                            accounts[userAddresses[i]].positions[positionName].dcaIterations =\n                                position.dcaIterations - 1;\n                        }\n                        accounts[userAddresses[i]].positions[positionName].SwappedFromBalance =\n                            position.SwappedFromBalance + position.amountPerSwap;\n                        accounts[userAddresses[i]].positions[positionName].SwappedToBalance =\n                            position.SwappedToBalance + amountSwapped;\n                        accounts[userAddresses[i]].positions[positionName].status = Status.Active;\n                        accounts[userAddresses[i]].positions[positionName].lastPurchaseTimestamp = block.timestamp;\n                        emit DCAExecuted(\n                            userAddresses[i],\n                            positionName,\n                            address(inputToken),\n                            address(outputToken),\n                            position.amountPerSwap,\n                            amountSwapped,\n                            block.timestamp\n                        );\n                    }\n                }\n            }\n        }\n    }\n\n    /**\n     * @dev Calculates the total amount of tokens to swap for a given token pair.\n     * @return The total amount of tokens to swap.\n     */\n    function _getTotalToSwap() internal returns (uint256) {\n        uint256 totalToSwap;\n        uint256 usersLength = userAddresses.length;\n        for (uint256 i = 0; i < usersLength; i++) {\n            uint256 positionsLength = accounts[userAddresses[i]].positionsKeys.length;\n            for (uint256 j = 0; j < positionsLength; j++) {\n                string memory positionName = accounts[userAddresses[i]].positionsKeys[j];\n                Position memory position = accounts[userAddresses[i]].positions[positionName];\n                if (\n                    position.status == Status.Active\n                        && block.timestamp > position.lastPurchaseTimestamp + position.interval\n                ) {\n                    totalToSwap += position.amountPerSwap;\n                    accounts[userAddresses[i]].positions[positionName].status = Status.Locked;\n                }\n            }\n        }\n        return totalToSwap;\n    }\n\n    function _swap(uint256 _amount, address _receiver) internal returns (uint256) {\n        require(inputToken.balanceOf(address(this)) > _amount, \"Insufficient balance of origin Token\");\n\n        inputToken.approve(address(swapRouter), _amount);\n\n        ISwapRouter.ExactInputSingleParams memory params = ISwapRouter.ExactInputSingleParams({\n            tokenIn: address(inputToken),\n            tokenOut: address(outputToken),\n            fee: 3000,\n            recipient: _receiver,\n            deadline: block.timestamp + 1800,\n            amountIn: _amount,\n            amountOutMinimum: 0,\n            sqrtPriceLimitX96: 0\n        });\n\n        if (_amount != 0) {\n           return swapRouter.exactInputSingle(params);\n        } else {\n            return 0;\n        }\n    }\n\n    // don't forget to add a removing for approve ( for example mister T approved 1000 USD but stop position after 800 USD. We need to remove 200 USD of allowance)\n    function _closePosition(address _user, string calldata _name) internal {\n        accounts[_user].positions[_name].status = Status.Closed;\n        accounts[_user].closedPositionsKeys.push(_name);\n        accounts[_user].closedPositions[_name] = accounts[_user].positions[_name];\n        delete(accounts[_user].positions[_name]);\n        uint256 posKeysLength = accounts[_user].positionsKeys.length;\n        for (uint256 i = 0; i < posKeysLength; i++) {\n            string memory _key = accounts[_user].positionsKeys[i];\n            if (keccak256(abi.encodePacked(_name)) == keccak256(abi.encodePacked(_key))) {\n                accounts[_user].positionsKeys[i] = accounts[_user].positionsKeys[posKeysLength - 1];\n                accounts[_user].positionsKeys.pop();\n                break;\n            }\n        }\n        emit PositionStatusChanged(\n            _user, address(inputToken), address(outputToken), _name, Status.Closed, block.timestamp\n        );\n    }\n\n    /**\n     * @dev Create a new position for the user.\n     * @param _name The name of the position.\n     * @param _totalAmountToSwap The total amount to swap for the position.\n     * @param _interval The interval for DCA swaps.\n     * @param _amountPerSwap The amount to swap per DCA iteration.\n     * @param _dcaIterations The number of DCA iterations.\n     * Requirements:\n     * - The name must be set.\n     * - The position does not already exist for the user.\n     * - The interval exists in intervalsAvailable.\n     * - The total amount to swap is greater than 0.\n     * - Either the amount per swap or the number of DCA iterations is set, but not both.\n     */\n    function createPosition(\n        string calldata _name,\n        uint256 _totalAmountToSwap,\n        uint256 _interval,\n        uint256 _amountPerSwap,\n        uint256 _dcaIterations\n    ) external {\n        require(bytes(_name).length > 0, \"name must be set\");\n        require(accounts[msg.sender].positions[_name].createdTimestamp == 0, \"Position is already existing\");\n        require(_interval >= 3, \"this interval is not allowed\"); // in production mode 86400\n        require(_totalAmountToSwap > 0, \"No amount set for DCA\");\n        require(\n            (_amountPerSwap == 0 && _dcaIterations != 0) || (_amountPerSwap != 0 && _dcaIterations == 0),\n            \"Set only amount per swap or number of iterations\"\n        );\n\n        // uint256 totalToSwapAfterFees = _totalAmountToSwap - (_totalAmountToSwap * depositFee / 10000);\n        uint256 amountPerSwap =\n            _amountPerSwap > 0 ? _amountPerSwap : ((_totalAmountToSwap * 10000) / _dcaIterations) / 10000;\n\n        //SafeERC20.safeTransferFrom(inputToken, msg.sender, address(this), _totalAmountToSwap);\n        // uint256 allowanceAmount = _pair.token_from.allowance(address(_pair.token_from), msg.sender);\n        // if ( allowanceAmount == 0) {\n        //     SafeERC20.safeApprove(_pair.token_from, msg.sender, _totalAmountToSwap);\n        // } else {\n        //     SafeERC20.safeIncreaseAllowance(_pair.token_from, msg.sender, _totalAmountToSwap);\n        // }\n\n        if (!_userExists(msg.sender)) {\n            userAddresses.push(msg.sender);\n        }\n        accounts[msg.sender].positions[_name] = Position(\n            _name,\n            _totalAmountToSwap,\n            _interval,\n            _dcaIterations,\n            amountPerSwap,\n            block.timestamp,\n            block.timestamp,\n            0,\n            0,\n            Status.Active,\n            msg.sender,\n            _dcaIterations == 0 ? DcaMode.Unlimited : DcaMode.Limited\n        );\n\n        accounts[msg.sender].positionsKeys.push(_name);\n\n        emit PositionCreated(msg.sender, address(inputToken), address(outputToken), _name, block.timestamp);\n    }\n\n    /**\n     * @dev Set the status of a user's position.\n     * @param _name The name of the position to update.\n     * @param _status The new status of the position.\n     * Emits a {PositionStatusChanged} event.\n     * Requirements:\n     * - The position must exist.\n     */\n    function setPositionStatus(string calldata _name, Status _status) external positionExists(_name) {\n        accounts[msg.sender].positions[_name].status = _status;\n        emit PositionStatusChanged(\n            msg.sender, address(inputToken), address(outputToken), _name, Status.Pause, block.timestamp\n        );\n    }\n\n    /**\n     * @dev Close a position and transfer any remaining tokens back to the user's wallet.\n     * @param _name The ID of the position to close.\n     * Requirements:\n     * - The position must exist.\n     * - The position must not be locked.\n     */\n    function closePosition(string calldata _name) external positionExists(_name) {\n        _closePosition(msg.sender, _name);\n    }\n\n    /**\n     * @dev Claim all fees collected by the contract.\n     * Requirements:\n     * - The caller must be the contract owner.\n     */\n    function claimFees() external onlyOwner {\n        uint256 balance = inputToken.balanceOf(address(this));\n        if (balance > 0) {\n            SafeERC20.safeTransfer(inputToken, msg.sender, feesBalances[inputToken]);\n        }\n    }\n\n    /**\n     * @dev Get a position by name.\n     * @param _name The name of the position to get.\n     * @return The position object.\n     */\n    function getPosition(string calldata _name) external view returns (Position memory) {\n        return accounts[msg.sender].positions[_name];\n    }\n\n    /**\n     * @dev Execute swaps for all individual and staked DCA positions.\n     * Requirements:\n     * - The caller must be the contract owner.\n     */\n    function executeSwap() external onlyOwner {\n        _executeIndividualDCA();\n    }\n}\n",
  "sourcePath": "/home/sjouany/ProjetFinal/HodlUp/truffle/contracts/DcaHodlup.sol",
  "compiler": {
    "name": "solc",
    "version": "0.8.18+commit.87f61d96.Emscripten.clang"
  },
  "schemaVersion": "3.4.13",
  "updatedAt": "2023-07-12T06:57:40.457Z",
  "networkType": "ethereum",
  "devdoc": {
    "details": "This contract is used for hodling tokens and executing automated periodic swaps.",
    "events": {
      "DCAExecuted(address,string,address,address,uint256,uint256,uint256)": {
        "details": "Emitted when a DCA is executed.",
        "params": {
          "amountSwapped": "The amount of token_to received in the swap.",
          "amountToSwap": "The amount of token_from being swapped.",
          "date": "The timestamp of when the event was emitted.",
          "name": "The name of the position associated with the DCA.",
          "token_from": "The address of the ERC20 token being swapped from.",
          "token_to": "The address of the ERC20 token being swapped to.",
          "user": "The address of the user who executed the DCA."
        }
      },
      "PositionCreated(address,address,address,string,uint256)": {
        "details": "Emitted when a new position is created.",
        "params": {
          "date": "The timestamp of when the event was emitted.",
          "name": "The name of the position created.",
          "sender": "The address of the user who created the position."
        }
      },
      "PositionStatusChanged(address,address,address,string,uint8,uint256)": {
        "details": "Emitted when the status of a position is changed.",
        "params": {
          "date": "The timestamp of when the event was emitted.",
          "name": "The name of the position whose status was changed.",
          "sender": "The address of the user who changed the position status.",
          "status": "The new status of the position."
        }
      }
    },
    "kind": "dev",
    "methods": {
      "claimFees()": {
        "details": "Claim all fees collected by the contract. Requirements: - The caller must be the contract owner."
      },
      "closePosition(string)": {
        "details": "Close a position and transfer any remaining tokens back to the user's wallet.",
        "params": {
          "_name": "The ID of the position to close. Requirements: - The position must exist. - The position must not be locked."
        }
      },
      "constructor": {
        "details": "HodlUpHub constructor.",
        "params": {
          "_swapFee": "Swap fee percentage charged from each swap.",
          "_uniswapRouter": "Address of the Uniswap router contract."
        }
      },
      "createPosition(string,uint256,uint256,uint256,uint256)": {
        "details": "Create a new position for the user.",
        "params": {
          "_amountPerSwap": "The amount to swap per DCA iteration.",
          "_dcaIterations": "The number of DCA iterations. Requirements: - The name must be set. - The position does not already exist for the user. - The interval exists in intervalsAvailable. - The total amount to swap is greater than 0. - Either the amount per swap or the number of DCA iterations is set, but not both.",
          "_interval": "The interval for DCA swaps.",
          "_name": "The name of the position.",
          "_totalAmountToSwap": "The total amount to swap for the position."
        }
      },
      "executeSwap()": {
        "details": "Execute swaps for all individual and staked DCA positions. Requirements: - The caller must be the contract owner."
      },
      "getPosition(string)": {
        "details": "Get a position by name.",
        "params": {
          "_name": "The name of the position to get."
        },
        "returns": {
          "_0": "The position object."
        }
      },
      "owner()": {
        "details": "Returns the address of the current owner."
      },
      "renounceOwnership()": {
        "details": "Leaves the contract without owner. It will not be possible to call `onlyOwner` functions anymore. Can only be called by the current owner. NOTE: Renouncing ownership will leave the contract without an owner, thereby removing any functionality that is only available to the owner."
      },
      "setPositionStatus(string,uint8)": {
        "details": "Set the status of a user's position.",
        "params": {
          "_name": "The name of the position to update.",
          "_status": "The new status of the position. Emits a {PositionStatusChanged} event. Requirements: - The position must exist."
        }
      },
      "transferOwnership(address)": {
        "details": "Transfers ownership of the contract to a new account (`newOwner`). Can only be called by the current owner."
      }
    },
    "stateVariables": {
      "accounts": {
        "details": "Mapping that stores information about each user."
      },
      "feesBalances": {
        "details": "Mapping that stores the balances of fees collected for each ERC20 token."
      },
      "inputToken": {
        "details": "The available pairs for swapping."
      },
      "swapFee": {
        "details": "Represents the fee percentage taken for swaps.      To avoid rounding errors, the percentage is multiplied by 10000.      For example, 1% is represented by 100."
      },
      "swapRouter": {
        "details": "The Uniswap V3 router."
      },
      "userAddresses": {
        "details": "Array that stores the addresses of all registered accounts."
      }
    },
    "title": "HodlUpHub contract",
    "version": 1
  },
  "userdoc": {
    "kind": "user",
    "methods": {},
    "version": 1
  }
}