{
  "contractName": "HodlUpHub",
  "abi": [
    {
      "inputs": [
        {
          "internalType": "address",
          "name": "_uniswapRouter",
          "type": "address"
        },
        {
          "internalType": "address",
          "name": "_rewardManager",
          "type": "address"
        },
        {
          "internalType": "uint256",
          "name": "_depositFee",
          "type": "uint256"
        },
        {
          "internalType": "uint256",
          "name": "_swapFee",
          "type": "uint256"
        }
      ],
      "stateMutability": "nonpayable",
      "type": "constructor"
    },
    {
      "anonymous": false,
      "inputs": [
        {
          "indexed": false,
          "internalType": "address",
          "name": "user",
          "type": "address"
        },
        {
          "indexed": false,
          "internalType": "uint256",
          "name": "positionId",
          "type": "uint256"
        },
        {
          "indexed": false,
          "internalType": "address",
          "name": "token_from",
          "type": "address"
        },
        {
          "indexed": false,
          "internalType": "address",
          "name": "token_to",
          "type": "address"
        },
        {
          "indexed": false,
          "internalType": "uint256",
          "name": "amountToSwap",
          "type": "uint256"
        },
        {
          "indexed": false,
          "internalType": "uint256",
          "name": "amountSwapped",
          "type": "uint256"
        },
        {
          "indexed": false,
          "internalType": "uint256",
          "name": "date",
          "type": "uint256"
        }
      ],
      "name": "DCAExecuted",
      "type": "event"
    },
    {
      "anonymous": false,
      "inputs": [
        {
          "indexed": false,
          "internalType": "uint256",
          "name": "interval",
          "type": "uint256"
        },
        {
          "indexed": false,
          "internalType": "uint256",
          "name": "date",
          "type": "uint256"
        }
      ],
      "name": "IntervalAdded",
      "type": "event"
    },
    {
      "anonymous": false,
      "inputs": [
        {
          "indexed": true,
          "internalType": "address",
          "name": "previousOwner",
          "type": "address"
        },
        {
          "indexed": true,
          "internalType": "address",
          "name": "newOwner",
          "type": "address"
        }
      ],
      "name": "OwnershipTransferred",
      "type": "event"
    },
    {
      "anonymous": false,
      "inputs": [
        {
          "indexed": false,
          "internalType": "address",
          "name": "token_from",
          "type": "address"
        },
        {
          "indexed": false,
          "internalType": "address",
          "name": "token_to",
          "type": "address"
        },
        {
          "indexed": false,
          "internalType": "uint256",
          "name": "date",
          "type": "uint256"
        }
      ],
      "name": "PairAdded",
      "type": "event"
    },
    {
      "anonymous": false,
      "inputs": [
        {
          "indexed": true,
          "internalType": "address",
          "name": "sender",
          "type": "address"
        },
        {
          "indexed": false,
          "internalType": "uint256",
          "name": "id",
          "type": "uint256"
        },
        {
          "indexed": false,
          "internalType": "uint256",
          "name": "date",
          "type": "uint256"
        }
      ],
      "name": "PositionCreated",
      "type": "event"
    },
    {
      "anonymous": false,
      "inputs": [
        {
          "indexed": true,
          "internalType": "address",
          "name": "sender",
          "type": "address"
        },
        {
          "indexed": false,
          "internalType": "uint256",
          "name": "id",
          "type": "uint256"
        },
        {
          "indexed": false,
          "internalType": "enum HodlUpHub.Status",
          "name": "status",
          "type": "uint8"
        },
        {
          "indexed": false,
          "internalType": "uint256",
          "name": "date",
          "type": "uint256"
        }
      ],
      "name": "PositionStatusChanged",
      "type": "event"
    },
    {
      "anonymous": false,
      "inputs": [
        {
          "indexed": false,
          "internalType": "address",
          "name": "token",
          "type": "address"
        },
        {
          "indexed": false,
          "internalType": "uint256",
          "name": "amount",
          "type": "uint256"
        },
        {
          "indexed": false,
          "internalType": "uint256",
          "name": "date",
          "type": "uint256"
        }
      ],
      "name": "TokenClaimed",
      "type": "event"
    },
    {
      "inputs": [],
      "name": "depositFee",
      "outputs": [
        {
          "internalType": "uint256",
          "name": "",
          "type": "uint256"
        }
      ],
      "stateMutability": "view",
      "type": "function",
      "constant": true
    },
    {
      "inputs": [
        {
          "internalType": "uint256",
          "name": "",
          "type": "uint256"
        }
      ],
      "name": "intervalsAvailable",
      "outputs": [
        {
          "internalType": "uint256",
          "name": "",
          "type": "uint256"
        }
      ],
      "stateMutability": "view",
      "type": "function",
      "constant": true
    },
    {
      "inputs": [],
      "name": "owner",
      "outputs": [
        {
          "internalType": "address",
          "name": "",
          "type": "address"
        }
      ],
      "stateMutability": "view",
      "type": "function",
      "constant": true
    },
    {
      "inputs": [
        {
          "internalType": "uint256",
          "name": "",
          "type": "uint256"
        }
      ],
      "name": "pairsAvailable",
      "outputs": [
        {
          "internalType": "contract IERC20",
          "name": "token_from",
          "type": "address"
        },
        {
          "internalType": "contract IERC20",
          "name": "token_to",
          "type": "address"
        },
        {
          "internalType": "bool",
          "name": "active",
          "type": "bool"
        }
      ],
      "stateMutability": "view",
      "type": "function",
      "constant": true
    },
    {
      "inputs": [],
      "name": "renounceOwnership",
      "outputs": [],
      "stateMutability": "nonpayable",
      "type": "function"
    },
    {
      "inputs": [],
      "name": "rewardsManager",
      "outputs": [
        {
          "internalType": "contract IHodlUpRewardsManager",
          "name": "",
          "type": "address"
        }
      ],
      "stateMutability": "view",
      "type": "function",
      "constant": true
    },
    {
      "inputs": [],
      "name": "swapFee",
      "outputs": [
        {
          "internalType": "uint256",
          "name": "",
          "type": "uint256"
        }
      ],
      "stateMutability": "view",
      "type": "function",
      "constant": true
    },
    {
      "inputs": [
        {
          "internalType": "address",
          "name": "newOwner",
          "type": "address"
        }
      ],
      "name": "transferOwnership",
      "outputs": [],
      "stateMutability": "nonpayable",
      "type": "function"
    },
    {
      "inputs": [],
      "name": "uniswapRouter",
      "outputs": [
        {
          "internalType": "contract IUniswapV2Router02",
          "name": "",
          "type": "address"
        }
      ],
      "stateMutability": "view",
      "type": "function",
      "constant": true
    },
    {
      "inputs": [
        {
          "internalType": "uint256",
          "name": "",
          "type": "uint256"
        }
      ],
      "name": "userAddresses",
      "outputs": [
        {
          "internalType": "address",
          "name": "",
          "type": "address"
        }
      ],
      "stateMutability": "view",
      "type": "function",
      "constant": true
    },
    {
      "inputs": [
        {
          "internalType": "address",
          "name": "_token_from",
          "type": "address"
        },
        {
          "internalType": "address",
          "name": "_token_to",
          "type": "address"
        },
        {
          "internalType": "bool",
          "name": "_active",
          "type": "bool"
        }
      ],
      "name": "addPair",
      "outputs": [],
      "stateMutability": "nonpayable",
      "type": "function"
    },
    {
      "inputs": [
        {
          "internalType": "uint256",
          "name": "_interval",
          "type": "uint256"
        }
      ],
      "name": "addInterval",
      "outputs": [],
      "stateMutability": "nonpayable",
      "type": "function"
    },
    {
      "inputs": [
        {
          "internalType": "string",
          "name": "_name",
          "type": "string"
        },
        {
          "components": [
            {
              "internalType": "contract IERC20",
              "name": "token_from",
              "type": "address"
            },
            {
              "internalType": "contract IERC20",
              "name": "token_to",
              "type": "address"
            },
            {
              "internalType": "bool",
              "name": "active",
              "type": "bool"
            }
          ],
          "internalType": "struct HodlUpHub.Pair",
          "name": "_pair",
          "type": "tuple"
        },
        {
          "internalType": "uint256",
          "name": "_totalAmountToSwap",
          "type": "uint256"
        },
        {
          "internalType": "uint256",
          "name": "_interval",
          "type": "uint256"
        },
        {
          "internalType": "uint256",
          "name": "_amountPerSwap",
          "type": "uint256"
        },
        {
          "internalType": "uint256",
          "name": "_dcaIterations",
          "type": "uint256"
        },
        {
          "internalType": "bool",
          "name": "_stacking",
          "type": "bool"
        }
      ],
      "name": "createPosition",
      "outputs": [],
      "stateMutability": "nonpayable",
      "type": "function"
    },
    {
      "inputs": [
        {
          "internalType": "uint256",
          "name": "_positionId",
          "type": "uint256"
        },
        {
          "internalType": "enum HodlUpHub.Status",
          "name": "_status",
          "type": "uint8"
        }
      ],
      "name": "setPositionStatus",
      "outputs": [],
      "stateMutability": "nonpayable",
      "type": "function"
    },
    {
      "inputs": [
        {
          "internalType": "uint256",
          "name": "_positionId",
          "type": "uint256"
        }
      ],
      "name": "closePosition",
      "outputs": [],
      "stateMutability": "nonpayable",
      "type": "function"
    },
    {
      "inputs": [
        {
          "internalType": "uint256",
          "name": "_positionId",
          "type": "uint256"
        }
      ],
      "name": "claimRewards",
      "outputs": [],
      "stateMutability": "nonpayable",
      "type": "function"
    },
    {
      "inputs": [],
      "name": "claimFees",
      "outputs": [],
      "stateMutability": "nonpayable",
      "type": "function"
    },
    {
      "inputs": [
        {
          "internalType": "uint256",
          "name": "_positionId",
          "type": "uint256"
        }
      ],
      "name": "getPosition",
      "outputs": [
        {
          "components": [
            {
              "internalType": "string",
              "name": "name",
              "type": "string"
            },
            {
              "components": [
                {
                  "internalType": "contract IERC20",
                  "name": "token_from",
                  "type": "address"
                },
                {
                  "internalType": "contract IERC20",
                  "name": "token_to",
                  "type": "address"
                },
                {
                  "internalType": "bool",
                  "name": "active",
                  "type": "bool"
                }
              ],
              "internalType": "struct HodlUpHub.Pair",
              "name": "pair",
              "type": "tuple"
            },
            {
              "internalType": "uint256",
              "name": "totalAmountToSwap",
              "type": "uint256"
            },
            {
              "internalType": "uint256",
              "name": "interval",
              "type": "uint256"
            },
            {
              "internalType": "uint256",
              "name": "dcaIterations",
              "type": "uint256"
            },
            {
              "internalType": "uint256",
              "name": "amountPerSwap",
              "type": "uint256"
            },
            {
              "internalType": "uint256",
              "name": "lastPurchaseTimestamp",
              "type": "uint256"
            },
            {
              "internalType": "uint256",
              "name": "createdTimestamp",
              "type": "uint256"
            },
            {
              "internalType": "uint256",
              "name": "SwappedFromBalance",
              "type": "uint256"
            },
            {
              "internalType": "uint256",
              "name": "SwappedToBalance",
              "type": "uint256"
            },
            {
              "internalType": "enum HodlUpHub.Status",
              "name": "status",
              "type": "uint8"
            },
            {
              "internalType": "address",
              "name": "recipient",
              "type": "address"
            },
            {
              "internalType": "bool",
              "name": "stacking",
              "type": "bool"
            },
            {
              "internalType": "enum HodlUpHub.DcaMode",
              "name": "mode",
              "type": "uint8"
            }
          ],
          "internalType": "struct HodlUpHub.Position",
          "name": "",
          "type": "tuple"
        }
      ],
      "stateMutability": "view",
      "type": "function",
      "constant": true
    },
    {
      "inputs": [],
      "name": "executeSwap",
      "outputs": [],
      "stateMutability": "nonpayable",
      "type": "function"
    }
  ],
  "bytecode": "0x60806040523480156200001157600080fd5b5060405162004f4138038062004f418339810160408190526200003491620000eb565b6200003f336200007e565b600380546001600160a01b039586166001600160a01b031991821617909155600980549490951693169290921790925560079190915560085562000133565b600080546001600160a01b038381166001600160a01b0319831681178455604051919092169283917f8be0079c531659141344cd1fd0a4f28419497f9722a3daafe3b4186f6b6457e09190a35050565b80516001600160a01b0381168114620000e657600080fd5b919050565b600080600080608085870312156200010257600080fd5b6200010d85620000ce565b93506200011d60208601620000ce565b6040860151606090960151949790965092505050565b614dfe80620001436000396000f3fe608060405234801561001057600080fd5b50600436106101215760003560e01c8063735de9f7116100ad578063d294f09311610071578063d294f09314610257578063defe20531461025f578063eb02c30114610272578063f1be589e14610292578063f2fde38b146102a557600080fd5b8063735de9f7146101fa5780638da5cb5b1461020d578063a126d6011461021e578063c1c7d5b414610231578063c46de5f71461024457600080fd5b806354cf2aeb116100f457806354cf2aeb1461019d578063599f5810146101a65780636319eb78146101ae57806367a52793146101e9578063715018a6146101f257600080fd5b80630962ef791461012657806319ef091b146101395780631e2305e71461014c578063502c9bd514610172575b600080fd5b610137610134366004614396565b50565b005b6101376101473660046143dd565b6102b8565b61015f61015a366004614396565b610589565b6040519081526020015b60405180910390f35b610185610180366004614396565b6105aa565b6040516001600160a01b039091168152602001610169565b61015f60085481565b6101376105d4565b6101c16101bc366004614396565b61060f565b604080516001600160a01b039485168152939092166020840152151590820152606001610169565b61015f60075481565b610137610655565b600354610185906001600160a01b031681565b6000546001600160a01b0316610185565b61013761022c366004614396565b610667565b61013761023f366004614396565b610ae6565b610137610252366004614428565b610bad565b610137610c85565b600954610185906001600160a01b031681565b610285610280366004614396565b610dae565b60405161016991906144e6565b6101376102a036600461460e565b610fb0565b6101376102b33660046146c9565b611592565b6102c0611608565b816001600160a01b0316836001600160a01b0316036103385760405162461bcd60e51b815260206004820152602960248201527f496e70757420616e64204f757470757420746f6b656e73206d75737420626520604482015268191a5999995c995b9d60ba1b60648201526084015b60405180910390fd5b61034183611662565b61039d5760405162461bcd60e51b815260206004820152602760248201527f496e70757420546f6b656e206973206e6f7420617661696c61626c652e204e6f60448201526620537570706c7960c81b606482015260840161032f565b6103a682611662565b6104035760405162461bcd60e51b815260206004820152602860248201527f4f757470757420546f6b656e206973206e6f7420617661696c61626c652e204e6044820152676f20537570706c7960c01b606482015260840161032f565b61043b6040518060600160405280856001600160a01b03168152602001846001600160a01b0316815260200160011515815250611718565b1561047e5760405162461bcd60e51b81526020600482015260136024820152725061697220616c72656164792065786973747360681b604482015260640161032f565b60408051606080820183526001600160a01b03868116808452868216602080860182815288151587890190815260018054808201825560009190915297517fb10e2d527612073b26eecdfd717e6a320cf44b4afac2b0732d9fcbe2b7fa0cf6600290990298890180546001600160a01b03191691881691909117905590517fb10e2d527612073b26eecdfd717e6a320cf44b4afac2b0732d9fcbe2b7fa0cf790970180549151979095166001600160a81b031990911617600160a01b961515969096029590951790925584519081529283015242928201929092527fedd4b700a2980a33a301ad39ced5dbc1c98a786ecb28da5bf3926d5165005d1b910160405180910390a1505050565b6002818154811061059957600080fd5b600091825260209091200154905081565b600581815481106105ba57600080fd5b6000918252602090912001546001600160a01b0316905081565b6105dc611608565b6105fd604051806060016040528060248152602001614cc6602491396117c9565b61060561180c565b61060d6121b1565b565b6001818154811061061f57600080fd5b6000918252602090912060029091020180546001909101546001600160a01b03918216925090811690600160a01b900460ff1683565b61065d611608565b61060d6000612cab565b3360009081526004602052604090205481106106be5760405162461bcd60e51b8152602060048201526016602482015275141bdcda5d1a5bdb88191bd95cdb89dd08195e1a5cdd60521b604482015260640161032f565b3360009081526004602052604081208054839081106106df576106df6146e6565b90600052602060002090600c0201604051806101c0016040529081600082018054610709906146fc565b80601f0160208091040260200160405190810160405280929190818152602001828054610735906146fc565b80156107825780601f1061075757610100808354040283529160200191610782565b820191906000526020600020905b81548152906001019060200180831161076557829003601f168201915b5050509183525050604080516060808201835260018501546001600160a01b039081168352600286015490811660208481019190915260ff600160a01b90920482161515848601528501929092526003808601549385019390935260048501549084015260058401546080840152600684015460a0840152600784015460c0840152600884015460e08401526009840154610100840152600a840154610120840152600b840154610140909301921690811115610841576108416144ac565b6003811115610852576108526144ac565b8152600b8201546001600160a01b03610100820416602083015260ff600160a81b8204811615156040840152606090920191600160b01b90910416600181111561089e5761089e6144ac565b60018111156108af576108af6144ac565b9052509050600381610140015160038111156108cd576108cd6144ac565b0361091a5760405162461bcd60e51b815260206004820181905260248201527f506f736974696f6e206973204c6f636b65643a206e6f6e20636c6f7361626c65604482015260640161032f565b600081610100015182604001516109319190614746565b11156109c55761095e8160200151600001513383610100015184604001516109599190614746565b612cfb565b60208101515161010082015160408301517fcb1e26772e882480176a3e649a5f7937dc0ec3f50126283faf56f927b070be80929161099b91614746565b604080516001600160a01b0390931683526020830191909152429082015260600160405180910390a15b61012081015115610a4d576101808101511515600103610a4d576109f781602001516020015133836101200151612cfb565b602081810151810151610120830151604080516001600160a01b03909316835292820152428183015290517fcb1e26772e882480176a3e649a5f7937dc0ec3f50126283faf56f927b070be809181900360600190a15b33600090815260046020526040902080546002919084908110610a7257610a726146e6565b60009182526020909120600b600c9092020101805460ff19166001836003811115610a9f57610a9f6144ac565b0217905550610aae3383612d63565b336001600160a01b0316600080516020614c7c83398151915283600242604051610ada9392919061475f565b60405180910390a25050565b610aee611608565b610af7816131fd565b15610b3d5760405162461bcd60e51b8152602060048201526016602482015275125b9d195c9d985b08185b1c9958591e48185919195960521b604482015260640161032f565b600280546001810182556000919091527f405787fa12a823e0f2b7631cc41b3ba8828b3321ca811111fa75cd3aa3bb5ace01819055604080518281524260208201527f57cb492e05adb4a4f47294924a582ecb2f196432c96c592d9a24ba793dcda7da910160405180910390a150565b336000908152600460205260409020548210610c045760405162461bcd60e51b8152602060048201526016602482015275141bdcda5d1a5bdb88191bd95cdb89dd08195e1a5cdd60521b604482015260640161032f565b336000908152600460205260409020805482919084908110610c2857610c286146e6565b60009182526020909120600b600c9092020101805460ff19166001836003811115610c5557610c556144ac565b0217905550336001600160a01b0316600080516020614c7c833981519152838342604051610ada9392919061475f565b610c8d611608565b6000610c9761324a565b905060005b8151811015610daa576000828281518110610cb957610cb96146e6565b60209081029190910101516040516370a0823160e01b81523060048201526001600160a01b03909116906370a0823190602401602060405180830381865afa158015610d09573d6000803e3d6000fd5b505050506040513d601f19601f82011682018060405250810190610d2d9190614781565b90508015610d9757610d97838381518110610d4a57610d4a6146e6565b60200260200101513360066000878781518110610d6957610d696146e6565b60200260200101516001600160a01b03166001600160a01b0316815260200190815260200160002054612cfb565b5080610da28161479a565b915050610c9c565b5050565b610db66142b0565b336000908152600460205260409020805483908110610dd757610dd76146e6565b90600052602060002090600c0201604051806101c0016040529081600082018054610e01906146fc565b80601f0160208091040260200160405190810160405280929190818152602001828054610e2d906146fc565b8015610e7a5780601f10610e4f57610100808354040283529160200191610e7a565b820191906000526020600020905b815481529060010190602001808311610e5d57829003601f168201915b5050509183525050604080516060808201835260018501546001600160a01b039081168352600286015490811660208481019190915260ff600160a01b90920482161515848601528501929092526003808601549385019390935260048501549084015260058401546080840152600684015460a0840152600784015460c0840152600884015460e08401526009840154610100840152600a840154610120840152600b840154610140909301921690811115610f3957610f396144ac565b6003811115610f4a57610f4a6144ac565b8152600b8201546001600160a01b03610100820416602083015260ff600160a81b8204811615156040840152606090920191600160b01b909104166001811115610f9657610f966144ac565b6001811115610fa757610fa76144ac565b90525092915050565b86610ff05760405162461bcd60e51b815260206004820152601060248201526f1b985b59481b5d5cdd081899481cd95d60821b604482015260640161032f565b61103f3389898080601f01602080910402602001604051908101604052809392919081815260200183838082843760009201919091525061103a92505050368a90038a018a6147fa565b6133b1565b1561108c5760405162461bcd60e51b815260206004820152601c60248201527f506f736974696f6e20697320616c7265616479206578697374696e6700000000604482015260640161032f565b6110a361109e368890038801886147fa565b611718565b6110e45760405162461bcd60e51b815260206004820152601260248201527170616972206e6f7420617661696c61626c6560701b604482015260640161032f565b6110ed846131fd565b6111395760405162461bcd60e51b815260206004820152601c60248201527f7468697320696e74657276616c206973206e6f7420616c6c6f77656400000000604482015260640161032f565b600085116111815760405162461bcd60e51b81526020600482015260156024820152744e6f20616d6f756e742073657420666f722044434160581b604482015260640161032f565b8215801561118e57508115155b806111a1575082158015906111a1575081155b6112065760405162461bcd60e51b815260206004820152603060248201527f536574206f6e6c7920616d6f756e74207065722073776170206f72206e756d6260448201526f6572206f6620697465726174696f6e7360801b606482015260840161032f565b600061271060075487611219919061486c565b6112239190614883565b61122d9087614746565b9050600080851161125f5761271084611246848361486c565b6112509190614883565b61125a9190614883565b611261565b845b905061127b61127360208a018a6146c9565b33308a613703565b336000908152600460205260409020546112d257600580546001810182556000919091527f036b6384b5eca791c62761152d0c79bb0604c104a5fb6f4eb0703f3154bb3db00180546001600160a01b031916331790555b3360009081526004602090815260409182902082516101e0601f8e01849004909302810183019093526101c083018c81529092918291908e908e9081908501838280828437600092019190915250505090825250602001611338368c90038c018c6147fa565b8152602001848152602001888152602001868152602001838152602001428152602001428152602001600081526020016000815260200160006003811115611382576113826144ac565b8152336020820152851515604082015260600186156113a25760006113a5565b60015b60018111156113b6576113b66144ac565b905281546001810183556000928352602090922081519192600c02019081906113df90826148f3565b506020828101518051600184810180546001600160a01b0319166001600160a01b0393841617905592820151600285018054604094850151929093166001600160a81b031990931692909217600160a01b91151591909102179055830151600380840191909155606084015160048401556080840151600584015560a0840151600684015560c0840151600784015560e084015160088401556101008401516009840155610120840151600a840155610140840151600b840180549193909260ff199092169184908111156114b6576114b66144ac565b0217905550610160820151600b820180546101808501511515600160a81b0260ff60a81b196001600160a01b039094166101000293909316610100600160b01b031990911617919091178082556101a0840151919060ff60b01b1916600160b01b836001811115611529576115296144ac565b021790555050336000818152600460205260409020549091507f4b82aa16e071a61de1a6b9aeec9edab0356331f8122c78683b469ac8e685dabc9061157090600190614746565b604080519182524260208301520160405180910390a250505050505050505050565b61159a611608565b6001600160a01b0381166115ff5760405162461bcd60e51b815260206004820152602660248201527f4f776e61626c653a206e6577206f776e657220697320746865207a65726f206160448201526564647265737360d01b606482015260840161032f565b61013481612cab565b6000546001600160a01b0316331461060d5760405162461bcd60e51b815260206004820181905260248201527f4f776e61626c653a2063616c6c6572206973206e6f7420746865206f776e6572604482015260640161032f565b6000816001600160a01b03166318160ddd6040518163ffffffff1660e01b8152600401602060405180830381865afa9250505080156116be575060408051601f3d908101601f191682019092526116bb91810190614781565b60015b6116fb573d8080156116ec576040519150601f19603f3d011682016040523d82523d6000602084013e6116f1565b606091505b5060009392505050565b801561170a5750600192915050565b50600092915050565b919050565b6000805b60015481101561170a5782600001516001600160a01b031660018281548110611747576117476146e6565b60009182526020909120600290910201546001600160a01b03161480156117a9575082602001516001600160a01b03166001828154811061178a5761178a6146e6565b60009182526020909120600160029092020101546001600160a01b0316145b156117b75750600192915050565b806117c18161479a565b91505061171c565b610134816040516024016117dd91906149b3565b60408051601f198184030181529190526020810180516001600160e01b031663104c13eb60e21b179052613741565b61182d6040518060600160405280602f8152602001614d9a602f91396117c9565b60005b6005548110156101345760006004600060058481548110611853576118536146e6565b60009182526020808320909101546001600160a01b031683528281019390935260409182018120805483518186028101860190945280845292939092919084015b82821015611a8157838290600052602060002090600c0201604051806101c00160405290816000820180546118c8906146fc565b80601f01602080910402602001604051908101604052809291908181526020018280546118f4906146fc565b80156119415780601f1061191657610100808354040283529160200191611941565b820191906000526020600020905b81548152906001019060200180831161192457829003601f168201915b5050509183525050604080516060808201835260018501546001600160a01b039081168352600286015490811660208481019190915260ff600160a01b90920482161515848601528501929092526003808601549385019390935260048501549084015260058401546080840152600684015460a0840152600784015460c0840152600884015460e08401526009840154610100840152600a840154610120840152600b840154610140909301921690811115611a0057611a006144ac565b6003811115611a1157611a116144ac565b8152600b8201546001600160a01b03610100820416602083015260ff600160a81b8204811615156040840152606090920191600160b01b909104166001811115611a5d57611a5d6144ac565b6001811115611a6e57611a6e6144ac565b8152505081526020019060010190611894565b50505050905060005b815181101561219c576000828281518110611aa757611aa76146e6565b602002602001015161014001516003811115611ac557611ac56144ac565b148015611af15750818181518110611adf57611adf6146e6565b60209081029190910101516101800151155b8015611b415750818181518110611b0a57611b0a6146e6565b602002602001015160600151828281518110611b2857611b286146e6565b602002602001015160c00151611b3e91906149c6565b42115b1561218a57818181518110611b5857611b586146e6565b60200260200101516101000151828281518110611b7757611b776146e6565b602002602001015160400151611b8d9190614746565b828281518110611b9f57611b9f6146e6565b602002602001015160a001511115611c8d5760016004600060058681548110611bca57611bca6146e6565b60009182526020808320909101546001600160a01b031683528201929092526040019020805483908110611c0057611c006146e6565b60009182526020909120600b600c9092020101805460ff19166001836003811115611c2d57611c2d6144ac565b021790555060058381548110611c4557611c456146e6565b6000918252602090912001546040516001600160a01b0390911690600080516020614c7c83398151915290611c80908490600190429061475f565b60405180910390a261218a565b60036004600060058681548110611ca657611ca66146e6565b60009182526020808320909101546001600160a01b031683528201929092526040019020805483908110611cdc57611cdc6146e6565b60009182526020909120600b600c9092020101805460ff19166001836003811115611d0957611d096144ac565b02179055506000612710600854848481518110611d2857611d286146e6565b602002602001015160a00151611d3e919061486c565b611d489190614883565b9050600081848481518110611d5f57611d5f6146e6565b602002602001015160a00151611d759190614746565b90506000611dbf858581518110611d8e57611d8e6146e6565b60200260200101516020015183878781518110611dad57611dad6146e6565b60200260200101516101600151613763565b90508260066000878781518110611dd857611dd86146e6565b602002602001015160200151600001516001600160a01b03166001600160a01b031681526020019081526020016000206000828254611e1791906149c6565b9091555060009050858581518110611e3157611e316146e6565b60200260200101516101a001516001811115611e4f57611e4f6144ac565b03611ec95760016004600060058981548110611e6d57611e6d6146e6565b60009182526020808320909101546001600160a01b031683528201929092526040019020805486908110611ea357611ea36146e6565b90600052602060002090600c02016005016000828254611ec39190614746565b90915550505b806004600060058981548110611ee157611ee16146e6565b60009182526020808320909101546001600160a01b031683528201929092526040019020805486908110611f1757611f176146e6565b90600052602060002090600c0201600a016000828254611f3791906149c6565b92505081905550848481518110611f5057611f506146e6565b602002602001015160a001516004600060058981548110611f7357611f736146e6565b60009182526020808320909101546001600160a01b031683528201929092526040019020805486908110611fa957611fa96146e6565b90600052602060002090600c02016009016000828254611fc991906149c6565b9250508190555060006004600060058981548110611fe957611fe96146e6565b60009182526020808320909101546001600160a01b03168352820192909252604001902080548690811061201f5761201f6146e6565b60009182526020909120600b600c9092020101805460ff1916600183600381111561204c5761204c6144ac565b0217905550426004600060058981548110612069576120696146e6565b60009182526020808320909101546001600160a01b03168352820192909252604001902080548690811061209f5761209f6146e6565b90600052602060002090600c0201600701819055507fd77c8e9038ce2394ee0528e954e75f9693506cd98cc37fc1d0415fd4c49ba23e600587815481106120e8576120e86146e6565b9060005260206000200160009054906101000a90046001600160a01b031685878781518110612119576121196146e6565b6020026020010151602001516000015188888151811061213b5761213b6146e6565b6020026020010151602001516020015189898151811061215d5761215d6146e6565b602002602001015160a00151864260405161217e97969594939291906149d9565b60405180910390a15050505b806121948161479a565b915050611a8a565b505080806121a99061479a565b915050611830565b6121d26040518060600160405280602a8152602001614c9c602a91396117c9565b60005b60015481101561013457600061224d600183815481106121f7576121f76146e6565b60009182526020918290206040805160608101825260029390930290910180546001600160a01b03908116845260019091015490811693830193909352600160a01b90920460ff16151591810191909152613b2e565b9050600061271060085483612262919061486c565b61226c9190614883565b9050600061227a8284614746565b905060006122ec60018681548110612294576122946146e6565b60009182526020918290206040805160608101825260029390930290910180546001600160a01b03908116845260019091015490811693830193909352600160a01b90920460ff161515918101919091528330613763565b9050826006600060018881548110612306576123066146e6565b600091825260208083206002909202909101546001600160a01b031683528201929092526040018120805490919061233f9084906149c6565b92505081905550612367604051806060016040528060248152602001614d39602491396117c9565b60005b600554811015612c93576000600460006005848154811061238d5761238d6146e6565b60009182526020808320909101546001600160a01b031683528281019390935260409182018120805483518186028101860190945280845292939092919084015b828210156125bb57838290600052602060002090600c0201604051806101c0016040529081600082018054612402906146fc565b80601f016020809104026020016040519081016040528092919081815260200182805461242e906146fc565b801561247b5780601f106124505761010080835404028352916020019161247b565b820191906000526020600020905b81548152906001019060200180831161245e57829003601f168201915b5050509183525050604080516060808201835260018501546001600160a01b039081168352600286015490811660208481019190915260ff600160a01b90920482161515848601528501929092526003808601549385019390935260048501549084015260058401546080840152600684015460a0840152600784015460c0840152600884015460e08401526009840154610100840152600a840154610120840152600b84015461014090930192169081111561253a5761253a6144ac565b600381111561254b5761254b6144ac565b8152600b8201546001600160a01b03610100820416602083015260ff600160a81b8204811615156040840152606090920191600160b01b909104166001811115612597576125976144ac565b60018111156125a8576125a86144ac565b81525050815260200190600101906123ce565b50505050905060005b8151811015612c7e576125ee6040518060600160405280602b8152602001614d0e602b91396117c9565b6003828281518110612602576126026146e6565b602002602001015161014001516003811115612620576126206144ac565b14801561264f575081818151811061263a5761263a6146e6565b60200260200101516101800151151560011515145b801561269f5750818181518110612668576126686146e6565b602002602001015160600151828281518110612686576126866146e6565b602002602001015160c0015161269c91906149c6565b42115b15612c6c578181815181106126b6576126b66146e6565b602002602001015161010001518282815181106126d5576126d56146e6565b6020026020010151604001516126eb9190614746565b8282815181106126fd576126fd6146e6565b602002602001015160a0015111156127eb5760016004600060058681548110612728576127286146e6565b60009182526020808320909101546001600160a01b03168352820192909252604001902080548390811061275e5761275e6146e6565b60009182526020909120600b600c9092020101805460ff1916600183600381111561278b5761278b6144ac565b0217905550600583815481106127a3576127a36146e6565b6000918252602090912001546040516001600160a01b0390911690600080516020614c7c833981519152906127de908490600190429061475f565b60405180910390a2612c6c565b60006127108589858581518110612804576128046146e6565b602002602001015160a0015161271061281d919061486c565b6128279190614883565b612831919061486c565b61283b9190614883565b90506000838381518110612851576128516146e6565b60200260200101516101a00151600181111561286f5761286f6144ac565b03612901576001838381518110612888576128886146e6565b60200260200101516080015161289e9190614746565b60046000600587815481106128b5576128b56146e6565b60009182526020808320909101546001600160a01b0316835282019290925260400190208054849081106128eb576128eb6146e6565b90600052602060002090600c0201600501819055505b828281518110612913576129136146e6565b602002602001015160a00151838381518110612931576129316146e6565b6020026020010151610100015161294891906149c6565b600460006005878154811061295f5761295f6146e6565b60009182526020808320909101546001600160a01b031683528201929092526040019020805484908110612995576129956146e6565b90600052602060002090600c020160090181905550808383815181106129bd576129bd6146e6565b602002602001015161012001516129d491906149c6565b60046000600587815481106129eb576129eb6146e6565b60009182526020808320909101546001600160a01b031683528201929092526040019020805484908110612a2157612a216146e6565b90600052602060002090600c0201600a018190555060006004600060058781548110612a4f57612a4f6146e6565b60009182526020808320909101546001600160a01b031683528201929092526040019020805484908110612a8557612a856146e6565b60009182526020909120600b600c9092020101805460ff19166001836003811115612ab257612ab26144ac565b0217905550426004600060058781548110612acf57612acf6146e6565b60009182526020808320909101546001600160a01b031683528201929092526040019020805484908110612b0557612b056146e6565b90600052602060002090600c0201600701819055507fd77c8e9038ce2394ee0528e954e75f9693506cd98cc37fc1d0415fd4c49ba23e60058581548110612b4e57612b4e6146e6565b9060005260206000200160009054906101000a90046001600160a01b031683858581518110612b7f57612b7f6146e6565b60200260200101516020015160000151868681518110612ba157612ba16146e6565b60200260200101516020015160200151878781518110612bc357612bc36146e6565b602002602001015160a001518642604051612be497969594939291906149d9565b60405180910390a1612c0d6040518060600160405280603d8152602001614d5d603d91396117c9565b612c6960058581548110612c2357612c236146e6565b9060005260206000200160009054906101000a90046001600160a01b0316848481518110612c5357612c536146e6565b6020026020010151602001516020015183613fac565b50505b80612c768161479a565b9150506125c4565b50508080612c8b9061479a565b91505061236a565b50505050508080612ca39061479a565b9150506121d5565b600080546001600160a01b038381166001600160a01b0319831681178455604051919092169283917f8be0079c531659141344cd1fd0a4f28419497f9722a3daafe3b4186f6b6457e09190a35050565b6040516001600160a01b038316602482015260448101829052612d5e90849063a9059cbb60e01b906064015b60408051601f198184030181529190526020810180516001600160e01b03166001600160e01b03199093169290921790915261404e565b505050565b6001600160a01b0382166000908152600460205260409020805460018201919083908110612d9357612d936146e6565b6000918252602080832084546001810186559484529220600c91820290920192020180612dc08382614a1d565b5060018281015482820180546001600160a01b039283166001600160a01b0319918216179091556002808601805491860180549290941692821683178455546001600160a81b0319909116909117600160a01b9182900460ff90811615159092021790915560038085015481850155600480860154908501556005808601549085015560068086015490850155600780860154908501556008808601549085015560098086015490850155600a8086015490850155600b808601549085018054919093169360ff19909116918490811115612e9d57612e9d6144ac565b0217905550600b828101805491830180546001600160a01b036101009485900416909302610100600160a81b0319841681178255825460ff600160a81b918290048116151590910260ff60a81b19909216610100600160b01b031990951694909417178082559154600160b01b9081900490931692909160ff60b01b191690836001811115612f2e57612f2e6144ac565b021790555050506001600160a01b03821660009081526004602052604090208054612f5b90600190614746565b81548110612f6b57612f6b6146e6565b90600052602060002090600c020160046000846001600160a01b03166001600160a01b031681526020019081526020016000206000018281548110612fb257612fb26146e6565b60009182526020909120600c9091020180612fcd8382614a1d565b5060018281015482820180546001600160a01b039283166001600160a01b0319918216179091556002808601805491860180549290941692821683178455546001600160a81b0319909116909117600160a01b9182900460ff90811615159092021790915560038085015481850155600480860154908501556005808601549085015560068086015490850155600780860154908501556008808601549085015560098086015490850155600a8086015490850155600b808601549085018054919093169360ff199091169184908111156130aa576130aa6144ac565b0217905550600b828101805491830180546001600160a01b036101009485900416909302610100600160a81b0319841681178255825460ff600160a81b918290048116151590910260ff60a81b19909216610100600160b01b031990951694909417178082559154600160b01b9081900490931692909160ff60b01b19169083600181111561313b5761313b6144ac565b021790555050506001600160a01b038216600090815260046020526040902080548061316957613169614af8565b60008281526020812060001990920191600c830201906131898282614348565b506001810180546001600160a01b03191690556002810180546001600160a81b0319169055600060038201819055600482018190556005820181905560068201819055600782018190556008820181905560098201819055600a820155600b0180546001600160b81b031916905590555050565b6000805b60025481101561170a57826002828154811061321f5761321f6146e6565b9060005260206000200154036132385750600192915050565b806132428161479a565b915050613201565b60015460609060009067ffffffffffffffff81111561326b5761326b6147b3565b604051908082528060200260200182016040528015613294578160200160208202803683370190505b5090506000805b6001548110156133a9576000805b8381101561332657600183815481106132c4576132c46146e6565b600091825260209091206002909102015485516001600160a01b03909116908690839081106132f5576132f56146e6565b60200260200101516001600160a01b0316036133145760019150613326565b8061331e8161479a565b9150506132a9565b5080613396576001828154811061333f5761333f6146e6565b600091825260209091206002909102015484516001600160a01b0390911690859085908110613370576133706146e6565b6001600160a01b0390921660209283029190910190910152826133928161479a565b9350505b50806133a18161479a565b91505061329b565b508152919050565b6001600160a01b038316600090815260046020908152604080832080548251818502810185019093528083528493849084015b828210156135d157838290600052602060002090600c0201604051806101c0016040529081600082018054613418906146fc565b80601f0160208091040260200160405190810160405280929190818152602001828054613444906146fc565b80156134915780601f1061346657610100808354040283529160200191613491565b820191906000526020600020905b81548152906001019060200180831161347457829003601f168201915b5050509183525050604080516060808201835260018501546001600160a01b039081168352600286015490811660208481019190915260ff600160a01b90920482161515848601528501929092526003808601549385019390935260048501549084015260058401546080840152600684015460a0840152600784015460c0840152600884015460e08401526009840154610100840152600a840154610120840152600b840154610140909301921690811115613550576135506144ac565b6003811115613561576135616144ac565b8152600b8201546001600160a01b03610100820416602083015260ff600160a81b8204811615156040840152606090920191600160b01b9091041660018111156135ad576135ad6144ac565b60018111156135be576135be6144ac565b81525050815260200190600101906133e4565b50505050905060005b81518110156136f5578181815181106135f5576135f56146e6565b6020026020010151600001516040516020016136119190614b0e565b60405160208183030381529060405280519060200120856040516020016136389190614b0e565b604051602081830303815290604052805190602001201480156136915750818181518110613668576136686146e6565b602002602001015160200151600001516001600160a01b031684600001516001600160a01b0316145b80156136d357508181815181106136aa576136aa6146e6565b602002602001015160200151602001516001600160a01b031684602001516001600160a01b0316145b156136e3576001925050506136fc565b806136ed8161479a565b9150506135da565b5060009150505b9392505050565b6040516001600160a01b038085166024830152831660448201526064810182905261373b9085906323b872dd60e01b90608401612d27565b50505050565b80516a636f6e736f6c652e6c6f6790602083016000808383865afa5050505050565b82516040516370a0823160e01b815230600482015260009184916001600160a01b03909116906370a0823190602401602060405180830381865afa1580156137af573d6000803e3d6000fd5b505050506040513d601f19601f820116820180604052508101906137d39190614781565b1161382c5760405162461bcd60e51b8152602060048201526024808201527f496e73756666696369656e742062616c616e6365206f66206f726967696e205460448201526337b5b2b760e11b606482015260840161032f565b835160035460405163095ea7b360e01b81526001600160a01b0391821660048201526024810186905291169063095ea7b3906044016020604051808303816000875af1158015613880573d6000803e3d6000fd5b505050506040513d601f19601f820116820180604052508101906138a49190614b2a565b506003546040805163c45a015560e01b815290516000926001600160a01b03169163c45a01559160048083019260209291908290030181865afa1580156138ef573d6000803e3d6000fd5b505050506040513d601f19601f820116820180604052508101906139139190614b47565b8551602087015160405163e6a4390560e01b81526001600160a01b039283166004820152908216602482015291169063e6a4390590604401602060405180830381865afa158015613968573d6000803e3d6000fd5b505050506040513d601f19601f8201168201806040525081019061398c9190614b47565b90506001600160a01b03811615613ae9576040805160028082526060820183526000926020830190803683370190505090508560000151816000815181106139d6576139d66146e6565b60200260200101906001600160a01b031690816001600160a01b031681525050856020015181600181518110613a0e57613a0e6146e6565b6001600160a01b03909216602092830291909101909101528415613ade576003546000906001600160a01b03166338ed173987838589613a50426107086149c6565b6040518663ffffffff1660e01b8152600401613a70959493929190614b64565b6000604051808303816000875af1158015613a8f573d6000803e3d6000fd5b505050506040513d6000823e601f3d908101601f19168201604052613ab79190810190614bd5565b905080600181518110613acc57613acc6146e6565b602002602001015193505050506136fc565b6000925050506136fc565b60405162461bcd60e51b815260206004820152601260248201527114185a5c88191bd95cdb89dd08195e1a5cdd60721b604482015260640161032f565b509392505050565b60008060005b600554811015613fa55760006004600060058481548110613b5757613b576146e6565b60009182526020808320909101546001600160a01b031683528281019390935260409182018120805483518186028101860190945280845292939092919084015b82821015613d8557838290600052602060002090600c0201604051806101c0016040529081600082018054613bcc906146fc565b80601f0160208091040260200160405190810160405280929190818152602001828054613bf8906146fc565b8015613c455780601f10613c1a57610100808354040283529160200191613c45565b820191906000526020600020905b815481529060010190602001808311613c2857829003601f168201915b5050509183525050604080516060808201835260018501546001600160a01b039081168352600286015490811660208481019190915260ff600160a01b90920482161515848601528501929092526003808601549385019390935260048501549084015260058401546080840152600684015460a0840152600784015460c0840152600884015460e08401526009840154610100840152600a840154610120840152600b840154610140909301921690811115613d0457613d046144ac565b6003811115613d1557613d156144ac565b8152600b8201546001600160a01b03610100820416602083015260ff600160a81b8204811615156040840152606090920191600160b01b909104166001811115613d6157613d616144ac565b6001811115613d7257613d726144ac565b8152505081526020019060010190613b98565b50505050905060005b8151811015613f905785600001516001600160a01b0316828281518110613db757613db76146e6565b602002602001015160200151600001516001600160a01b0316148015613e13575085602001516001600160a01b0316828281518110613df857613df86146e6565b602002602001015160200151602001516001600160a01b0316145b8015613e4e57506000828281518110613e2e57613e2e6146e6565b602002602001015161014001516003811115613e4c57613e4c6144ac565b145b8015613e7c5750818181518110613e6757613e676146e6565b60200260200101516101800151151560011515145b8015613ecc5750818181518110613e9557613e956146e6565b602002602001015160600151828281518110613eb357613eb36146e6565b602002602001015160c00151613ec991906149c6565b42115b15613f7e57818181518110613ee357613ee36146e6565b602002602001015160a0015184613efa91906149c6565b935060036004600060058681548110613f1557613f156146e6565b60009182526020808320909101546001600160a01b031683528201929092526040019020805483908110613f4b57613f4b6146e6565b60009182526020909120600b600c9092020101805460ff19166001836003811115613f7857613f786144ac565b02179055505b80613f888161479a565b915050613d8e565b50508080613f9d9061479a565b915050613b34565b5092915050565b6000613fcf604051806060016040528060248152602001614cea602491396117c9565b6009546040516378e3686560e01b81526001600160a01b038681166004830152858116602483015260448201859052909116906378e36865906064016020604051808303816000875af115801561402a573d6000803e3d6000fd5b505050506040513d601f19601f82011682018060405250810190613b269190614781565b60006140a3826040518060400160405280602081526020017f5361666545524332303a206c6f772d6c6576656c2063616c6c206661696c6564815250856001600160a01b03166141209092919063ffffffff16565b805190915015612d5e57808060200190518101906140c19190614b2a565b612d5e5760405162461bcd60e51b815260206004820152602a60248201527f5361666545524332303a204552433230206f7065726174696f6e20646964206e6044820152691bdd081cdd58d8d9595960b21b606482015260840161032f565b606061412f8484600085614137565b949350505050565b6060824710156141985760405162461bcd60e51b815260206004820152602660248201527f416464726573733a20696e73756666696369656e742062616c616e636520666f6044820152651c8818d85b1b60d21b606482015260840161032f565b600080866001600160a01b031685876040516141b49190614b0e565b60006040518083038185875af1925050503d80600081146141f1576040519150601f19603f3d011682016040523d82523d6000602084013e6141f6565b606091505b509150915061420787838387614212565b979650505050505050565b6060831561428157825160000361427a576001600160a01b0385163b61427a5760405162461bcd60e51b815260206004820152601d60248201527f416464726573733a2063616c6c20746f206e6f6e2d636f6e7472616374000000604482015260640161032f565b508161412f565b61412f83838151156142965781518083602001fd5b8060405162461bcd60e51b815260040161032f91906149b3565b604080516101c08101825260608082528251908101835260008082526020828101829052938201529091820190815260200160008152602001600081526020016000815260200160008152602001600081526020016000815260200160008152602001600081526020016000600381111561432d5761432d6144ac565b81526000602082018190526040820181905260609091015290565b508054614354906146fc565b6000825580601f10614364575050565b601f01602090049060005260206000209081019061013491905b80821115614392576000815560010161437e565b5090565b6000602082840312156143a857600080fd5b5035919050565b6001600160a01b038116811461013457600080fd5b801515811461013457600080fd5b8035611713816143c4565b6000806000606084860312156143f257600080fd5b83356143fd816143af565b9250602084013561440d816143af565b9150604084013561441d816143c4565b809150509250925092565b6000806040838503121561443b57600080fd5b8235915060208301356004811061445157600080fd5b809150509250929050565b60005b8381101561447757818101518382015260200161445f565b50506000910152565b6000815180845261449881602086016020860161445c565b601f01601f19169290920160200192915050565b634e487b7160e01b600052602160045260246000fd5b600481106144d2576144d26144ac565b9052565b600281106144d2576144d26144ac565b6020815260008251610200806020850152614505610220850183614480565b9150602085015161453d604086018280516001600160a01b039081168352602080830151909116908301526040908101511515910152565b50604085015160a0850152606085015160c0850152608085015160e085015260a0850151610100818187015260c08701519150610120828188015260e0880151925061014083818901528289015193506101609250838389015281890151935061018091508382890152808901519350506101a06145bd818901856144c2565b918801516001600160a01b03166101c088015287015115156101e087015286015190506145ec828601826144d6565b5090949350505050565b60006060828403121561460857600080fd5b50919050565b600080600080600080600080610120898b03121561462b57600080fd5b883567ffffffffffffffff8082111561464357600080fd5b818b0191508b601f83011261465757600080fd5b81358181111561466657600080fd5b8c602082850101111561467857600080fd5b60209283019a50985061468f918c91508b016145f6565b95506080890135945060a0890135935060c0890135925060e089013591506146ba6101008a016143d2565b90509295985092959890939650565b6000602082840312156146db57600080fd5b81356136fc816143af565b634e487b7160e01b600052603260045260246000fd5b600181811c9082168061471057607f821691505b60208210810361460857634e487b7160e01b600052602260045260246000fd5b634e487b7160e01b600052601160045260246000fd5b8181038181111561475957614759614730565b92915050565b8381526060810161477360208301856144c2565b826040830152949350505050565b60006020828403121561479357600080fd5b5051919050565b6000600182016147ac576147ac614730565b5060010190565b634e487b7160e01b600052604160045260246000fd5b604051601f8201601f1916810167ffffffffffffffff811182821017156147f2576147f26147b3565b604052919050565b60006060828403121561480c57600080fd5b6040516060810181811067ffffffffffffffff8211171561482f5761482f6147b3565b604052823561483d816143af565b8152602083013561484d816143af565b60208201526040830135614860816143c4565b60408201529392505050565b808202811582820484141761475957614759614730565b6000826148a057634e487b7160e01b600052601260045260246000fd5b500490565b601f821115612d5e57600081815260208120601f850160051c810160208610156148cc5750805b601f850160051c820191505b818110156148eb578281556001016148d8565b505050505050565b815167ffffffffffffffff81111561490d5761490d6147b3565b6149218161491b84546146fc565b846148a5565b602080601f831160018114614956576000841561493e5750858301515b600019600386901b1c1916600185901b1785556148eb565b600085815260208120601f198616915b8281101561498557888601518255948401946001909101908401614966565b50858210156149a35787850151600019600388901b60f8161c191681555b5050505050600190811b01905550565b6020815260006136fc6020830184614480565b8082018082111561475957614759614730565b6001600160a01b03978816815260208101969096529386166040860152919094166060840152608083019390935260a082019290925260c081019190915260e00190565b818103614a28575050565b614a3282546146fc565b67ffffffffffffffff811115614a4a57614a4a6147b3565b614a588161491b84546146fc565b6000601f821160018114614a8c5760008315614a745750848201545b600019600385901b1c1916600184901b178455614af1565b600085815260209020601f19841690600086815260209020845b83811015614ac65782860154825560019586019590910190602001614aa6565b5085831015614ae45781850154600019600388901b60f8161c191681555b50505060018360011b0184555b5050505050565b634e487b7160e01b600052603160045260246000fd5b60008251614b2081846020870161445c565b9190910192915050565b600060208284031215614b3c57600080fd5b81516136fc816143c4565b600060208284031215614b5957600080fd5b81516136fc816143af565b600060a082018783526020878185015260a0604085015281875180845260c086019150828901935060005b81811015614bb45784516001600160a01b031683529383019391830191600101614b8f565b50506001600160a01b03969096166060850152505050608001529392505050565b60006020808385031215614be857600080fd5b825167ffffffffffffffff80821115614c0057600080fd5b818501915085601f830112614c1457600080fd5b815181811115614c2657614c266147b3565b8060051b9150614c378483016147c9565b8181529183018401918481019088841115614c5157600080fd5b938501935b83851015614c6f57845182529385019390850190614c56565b9897505050505050505056fe1ee227ac62b3f06afe9df95df8797497fe7b63f1e4c3cc120f8a333b6f65d1962121212121213f3f3f3f3f3f3f3f3f3f3f3f3f3f3f3f3f3f3f3f21212121212121212121212121212121212121212121504f555555555555554554545454545454545454212121212121212121213f3f3f3f3f3f3f3f3f3f3f3f3f3f3f3f3f3f636f69636f69636f69636f69636f69636f692121213f3f3f3f4a4a4a4a4a4a4a4a4a4a4a4a4a4a4a4a4a4a4a4a4a4a4a4a4a4a4a4a4a4a4a4a4a212121212121215353535353535353535353535353535353535353535353535353535353212121212121212121212121212121212121212121212121212121212121212121212121212121212121212121212121212121212121212121212121212121212121515151515151515151515151515151515151515151515151515151515151515151515151515151515151212121a26469706673582212208724239a2dad28ffd0252fde0051e109c094bece2497bbcbbc608b0da54b3f3964736f6c63430008120033",
  "immutableReferences": {},
  "source": "// SPDX-License-Identifier: MIT\n\npragma solidity ^0.8.18;\n\nimport '../node_modules/@uniswap/v2-periphery/contracts/interfaces/IUniswapV2Router02.sol';\nimport '../node_modules/@uniswap/v2-core/contracts/interfaces/IUniswapV2Factory.sol';\nimport '../node_modules/@uniswap/v2-core/contracts/interfaces/IUniswapV2Pair.sol';\nimport \"../node_modules/@openzeppelin/contracts/access/Ownable.sol\";\nimport \"../node_modules/@openzeppelin/contracts/token/ERC20/IERC20.sol\";\nimport \"../node_modules/@openzeppelin/contracts/token/ERC20/ERC20.sol\";\nimport \"../node_modules/@openzeppelin/contracts/token/ERC20/utils/SafeERC20.sol\";\nimport \"./interfaces/IHodlUpRewardsManager.sol\";\nimport \"../node_modules/@ganache/console.log/console.sol\";\nusing SafeERC20 for IERC20;\n\n/**\n * @title HodlUpHub contract\n * @dev This contract is used for hodling tokens and executing automated periodic swaps.\n */\ncontract HodlUpHub is Ownable {\n\n    /**\n     * @dev Enum representing the available statuses for a position.\n     * Active: the position is currently being executed\n     * Pause: the position is temporarily paused\n     * Closed: the position has been fully executed and cannot be reopened\n     * Locked: the position is locked for DCA, meaning that the tokens have been swapped but not transferred to the user\n     */\n    enum Status {\n        Active,\n        Pause,\n        Closed,\n        Locked\n    }\n\n    enum DcaMode {\n        Limited,\n        Unlimited\n    }\n\n    Pair[] public pairsAvailable;\n    uint256[] public intervalsAvailable;\n    IUniswapV2Router02 public uniswapRouter;\n\n    struct User {\n        Position[] positions;\n        Position[] closedPositions;\n    }\n\n    struct Pair {\n        IERC20 token_from;\n        IERC20 token_to;\n        bool active;\n    }\n\n    struct Position {\n        string name;\n        Pair pair;\n        uint totalAmountToSwap;\n        uint interval;\n        uint dcaIterations;\n        uint amountPerSwap;\n        uint lastPurchaseTimestamp;\n        uint createdTimestamp;\n        uint SwappedFromBalance;\n        uint SwappedToBalance;  \n        Status status;\n        address recipient;\n        bool stacking;\n        DcaMode mode;\n    }\n\n    mapping(address => User) users;\n    address [] public userAddresses;\n\n    mapping(IERC20 => uint) feesBalances;\n\n    // Represents fee percentage taken for deposit. \n    // to avoid rounding errors, we multiply it by 10000. 1% is represented by 100\n    uint public depositFee;\n    uint public swapFee;\n\n    IHodlUpRewardsManager public rewardsManager;\n\n    constructor(address _uniswapRouter, address _rewardManager, uint _depositFee, uint _swapFee) {\n        uniswapRouter = IUniswapV2Router02(_uniswapRouter);\n        rewardsManager = IHodlUpRewardsManager(_rewardManager);\n        depositFee = _depositFee;\n        swapFee = _swapFee;\n    }\n\n    function _userExists(address _userAddress) internal view returns (bool) {\n        return (users[_userAddress].positions.length > 0);\n    }\n\n    // execute DCA for users that has choosen to stack\n    function _executeStakedDCA () internal {\n                                    console.log(\"!!!!!!????????????????????!!!!!!!!!!!!!!!!\");\n        for (uint i = 0; i < pairsAvailable.length; i++) {\n            uint totalToSwap = _getTotalToSwap(pairsAvailable[i]);\n            uint swapFees = (totalToSwap * swapFee / 10000);\n            uint totalToSwapAfterFees = totalToSwap - swapFees;\n            uint totalSwapped = _swap(pairsAvailable[i], totalToSwapAfterFees, address(this)) ;\n            feesBalances[pairsAvailable[i].token_from]+=swapFees;\n                 console.log(\"!!!!SSSSSSSSSSSSSSSSSSSSSSSSSSSSS!!!\");\n            for (uint256 j = 0; j < userAddresses.length; j++) {\n                Position[] memory positions = users[userAddresses[j]].positions;\n                for (uint256 k = 0; k < positions.length; k++) {\n                    console.log(\"!!!????JJJJJJJJJJJJJJJJJJJJJJJJJJJJJJJJJ!!!\");\n                    if (positions[k].status == Status.Locked &&\n                        positions[k].stacking == true &&\n                        block.timestamp > positions[k].lastPurchaseTimestamp + positions[k].interval\n                    ) {\n                        if (positions[k].amountPerSwap > (positions[k].totalAmountToSwap - positions[k].SwappedFromBalance)){\n                            users[userAddresses[j]].positions[k].status = Status.Pause;\n                            emit PositionStatusChanged (userAddresses[j], k, Status.Pause, block.timestamp);  \n                        }\n                        else{\n                            uint amountSwapped = ( ( (positions[k].amountPerSwap * 10000) / totalToSwap ) * totalSwapped) / 10000;\n                            if (positions[k].mode == DcaMode.Limited){\n                                users[userAddresses[j]].positions[k].dcaIterations = positions[k].dcaIterations - 1 ;\n                            }\n                            users[userAddresses[j]].positions[k].SwappedFromBalance = positions[k].SwappedFromBalance + positions[k].amountPerSwap;\n                            users[userAddresses[j]].positions[k].SwappedToBalance = positions[k].SwappedToBalance + amountSwapped;\n                            users[userAddresses[j]].positions[k].status = Status.Active;\n                            users[userAddresses[j]].positions[k].lastPurchaseTimestamp = block.timestamp;\n                            emit DCAExecuted (userAddresses[j], k, address(positions[k].pair.token_from), address(positions[k].pair.token_to), positions[k].amountPerSwap, amountSwapped, block.timestamp);\n                            console.log(\"!!!!!!!!!!!!!!!!!!!!!!!!!!!!!!!!!!!!!!!!!!!!!!!!!!!!!!!!!!!!!\");\n                            _generateRewards(userAddresses[j], ERC20(address(positions[k].pair.token_to)), amountSwapped);\n                        }\n                     }\n                }\n            }\n        }\n    }\n\n    // execute DCA for users that want to get back directly to their wallet\n    function _executeIndividualDCA () internal {\n   console.log(\"!!QQQQQQQQQQQQQQQQQQQQQQQQQQQQQQQQQQQQQQQQQQ!!!\");\n        for (uint256 i = 0; i < userAddresses.length; i++) {\n            Position[] memory positions = users[userAddresses[i]].positions;\n            for (uint256 j = 0; j < positions.length; j++) {\n                if (positions[j].status == Status.Active &&\n                    positions[j].stacking == false &&\n                    block.timestamp > (positions[j].lastPurchaseTimestamp + positions[j].interval)\n                ) {\n                    if (positions[j].amountPerSwap > (positions[j].totalAmountToSwap - positions[j].SwappedFromBalance)){\n                        users[userAddresses[i]].positions[j].status = Status.Pause;\n                        emit PositionStatusChanged (userAddresses[i], j, Status.Pause, block.timestamp);  \n                    }\n                    else{\n                        users[userAddresses[i]].positions[j].status = Status.Locked;\n                        uint swapFees = (positions[j].amountPerSwap * swapFee / 10000);\n                        uint amoutPerSwapAfterFees =  positions[j].amountPerSwap - (swapFees);\n                        uint resultSwap = _swap( positions[j].pair, amoutPerSwapAfterFees, positions[j].recipient) ;\n                        feesBalances[positions[j].pair.token_from]+=swapFees;\n                        if (positions[j].mode == DcaMode.Limited){\n                            users[userAddresses[i]].positions[j].dcaIterations -= 1 ;\n                        }\n                        users[userAddresses[i]].positions[j].SwappedToBalance += resultSwap;\n                        users[userAddresses[i]].positions[j].SwappedFromBalance += positions[j].amountPerSwap;\n                        users[userAddresses[i]].positions[j].status = Status.Active;\n                        users[userAddresses[i]].positions[j].lastPurchaseTimestamp = block.timestamp;\n                        emit DCAExecuted (userAddresses[i], j, address(positions[j].pair.token_from), address(positions[j].pair.token_to), positions[j].amountPerSwap, resultSwap, block.timestamp);\n                    }\n                }\n            }\n        }\n    }\n\n    function _pairExists(Pair memory _pair) internal view returns (bool) {\n        for (uint i = 0; i < pairsAvailable.length; i++) {\n            if (pairsAvailable[i].token_from == _pair.token_from && pairsAvailable[i].token_to == _pair.token_to) {\n                return true;\n            }\n        }\n        return false;\n    }\n\n    function _intervalExists(uint256 interval) internal view returns (bool) {\n        for (uint i = 0; i < intervalsAvailable.length; i++) {\n            if (intervalsAvailable[i]==interval) {\n                return true;\n            }\n        }\n        return false;\n    }\n\n    function _getTotalToSwap(Pair memory _pair) internal returns(uint256) {\n        uint totalToSwap;\n        for (uint256 i = 0; i < userAddresses.length; i++) {\n            Position[] memory positions = users[userAddresses[i]].positions;\n            for (uint256 j = 0; j < positions.length; j++) {\n                if (positions[j].pair.token_from == _pair.token_from &&\n                    positions[j].pair.token_to == _pair.token_to &&\n                    positions[j].status == Status.Active &&\n                    positions[j].stacking == true &&\n                    block.timestamp > positions[j].lastPurchaseTimestamp + positions[j].interval\n                ) {                 \n                    totalToSwap +=  positions[j].amountPerSwap;\n                    users[userAddresses[i]].positions[j].status = Status.Locked;\n                }\n            }\n        }\n        return totalToSwap;\n    }\n\n    function _swap(Pair memory _pair, uint256 _amount, address _receiver) internal returns(uint256) {\n        //require(block.timestamp >= lastSwapTime + swapInterval, \"DCAUniswapV2: Not enough time has passed since the last swap\");\n        require(IERC20(_pair.token_from).balanceOf(address(this)) > _amount, \"Insufficient balance of origin Token\");\n        IERC20(_pair.token_from).approve(address(uniswapRouter), _amount);\n\n        address pair = IUniswapV2Factory(IUniswapV2Router02(uniswapRouter).factory()).getPair(address(_pair.token_from), address(_pair.token_to));\n        if (pair != address(0)){\n\n            address[] memory path = new address[](2);\n            path[0] = address(_pair.token_from);\n            path[1] = address(_pair.token_to);\n\n            if (_amount != 0){\n                    uint[] memory outputAmounts = uniswapRouter.swapExactTokensForTokens(_amount, 0, path, _receiver, block.timestamp + 1800);\n                    return outputAmounts[1];\n            }\n            else{\n                return 0;\n            }\n        }\n        else{\n            revert(\"Pair doesn't exist\");\n        }\n    }\n\n    function _positionExists(address _user, Position memory _position) internal view returns (bool) {\n        Position[] memory positions = users[_user].positions;\n        for (uint256 i = 0; i < positions.length; i++) {\n            if(keccak256(abi.encodePacked(_position.name)) == keccak256(abi.encodePacked(positions[i].name)) &&\n                _position.pair.token_from == positions[i].pair.token_from && _position.pair.token_to == positions[i].pair.token_to) {\n                return true;\n            }\n        }\n        return false;\n    }\n\n    function _positionExists(address _user, string memory _name, Pair memory _pair) internal view returns (bool) {\n        Position[] memory positions = users[_user].positions;\n        for (uint256 i = 0; i < positions.length; i++) {\n            if(keccak256(abi.encodePacked(_name)) == keccak256(abi.encodePacked(positions[i].name)) &&\n                _pair.token_from == positions[i].pair.token_from && _pair.token_to == positions[i].pair.token_to) {\n                return true;\n            }\n        }\n        return false;\n    }\n\n    function _getAllInputToken() internal view returns (IERC20[] memory) {\n        IERC20[] memory tokenAddresses = new IERC20[](pairsAvailable.length);\n        uint256 distinctTokenCount = 0;\n        \n        for (uint256 i = 0; i < pairsAvailable.length; i++) {\n            // Check if the token_from address has already been added to the list\n            bool exists = false;\n            for (uint256 j = 0; j < distinctTokenCount; j++) {\n                if (tokenAddresses[j] == pairsAvailable[i].token_from) {\n                    exists = true;\n                    break;\n                }\n            }\n            // If token_from has not been added to the list yet, add it\n            if (!exists) {\n                tokenAddresses[distinctTokenCount] = pairsAvailable[i].token_from;\n                distinctTokenCount++;\n            }\n        }\n        // Resize the tokenAddresses array to remove any empty elements\n        assembly {\n            mstore(tokenAddresses, distinctTokenCount)\n        } \n        return tokenAddresses;\n    }\n\n    function _checkValidERC20(address tokenAddress) internal view returns (bool) {\n        try IERC20(tokenAddress).totalSupply() returns (uint256 _supply) {\n            if (_supply > 0 ){\n                return true;\n            }\n            return false;\n        } catch (bytes memory) {\n            return false;\n        }\n    }\n\n    function _achivePosition(address _user, uint _positionId) internal {\n        users[_user].closedPositions.push( users[_user].positions[_positionId]);\n        users[_user].positions[_positionId] =  users[_user].positions[users[_user].positions.length - 1];\n        users[_user].positions.pop();\n    }\n\n\n    function addPair(address _token_from, address _token_to, bool _active) external onlyOwner {\n        require(_token_from != _token_to, \"Input and Output tokens must be different\");\n        require(_checkValidERC20(_token_from), \"Input Token is not available. No Supply\");\n        require(_checkValidERC20(_token_to), \"Output Token is not available. No Supply\");\n        require(!_pairExists(Pair(IERC20(_token_from), IERC20(_token_to), true)), \"Pair already exists\");\n        pairsAvailable.push(Pair(IERC20(_token_from), IERC20(_token_to), _active)); \n        emit PairAdded(_token_from, _token_to, block.timestamp);\n    }\n\n    function addInterval(uint256 _interval) external onlyOwner {\n        require(!_intervalExists(_interval), \"Interval already added\");\n        intervalsAvailable.push(_interval); \n        emit IntervalAdded(_interval, block.timestamp);\n    }\n\n    function createPosition(string calldata _name, Pair calldata _pair, uint _totalAmountToSwap, uint _interval, uint _amountPerSwap, uint _dcaIterations, bool _stacking) external {\n        require(bytes(_name).length > 0, \"name must be set\"); \n        require(!_positionExists(msg.sender, _name, _pair), \"Position is already existing\");\n        require(_pairExists(_pair), \"pair not available\");\n        require(_intervalExists(_interval), \"this interval is not allowed\");\n        require(_totalAmountToSwap > 0, \"No amount set for DCA\");\n        require( (_amountPerSwap == 0 && _dcaIterations != 0) || (_amountPerSwap != 0 && _dcaIterations == 0), \"Set only amount per swap or number of iterations\" );\n\n        uint totalToSwapAfterFees = _totalAmountToSwap - (_totalAmountToSwap * depositFee / 10000);\n        uint amountPerSwap = _amountPerSwap > 0 ? _amountPerSwap : ((totalToSwapAfterFees * 10000) / _dcaIterations) / 10000;\n\n        SafeERC20.safeTransferFrom(_pair.token_from, msg.sender, address(this), _totalAmountToSwap);   \n        if (!_userExists(msg.sender)){\n            userAddresses.push(msg.sender);\n        }\n        users[msg.sender].positions.push(Position(_name, _pair, totalToSwapAfterFees, _interval, _dcaIterations, amountPerSwap, block.timestamp, block.timestamp, 0, 0, Status.Active ,msg.sender, _stacking, _dcaIterations == 0 ? DcaMode.Unlimited : DcaMode.Limited ));\n    \n        emit PositionCreated (msg.sender, users[msg.sender].positions.length-1, block.timestamp);  \n    }\n\n    function setPositionStatus(uint _positionId, Status _status) external {\n        require(_positionId < users[msg.sender].positions.length , \"Position doesn't exist\");\n        users[msg.sender].positions[_positionId].status=_status;\n        emit PositionStatusChanged (msg.sender, _positionId, _status, block.timestamp);  \n    }\n\n    function closePosition(uint _positionId) external {\n        require(_positionId < users[msg.sender].positions.length , \"Position doesn't exist\");\n        Position memory positionToClose = users[msg.sender].positions[_positionId];\n        require(positionToClose.status != Status.Locked, \"Position is Locked: non closable\");\n\n        if ( (positionToClose.totalAmountToSwap - positionToClose.SwappedFromBalance) > 0 ) {\n            SafeERC20.safeTransfer(positionToClose.pair.token_from, msg.sender, positionToClose.totalAmountToSwap - positionToClose.SwappedFromBalance);\n            emit TokenClaimed( address (positionToClose.pair.token_from), positionToClose.totalAmountToSwap - positionToClose.SwappedFromBalance, block.timestamp );\n        }\n        if ( (positionToClose.SwappedToBalance) > 0 ) {\n            // swapped token could only be claimed for staking position. not stacking position swap directly to the user wallet.\n            if (positionToClose.stacking == true){\n                SafeERC20.safeTransfer(positionToClose.pair.token_to, msg.sender, positionToClose.SwappedToBalance);\n                emit TokenClaimed( address (positionToClose.pair.token_to), positionToClose.SwappedToBalance, block.timestamp );\n            }\n        }\n        users[msg.sender].positions[_positionId].status = Status.Closed;\n        _achivePosition(msg.sender, _positionId);\n        emit PositionStatusChanged (msg.sender, _positionId, Status.Closed, block.timestamp);  \n    }\n\n    function claimRewards(uint _positionId) external {\n        //require(_positionId < users[msg.sender].positions.length , \"Position doesn't exist\");\n        //users[msg.sender].positions[_positionId].status = Status.Closed;\n    }\n\n    function claimFees() external onlyOwner{\n        IERC20[] memory tokens = _getAllInputToken();\n        for (uint256 i = 0; i < tokens.length; i++) {\n            uint256 balance = tokens[i].balanceOf(address(this));\n            if (balance > 0) {\n                SafeERC20.safeTransfer(tokens[i], msg.sender, feesBalances[tokens[i]]);\n            }\n        }\n    }\n\n    function getPosition(uint _positionId) external view returns (Position memory){\n        return users[msg.sender].positions[_positionId];\n    }\n\n    function executeSwap() external onlyOwner{\n           console.log(\"!!!!!!POUUUUUUUETTTTTTTTTT!!!!!!!!!!\");\n        _executeIndividualDCA();\n        _executeStakedDCA();\n    }\n\n    function _generateRewards(address _user, ERC20 _token, uint _amount) internal returns (uint256) {\n        console.log(\"??????????????????coicoicoicoicoicoi\");\n       rewardsManager.generateRewards(_user, _token, _amount);\n    }\n\n    //     function generateRewards(address _user, ERC20 _token, uint _amount) external {\n    //     require (authorizedContracts[msg.sender] == true, \"Access not authorized\" );\n    //     balances[_user] += _getDailyRewardWithAPY(_token, _amount);\n    // }\n\n    event PairAdded(address token_from, address token_to, uint date);\n    event IntervalAdded(uint256 interval, uint date);\n    event PositionCreated (address indexed sender, uint256 id, uint date);\n    event PositionStatusChanged (address indexed sender, uint256 id, Status status, uint date);\n    event DCAExecuted (address user, uint positionId, address token_from, address token_to, uint amountToSwap, uint amountSwapped, uint date);\n    event TokenClaimed (address token, uint amount, uint date);\n\n}\n\n",
  "sourcePath": "/home/sjouany/ProjetFinal/HodlUp/truffle/contracts/HodlUpHub.sol",
  "compiler": {
    "name": "solc",
    "version": "0.8.18+commit.87f61d96.Emscripten.clang"
  },
  "schemaVersion": "3.4.13",
  "updatedAt": "2023-04-10T14:32:17.972Z",
  "networkType": "ethereum",
  "devdoc": {
    "details": "This contract is used for hodling tokens and executing automated periodic swaps.",
    "kind": "dev",
    "methods": {
      "owner()": {
        "details": "Returns the address of the current owner."
      },
      "renounceOwnership()": {
        "details": "Leaves the contract without owner. It will not be possible to call `onlyOwner` functions anymore. Can only be called by the current owner. NOTE: Renouncing ownership will leave the contract without an owner, thereby removing any functionality that is only available to the owner."
      },
      "transferOwnership(address)": {
        "details": "Transfers ownership of the contract to a new account (`newOwner`). Can only be called by the current owner."
      }
    },
    "title": "HodlUpHub contract",
    "version": 1
  },
  "userdoc": {
    "kind": "user",
    "methods": {},
    "version": 1
  }
}