{
  "contractName": "HodlUpHub",
  "abi": [
    {
      "inputs": [
        {
          "internalType": "address",
          "name": "_uniswapRouter",
          "type": "address"
        },
        {
          "internalType": "uint256",
          "name": "_depositFee",
          "type": "uint256"
        },
        {
          "internalType": "uint256",
          "name": "_swapFee",
          "type": "uint256"
        }
      ],
      "stateMutability": "nonpayable",
      "type": "constructor"
    },
    {
      "anonymous": false,
      "inputs": [
        {
          "indexed": false,
          "internalType": "address",
          "name": "user",
          "type": "address"
        },
        {
          "indexed": false,
          "internalType": "uint256",
          "name": "positionId",
          "type": "uint256"
        },
        {
          "indexed": false,
          "internalType": "address",
          "name": "token_from",
          "type": "address"
        },
        {
          "indexed": false,
          "internalType": "address",
          "name": "token_to",
          "type": "address"
        },
        {
          "indexed": false,
          "internalType": "uint256",
          "name": "amountToSwap",
          "type": "uint256"
        },
        {
          "indexed": false,
          "internalType": "uint256",
          "name": "amountSwapped",
          "type": "uint256"
        },
        {
          "indexed": false,
          "internalType": "uint256",
          "name": "date",
          "type": "uint256"
        }
      ],
      "name": "DCAExecuted",
      "type": "event"
    },
    {
      "anonymous": false,
      "inputs": [
        {
          "indexed": false,
          "internalType": "uint256",
          "name": "interval",
          "type": "uint256"
        },
        {
          "indexed": false,
          "internalType": "uint256",
          "name": "date",
          "type": "uint256"
        }
      ],
      "name": "IntervalAdded",
      "type": "event"
    },
    {
      "anonymous": false,
      "inputs": [
        {
          "indexed": true,
          "internalType": "address",
          "name": "previousOwner",
          "type": "address"
        },
        {
          "indexed": true,
          "internalType": "address",
          "name": "newOwner",
          "type": "address"
        }
      ],
      "name": "OwnershipTransferred",
      "type": "event"
    },
    {
      "anonymous": false,
      "inputs": [
        {
          "indexed": false,
          "internalType": "address",
          "name": "token_from",
          "type": "address"
        },
        {
          "indexed": false,
          "internalType": "address",
          "name": "token_to",
          "type": "address"
        },
        {
          "indexed": false,
          "internalType": "uint256",
          "name": "date",
          "type": "uint256"
        }
      ],
      "name": "PairAdded",
      "type": "event"
    },
    {
      "anonymous": false,
      "inputs": [
        {
          "indexed": true,
          "internalType": "address",
          "name": "sender",
          "type": "address"
        },
        {
          "indexed": false,
          "internalType": "uint256",
          "name": "id",
          "type": "uint256"
        },
        {
          "indexed": false,
          "internalType": "uint256",
          "name": "date",
          "type": "uint256"
        }
      ],
      "name": "PositionCreated",
      "type": "event"
    },
    {
      "anonymous": false,
      "inputs": [
        {
          "indexed": true,
          "internalType": "address",
          "name": "sender",
          "type": "address"
        },
        {
          "indexed": false,
          "internalType": "uint256",
          "name": "id",
          "type": "uint256"
        },
        {
          "indexed": false,
          "internalType": "enum HodlUpHub.Status",
          "name": "status",
          "type": "uint8"
        },
        {
          "indexed": false,
          "internalType": "uint256",
          "name": "date",
          "type": "uint256"
        }
      ],
      "name": "PositionStatusChanged",
      "type": "event"
    },
    {
      "anonymous": false,
      "inputs": [
        {
          "indexed": false,
          "internalType": "address",
          "name": "token",
          "type": "address"
        },
        {
          "indexed": false,
          "internalType": "uint256",
          "name": "amount",
          "type": "uint256"
        },
        {
          "indexed": false,
          "internalType": "uint256",
          "name": "date",
          "type": "uint256"
        }
      ],
      "name": "TokenClaimed",
      "type": "event"
    },
    {
      "inputs": [],
      "name": "depositFee",
      "outputs": [
        {
          "internalType": "uint256",
          "name": "",
          "type": "uint256"
        }
      ],
      "stateMutability": "view",
      "type": "function",
      "constant": true
    },
    {
      "inputs": [
        {
          "internalType": "uint256",
          "name": "",
          "type": "uint256"
        }
      ],
      "name": "intervalsAvailable",
      "outputs": [
        {
          "internalType": "uint256",
          "name": "",
          "type": "uint256"
        }
      ],
      "stateMutability": "view",
      "type": "function",
      "constant": true
    },
    {
      "inputs": [],
      "name": "owner",
      "outputs": [
        {
          "internalType": "address",
          "name": "",
          "type": "address"
        }
      ],
      "stateMutability": "view",
      "type": "function",
      "constant": true
    },
    {
      "inputs": [
        {
          "internalType": "uint256",
          "name": "",
          "type": "uint256"
        }
      ],
      "name": "pairsAvailable",
      "outputs": [
        {
          "internalType": "contract IERC20",
          "name": "token_from",
          "type": "address"
        },
        {
          "internalType": "contract IERC20",
          "name": "token_to",
          "type": "address"
        },
        {
          "internalType": "bool",
          "name": "active",
          "type": "bool"
        }
      ],
      "stateMutability": "view",
      "type": "function",
      "constant": true
    },
    {
      "inputs": [],
      "name": "renounceOwnership",
      "outputs": [],
      "stateMutability": "nonpayable",
      "type": "function"
    },
    {
      "inputs": [],
      "name": "swapFee",
      "outputs": [
        {
          "internalType": "uint256",
          "name": "",
          "type": "uint256"
        }
      ],
      "stateMutability": "view",
      "type": "function",
      "constant": true
    },
    {
      "inputs": [
        {
          "internalType": "address",
          "name": "newOwner",
          "type": "address"
        }
      ],
      "name": "transferOwnership",
      "outputs": [],
      "stateMutability": "nonpayable",
      "type": "function"
    },
    {
      "inputs": [
        {
          "internalType": "uint256",
          "name": "",
          "type": "uint256"
        }
      ],
      "name": "userAddresses",
      "outputs": [
        {
          "internalType": "address",
          "name": "",
          "type": "address"
        }
      ],
      "stateMutability": "view",
      "type": "function",
      "constant": true
    },
    {
      "inputs": [
        {
          "internalType": "address",
          "name": "_token_from",
          "type": "address"
        },
        {
          "internalType": "address",
          "name": "_token_to",
          "type": "address"
        },
        {
          "internalType": "bool",
          "name": "_active",
          "type": "bool"
        }
      ],
      "name": "addPair",
      "outputs": [],
      "stateMutability": "nonpayable",
      "type": "function"
    },
    {
      "inputs": [
        {
          "internalType": "uint256",
          "name": "_interval",
          "type": "uint256"
        }
      ],
      "name": "addInterval",
      "outputs": [],
      "stateMutability": "nonpayable",
      "type": "function"
    },
    {
      "inputs": [
        {
          "internalType": "string",
          "name": "_name",
          "type": "string"
        },
        {
          "components": [
            {
              "internalType": "contract IERC20",
              "name": "token_from",
              "type": "address"
            },
            {
              "internalType": "contract IERC20",
              "name": "token_to",
              "type": "address"
            },
            {
              "internalType": "bool",
              "name": "active",
              "type": "bool"
            }
          ],
          "internalType": "struct HodlUpHub.Pair",
          "name": "_pair",
          "type": "tuple"
        },
        {
          "internalType": "uint256",
          "name": "_totalAmountToSwap",
          "type": "uint256"
        },
        {
          "internalType": "uint256",
          "name": "_interval",
          "type": "uint256"
        },
        {
          "internalType": "uint256",
          "name": "_amountPerSwap",
          "type": "uint256"
        },
        {
          "internalType": "uint256",
          "name": "_dcaIterations",
          "type": "uint256"
        },
        {
          "internalType": "bool",
          "name": "_stacking",
          "type": "bool"
        }
      ],
      "name": "createPosition",
      "outputs": [],
      "stateMutability": "nonpayable",
      "type": "function"
    },
    {
      "inputs": [
        {
          "internalType": "uint256",
          "name": "_positionId",
          "type": "uint256"
        },
        {
          "internalType": "enum HodlUpHub.Status",
          "name": "_status",
          "type": "uint8"
        }
      ],
      "name": "setPositionStatus",
      "outputs": [],
      "stateMutability": "nonpayable",
      "type": "function"
    },
    {
      "inputs": [
        {
          "internalType": "uint256",
          "name": "_positionId",
          "type": "uint256"
        }
      ],
      "name": "closePosition",
      "outputs": [],
      "stateMutability": "nonpayable",
      "type": "function"
    },
    {
      "inputs": [],
      "name": "claimFees",
      "outputs": [],
      "stateMutability": "nonpayable",
      "type": "function"
    },
    {
      "inputs": [
        {
          "internalType": "uint256",
          "name": "_positionId",
          "type": "uint256"
        }
      ],
      "name": "getPosition",
      "outputs": [
        {
          "components": [
            {
              "internalType": "string",
              "name": "name",
              "type": "string"
            },
            {
              "components": [
                {
                  "internalType": "contract IERC20",
                  "name": "token_from",
                  "type": "address"
                },
                {
                  "internalType": "contract IERC20",
                  "name": "token_to",
                  "type": "address"
                },
                {
                  "internalType": "bool",
                  "name": "active",
                  "type": "bool"
                }
              ],
              "internalType": "struct HodlUpHub.Pair",
              "name": "pair",
              "type": "tuple"
            },
            {
              "internalType": "uint256",
              "name": "totalAmountToSwap",
              "type": "uint256"
            },
            {
              "internalType": "uint256",
              "name": "interval",
              "type": "uint256"
            },
            {
              "internalType": "uint256",
              "name": "dcaIterations",
              "type": "uint256"
            },
            {
              "internalType": "uint256",
              "name": "amountPerSwap",
              "type": "uint256"
            },
            {
              "internalType": "uint256",
              "name": "lastPurchaseTimestamp",
              "type": "uint256"
            },
            {
              "internalType": "uint256",
              "name": "createdTimestamp",
              "type": "uint256"
            },
            {
              "internalType": "uint256",
              "name": "SwappedFromBalance",
              "type": "uint256"
            },
            {
              "internalType": "uint256",
              "name": "SwappedToBalance",
              "type": "uint256"
            },
            {
              "internalType": "enum HodlUpHub.Status",
              "name": "status",
              "type": "uint8"
            },
            {
              "internalType": "address",
              "name": "recipient",
              "type": "address"
            },
            {
              "internalType": "bool",
              "name": "stacking",
              "type": "bool"
            },
            {
              "internalType": "enum HodlUpHub.DcaMode",
              "name": "mode",
              "type": "uint8"
            }
          ],
          "internalType": "struct HodlUpHub.Position",
          "name": "",
          "type": "tuple"
        }
      ],
      "stateMutability": "view",
      "type": "function",
      "constant": true
    },
    {
      "inputs": [],
      "name": "executeSwap",
      "outputs": [],
      "stateMutability": "nonpayable",
      "type": "function"
    }
  ],
  "bytecode": "0x60806040523480156200001157600080fd5b5060405162003a6e38038062003a6e8339810160408190526200003491620000bc565b6200003f336200006c565b600380546001600160a01b0319166001600160a01b03949094169390931790925560075560085562000101565b600080546001600160a01b038381166001600160a01b0319831681178455604051919092169283917f8be0079c531659141344cd1fd0a4f28419497f9722a3daafe3b4186f6b6457e09190a35050565b600080600060608486031215620000d257600080fd5b83516001600160a01b0381168114620000ea57600080fd5b602085015160409095015190969495509392505050565b61395d80620001116000396000f3fe608060405234801561001057600080fd5b50600436106101005760003560e01c80638da5cb5b11610097578063d294f09311610066578063d294f09314610212578063eb02c3011461021a578063f1be589e1461023a578063f2fde38b1461024d57600080fd5b80638da5cb5b146101c8578063a126d601146101d9578063c1c7d5b4146101ec578063c46de5f7146101ff57600080fd5b8063599f5810116100d3578063599f5810146101745780636319eb781461017c57806367a52793146101b7578063715018a6146101c057600080fd5b806319ef091b146101055780631e2305e71461011a578063502c9bd51461014057806354cf2aeb1461016b575b600080fd5b610118610113366004613219565b610260565b005b61012d610128366004613264565b610531565b6040519081526020015b60405180910390f35b61015361014e366004613264565b610552565b6040516001600160a01b039091168152602001610137565b61012d60085481565b61011861057c565b61018f61018a366004613264565b61058e565b604080516001600160a01b039485168152939092166020840152151590820152606001610137565b61012d60075481565b6101186105d4565b6000546001600160a01b0316610153565b6101186101e7366004613264565b6105e6565b6101186101fa366004613264565b610a77565b61011861020d36600461327d565b610b3e565b610118610c28565b61022d610228366004613264565b610d51565b604051610137919061333b565b610118610248366004613463565b610f53565b61011861025b36600461351e565b6114f4565b61026861156d565b816001600160a01b0316836001600160a01b0316036102e05760405162461bcd60e51b815260206004820152602960248201527f496e70757420616e64204f757470757420746f6b656e73206d75737420626520604482015268191a5999995c995b9d60ba1b60648201526084015b60405180910390fd5b6102e9836115c7565b6103455760405162461bcd60e51b815260206004820152602760248201527f496e70757420546f6b656e206973206e6f7420617661696c61626c652e204e6f60448201526620537570706c7960c81b60648201526084016102d7565b61034e826115c7565b6103ab5760405162461bcd60e51b815260206004820152602860248201527f4f757470757420546f6b656e206973206e6f7420617661696c61626c652e204e6044820152676f20537570706c7960c01b60648201526084016102d7565b6103e36040518060600160405280856001600160a01b03168152602001846001600160a01b031681526020016001151581525061167d565b156104265760405162461bcd60e51b81526020600482015260136024820152725061697220616c72656164792065786973747360681b60448201526064016102d7565b60408051606080820183526001600160a01b03868116808452868216602080860182815288151587890190815260018054808201825560009190915297517fb10e2d527612073b26eecdfd717e6a320cf44b4afac2b0732d9fcbe2b7fa0cf6600290990298890180546001600160a01b03191691881691909117905590517fb10e2d527612073b26eecdfd717e6a320cf44b4afac2b0732d9fcbe2b7fa0cf790970180549151979095166001600160a81b031990911617600160a01b961515969096029590951790925584519081529283015242928201929092527fedd4b700a2980a33a301ad39ced5dbc1c98a786ecb28da5bf3926d5165005d1b910160405180910390a1505050565b6002818154811061054157600080fd5b600091825260209091200154905081565b6005818154811061056257600080fd5b6000918252602090912001546001600160a01b0316905081565b61058461156d565b61058c61172e565b565b6001818154811061059e57600080fd5b6000918252602090912060029091020180546001909101546001600160a01b03918216925090811690600160a01b900460ff1683565b6105dc61156d565b61058c600061216b565b33600090815260046020526040902054811061063d5760405162461bcd60e51b8152602060048201526016602482015275141bdcda5d1a5bdb88191bd95cdb89dd08195e1a5cdd60521b60448201526064016102d7565b33600090815260046020526040812080548390811061065e5761065e61353b565b90600052602060002090600c0201604051806101c001604052908160008201805461068890613551565b80601f01602080910402602001604051908101604052809291908181526020018280546106b490613551565b80156107015780601f106106d657610100808354040283529160200191610701565b820191906000526020600020905b8154815290600101906020018083116106e457829003601f168201915b5050509183525050604080516060808201835260018501546001600160a01b039081168352600286015490811660208481019190915260ff600160a01b90920482161515848601528501929092526003808601549385019390935260048501549084015260058401546080840152600684015460a0840152600784015460c0840152600884015460e08401526009840154610100840152600a840154610120840152600b8401546101409093019216908111156107c0576107c0613301565b60038111156107d1576107d1613301565b8152600b8201546001600160a01b03610100820416602083015260ff600160a81b8204811615156040840152606090920191600160b01b90910416600181111561081d5761081d613301565b600181111561082e5761082e613301565b90525090506003816101400151600381111561084c5761084c613301565b036108995760405162461bcd60e51b815260206004820181905260248201527f506f736974696f6e206973204c6f636b65643a206e6f6e20636c6f7361626c6560448201526064016102d7565b600081610100015182604001516108b0919061359b565b1115610944576108dd8160200151600001513383610100015184604001516108d8919061359b565b6121bb565b60208101515161010082015160408301517fcb1e26772e882480176a3e649a5f7937dc0ec3f50126283faf56f927b070be80929161091a9161359b565b604080516001600160a01b0390931683526020830191909152429082015260600160405180910390a15b610120810151156109cc5761018081015115156001036109cc57610976816020015160200151338361012001516121bb565b602081810151810151610120830151604080516001600160a01b03909316835292820152428183015290517fcb1e26772e882480176a3e649a5f7937dc0ec3f50126283faf56f927b070be809181900360600190a15b336000908152600460205260409020805460029190849081106109f1576109f161353b565b60009182526020909120600b600c9092020101805460ff19166001836003811115610a1e57610a1e613301565b0217905550610a2d3383612223565b336001600160a01b03167f1ee227ac62b3f06afe9df95df8797497fe7b63f1e4c3cc120f8a333b6f65d19683600242604051610a6b939291906135b4565b60405180910390a25050565b610a7f61156d565b610a88816126bd565b15610ace5760405162461bcd60e51b8152602060048201526016602482015275125b9d195c9d985b08185b1c9958591e48185919195960521b60448201526064016102d7565b600280546001810182556000919091527f405787fa12a823e0f2b7631cc41b3ba8828b3321ca811111fa75cd3aa3bb5ace01819055604080518281524260208201527f57cb492e05adb4a4f47294924a582ecb2f196432c96c592d9a24ba793dcda7da910160405180910390a150565b336000908152600460205260409020548210610b955760405162461bcd60e51b8152602060048201526016602482015275141bdcda5d1a5bdb88191bd95cdb89dd08195e1a5cdd60521b60448201526064016102d7565b336000908152600460205260409020805482919084908110610bb957610bb961353b565b60009182526020909120600b600c9092020101805460ff19166001836003811115610be657610be6613301565b0217905550336001600160a01b03167f1ee227ac62b3f06afe9df95df8797497fe7b63f1e4c3cc120f8a333b6f65d196838342604051610a6b939291906135b4565b610c3061156d565b6000610c3a61270a565b905060005b8151811015610d4d576000828281518110610c5c57610c5c61353b565b60209081029190910101516040516370a0823160e01b81523060048201526001600160a01b03909116906370a0823190602401602060405180830381865afa158015610cac573d6000803e3d6000fd5b505050506040513d601f19601f82011682018060405250810190610cd091906135d6565b90508015610d3a57610d3a838381518110610ced57610ced61353b565b60200260200101513360066000878781518110610d0c57610d0c61353b565b60200260200101516001600160a01b03166001600160a01b03168152602001908152602001600020546121bb565b5080610d45816135ef565b915050610c3f565b5050565b610d59613105565b336000908152600460205260409020805483908110610d7a57610d7a61353b565b90600052602060002090600c0201604051806101c0016040529081600082018054610da490613551565b80601f0160208091040260200160405190810160405280929190818152602001828054610dd090613551565b8015610e1d5780601f10610df257610100808354040283529160200191610e1d565b820191906000526020600020905b815481529060010190602001808311610e0057829003601f168201915b5050509183525050604080516060808201835260018501546001600160a01b039081168352600286015490811660208481019190915260ff600160a01b90920482161515848601528501929092526003808601549385019390935260048501549084015260058401546080840152600684015460a0840152600784015460c0840152600884015460e08401526009840154610100840152600a840154610120840152600b840154610140909301921690811115610edc57610edc613301565b6003811115610eed57610eed613301565b8152600b8201546001600160a01b03610100820416602083015260ff600160a81b8204811615156040840152606090920191600160b01b909104166001811115610f3957610f39613301565b6001811115610f4a57610f4a613301565b90525092915050565b86610f935760405162461bcd60e51b815260206004820152601060248201526f1b985b59481b5d5cdd081899481cd95d60821b60448201526064016102d7565b610fe23389898080601f016020809104026020016040519081016040528093929190818152602001838380828437600092019190915250610fdd92505050368a90038a018a61361e565b612871565b1561102f5760405162461bcd60e51b815260206004820152601c60248201527f506f736974696f6e20697320616c7265616479206578697374696e670000000060448201526064016102d7565b6110466110413688900388018861361e565b61167d565b6110875760405162461bcd60e51b815260206004820152601260248201527170616972206e6f7420617661696c61626c6560701b60448201526064016102d7565b611090846126bd565b6110dc5760405162461bcd60e51b815260206004820152601c60248201527f7468697320696e74657276616c206973206e6f7420616c6c6f7765640000000060448201526064016102d7565b600085116111245760405162461bcd60e51b81526020600482015260156024820152744e6f20616d6f756e742073657420666f722044434160581b60448201526064016102d7565b8215801561113157508115155b8061114457508215801590611144575081155b6111a95760405162461bcd60e51b815260206004820152603060248201527f536574206f6e6c7920616d6f756e74207065722073776170206f72206e756d6260448201526f6572206f6620697465726174696f6e7360801b60648201526084016102d7565b60008084116111d957612710836111c08883613690565b6111ca91906136a7565b6111d491906136a7565b6111db565b835b3360009081526004602052604090205490915061123557600580546001810182556000919091527f036b6384b5eca791c62761152d0c79bb0604c104a5fb6f4eb0703f3154bb3db00180546001600160a01b031916331790555b3360009081526004602090815260409182902082516101e0601f8d01849004909302810183019093526101c083018b81529092918291908d908d908190850183828082843760009201919091525050509082525060200161129b368b90038b018b61361e565b81526020018881526020018781526020018581526020018381526020014281526020014281526020016000815260200160008152602001600060038111156112e5576112e5613301565b815233602082015284151560408201526060018515611305576000611308565b60015b600181111561131957611319613301565b905281546001810183556000928352602090922081519192600c02019081906113429082613717565b506020828101518051600184810180546001600160a01b0319166001600160a01b0393841617905592820151600285018054604094850151929093166001600160a81b031990931692909217600160a01b91151591909102179055830151600380840191909155606084015160048401556080840151600584015560a0840151600684015560c0840151600784015560e084015160088401556101008401516009840155610120840151600a840155610140840151600b840180549193909260ff1990921691849081111561141957611419613301565b0217905550610160820151600b820180546101808501511515600160a81b0260ff60a81b196001600160a01b039094166101000293909316610100600160b01b031990911617919091178082556101a0840151919060ff60b01b1916600160b01b83600181111561148c5761148c613301565b021790555050336000818152600460205260409020549091507f4b82aa16e071a61de1a6b9aeec9edab0356331f8122c78683b469ac8e685dabc906114d39060019061359b565b604080519182524260208301520160405180910390a2505050505050505050565b6114fc61156d565b6001600160a01b0381166115615760405162461bcd60e51b815260206004820152602660248201527f4f776e61626c653a206e6577206f776e657220697320746865207a65726f206160448201526564647265737360d01b60648201526084016102d7565b61156a8161216b565b50565b6000546001600160a01b0316331461058c5760405162461bcd60e51b815260206004820181905260248201527f4f776e61626c653a2063616c6c6572206973206e6f7420746865206f776e657260448201526064016102d7565b6000816001600160a01b03166318160ddd6040518163ffffffff1660e01b8152600401602060405180830381865afa925050508015611623575060408051601f3d908101601f19168201909252611620918101906135d6565b60015b611660573d808015611651576040519150601f19603f3d011682016040523d82523d6000602084013e611656565b606091505b5060009392505050565b801561166f5750600192915050565b50600092915050565b919050565b6000805b60015481101561166f5782600001516001600160a01b0316600182815481106116ac576116ac61353b565b60009182526020909120600290910201546001600160a01b031614801561170e575082602001516001600160a01b0316600182815481106116ef576116ef61353b565b60009182526020909120600160029092020101546001600160a01b0316145b1561171c5750600192915050565b80611726816135ef565b915050611681565b60005b60055481101561156a57600060046000600584815481106117545761175461353b565b60009182526020808320909101546001600160a01b031683528281019390935260409182018120805483518186028101860190945280845292939092919084015b8282101561198257838290600052602060002090600c0201604051806101c00160405290816000820180546117c990613551565b80601f01602080910402602001604051908101604052809291908181526020018280546117f590613551565b80156118425780601f1061181757610100808354040283529160200191611842565b820191906000526020600020905b81548152906001019060200180831161182557829003601f168201915b5050509183525050604080516060808201835260018501546001600160a01b039081168352600286015490811660208481019190915260ff600160a01b90920482161515848601528501929092526003808601549385019390935260048501549084015260058401546080840152600684015460a0840152600784015460c0840152600884015460e08401526009840154610100840152600a840154610120840152600b84015461014090930192169081111561190157611901613301565b600381111561191257611912613301565b8152600b8201546001600160a01b03610100820416602083015260ff600160a81b8204811615156040840152606090920191600160b01b90910416600181111561195e5761195e613301565b600181111561196f5761196f613301565b8152505081526020019060010190611795565b50505050905060005b81518110156121565760008282815181106119a8576119a861353b565b6020026020010151610140015160038111156119c6576119c6613301565b1480156119f257508181815181106119e0576119e061353b565b60209081029190910101516101800151155b8015611a425750818181518110611a0b57611a0b61353b565b602002602001015160600151828281518110611a2957611a2961353b565b602002602001015160c00151611a3f91906137d7565b42115b1561214457818181518110611a5957611a5961353b565b60200260200101516101000151828281518110611a7857611a7861353b565b602002602001015160400151611a8e919061359b565b828281518110611aa057611aa061353b565b602002602001015160a001511115611ba05760016004600060058681548110611acb57611acb61353b565b60009182526020808320909101546001600160a01b031683528201929092526040019020805483908110611b0157611b0161353b565b60009182526020909120600b600c9092020101805460ff19166001836003811115611b2e57611b2e613301565b021790555060058381548110611b4657611b4661353b565b6000918252602090912001546040516001600160a01b03909116907f1ee227ac62b3f06afe9df95df8797497fe7b63f1e4c3cc120f8a333b6f65d19690611b9390849060019042906135b4565b60405180910390a2612144565b60036004600060058681548110611bb957611bb961353b565b60009182526020808320909101546001600160a01b031683528201929092526040019020805483908110611bef57611bef61353b565b60009182526020909120600b600c9092020101805460ff19166001836003811115611c1c57611c1c613301565b0217905550611c9b828281518110611c3657611c3661353b565b6020026020010151602001516000015160058581548110611c5957611c5961353b565b9060005260206000200160009054906101000a90046001600160a01b031630858581518110611c8a57611c8a61353b565b602002602001015160a00151612bc3565b6000612710600854848481518110611cb557611cb561353b565b602002602001015160a00151611ccb9190613690565b611cd591906136a7565b9050600081848481518110611cec57611cec61353b565b602002602001015160a00151611d02919061359b565b90506000611d4c858581518110611d1b57611d1b61353b565b60200260200101516020015183878781518110611d3a57611d3a61353b565b60200260200101516101600151612c01565b90508260066000878781518110611d6557611d6561353b565b602002602001015160200151600001516001600160a01b03166001600160a01b031681526020019081526020016000206000828254611da491906137d7565b9091555060009050858581518110611dbe57611dbe61353b565b60200260200101516101a001516001811115611ddc57611ddc613301565b03611e565760016004600060058981548110611dfa57611dfa61353b565b60009182526020808320909101546001600160a01b031683528201929092526040019020805486908110611e3057611e3061353b565b90600052602060002090600c02016005016000828254611e50919061359b565b90915550505b806004600060058981548110611e6e57611e6e61353b565b60009182526020808320909101546001600160a01b031683528201929092526040019020805486908110611ea457611ea461353b565b90600052602060002090600c0201600a016000828254611ec491906137d7565b92505081905550848481518110611edd57611edd61353b565b602002602001015160a001516004600060058981548110611f0057611f0061353b565b60009182526020808320909101546001600160a01b031683528201929092526040019020805486908110611f3657611f3661353b565b90600052602060002090600c02016009016000828254611f5691906137d7565b9250508190555060006004600060058981548110611f7657611f7661353b565b60009182526020808320909101546001600160a01b031683528201929092526040019020805486908110611fac57611fac61353b565b60009182526020909120600b600c9092020101805460ff19166001836003811115611fd957611fd9613301565b0217905550426004600060058981548110611ff657611ff661353b565b60009182526020808320909101546001600160a01b03168352820192909252604001902080548690811061202c5761202c61353b565b90600052602060002090600c0201600701819055507fd77c8e9038ce2394ee0528e954e75f9693506cd98cc37fc1d0415fd4c49ba23e600587815481106120755761207561353b565b9060005260206000200160009054906101000a90046001600160a01b0316858787815181106120a6576120a661353b565b602002602001015160200151600001518888815181106120c8576120c861353b565b602002602001015160200151602001518989815181106120ea576120ea61353b565b60209081029190910181015160a090810151604080516001600160a01b039889168152938401969096529386169482019490945293166060840152608083015281018390524260c082015260e00160405180910390a15050505b8061214e816135ef565b91505061198b565b50508080612163906135ef565b915050611731565b600080546001600160a01b038381166001600160a01b0319831681178455604051919092169283917f8be0079c531659141344cd1fd0a4f28419497f9722a3daafe3b4186f6b6457e09190a35050565b6040516001600160a01b03831660248201526044810182905261221e90849063a9059cbb60e01b906064015b60408051601f198184030181529190526020810180516001600160e01b03166001600160e01b031990931692909217909152612ea3565b505050565b6001600160a01b03821660009081526004602052604090208054600282019190839081106122535761225361353b565b6000918252602080832084546001810186559484529220600c9182029092019202018061228083826137ea565b5060018281015482820180546001600160a01b039283166001600160a01b0319918216179091556002808601805491860180549290941692821683178455546001600160a81b0319909116909117600160a01b9182900460ff90811615159092021790915560038085015481850155600480860154908501556005808601549085015560068086015490850155600780860154908501556008808601549085015560098086015490850155600a8086015490850155600b808601549085018054919093169360ff1990911691849081111561235d5761235d613301565b0217905550600b828101805491830180546001600160a01b036101009485900416909302610100600160a81b0319841681178255825460ff600160a81b918290048116151590910260ff60a81b19909216610100600160b01b031990951694909417178082559154600160b01b9081900490931692909160ff60b01b1916908360018111156123ee576123ee613301565b021790555050506001600160a01b0382166000908152600460205260409020805461241b9060019061359b565b8154811061242b5761242b61353b565b90600052602060002090600c020160046000846001600160a01b03166001600160a01b0316815260200190815260200160002060000182815481106124725761247261353b565b60009182526020909120600c909102018061248d83826137ea565b5060018281015482820180546001600160a01b039283166001600160a01b0319918216179091556002808601805491860180549290941692821683178455546001600160a81b0319909116909117600160a01b9182900460ff90811615159092021790915560038085015481850155600480860154908501556005808601549085015560068086015490850155600780860154908501556008808601549085015560098086015490850155600a8086015490850155600b808601549085018054919093169360ff1990911691849081111561256a5761256a613301565b0217905550600b828101805491830180546001600160a01b036101009485900416909302610100600160a81b0319841681178255825460ff600160a81b918290048116151590910260ff60a81b19909216610100600160b01b031990951694909417178082559154600160b01b9081900490931692909160ff60b01b1916908360018111156125fb576125fb613301565b021790555050506001600160a01b0382166000908152600460205260409020805480612629576126296138c5565b60008281526020812060001990920191600c83020190612649828261319d565b506001810180546001600160a01b03191690556002810180546001600160a81b0319169055600060038201819055600482018190556005820181905560068201819055600782018190556008820181905560098201819055600a820155600b0180546001600160b81b031916905590555050565b6000805b60025481101561166f5782600282815481106126df576126df61353b565b9060005260206000200154036126f85750600192915050565b80612702816135ef565b9150506126c1565b60015460609060009067ffffffffffffffff81111561272b5761272b613608565b604051908082528060200260200182016040528015612754578160200160208202803683370190505b5090506000805b600154811015612869576000805b838110156127e657600183815481106127845761278461353b565b600091825260209091206002909102015485516001600160a01b03909116908690839081106127b5576127b561353b565b60200260200101516001600160a01b0316036127d457600191506127e6565b806127de816135ef565b915050612769565b508061285657600182815481106127ff576127ff61353b565b600091825260209091206002909102015484516001600160a01b03909116908590859081106128305761283061353b565b6001600160a01b039092166020928302919091019091015282612852816135ef565b9350505b5080612861816135ef565b91505061275b565b508152919050565b6001600160a01b038316600090815260046020908152604080832080548251818502810185019093528083528493849084015b82821015612a9157838290600052602060002090600c0201604051806101c00160405290816000820180546128d890613551565b80601f016020809104026020016040519081016040528092919081815260200182805461290490613551565b80156129515780601f1061292657610100808354040283529160200191612951565b820191906000526020600020905b81548152906001019060200180831161293457829003601f168201915b5050509183525050604080516060808201835260018501546001600160a01b039081168352600286015490811660208481019190915260ff600160a01b90920482161515848601528501929092526003808601549385019390935260048501549084015260058401546080840152600684015460a0840152600784015460c0840152600884015460e08401526009840154610100840152600a840154610120840152600b840154610140909301921690811115612a1057612a10613301565b6003811115612a2157612a21613301565b8152600b8201546001600160a01b03610100820416602083015260ff600160a81b8204811615156040840152606090920191600160b01b909104166001811115612a6d57612a6d613301565b6001811115612a7e57612a7e613301565b81525050815260200190600101906128a4565b50505050905060005b8151811015612bb557818181518110612ab557612ab561353b565b602002602001015160000151604051602001612ad191906138db565b6040516020818303038152906040528051906020012085604051602001612af891906138db565b60405160208183030381529060405280519060200120148015612b515750818181518110612b2857612b2861353b565b602002602001015160200151600001516001600160a01b031684600001516001600160a01b0316145b8015612b935750818181518110612b6a57612b6a61353b565b602002602001015160200151602001516001600160a01b031684602001516001600160a01b0316145b15612ba357600192505050612bbc565b80612bad816135ef565b915050612a9a565b5060009150505b9392505050565b6040516001600160a01b0380851660248301528316604482015260648101829052612bfb9085906323b872dd60e01b906084016121e7565b50505050565b82516040516370a0823160e01b815230600482015260009184916001600160a01b03909116906370a0823190602401602060405180830381865afa158015612c4d573d6000803e3d6000fd5b505050506040513d601f19601f82011682018060405250810190612c7191906135d6565b11612cca5760405162461bcd60e51b8152602060048201526024808201527f496e73756666696369656e742062616c616e6365206f66206f726967696e205460448201526337b5b2b760e11b60648201526084016102d7565b835160035460405163095ea7b360e01b81526001600160a01b0391821660048201526024810186905291169063095ea7b3906044016020604051808303816000875af1158015612d1e573d6000803e3d6000fd5b505050506040513d601f19601f82011682018060405250810190612d4291906138f7565b50600060405180610100016040528086600001516001600160a01b0316815260200186602001516001600160a01b03168152602001610bb862ffffff168152602001846001600160a01b0316815260200142610708612da191906137d7565b81526020810186905260006040820181905260609091015290508315612e91576003546040805163414bf38960e01b815283516001600160a01b0390811660048301526020850151811660248301529184015162ffffff1660448201526060840151821660648201526080840151608482015260a084015160a482015260c084015160c482015260e0840151821660e4820152600092919091169063414bf38990610104016020604051808303816000875af1158015612e65573d6000803e3d6000fd5b505050506040513d601f19601f82011682018060405250810190612e8991906135d6565b905050612e9b565b6000915050612bbc565b509392505050565b6000612ef8826040518060400160405280602081526020017f5361666545524332303a206c6f772d6c6576656c2063616c6c206661696c6564815250856001600160a01b0316612f759092919063ffffffff16565b80519091501561221e5780806020019051810190612f1691906138f7565b61221e5760405162461bcd60e51b815260206004820152602a60248201527f5361666545524332303a204552433230206f7065726174696f6e20646964206e6044820152691bdd081cdd58d8d9595960b21b60648201526084016102d7565b6060612f848484600085612f8c565b949350505050565b606082471015612fed5760405162461bcd60e51b815260206004820152602660248201527f416464726573733a20696e73756666696369656e742062616c616e636520666f6044820152651c8818d85b1b60d21b60648201526084016102d7565b600080866001600160a01b0316858760405161300991906138db565b60006040518083038185875af1925050503d8060008114613046576040519150601f19603f3d011682016040523d82523d6000602084013e61304b565b606091505b509150915061305c87838387613067565b979650505050505050565b606083156130d65782516000036130cf576001600160a01b0385163b6130cf5760405162461bcd60e51b815260206004820152601d60248201527f416464726573733a2063616c6c20746f206e6f6e2d636f6e747261637400000060448201526064016102d7565b5081612f84565b612f8483838151156130eb5781518083602001fd5b8060405162461bcd60e51b81526004016102d79190613914565b604080516101c08101825260608082528251908101835260008082526020828101829052938201529091820190815260200160008152602001600081526020016000815260200160008152602001600081526020016000815260200160008152602001600081526020016000600381111561318257613182613301565b81526000602082018190526040820181905260609091015290565b5080546131a990613551565b6000825580601f106131b9575050565b601f01602090049060005260206000209081019061156a91905b808211156131e757600081556001016131d3565b5090565b6001600160a01b038116811461156a57600080fd5b801515811461156a57600080fd5b803561167881613200565b60008060006060848603121561322e57600080fd5b8335613239816131eb565b92506020840135613249816131eb565b9150604084013561325981613200565b809150509250925092565b60006020828403121561327657600080fd5b5035919050565b6000806040838503121561329057600080fd5b823591506020830135600481106132a657600080fd5b809150509250929050565b60005b838110156132cc5781810151838201526020016132b4565b50506000910152565b600081518084526132ed8160208601602086016132b1565b601f01601f19169290920160200192915050565b634e487b7160e01b600052602160045260246000fd5b6004811061332757613327613301565b9052565b6002811061332757613327613301565b602081526000825161020080602085015261335a6102208501836132d5565b91506020850151613392604086018280516001600160a01b039081168352602080830151909116908301526040908101511515910152565b50604085015160a0850152606085015160c0850152608085015160e085015260a0850151610100818187015260c08701519150610120828188015260e0880151925061014083818901528289015193506101609250838389015281890151935061018091508382890152808901519350506101a061341281890185613317565b918801516001600160a01b03166101c088015287015115156101e087015286015190506134418286018261332b565b5090949350505050565b60006060828403121561345d57600080fd5b50919050565b600080600080600080600080610120898b03121561348057600080fd5b883567ffffffffffffffff8082111561349857600080fd5b818b0191508b601f8301126134ac57600080fd5b8135818111156134bb57600080fd5b8c60208285010111156134cd57600080fd5b60209283019a5098506134e4918c91508b0161344b565b95506080890135945060a0890135935060c0890135925060e0890135915061350f6101008a0161320e565b90509295985092959890939650565b60006020828403121561353057600080fd5b8135612bbc816131eb565b634e487b7160e01b600052603260045260246000fd5b600181811c9082168061356557607f821691505b60208210810361345d57634e487b7160e01b600052602260045260246000fd5b634e487b7160e01b600052601160045260246000fd5b818103818111156135ae576135ae613585565b92915050565b838152606081016135c86020830185613317565b826040830152949350505050565b6000602082840312156135e857600080fd5b5051919050565b60006001820161360157613601613585565b5060010190565b634e487b7160e01b600052604160045260246000fd5b60006060828403121561363057600080fd5b6040516060810181811067ffffffffffffffff8211171561365357613653613608565b6040528235613661816131eb565b81526020830135613671816131eb565b6020820152604083013561368481613200565b60408201529392505050565b80820281158282048414176135ae576135ae613585565b6000826136c457634e487b7160e01b600052601260045260246000fd5b500490565b601f82111561221e57600081815260208120601f850160051c810160208610156136f05750805b601f850160051c820191505b8181101561370f578281556001016136fc565b505050505050565b815167ffffffffffffffff81111561373157613731613608565b6137458161373f8454613551565b846136c9565b602080601f83116001811461377a57600084156137625750858301515b600019600386901b1c1916600185901b17855561370f565b600085815260208120601f198616915b828110156137a95788860151825594840194600190910190840161378a565b50858210156137c75787850151600019600388901b60f8161c191681555b5050505050600190811b01905550565b808201808211156135ae576135ae613585565b8181036137f5575050565b6137ff8254613551565b67ffffffffffffffff81111561381757613817613608565b6138258161373f8454613551565b6000601f82116001811461385957600083156138415750848201545b600019600385901b1c1916600184901b1784556138be565b600085815260209020601f19841690600086815260209020845b838110156138935782860154825560019586019590910190602001613873565b50858310156138b15781850154600019600388901b60f8161c191681555b50505060018360011b0184555b5050505050565b634e487b7160e01b600052603160045260246000fd5b600082516138ed8184602087016132b1565b9190910192915050565b60006020828403121561390957600080fd5b8151612bbc81613200565b602081526000612bbc60208301846132d556fea2646970667358221220d17a9871fc569013099338f7766bf2753e4ec3dc0252b9a0f3c77609b06c57e064736f6c63430008120033",
  "immutableReferences": {},
  "source": "// SPDX-License-Identifier: MIT\n\npragma solidity ^0.8.18;\n\nimport \"../node_modules/@uniswap/v3-periphery/contracts/interfaces/ISwapRouter.sol\";\nimport \"../node_modules/@openzeppelin/contracts/access/Ownable.sol\";\nimport \"../node_modules/@openzeppelin/contracts/token/ERC20/IERC20.sol\";\nimport \"../node_modules/@openzeppelin/contracts/token/ERC20/ERC20.sol\";\nimport \"../node_modules/@openzeppelin/contracts/token/ERC20/utils/SafeERC20.sol\";\n\nusing SafeERC20 for IERC20;\n\n/**\n * @title HodlUpHub contract\n * @dev This contract is used for hodling tokens and executing automated periodic swaps.\n */\ncontract HodlUpHub is Ownable {\n    /**\n     * @dev Enum representing the available statuses for a position.\n     * Active: the position is currently being executed\n     * Pause: the position is temporarily paused\n     * Closed: the position has been fully executed and cannot be reopened\n     * Locked: the position is locked for DCA, meaning that the tokens have been swapped but not transferred to the user\n     */\n    enum Status {\n        Active,\n        Pause,\n        Closed,\n        Locked\n    }\n\n    /**\n     * @dev Enum representing the available DCA modes.\n     * Limited: the position has a fixed number of swaps.\n     * Unlimited: the position will continue to swap indefinitely.\n     */\n    enum DcaMode {\n        Limited,\n        Unlimited\n    }\n\n    /**\n     * @dev The available pairs for swapping.\n     */\n    Pair[] public pairsAvailable;\n\n    /**\n     * @dev The available intervals (in seconds) for swapping.\n     */\n    uint256[] public intervalsAvailable;\n\n    /**\n     * @dev The Uniswap V3 router.\n     */\n    ISwapRouter swapRouter;\n\n    /**\n     * @dev Struct representing a user's data.\n     * positions: An array of the user's open positions.\n     * closedPositions: An array of the user's closed positions.\n     */\n    struct Account {\n        Position[] positions;\n        Position[] positionsToExecute;\n        Position[] closedPositions;\n    }\n\n    /**\n     * @dev Struct representing a pair of tokens for swapping.\n     * token_from: The token to be swapped from.\n     * token_to: The token to be swapped to.\n     * active: A flag indicating whether the pair is currently available for swapping.\n     */\n    struct Pair {\n        IERC20 token_from;\n        IERC20 token_to;\n        bool active;\n    }\n\n    /**\n     * @dev Struct representing a user's position.\n     * name: The name of the position.\n     * pair: The pair of tokens to be swapped.\n     * totalAmountToSwap: The total amount of token_from to be swapped.\n     * interval: The time interval (in seconds) between swaps.\n     * dcaIterations: The number of swaps remaining for the position (in case of Limited DCA mode).\n     * amountPerSwap: The amount of token_from to be swapped per interval.\n     * lastPurchaseTimestamp: The timestamp of the last swap.\n     * createdTimestamp: The timestamp of the position creation.\n     * SwappedFromBalance: The total amount of token_from swapped so far.\n     * SwappedToBalance: The total amount of token_to received so far.\n     * status: The current status of the position.\n     * recipient: The address to receive the swapped tokens.\n     * stacking: A flag indicating whether the position is stacking.\n     * mode: The DCA mode of the position.\n     */\n    struct Position {\n        string name;\n        Pair pair;\n        uint256 totalAmountToSwap;\n        uint256 interval;\n        uint256 dcaIterations;\n        uint256 amountPerSwap;\n        uint256 lastPurchaseTimestamp;\n        uint256 createdTimestamp;\n        uint256 SwappedFromBalance;\n        uint256 SwappedToBalance;\n        Status status;\n        address recipient;\n        bool stacking;\n        DcaMode mode;\n    }\n\n    /**\n     * @dev Mapping that stores information about each user.\n     */\n    mapping(address => Account) accounts;\n\n    /**\n     * @dev Array that stores the addresses of all registered accounts.\n     */\n    address[] public userAddresses;\n\n    /**\n     * @dev Mapping that stores the balances of fees collected for each ERC20 token.\n     */\n    mapping(IERC20 => uint256) feesBalances;\n\n    /**\n     * @dev Represents the fee percentage taken for deposits.\n     *      To avoid rounding errors, the percentage is multiplied by 10000.\n     *      For example, 1% is represented by 100.\n     */\n    uint256 public depositFee;\n\n    /**\n     * @dev Represents the fee percentage taken for swaps.\n     *      To avoid rounding errors, the percentage is multiplied by 10000.\n     *      For example, 1% is represented by 100.\n     */\n    uint256 public swapFee;\n\n    uint256 private currentUserindex;\n    uint256 private operationsLimit;\n\n    /**\n     * @dev HodlUpHub constructor.\n     * @param _uniswapRouter Address of the Uniswap router contract.\n     * @param _depositFee Deposit fee percentage charged from each deposit.\n     * @param _swapFee Swap fee percentage charged from each swap.\n     */\n    constructor(address _uniswapRouter, uint256 _depositFee, uint256 _swapFee) {\n        swapRouter = ISwapRouter(_uniswapRouter);\n        depositFee = _depositFee;\n        swapFee = _swapFee;\n    }\n\n    /**\n     * @dev Returns a boolean indicating whether a user with the specified address exists in the `accounts` mapping.\n     * @param _userAddress The address of the user to check.\n     * @return True if the user exists, false otherwise.\n     */\n    function _userExists(address _userAddress) internal view returns (bool) {\n        return (accounts[_userAddress].positions.length > 0);\n    }\n\n    /**\n     * @dev Executes the DCA strategy for all active positions of all accounts.\n     * Checks if the current time is greater than the last purchase timestamp\n     * plus the interval of the position. If so, executes a swap of the amountPerSwap\n     * for the token_from in the position's pair to the token_to in the pair,\n     * subtracts the swap fee from the amount and adds it to the feesBalances,\n     * and updates the balances and status of the position.\n     * If the amountPerSwap is greater than the remaining amount to swap,\n     * pauses the position and emits a PositionStatusChanged event.\n     * Emits a DCAExecuted event on successful execution of the swap.\n     */\n    function _executeIndividualDCA() internal {\n        for (uint256 i = 0; i < userAddresses.length; i++) {\n            Position[] memory positions = accounts[userAddresses[i]].positions;\n            for (uint256 j = 0; j < positions.length; j++) {\n                if (\n                    positions[j].status == Status.Active && positions[j].stacking == false\n                        && block.timestamp > (positions[j].lastPurchaseTimestamp + positions[j].interval)\n                ) {\n                    if (positions[j].amountPerSwap > (positions[j].totalAmountToSwap - positions[j].SwappedFromBalance))\n                    {\n                        accounts[userAddresses[i]].positions[j].status = Status.Pause;\n                        emit PositionStatusChanged(userAddresses[i], j, Status.Pause, block.timestamp);\n                    } else {\n                        accounts[userAddresses[i]].positions[j].status = Status.Locked;\n                        SafeERC20.safeTransferFrom(\n                            positions[j].pair.token_from, userAddresses[i], address(this), positions[j].amountPerSwap\n                        );\n                        uint256 swapFees = (positions[j].amountPerSwap * swapFee / 10000);\n                        uint256 amoutPerSwapAfterFees = positions[j].amountPerSwap - (swapFees);\n                        uint256 resultSwap = _swap(positions[j].pair, amoutPerSwapAfterFees, positions[j].recipient);\n                        feesBalances[positions[j].pair.token_from] += swapFees;\n                        if (positions[j].mode == DcaMode.Limited) {\n                            accounts[userAddresses[i]].positions[j].dcaIterations -= 1;\n                        }\n                        accounts[userAddresses[i]].positions[j].SwappedToBalance += resultSwap;\n                        accounts[userAddresses[i]].positions[j].SwappedFromBalance += positions[j].amountPerSwap;\n                        accounts[userAddresses[i]].positions[j].status = Status.Active;\n                        accounts[userAddresses[i]].positions[j].lastPurchaseTimestamp = block.timestamp;\n                        emit DCAExecuted(\n                            userAddresses[i],\n                            j,\n                            address(positions[j].pair.token_from),\n                            address(positions[j].pair.token_to),\n                            positions[j].amountPerSwap,\n                            resultSwap,\n                            block.timestamp\n                        );\n                    }\n                }\n            }\n        }\n    }\n\n    /**\n     * @dev Checks if a given pair already exists in the pairsAvailable array.\n     * @param _pair The pair to check.\n     * @return A boolean indicating whether the given pair exists.\n     */\n    function _pairExists(Pair memory _pair) internal view returns (bool) {\n        for (uint256 i = 0; i < pairsAvailable.length; i++) {\n            if (pairsAvailable[i].token_from == _pair.token_from && pairsAvailable[i].token_to == _pair.token_to) {\n                return true;\n            }\n        }\n        return false;\n    }\n\n    /**\n     * @dev Checks if a given interval already exists in the intervalsAvailable array.\n     * @param interval The interval to check.\n     * @return A boolean indicating whether the given interval exists.\n     */\n    function _intervalExists(uint256 interval) internal view returns (bool) {\n        for (uint256 i = 0; i < intervalsAvailable.length; i++) {\n            if (intervalsAvailable[i] == interval) {\n                return true;\n            }\n        }\n        return false;\n    }\n\n    /**\n     * @dev Calculates the total amount of tokens to swap for a given token pair.\n     * @param _pair The token pair to swap.\n     * @return The total amount of tokens to swap.\n     */\n    function _getTotalToSwap(Pair memory _pair) internal returns (uint256) {\n        uint256 totalToSwap;\n        for (uint256 i = 0; i < userAddresses.length; i++) {\n            Position[] memory positions = accounts[userAddresses[i]].positions;\n            for (uint256 j = 0; j < positions.length; j++) {\n                if (\n                    positions[j].pair.token_from == _pair.token_from && positions[j].pair.token_to == _pair.token_to\n                        && positions[j].status == Status.Active && positions[j].stacking == true\n                        && block.timestamp > positions[j].lastPurchaseTimestamp + positions[j].interval\n                ) {\n                    totalToSwap += positions[j].amountPerSwap;\n                    accounts[userAddresses[i]].positions[j].status = Status.Locked;\n                }\n            }\n        }\n        return totalToSwap;\n    }\n\n    function _swap(Pair memory _pair, uint256 _amount, address _receiver) internal returns (uint256) {\n        require(_pair.token_from.balanceOf(address(this)) > _amount, \"Insufficient balance of origin Token\");\n\n        _pair.token_from.approve(address(swapRouter), _amount);\n\n        ISwapRouter.ExactInputSingleParams memory params = ISwapRouter.ExactInputSingleParams({\n            tokenIn: address(_pair.token_from),\n            tokenOut: address(_pair.token_to),\n            fee: 3000,\n            recipient: _receiver,\n            deadline: block.timestamp + 1800,\n            amountIn: _amount,\n            amountOutMinimum: 0,\n            sqrtPriceLimitX96: 0\n        });\n\n        if (_amount != 0) {\n            uint256 amountOut = swapRouter.exactInputSingle(params);\n        } else {\n            return 0;\n        }\n    }\n\n    /**\n     * @dev Internal function to check if a position already exists for a given user and Pair.\n     * @param _user The user address.\n     * @param _name The name of the position.\n     * @param _pair The Pair struct.\n     * @return bool Returns true if the position exists, false otherwise.\n     */\n    function _positionExists(address _user, string memory _name, Pair memory _pair) internal view returns (bool) {\n        Position[] memory positions = accounts[_user].positions;\n        for (uint256 i = 0; i < positions.length; i++) {\n            if (\n                keccak256(abi.encodePacked(_name)) == keccak256(abi.encodePacked(positions[i].name))\n                    && _pair.token_from == positions[i].pair.token_from && _pair.token_to == positions[i].pair.token_to\n            ) {\n                return true;\n            }\n        }\n        return false;\n    }\n\n    /**\n     * @dev Internal function to get all input tokens from available pairs.\n     * @return IERC20[] Returns an array of IERC20 tokens.\n     */\n    function _getAllInputToken() internal view returns (IERC20[] memory) {\n        IERC20[] memory tokenAddresses = new IERC20[](pairsAvailable.length);\n        uint256 distinctTokenCount = 0;\n\n        for (uint256 i = 0; i < pairsAvailable.length; i++) {\n            // Check if the token_from address has already been added to the list\n            bool exists = false;\n            for (uint256 j = 0; j < distinctTokenCount; j++) {\n                if (tokenAddresses[j] == pairsAvailable[i].token_from) {\n                    exists = true;\n                    break;\n                }\n            }\n            // If token_from has not been added to the list yet, add it\n            if (!exists) {\n                tokenAddresses[distinctTokenCount] = pairsAvailable[i].token_from;\n                distinctTokenCount++;\n            }\n        }\n        // Resize the tokenAddresses array to remove any empty elements\n        assembly {\n            mstore(tokenAddresses, distinctTokenCount)\n        }\n        return tokenAddresses;\n    }\n\n    /**\n     * @dev Internal function to check if a token at a given address is a valid ERC20 token.\n     * @param tokenAddress The token address.\n     * @return bool Returns true if the token is a valid ERC20 token, false otherwise.\n     */\n    function _checkValidERC20(address tokenAddress) internal view returns (bool) {\n        try IERC20(tokenAddress).totalSupply() returns (uint256 _supply) {\n            if (_supply > 0) {\n                return true;\n            }\n            return false;\n        } catch (bytes memory) {\n            return false;\n        }\n    }\n\n    /**\n     * @dev Internal function to archive the user's position by moving it to the closedPositions array and removing it from positions array.\n     * @param _user The user's address.\n     * @param _positionId The position ID to archive.\n     */\n    function _achivePosition(address _user, uint256 _positionId) internal {\n        accounts[_user].closedPositions.push(accounts[_user].positions[_positionId]);\n        accounts[_user].positions[_positionId] = accounts[_user].positions[accounts[_user].positions.length - 1];\n        accounts[_user].positions.pop();\n    }\n\n    /**\n     * @dev Add a new token pair to the pairsAvailable array.\n     * @param _token_from The address of the input token.\n     * @param _token_to The address of the output token.\n     * @param _active Whether the pair is active or not.\n     * Requirements:\n     * - The input and output tokens must be different.\n     * - The input token must be a valid ERC20 token with a total supply greater than 0.\n     * - The output token must be a valid ERC20 token with a total supply greater than 0.\n     * - The pair does not already exist in pairsAvailable.\n     */\n    function addPair(address _token_from, address _token_to, bool _active) external onlyOwner {\n        require(_token_from != _token_to, \"Input and Output tokens must be different\");\n        require(_checkValidERC20(_token_from), \"Input Token is not available. No Supply\");\n        require(_checkValidERC20(_token_to), \"Output Token is not available. No Supply\");\n        require(!_pairExists(Pair(IERC20(_token_from), IERC20(_token_to), true)), \"Pair already exists\");\n        pairsAvailable.push(Pair(IERC20(_token_from), IERC20(_token_to), _active));\n        emit PairAdded(_token_from, _token_to, block.timestamp);\n    }\n\n    /**\n     * @dev Add a new interval to the intervalsAvailable array.\n     * @param _interval The interval value to add.\n     * Requirements:\n     * - The interval value has not been added previously.\n     */\n    function addInterval(uint256 _interval) external onlyOwner {\n        require(!_intervalExists(_interval), \"Interval already added\");\n        intervalsAvailable.push(_interval);\n        emit IntervalAdded(_interval, block.timestamp);\n    }\n\n    /**\n     * @dev Create a new position for the user.\n     * @param _name The name of the position.\n     * @param _pair The pair to swap for the position.\n     * @param _totalAmountToSwap The total amount to swap for the position.\n     * @param _interval The interval for DCA swaps.\n     * @param _amountPerSwap The amount to swap per DCA iteration.\n     * @param _dcaIterations The number of DCA iterations.\n     * @param _stacking Whether the user wants to stack rewards.\n     * Requirements:\n     * - The name must be set.\n     * - The position does not already exist for the user.\n     * - The pair exists in pairsAvailable.\n     * - The interval exists in intervalsAvailable.\n     * - The total amount to swap is greater than 0.\n     * - Either the amount per swap or the number of DCA iterations is set, but not both.\n     */\n    function createPosition(\n        string calldata _name,\n        Pair calldata _pair,\n        uint256 _totalAmountToSwap,\n        uint256 _interval,\n        uint256 _amountPerSwap,\n        uint256 _dcaIterations,\n        bool _stacking\n    ) external {\n        require(bytes(_name).length > 0, \"name must be set\");\n        require(!_positionExists(msg.sender, _name, _pair), \"Position is already existing\");\n        require(_pairExists(_pair), \"pair not available\");\n        require(_intervalExists(_interval), \"this interval is not allowed\");\n        require(_totalAmountToSwap > 0, \"No amount set for DCA\");\n        require(\n            (_amountPerSwap == 0 && _dcaIterations != 0) || (_amountPerSwap != 0 && _dcaIterations == 0),\n            \"Set only amount per swap or number of iterations\"\n        );\n\n        // uint256 totalToSwapAfterFees = _totalAmountToSwap - (_totalAmountToSwap * depositFee / 10000);\n        uint256 amountPerSwap =\n            _amountPerSwap > 0 ? _amountPerSwap : ((_totalAmountToSwap * 10000) / _dcaIterations) / 10000;\n\n        //SafeERC20.safeTransferFrom(_pair.token_from, msg.sender, address(this), _totalAmountToSwap);\n        // uint256 allowanceAmount = _pair.token_from.allowance(address(_pair.token_from), msg.sender);\n        // if ( allowanceAmount == 0) {\n        //     SafeERC20.safeApprove(_pair.token_from, msg.sender, _totalAmountToSwap);\n        // } else {\n        //     SafeERC20.safeIncreaseAllowance(_pair.token_from, msg.sender, _totalAmountToSwap);\n        // }\n\n        if (!_userExists(msg.sender)) {\n            userAddresses.push(msg.sender);\n        }\n        accounts[msg.sender].positions.push(\n            Position(\n                _name,\n                _pair,\n                _totalAmountToSwap,\n                _interval,\n                _dcaIterations,\n                amountPerSwap,\n                block.timestamp,\n                block.timestamp,\n                0,\n                0,\n                Status.Active,\n                msg.sender,\n                _stacking,\n                _dcaIterations == 0 ? DcaMode.Unlimited : DcaMode.Limited\n            )\n        );\n\n        emit PositionCreated(msg.sender, accounts[msg.sender].positions.length - 1, block.timestamp);\n    }\n\n    // function createPosition(\n    //     string calldata _name,\n    //     Pair calldata _pair,\n    //     uint256 _totalAmountToSwap,\n    //     uint256 _interval,\n    //     uint256 _amountPerSwap,\n    //     uint256 _dcaIterations,\n    //     bool _stacking\n    // ) external {\n    //     require(bytes(_name).length > 0, \"name must be set\");\n    //     require(!_positionExists(msg.sender, _name, _pair), \"Position is already existing\");\n    //     require(_pairExists(_pair), \"pair not available\");\n    //     require(_intervalExists(_interval), \"this interval is not allowed\");\n    //     require(_totalAmountToSwap > 0, \"No amount set for DCA\");\n    //     require(\n    //         (_amountPerSwap == 0 && _dcaIterations != 0) || (_amountPerSwap != 0 && _dcaIterations == 0),\n    //         \"Set only amount per swap or number of iterations\"\n    //     );\n\n    //     uint256 totalToSwapAfterFees = _totalAmountToSwap - (_totalAmountToSwap * depositFee / 10000);\n    //     uint256 amountPerSwap =\n    //         _amountPerSwap > 0 ? _amountPerSwap : ((totalToSwapAfterFees * 10000) / _dcaIterations) / 10000;\n\n    //     SafeERC20.safeTransferFrom(_pair.token_from, msg.sender, address(this), _totalAmountToSwap);\n    //     if (!_userExists(msg.sender)) {\n    //         userAddresses.push(msg.sender);\n    //     }\n    //     accounts[msg.sender].positions.push(\n    //         Position(\n    //             _name,\n    //             _pair,\n    //             totalToSwapAfterFees,\n    //             _interval,\n    //             _dcaIterations,\n    //             amountPerSwap,\n    //             block.timestamp,\n    //             block.timestamp,\n    //             0,\n    //             0,\n    //             Status.Active,\n    //             msg.sender,\n    //             _stacking,\n    //             _dcaIterations == 0 ? DcaMode.Unlimited : DcaMode.Limited\n    //         )\n    //     );\n\n    //     emit PositionCreated(msg.sender, accounts[msg.sender].positions.length - 1, block.timestamp);\n    // }\n\n    /**\n     * @dev Set the status of a user's position.\n     * @param _positionId The ID of the position to update.\n     * @param _status The new status of the position.\n     * Emits a {PositionStatusChanged} event.\n     * Requirements:\n     * - The position must exist.\n     */\n    function setPositionStatus(uint256 _positionId, Status _status) external {\n        require(_positionId < accounts[msg.sender].positions.length, \"Position doesn't exist\");\n        accounts[msg.sender].positions[_positionId].status = _status;\n        emit PositionStatusChanged(msg.sender, _positionId, _status, block.timestamp);\n    }\n\n    /**\n     * @dev Close a position and transfer any remaining tokens back to the user's wallet.\n     * @param _positionId The ID of the position to close.\n     * Requirements:\n     * - The position must exist.\n     * - The position must not be locked.\n     */\n    function closePosition(uint256 _positionId) external {\n        require(_positionId < accounts[msg.sender].positions.length, \"Position doesn't exist\");\n        Position memory positionToClose = accounts[msg.sender].positions[_positionId];\n        require(positionToClose.status != Status.Locked, \"Position is Locked: non closable\");\n\n        if ((positionToClose.totalAmountToSwap - positionToClose.SwappedFromBalance) > 0) {\n            SafeERC20.safeTransfer(\n                positionToClose.pair.token_from,\n                msg.sender,\n                positionToClose.totalAmountToSwap - positionToClose.SwappedFromBalance\n            );\n            emit TokenClaimed(\n                address(positionToClose.pair.token_from),\n                positionToClose.totalAmountToSwap - positionToClose.SwappedFromBalance,\n                block.timestamp\n            );\n        }\n        if ((positionToClose.SwappedToBalance) > 0) {\n            if (positionToClose.stacking == true) {\n                SafeERC20.safeTransfer(positionToClose.pair.token_to, msg.sender, positionToClose.SwappedToBalance);\n                emit TokenClaimed(\n                    address(positionToClose.pair.token_to), positionToClose.SwappedToBalance, block.timestamp\n                );\n            }\n        }\n        accounts[msg.sender].positions[_positionId].status = Status.Closed;\n        _achivePosition(msg.sender, _positionId);\n        emit PositionStatusChanged(msg.sender, _positionId, Status.Closed, block.timestamp);\n    }\n\n    /**\n     * @dev Claim all fees collected by the contract.\n     * Requirements:\n     * - The caller must be the contract owner.\n     */\n    function claimFees() external onlyOwner {\n        IERC20[] memory tokens = _getAllInputToken();\n        for (uint256 i = 0; i < tokens.length; i++) {\n            uint256 balance = tokens[i].balanceOf(address(this));\n            if (balance > 0) {\n                SafeERC20.safeTransfer(tokens[i], msg.sender, feesBalances[tokens[i]]);\n            }\n        }\n    }\n\n    /**\n     * @dev Get a position by ID.\n     * @param _positionId The ID of the position to get.\n     * @return The position object.\n     */\n    function getPosition(uint256 _positionId) external view returns (Position memory) {\n        return accounts[msg.sender].positions[_positionId];\n    }\n\n    /**\n     * @dev Execute swaps for all individual and staked DCA positions.\n     * Requirements:\n     * - The caller must be the contract owner.\n     */\n    function executeSwap() external onlyOwner {\n        _executeIndividualDCA();\n    }\n\n    /**\n     * @dev Emitted when a new pair is added to the contract.\n     * @param token_from The address of the ERC20 token being swapped from.\n     * @param token_to The address of the ERC20 token being swapped to.\n     * @param date The timestamp of when the event was emitted.\n     */\n    event PairAdded(address token_from, address token_to, uint256 date);\n\n    /**\n     * @dev Emitted when a new DCA interval is added to the contract.\n     * @param interval The DCA interval in seconds.\n     * @param date The timestamp of when the event was emitted.\n     */\n    event IntervalAdded(uint256 interval, uint256 date);\n\n    /**\n     * @dev Emitted when a new position is created.\n     * @param sender The address of the user who created the position.\n     * @param id The ID of the position created.\n     * @param date The timestamp of when the event was emitted.\n     */\n    event PositionCreated(address indexed sender, uint256 id, uint256 date);\n\n    /**\n     * @dev Emitted when the status of a position is changed.\n     * @param sender The address of the user who changed the position status.\n     * @param id The ID of the position whose status was changed.\n     * @param status The new status of the position.\n     * @param date The timestamp of when the event was emitted.\n     */\n    event PositionStatusChanged(address indexed sender, uint256 id, Status status, uint256 date);\n\n    /**\n     * @dev Emitted when a DCA is executed.\n     * @param user The address of the user who executed the DCA.\n     * @param positionId The ID of the position associated with the DCA.\n     * @param token_from The address of the ERC20 token being swapped from.\n     * @param token_to The address of the ERC20 token being swapped to.\n     * @param amountToSwap The amount of token_from being swapped.\n     * @param amountSwapped The amount of token_to received in the swap.\n     * @param date The timestamp of when the event was emitted.\n     */\n    event DCAExecuted(\n        address user,\n        uint256 positionId,\n        address token_from,\n        address token_to,\n        uint256 amountToSwap,\n        uint256 amountSwapped,\n        uint256 date\n    );\n\n    /**\n     * @dev Emitted when a token is claimed from a position.\n     * @param token The address of the ERC20 token being claimed.\n     * @param amount The amount of the token being claimed.\n     * @param date The timestamp of when the event was emitted.\n     */\n    event TokenClaimed(address token, uint256 amount, uint256 date);\n}\n",
  "sourcePath": "/home/sjouany/ProjetFinal/HodlUp/truffle/contracts/HodlUpHub.sol",
  "compiler": {
    "name": "solc",
    "version": "0.8.18+commit.87f61d96.Emscripten.clang"
  },
  "schemaVersion": "3.4.13",
  "updatedAt": "2023-07-05T21:18:13.720Z",
  "networkType": "ethereum",
  "devdoc": {
    "details": "This contract is used for hodling tokens and executing automated periodic swaps.",
    "events": {
      "DCAExecuted(address,uint256,address,address,uint256,uint256,uint256)": {
        "details": "Emitted when a DCA is executed.",
        "params": {
          "amountSwapped": "The amount of token_to received in the swap.",
          "amountToSwap": "The amount of token_from being swapped.",
          "date": "The timestamp of when the event was emitted.",
          "positionId": "The ID of the position associated with the DCA.",
          "token_from": "The address of the ERC20 token being swapped from.",
          "token_to": "The address of the ERC20 token being swapped to.",
          "user": "The address of the user who executed the DCA."
        }
      },
      "IntervalAdded(uint256,uint256)": {
        "details": "Emitted when a new DCA interval is added to the contract.",
        "params": {
          "date": "The timestamp of when the event was emitted.",
          "interval": "The DCA interval in seconds."
        }
      },
      "PairAdded(address,address,uint256)": {
        "details": "Emitted when a new pair is added to the contract.",
        "params": {
          "date": "The timestamp of when the event was emitted.",
          "token_from": "The address of the ERC20 token being swapped from.",
          "token_to": "The address of the ERC20 token being swapped to."
        }
      },
      "PositionCreated(address,uint256,uint256)": {
        "details": "Emitted when a new position is created.",
        "params": {
          "date": "The timestamp of when the event was emitted.",
          "id": "The ID of the position created.",
          "sender": "The address of the user who created the position."
        }
      },
      "PositionStatusChanged(address,uint256,uint8,uint256)": {
        "details": "Emitted when the status of a position is changed.",
        "params": {
          "date": "The timestamp of when the event was emitted.",
          "id": "The ID of the position whose status was changed.",
          "sender": "The address of the user who changed the position status.",
          "status": "The new status of the position."
        }
      },
      "TokenClaimed(address,uint256,uint256)": {
        "details": "Emitted when a token is claimed from a position.",
        "params": {
          "amount": "The amount of the token being claimed.",
          "date": "The timestamp of when the event was emitted.",
          "token": "The address of the ERC20 token being claimed."
        }
      }
    },
    "kind": "dev",
    "methods": {
      "addInterval(uint256)": {
        "details": "Add a new interval to the intervalsAvailable array.",
        "params": {
          "_interval": "The interval value to add. Requirements: - The interval value has not been added previously."
        }
      },
      "addPair(address,address,bool)": {
        "details": "Add a new token pair to the pairsAvailable array.",
        "params": {
          "_active": "Whether the pair is active or not. Requirements: - The input and output tokens must be different. - The input token must be a valid ERC20 token with a total supply greater than 0. - The output token must be a valid ERC20 token with a total supply greater than 0. - The pair does not already exist in pairsAvailable.",
          "_token_from": "The address of the input token.",
          "_token_to": "The address of the output token."
        }
      },
      "claimFees()": {
        "details": "Claim all fees collected by the contract. Requirements: - The caller must be the contract owner."
      },
      "closePosition(uint256)": {
        "details": "Close a position and transfer any remaining tokens back to the user's wallet.",
        "params": {
          "_positionId": "The ID of the position to close. Requirements: - The position must exist. - The position must not be locked."
        }
      },
      "constructor": {
        "details": "HodlUpHub constructor.",
        "params": {
          "_depositFee": "Deposit fee percentage charged from each deposit.",
          "_swapFee": "Swap fee percentage charged from each swap.",
          "_uniswapRouter": "Address of the Uniswap router contract."
        }
      },
      "createPosition(string,(address,address,bool),uint256,uint256,uint256,uint256,bool)": {
        "details": "Create a new position for the user.",
        "params": {
          "_amountPerSwap": "The amount to swap per DCA iteration.",
          "_dcaIterations": "The number of DCA iterations.",
          "_interval": "The interval for DCA swaps.",
          "_name": "The name of the position.",
          "_pair": "The pair to swap for the position.",
          "_stacking": "Whether the user wants to stack rewards. Requirements: - The name must be set. - The position does not already exist for the user. - The pair exists in pairsAvailable. - The interval exists in intervalsAvailable. - The total amount to swap is greater than 0. - Either the amount per swap or the number of DCA iterations is set, but not both.",
          "_totalAmountToSwap": "The total amount to swap for the position."
        }
      },
      "executeSwap()": {
        "details": "Execute swaps for all individual and staked DCA positions. Requirements: - The caller must be the contract owner."
      },
      "getPosition(uint256)": {
        "details": "Get a position by ID.",
        "params": {
          "_positionId": "The ID of the position to get."
        },
        "returns": {
          "_0": "The position object."
        }
      },
      "owner()": {
        "details": "Returns the address of the current owner."
      },
      "renounceOwnership()": {
        "details": "Leaves the contract without owner. It will not be possible to call `onlyOwner` functions anymore. Can only be called by the current owner. NOTE: Renouncing ownership will leave the contract without an owner, thereby removing any functionality that is only available to the owner."
      },
      "setPositionStatus(uint256,uint8)": {
        "details": "Set the status of a user's position.",
        "params": {
          "_positionId": "The ID of the position to update.",
          "_status": "The new status of the position. Emits a {PositionStatusChanged} event. Requirements: - The position must exist."
        }
      },
      "transferOwnership(address)": {
        "details": "Transfers ownership of the contract to a new account (`newOwner`). Can only be called by the current owner."
      }
    },
    "stateVariables": {
      "accounts": {
        "details": "Mapping that stores information about each user."
      },
      "depositFee": {
        "details": "Represents the fee percentage taken for deposits.      To avoid rounding errors, the percentage is multiplied by 10000.      For example, 1% is represented by 100."
      },
      "feesBalances": {
        "details": "Mapping that stores the balances of fees collected for each ERC20 token."
      },
      "intervalsAvailable": {
        "details": "The available intervals (in seconds) for swapping."
      },
      "pairsAvailable": {
        "details": "The available pairs for swapping."
      },
      "swapFee": {
        "details": "Represents the fee percentage taken for swaps.      To avoid rounding errors, the percentage is multiplied by 10000.      For example, 1% is represented by 100."
      },
      "swapRouter": {
        "details": "The Uniswap V3 router."
      },
      "userAddresses": {
        "details": "Array that stores the addresses of all registered accounts."
      }
    },
    "title": "HodlUpHub contract",
    "version": 1
  },
  "userdoc": {
    "kind": "user",
    "methods": {},
    "version": 1
  }
}