{
  "contractName": "HodlupManager",
  "abi": [
    {
      "anonymous": false,
      "inputs": [
        {
          "indexed": false,
          "internalType": "string",
          "name": "_name",
          "type": "string"
        },
        {
          "indexed": false,
          "internalType": "address",
          "name": "_contractAddress",
          "type": "address"
        },
        {
          "indexed": false,
          "internalType": "uint256",
          "name": "_timestamp",
          "type": "uint256"
        }
      ],
      "name": "DcaCreated",
      "type": "event"
    },
    {
      "anonymous": false,
      "inputs": [
        {
          "indexed": true,
          "internalType": "address",
          "name": "previousOwner",
          "type": "address"
        },
        {
          "indexed": true,
          "internalType": "address",
          "name": "newOwner",
          "type": "address"
        }
      ],
      "name": "OwnershipTransferred",
      "type": "event"
    },
    {
      "inputs": [
        {
          "internalType": "string",
          "name": "",
          "type": "string"
        }
      ],
      "name": "dcaContracts",
      "outputs": [
        {
          "internalType": "address",
          "name": "",
          "type": "address"
        }
      ],
      "stateMutability": "view",
      "type": "function",
      "constant": true
    },
    {
      "inputs": [],
      "name": "owner",
      "outputs": [
        {
          "internalType": "address",
          "name": "",
          "type": "address"
        }
      ],
      "stateMutability": "view",
      "type": "function",
      "constant": true
    },
    {
      "inputs": [],
      "name": "renounceOwnership",
      "outputs": [],
      "stateMutability": "nonpayable",
      "type": "function"
    },
    {
      "inputs": [
        {
          "internalType": "address",
          "name": "newOwner",
          "type": "address"
        }
      ],
      "name": "transferOwnership",
      "outputs": [],
      "stateMutability": "nonpayable",
      "type": "function"
    },
    {
      "inputs": [
        {
          "internalType": "string",
          "name": "_name",
          "type": "string"
        },
        {
          "internalType": "address",
          "name": "_tokenFrom",
          "type": "address"
        },
        {
          "internalType": "address",
          "name": "_tokenTo",
          "type": "address"
        },
        {
          "internalType": "address",
          "name": "_uniswapRouter",
          "type": "address"
        },
        {
          "internalType": "uint256",
          "name": "_fee",
          "type": "uint256"
        }
      ],
      "name": "createDcaPaire",
      "outputs": [
        {
          "internalType": "address",
          "name": "dcaContract",
          "type": "address"
        }
      ],
      "stateMutability": "nonpayable",
      "type": "function"
    },
    {
      "inputs": [
        {
          "internalType": "string",
          "name": "contractName",
          "type": "string"
        }
      ],
      "name": "withdrawFees",
      "outputs": [
        {
          "internalType": "uint256",
          "name": "",
          "type": "uint256"
        }
      ],
      "stateMutability": "nonpayable",
      "type": "function"
    },
    {
      "inputs": [],
      "name": "withdrawAllFees",
      "outputs": [
        {
          "internalType": "uint256",
          "name": "totalFees",
          "type": "uint256"
        }
      ],
      "stateMutability": "nonpayable",
      "type": "function"
    },
    {
      "inputs": [
        {
          "internalType": "string",
          "name": "contractName",
          "type": "string"
        }
      ],
      "name": "executeSwap",
      "outputs": [],
      "stateMutability": "nonpayable",
      "type": "function"
    },
    {
      "inputs": [],
      "name": "executeAllSwap",
      "outputs": [],
      "stateMutability": "nonpayable",
      "type": "function"
    }
  ],
  "bytecode": "0x608060405234801561001057600080fd5b5061001a3361001f565b61006f565b600080546001600160a01b038381166001600160a01b0319831681178455604051919092169283917f8be0079c531659141344cd1fd0a4f28419497f9722a3daafe3b4186f6b6457e09190a35050565b6131b88061007e6000396000f3fe608060405234801561001057600080fd5b50600436106100925760003560e01c806392c4b2891161006657806392c4b2891461010357806394ea338714610116578063af236af41461014a578063de55dbbc14610152578063f2fde38b1461015a57600080fd5b80627fedfe146100975780635145b2b4146100bd578063715018a6146100e85780638da5cb5b146100f2575b600080fd5b6100aa6100a53660046107eb565b61016d565b6040519081526020015b60405180910390f35b6100d06100cb36600461083f565b610204565b6040516001600160a01b0390911681526020016100b4565b6100f06103ad565b005b6000546001600160a01b03166100d0565b6100f06101113660046107eb565b6103c1565b6100d06101243660046107eb565b80516020818301810180516001825292820191909301209152546001600160a01b031681565b6100aa610443565b6100f0610533565b6100f06101683660046108b6565b610613565b6000610177610691565b60018260405161018791906108fc565b90815260408051602092819003830181205463d294f09360e01b825291516001600160a01b039092169263d294f0939260048084019382900301816000875af11580156101d8573d6000803e3d6000fd5b505050506040513d601f19601f820116820180604052508101906101fc9190610918565b90505b919050565b600061020e610691565b60008660405160200161022191906108fc565b60405160208183030381529060405280519060200120905060006040518060200161024b9061073b565b6020820181038252601f19601f820116604052509050818151602083016000f59250823b61027857600080fd5b60405163cf756fdf60e01b81526001600160a01b038881166004830152878116602483015286811660448301526064820186905284169063cf756fdf90608401600060405180830381600087803b1580156102d257600080fd5b505af11580156102e6573d6000803e3d6000fd5b50505050826001896040516102fb91906108fc565b90815260405190819003602001902080546001600160a01b03929092166001600160a01b0319909216919091179055600280546001810182556000919091527f405787fa12a823e0f2b7631cc41b3ba8828b3321ca811111fa75cd3aa3bb5ace0161036689826109ba565b507fba2ffa1886908ded7f5c34a05cf9ddb538ac0a72200e97db4b78757b710da55388844260405161039a93929190610a7a565b60405180910390a1505095945050505050565b6103b5610691565b6103bf60006106eb565b565b6103c9610691565b6001816040516103d991906108fc565b9081526040805191829003602001822054630599f58160e41b835290516001600160a01b039091169163599f581091600480830192600092919082900301818387803b15801561042857600080fd5b505af115801561043c573d6000803e3d6000fd5b5050505050565b600061044d610691565b60025460005b8181101561052e5760006002828154811061047057610470610ac5565b90600052602060002001805461048590610931565b80601f01602080910402602001604051908101604052809291908181526020018280546104b190610931565b80156104fe5780601f106104d3576101008083540402835291602001916104fe565b820191906000526020600020905b8154815290600101906020018083116104e157829003601f168201915b5050505050905061050e8161016d565b6105189085610af1565b935050808061052690610b0a565b915050610453565b505090565b61053b610691565b60025460005b8181101561060f5760006002828154811061055e5761055e610ac5565b90600052602060002001805461057390610931565b80601f016020809104026020016040519081016040528092919081815260200182805461059f90610931565b80156105ec5780601f106105c1576101008083540402835291602001916105ec565b820191906000526020600020905b8154815290600101906020018083116105cf57829003601f168201915b505050505090506105fc816103c1565b508061060781610b0a565b915050610541565b5050565b61061b610691565b6001600160a01b0381166106855760405162461bcd60e51b815260206004820152602660248201527f4f776e61626c653a206e6577206f776e657220697320746865207a65726f206160448201526564647265737360d01b60648201526084015b60405180910390fd5b61068e816106eb565b50565b6000546001600160a01b031633146103bf5760405162461bcd60e51b815260206004820181905260248201527f4f776e61626c653a2063616c6c6572206973206e6f7420746865206f776e6572604482015260640161067c565b600080546001600160a01b038381166001600160a01b0319831681178455604051919092169283917f8be0079c531659141344cd1fd0a4f28419497f9722a3daafe3b4186f6b6457e09190a35050565b61265f80610b2483390190565b634e487b7160e01b600052604160045260246000fd5b600082601f83011261076f57600080fd5b813567ffffffffffffffff8082111561078a5761078a610748565b604051601f8301601f19908116603f011681019082821181831017156107b2576107b2610748565b816040528381528660208588010111156107cb57600080fd5b836020870160208301376000602085830101528094505050505092915050565b6000602082840312156107fd57600080fd5b813567ffffffffffffffff81111561081457600080fd5b6108208482850161075e565b949350505050565b80356001600160a01b03811681146101ff57600080fd5b600080600080600060a0868803121561085757600080fd5b853567ffffffffffffffff81111561086e57600080fd5b61087a8882890161075e565b95505061088960208701610828565b935061089760408701610828565b92506108a560608701610828565b949793965091946080013592915050565b6000602082840312156108c857600080fd5b6108d182610828565b9392505050565b60005b838110156108f35781810151838201526020016108db565b50506000910152565b6000825161090e8184602087016108d8565b9190910192915050565b60006020828403121561092a57600080fd5b5051919050565b600181811c9082168061094557607f821691505b60208210810361096557634e487b7160e01b600052602260045260246000fd5b50919050565b601f8211156109b557600081815260208120601f850160051c810160208610156109925750805b601f850160051c820191505b818110156109b15782815560010161099e565b5050505b505050565b815167ffffffffffffffff8111156109d4576109d4610748565b6109e8816109e28454610931565b8461096b565b602080601f831160018114610a1d5760008415610a055750858301515b600019600386901b1c1916600185901b1785556109b1565b600085815260208120601f198616915b82811015610a4c57888601518255948401946001909101908401610a2d565b5085821015610a6a5787850151600019600388901b60f8161c191681555b5050505050600190811b01905550565b6060815260008451806060840152610a998160808501602089016108d8565b6001600160a01b039490941660208301525060408101919091526080601f909201601f19160101919050565b634e487b7160e01b600052603260045260246000fd5b634e487b7160e01b600052601160045260246000fd5b80820180821115610b0457610b04610adb565b92915050565b600060018201610b1c57610b1c610adb565b506001019056fe608060405234801561001057600080fd5b5061001a3361001f565b61006f565b600080546001600160a01b038381166001600160a01b0319831681178455604051919092169283917f8be0079c531659141344cd1fd0a4f28419497f9722a3daafe3b4186f6b6457e09190a35050565b6125e18061007e6000396000f3fe608060405234801561001057600080fd5b50600436106100b45760003560e01c80639c89bb3d116100715780639c89bb3d14610147578063cf756fdf1461015a578063d294f0931461016d578063d2ad500314610175578063d816b20414610188578063f2fde38b1461019b57600080fd5b806310fb6fc1146100b9578063502c9bd5146100e257806354cf2aeb1461010d578063599f581014610124578063715018a61461012e5780638da5cb5b14610136575b600080fd5b6100cc6100c7366004611d41565b6101ae565b6040516100d99190611e0d565b60405180910390f35b6100f56100f0366004611ed3565b61035b565b6040516001600160a01b0390911681526020016100d9565b61011660075481565b6040519081526020016100d9565b61012c610385565b005b61012c610397565b6000546001600160a01b03166100f5565b61012c610155366004611d41565b6103a9565b61012c610168366004611f08565b6103fb565b6101166104a9565b61012c610183366004611f53565b6105c7565b61012c610196366004611fae565b6106b8565b61012c6101a9366004612010565b610b7d565b6101b6611c38565b336000908152600460205260409081902090516101d69085908590612032565b90815260200160405180910390206040518061018001604052908160008201805461020090612042565b80601f016020809104026020016040519081016040528092919081815260200182805461022c90612042565b80156102795780601f1061024e57610100808354040283529160200191610279565b820191906000526020600020905b81548152906001019060200180831161025c57829003601f168201915b50505091835250506001820154602082015260028201546040820152600380830154606083015260048301546080830152600583015460a0830152600683015460c0830152600783015460e0830152600883015461010083015260098301546101209092019160ff16908111156102f2576102f2611dd3565b600381111561030357610303611dd3565b8152600982015461010081046001600160a01b03166020830152604090910190600160a81b900460ff16600181111561033e5761033e611dd3565b600181111561034f5761034f611dd3565b90525090505b92915050565b6005818154811061036b57600080fd5b6000918252602090912001546001600160a01b0316905081565b61038d610bf6565b610395610c50565b565b61039f610bf6565b6103956000611078565b81818080601f0160208091040260200160405190810160405280939291908181526020018383808284376000920191909152506103eb92508391506110c89050565b6103f633848461113d565b505050565b6001546001600160a01b0316156104675760405162461bcd60e51b815260206004820152602560248201527f436f6e74726163742068617320616c7265616479206265656e20696e697469616044820152641b1a5e995960da1b60648201526084015b60405180910390fd5b600180546001600160a01b03199081166001600160a01b0396871617909155600280548216948616949094179093556003805490931691909316179055600755565b60006104b3610bf6565b506001546001600160a01b0316600081815260066020526040908190205490516370a0823160e01b8152306004820152909182916370a0823190602401602060405180830381865afa15801561050d573d6000803e3d6000fd5b505050506040513d601f19601f82011682018060405250810190610531919061207c565b1061056b5760015461054d906001600160a01b0316338361166d565b6001546001600160a01b031660009081526006602052604081205590565b60405162461bcd60e51b815260206004820152602b60248201527f4e6f2073756666696369656e742066756e6473206f6e20636f6e74726163742060448201526a746f20676574206665657360a81b606482015260840161045e565b82828080601f01602080910402602001604051908101604052809392919081815260200183838082843760009201919091525061060992508391506110c89050565b3360009081526004602052604090819020905183919061062c9087908790612032565b908152604051908190036020019020600901805460ff1916600183600381111561065857610658611dd3565b02179055506001805460025460405133937f0aeed090124458b07ced6994263a843236db56546c55434529a62a575818833f936106aa936001600160a01b03918216939116918a918a919042906120be565b60405180910390a250505050565b846106f85760405162461bcd60e51b815260206004820152601060248201526f1b985b59481b5d5cdd081899481cd95d60821b604482015260640161045e565b336000908152600460205260409081902090516107189088908890612032565b9081526020016040518091039020600601546000146107795760405162461bcd60e51b815260206004820152601c60248201527f506f736974696f6e20697320616c7265616479206578697374696e6700000000604482015260640161045e565b60038310156107ca5760405162461bcd60e51b815260206004820152601c60248201527f7468697320696e74657276616c206973206e6f7420616c6c6f77656400000000604482015260640161045e565b600084116108125760405162461bcd60e51b81526020600482015260156024820152744e6f20616d6f756e742073657420666f722044434160581b604482015260640161045e565b8115801561081f57508015155b8061083257508115801590610832575080155b6108975760405162461bcd60e51b815260206004820152603060248201527f536574206f6e6c7920616d6f756e74207065722073776170206f72206e756d6260448201526f6572206f6620697465726174696f6e7360801b606482015260840161045e565b60008083116108c757612710826108ae8783612121565b6108b89190612138565b6108c29190612138565b6108c9565b825b90506108d4336116d0565b61091b57600580546001810182556000919091527f036b6384b5eca791c62761152d0c79bb0604c104a5fb6f4eb0703f3154bb3db00180546001600160a01b031916331790555b60405180610180016040528088888080601f0160208091040260200160405190810160405280939291908181526020018383808284376000920182905250938552505050602082018890526040820187905260608201859052608082018490524260a0830181905260c083015260e082018190526101008201819052610120820152336101408201526101600183156109b55760006109b8565b60015b60018111156109c9576109c9611dd3565b9052336000908152600460205260409081902090516109eb908a908a90612032565b90815260405190819003602001902081518190610a0890826121d3565b506020820151816001015560408201518160020155606082015181600301556080820151816004015560a0820151816005015560c0820151816006015560e0820151816007015561010082015181600801556101208201518160090160006101000a81548160ff02191690836003811115610a8557610a85611dd3565b02179055506101408201516009820180546001600160a01b0390921661010002610100600160a81b03198316811782556101608501519260ff60a81b19909116610100600160b01b031990911617600160a81b836001811115610aea57610aea611dd3565b021790555050336000908152600460209081526040822060019081018054918201815583529120019050610b1f87898361228d565b5060015460025460405133927f2c7b57ffa9ff86280c81f437c215c7efeb16c055c6ea6e9b892af17cb10f9bcf92610b6c926001600160a01b0392831692909116908c908c904290612348565b60405180910390a250505050505050565b610b85610bf6565b6001600160a01b038116610bea5760405162461bcd60e51b815260206004820152602660248201527f4f776e61626c653a206e6577206f776e657220697320746865207a65726f206160448201526564647265737360d01b606482015260840161045e565b610bf381611078565b50565b6000546001600160a01b031633146103955760405162461bcd60e51b815260206004820181905260248201527f4f776e61626c653a2063616c6c6572206973206e6f7420746865206f776e6572604482015260640161045e565b60005b600554811015610bf35760006004600060058481548110610c7657610c76612387565b60009182526020808320909101546001600160a01b0316835282019290925260400181206001810154909250905b81811015611062576000836001018281548110610cc357610cc3612387565b906000526020600020018054610cd890612042565b80601f0160208091040260200160405190810160405280929190818152602001828054610d0490612042565b8015610d515780601f10610d2657610100808354040283529160200191610d51565b820191906000526020600020905b815481529060010190602001808311610d3457829003601f168201915b5050505050905060008460000182604051610d6c919061239d565b90815260405190819003602001902090506000600982015460ff166003811115610d9857610d98611dd3565b148015610db7575080600201548160050154610db491906123b9565b42115b1561104d57600081600701548260010154610dd291906123cc565b90508082600401541115610e695760098201805460ff191660011790556005805488908110610e0357610e03612387565b600091825260209091200154600180546002546040516001600160a01b03948516947f0aeed090124458b07ced6994263a843236db56546c55434529a62a575818833f94610e5c948216939091169189919042906123df565b60405180910390a261104b565b60098201805460ff19166003179055600482015460015460058054610ebf926001600160a01b031691908b908110610ea357610ea3612387565b6000918252602090912001546001600160a01b03163084611715565b600061271060075483610ed29190612121565b610edc9190612138565b90506000610eea82846123cc565b90506000610f0f828760090160019054906101000a90046001600160a01b0316611753565b6001546001600160a01b0316600090815260066020526040812080549293508592909190610f3e9084906123b9565b90915550600090506009870154600160a81b900460ff166001811115610f6657610f66611dd3565b03610f86576001866003016000828254610f8091906123cc565b90915550505b80866008016000828254610f9a91906123b9565b9250508190555083866007016000828254610fb591906123b9565b909155505060098601805460ff191690554260058088019190915580547fb59d2884dc4704cee22474623144a36d0c59d281b8eb5a128761e0132569139391908d90811061100557611005612387565b60009182526020909120015460015460025460405161103e936001600160a01b03908116938d93908216929116908a908890429061242a565b60405180910390a1505050505b505b5050808061105a9061247a565b915050610ca4565b50505080806110709061247a565b915050610c53565b600080546001600160a01b038381166001600160a01b0319831681178455604051919092169283917f8be0079c531659141344cd1fd0a4f28419497f9722a3daafe3b4186f6b6457e09190a35050565b3360009081526004602052604080822090516110e590849061239d565b90815260200160405180910390206006015411610bf35760405162461bcd60e51b8152602060048201526016602482015275141bdcda5d1a5bdb88191bd95cdb89dd08195e1a5cdd60521b604482015260640161045e565b6001600160a01b0383166000908152600460205260409081902090516002919061116a9085908590612032565b908152604051908190036020019020600901805460ff1916600183600381111561119657611196611dd3565b02179055506001600160a01b0383166000908152600460209081526040822060030180546001810182559083529120016111d182848361228d565b506001600160a01b0383166000908152600460205260409081902090516111fb9084908490612032565b908152602001604051809103902060046000856001600160a01b03166001600160a01b031681526020019081526020016000206002018383604051611241929190612032565b9081526040519081900360200190208061125b8382612493565b5060018201548160010155600282015481600201556003820154816003015560048201548160040155600582015481600501556006820154816006015560078201548160070155600882015481600801556009820160009054906101000a900460ff168160090160006101000a81548160ff021916908360038111156112e3576112e3611dd3565b02179055506009828101805491830180546001600160a01b036101009485900416909302610100600160a81b0319841681178255915460ff600160a81b918290041693919260ff60a81b1916610100600160b01b0319909216919091179083600181111561135357611353611dd3565b021790555050506001600160a01b0383166000908152600460205260409081902090516113839084908490612032565b908152604051908190036020019020600061139e8282611caa565b50600060018281018290556002830182905560038301829055600480840183905560058401839055600684018390556007840183905560088401839055600990930180546001600160b01b03191690556001600160a01b03861682526020929092526040812090910154905b8181101561161c576001600160a01b038516600090815260046020526040812060010180548390811061143f5761143f612387565b90600052602060002001805461145490612042565b80601f016020809104026020016040519081016040528092919081815260200182805461148090612042565b80156114cd5780601f106114a2576101008083540402835291602001916114cd565b820191906000526020600020905b8154815290600101906020018083116114b057829003601f168201915b50505050509050806040516020016114e5919061239d565b60405160208183030381529060405280519060200120858560405160200161150e929190612032565b6040516020818303038152906040528051906020012003611609576001600160a01b038616600090815260046020526040902060019081019061155190856123cc565b8154811061156157611561612387565b9060005260206000200160046000886001600160a01b03166001600160a01b0316815260200190815260200160002060010183815481106115a4576115a4612387565b9060005260206000200190816115ba9190612493565b506001600160a01b03861660009081526004602052604090206001018054806115e5576115e5612560565b6001900381819060005260206000200160006116019190611caa565b90555061161c565b50806116148161247a565b91505061140a565b50600154600280546040516001600160a01b03888116947f0aeed090124458b07ced6994263a843236db56546c55434529a62a575818833f946106aa949183169392909116918991899142906120be565b6040516001600160a01b0383166024820152604481018290526103f690849063a9059cbb60e01b906064015b60408051601f198184030181529190526020810180516001600160e01b03166001600160e01b0319909316929092179091526119d6565b6001600160a01b0381166000908152600460205260408120600101541515806103555750506001600160a01b0316600090815260046020526040902060030154151590565b6040516001600160a01b038085166024830152831660448201526064810182905261174d9085906323b872dd60e01b90608401611699565b50505050565b6001546040516370a0823160e01b815230600482015260009184916001600160a01b03909116906370a0823190602401602060405180830381865afa1580156117a0573d6000803e3d6000fd5b505050506040513d601f19601f820116820180604052508101906117c4919061207c565b1161181d5760405162461bcd60e51b8152602060048201526024808201527f496e73756666696369656e742062616c616e6365206f66206f726967696e205460448201526337b5b2b760e11b606482015260840161045e565b60015460035460405163095ea7b360e01b81526001600160a01b0391821660048201526024810186905291169063095ea7b3906044016020604051808303816000875af1158015611872573d6000803e3d6000fd5b505050506040513d601f19601f820116820180604052508101906118969190612576565b5060408051610100810182526001546001600160a01b03908116825260025481166020830152610bb8928201929092529083166060820152600090608081016118e1426107086123b9565b815260208101869052600060408201819052606090910152905083156119cc576003546040805163414bf38960e01b815283516001600160a01b0390811660048301526020850151811660248301529184015162ffffff1660448201526060840151821660648201526080840151608482015260a084015160a482015260c084015160c482015260e0840151821660e482015291169063414bf38990610104016020604051808303816000875af11580156119a0573d6000803e3d6000fd5b505050506040513d601f19601f820116820180604052508101906119c4919061207c565b915050610355565b6000915050610355565b6000611a2b826040518060400160405280602081526020017f5361666545524332303a206c6f772d6c6576656c2063616c6c206661696c6564815250856001600160a01b0316611aa89092919063ffffffff16565b8051909150156103f65780806020019051810190611a499190612576565b6103f65760405162461bcd60e51b815260206004820152602a60248201527f5361666545524332303a204552433230206f7065726174696f6e20646964206e6044820152691bdd081cdd58d8d9595960b21b606482015260840161045e565b6060611ab78484600085611abf565b949350505050565b606082471015611b205760405162461bcd60e51b815260206004820152602660248201527f416464726573733a20696e73756666696369656e742062616c616e636520666f6044820152651c8818d85b1b60d21b606482015260840161045e565b600080866001600160a01b03168587604051611b3c919061239d565b60006040518083038185875af1925050503d8060008114611b79576040519150601f19603f3d011682016040523d82523d6000602084013e611b7e565b606091505b5091509150611b8f87838387611b9a565b979650505050505050565b60608315611c09578251600003611c02576001600160a01b0385163b611c025760405162461bcd60e51b815260206004820152601d60248201527f416464726573733a2063616c6c20746f206e6f6e2d636f6e7472616374000000604482015260640161045e565b5081611ab7565b611ab78383815115611c1e5781518083602001fd5b8060405162461bcd60e51b815260040161045e9190612598565b60405180610180016040528060608152602001600081526020016000815260200160008152602001600081526020016000815260200160008152602001600081526020016000815260200160006003811115611c9657611c96611dd3565b815260006020820181905260409091015290565b508054611cb690612042565b6000825580601f10611cc6575050565b601f016020900490600052602060002090810190610bf391905b80821115611cf45760008155600101611ce0565b5090565b60008083601f840112611d0a57600080fd5b50813567ffffffffffffffff811115611d2257600080fd5b602083019150836020828501011115611d3a57600080fd5b9250929050565b60008060208385031215611d5457600080fd5b823567ffffffffffffffff811115611d6b57600080fd5b611d7785828601611cf8565b90969095509350505050565b60005b83811015611d9e578181015183820152602001611d86565b50506000910152565b60008151808452611dbf816020860160208601611d83565b601f01601f19169290920160200192915050565b634e487b7160e01b600052602160045260246000fd5b60048110611df957611df9611dd3565b9052565b60028110611df957611df9611dd3565b6020815260008251610180806020850152611e2c6101a0850183611da7565b9150602085015160408501526040850151606085015260608501516080850152608085015160a085015260a085015160c085015260c085015160e085015260e0850151610100818187015280870151915050610120818187015280870151915050610140611e9c81870183611de9565b8601519050610160611eb8868201836001600160a01b03169052565b8601519050611ec985830182611dfd565b5090949350505050565b600060208284031215611ee557600080fd5b5035919050565b80356001600160a01b0381168114611f0357600080fd5b919050565b60008060008060808587031215611f1e57600080fd5b611f2785611eec565b9350611f3560208601611eec565b9250611f4360408601611eec565b9396929550929360600135925050565b600080600060408486031215611f6857600080fd5b833567ffffffffffffffff811115611f7f57600080fd5b611f8b86828701611cf8565b909450925050602084013560048110611fa357600080fd5b809150509250925092565b60008060008060008060a08789031215611fc757600080fd5b863567ffffffffffffffff811115611fde57600080fd5b611fea89828a01611cf8565b909a90995060208901359860408101359850606081013597506080013595509350505050565b60006020828403121561202257600080fd5b61202b82611eec565b9392505050565b8183823760009101908152919050565b600181811c9082168061205657607f821691505b60208210810361207657634e487b7160e01b600052602260045260246000fd5b50919050565b60006020828403121561208e57600080fd5b5051919050565b81835281816020850137506000828201602090810191909152601f909101601f19169091010190565b6001600160a01b0387811682528616602082015260a0604082018190526000906120eb9083018688612095565b90506120fa6060830185611de9565b826080830152979650505050505050565b634e487b7160e01b600052601160045260246000fd5b80820281158282048414176103555761035561210b565b60008261215557634e487b7160e01b600052601260045260246000fd5b500490565b634e487b7160e01b600052604160045260246000fd5b601f8211156103f657600081815260208120601f850160051c810160208610156121975750805b601f850160051c820191505b818110156121b6578281556001016121a3565b505050505050565b600019600383901b1c191660019190911b1790565b815167ffffffffffffffff8111156121ed576121ed61215a565b612201816121fb8454612042565b84612170565b602080601f831160018114612230576000841561221e5750858301515b61222885826121be565b8655506121b6565b600085815260208120601f198616915b8281101561225f57888601518255948401946001909101908401612240565b508582101561227d5787850151600019600388901b60f8161c191681555b5050505050600190811b01905550565b67ffffffffffffffff8311156122a5576122a561215a565b6122b9836122b38354612042565b83612170565b6000601f8411600181146122e757600085156122d55750838201355b6122df86826121be565b845550612341565b600083815260209020601f19861690835b8281101561231857868501358255602094850194600190920191016122f8565b50868210156123355760001960f88860031b161c19848701351681555b505060018560011b0183555b5050505050565b6001600160a01b038681168252851660208201526080604082018190526000906123759083018587612095565b90508260608301529695505050505050565b634e487b7160e01b600052603260045260246000fd5b600082516123af818460208701611d83565b9190910192915050565b808201808211156103555761035561210b565b818103818111156103555761035561210b565b6001600160a01b0386811682528516602082015260a06040820181905260009061240b90830186611da7565b905061241a6060830185611de9565b8260808301529695505050505050565b600060018060a01b03808a16835260e0602084015261244c60e084018a611da7565b9781166040840152959095166060820152608081019390935260a083019190915260c0909101525092915050565b60006001820161248c5761248c61210b565b5060010190565b81810361249e575050565b6124a88254612042565b67ffffffffffffffff8111156124c0576124c061215a565b6124ce816121fb8454612042565b6000601f8211600181146124fc57600083156124ea5750848201545b6124f484826121be565b855550612341565b600085815260209020601f19841690600086815260209020845b838110156125365782860154825560019586019590910190602001612516565b508583101561227d5793015460001960f8600387901b161c19169092555050600190811b01905550565b634e487b7160e01b600052603160045260246000fd5b60006020828403121561258857600080fd5b8151801515811461202b57600080fd5b60208152600061202b6020830184611da756fea2646970667358221220d4370a547f61323c8236c4b181461a89d848036aafc3a15e357f3eb4894b338964736f6c63430008120033a26469706673582212204be4716a7b23ccf6647400a2887fec513311308f3a82d9d41936f1a1704b410964736f6c63430008120033",
  "immutableReferences": {},
  "source": "// SPDX-License-Identifier: MIT\n\npragma solidity ^0.8.18;\n\nimport \"./DcaHodlup.sol\";\nimport \"../node_modules/@openzeppelin/contracts/access/Ownable.sol\";\n//import \"../node_modules/@ganache/console.log/console.sol\";\n\n/**\n * @title HodlupManager\n * @notice A contract for managing DCA (Dollar-Cost Averaging) pairs and their operations.\n * @dev This contract allows the owner to create and manage multiple DCA pairs and execute operations on them.\n */\ncontract HodlupManager is Ownable {\n    mapping(string => address) public dcaContracts;\n    string[] dcaContractsNames;\n\n    /**\n     * @dev Emitted when a new DCA pair is created.\n     * @param _name The name of the DCA pair.\n     * @param _contractAddress The address of the DCA pair contract.\n     * @param _timestamp The timestamp when the DCA pair was created.\n     */\n    event DcaCreated(string _name, address _contractAddress, uint256 _timestamp);\n\n    /**\n     * @dev Creates a new DCA pair contract.\n     * @param _name The name of the DCA pair.\n     * @param _tokenFrom Address of the input token for swaps.\n     * @param _tokenTo Address of the output token for swaps.\n     * @param _uniswapRouter Address of the Uniswap router.\n     * @param _fee The swap fee percentage.\n     * @return dcaContract The address of the created DCA pair contract.\n     * @notice This function creates a new DCA pair contract using the create2 method.\n     */\n    function createDcaPaire(\n        string memory _name,\n        address _tokenFrom,\n        address _tokenTo,\n        address _uniswapRouter,\n        uint256 _fee\n    ) external onlyOwner returns (address dcaContract) {\n        bytes32 salt = keccak256(abi.encodePacked(_name));\n        bytes memory bytecode = type(DcaHodlup).creationCode;\n\n        assembly {\n            dcaContract := create2(0, add(bytecode, 0x20), mload(bytecode), salt)\n            if iszero(extcodesize(dcaContract)) { revert(0, 0) }\n        }\n        //console.logAddress(dcaContract);\n        DcaHodlup(dcaContract).initialize(_tokenFrom, _tokenTo, _uniswapRouter, _fee);\n\n        dcaContracts[_name] = dcaContract;\n        dcaContractsNames.push(_name);\n        emit DcaCreated(_name, dcaContract, block.timestamp);\n    }\n\n    /**\n     * @dev Withdraws fees from a DCA pair contract.\n     * @param contractName The name of the DCA pair contract.\n     * @return fees The amount of fees withdrawn.\n     * @notice This function allows the owner to withdraw fees from a specific DCA pair contract.\n     */\n    function withdrawFees(string memory contractName) public onlyOwner returns (uint256) {\n        return DcaHodlup(dcaContracts[contractName]).claimFees();\n    }\n\n    /**\n     * @dev Withdraws all fees from all DCA pair contracts.\n     * @return totalFees The total amount of fees withdrawn from all contracts.\n     * @notice This function allows the owner to withdraw all fees from all DCA pair contracts.\n     */\n    function withdrawAllFees() external onlyOwner returns (uint256 totalFees) {\n        uint256 dcaContNamesLength = dcaContractsNames.length;\n        for (uint256 j = 0; j < dcaContNamesLength; j++) {\n            string memory name = dcaContractsNames[j];\n            totalFees = totalFees + withdrawFees(name);\n        }\n    }\n\n    /**\n     * @dev Executes swaps for a specific DCA pair contract.\n     * @param contractName The name of the DCA pair contract.\n     * @notice This function allows the owner to execute swaps for a specific DCA pair contract.\n     */\n    function executeSwap(string memory contractName) public onlyOwner {\n        DcaHodlup(dcaContracts[contractName]).executeSwap();\n    }\n\n    /**\n     * @dev Executes swaps for all DCA pair contracts.\n     * @notice This function allows the owner to execute swaps for all DCA pair contracts.\n     */\n    function executeAllSwap() public onlyOwner {\n        uint256 dcaContNamesLength = dcaContractsNames.length;\n        for (uint256 j = 0; j < dcaContNamesLength; j++) {\n            string memory name = dcaContractsNames[j];\n            executeSwap(name);\n        }\n    }\n}\n",
  "sourcePath": "/home/sjouany/ProjetFinal/HodlUp/truffle/contracts/HodlupManager.sol",
  "compiler": {
    "name": "solc",
    "version": "0.8.18+commit.87f61d96.Emscripten.clang"
  },
  "schemaVersion": "3.4.13",
  "updatedAt": "2023-09-15T23:03:52.626Z",
  "networkType": "ethereum",
  "devdoc": {
    "details": "This contract allows the owner to create and manage multiple DCA pairs and execute operations on them.",
    "events": {
      "DcaCreated(string,address,uint256)": {
        "details": "Emitted when a new DCA pair is created.",
        "params": {
          "_contractAddress": "The address of the DCA pair contract.",
          "_name": "The name of the DCA pair.",
          "_timestamp": "The timestamp when the DCA pair was created."
        }
      }
    },
    "kind": "dev",
    "methods": {
      "createDcaPaire(string,address,address,address,uint256)": {
        "details": "Creates a new DCA pair contract.",
        "params": {
          "_fee": "The swap fee percentage.",
          "_name": "The name of the DCA pair.",
          "_tokenFrom": "Address of the input token for swaps.",
          "_tokenTo": "Address of the output token for swaps.",
          "_uniswapRouter": "Address of the Uniswap router."
        },
        "returns": {
          "dcaContract": "The address of the created DCA pair contract."
        }
      },
      "executeAllSwap()": {
        "details": "Executes swaps for all DCA pair contracts."
      },
      "executeSwap(string)": {
        "details": "Executes swaps for a specific DCA pair contract.",
        "params": {
          "contractName": "The name of the DCA pair contract."
        }
      },
      "owner()": {
        "details": "Returns the address of the current owner."
      },
      "renounceOwnership()": {
        "details": "Leaves the contract without owner. It will not be possible to call `onlyOwner` functions anymore. Can only be called by the current owner. NOTE: Renouncing ownership will leave the contract without an owner, thereby removing any functionality that is only available to the owner."
      },
      "transferOwnership(address)": {
        "details": "Transfers ownership of the contract to a new account (`newOwner`). Can only be called by the current owner."
      },
      "withdrawAllFees()": {
        "details": "Withdraws all fees from all DCA pair contracts.",
        "returns": {
          "totalFees": "The total amount of fees withdrawn from all contracts."
        }
      },
      "withdrawFees(string)": {
        "details": "Withdraws fees from a DCA pair contract.",
        "params": {
          "contractName": "The name of the DCA pair contract."
        },
        "returns": {
          "_0": "fees The amount of fees withdrawn."
        }
      }
    },
    "title": "HodlupManager",
    "version": 1
  },
  "userdoc": {
    "kind": "user",
    "methods": {
      "createDcaPaire(string,address,address,address,uint256)": {
        "notice": "This function creates a new DCA pair contract using the create2 method."
      },
      "executeAllSwap()": {
        "notice": "This function allows the owner to execute swaps for all DCA pair contracts."
      },
      "executeSwap(string)": {
        "notice": "This function allows the owner to execute swaps for a specific DCA pair contract."
      },
      "withdrawAllFees()": {
        "notice": "This function allows the owner to withdraw all fees from all DCA pair contracts."
      },
      "withdrawFees(string)": {
        "notice": "This function allows the owner to withdraw fees from a specific DCA pair contract."
      }
    },
    "notice": "A contract for managing DCA (Dollar-Cost Averaging) pairs and their operations.",
    "version": 1
  }
}