{
  "contractName": "HodlUpHub",
  "abi": [
    {
      "inputs": [
        {
          "internalType": "address",
          "name": "_uniswapRouter",
          "type": "address"
        },
        {
          "internalType": "address",
          "name": "_rewardManager",
          "type": "address"
        },
        {
          "internalType": "uint256",
          "name": "_depositFee",
          "type": "uint256"
        },
        {
          "internalType": "uint256",
          "name": "_swapFee",
          "type": "uint256"
        }
      ],
      "stateMutability": "nonpayable",
      "type": "constructor"
    },
    {
      "anonymous": false,
      "inputs": [
        {
          "indexed": false,
          "internalType": "address",
          "name": "user",
          "type": "address"
        },
        {
          "indexed": false,
          "internalType": "uint256",
          "name": "positionId",
          "type": "uint256"
        },
        {
          "indexed": false,
          "internalType": "address",
          "name": "token_from",
          "type": "address"
        },
        {
          "indexed": false,
          "internalType": "address",
          "name": "token_to",
          "type": "address"
        },
        {
          "indexed": false,
          "internalType": "uint256",
          "name": "amountToSwap",
          "type": "uint256"
        },
        {
          "indexed": false,
          "internalType": "uint256",
          "name": "amountSwapped",
          "type": "uint256"
        },
        {
          "indexed": false,
          "internalType": "uint256",
          "name": "date",
          "type": "uint256"
        }
      ],
      "name": "DCAExecuted",
      "type": "event"
    },
    {
      "anonymous": false,
      "inputs": [
        {
          "indexed": false,
          "internalType": "uint256",
          "name": "interval",
          "type": "uint256"
        },
        {
          "indexed": false,
          "internalType": "uint256",
          "name": "date",
          "type": "uint256"
        }
      ],
      "name": "IntervalAdded",
      "type": "event"
    },
    {
      "anonymous": false,
      "inputs": [
        {
          "indexed": true,
          "internalType": "address",
          "name": "previousOwner",
          "type": "address"
        },
        {
          "indexed": true,
          "internalType": "address",
          "name": "newOwner",
          "type": "address"
        }
      ],
      "name": "OwnershipTransferred",
      "type": "event"
    },
    {
      "anonymous": false,
      "inputs": [
        {
          "indexed": false,
          "internalType": "address",
          "name": "token_from",
          "type": "address"
        },
        {
          "indexed": false,
          "internalType": "address",
          "name": "token_to",
          "type": "address"
        },
        {
          "indexed": false,
          "internalType": "uint256",
          "name": "date",
          "type": "uint256"
        }
      ],
      "name": "PairAdded",
      "type": "event"
    },
    {
      "anonymous": false,
      "inputs": [
        {
          "indexed": true,
          "internalType": "address",
          "name": "sender",
          "type": "address"
        },
        {
          "indexed": false,
          "internalType": "uint256",
          "name": "id",
          "type": "uint256"
        },
        {
          "indexed": false,
          "internalType": "uint256",
          "name": "date",
          "type": "uint256"
        }
      ],
      "name": "PositionCreated",
      "type": "event"
    },
    {
      "anonymous": false,
      "inputs": [
        {
          "indexed": true,
          "internalType": "address",
          "name": "sender",
          "type": "address"
        },
        {
          "indexed": false,
          "internalType": "uint256",
          "name": "id",
          "type": "uint256"
        },
        {
          "indexed": false,
          "internalType": "enum HodlUpHub.Status",
          "name": "status",
          "type": "uint8"
        },
        {
          "indexed": false,
          "internalType": "uint256",
          "name": "date",
          "type": "uint256"
        }
      ],
      "name": "PositionStatusChanged",
      "type": "event"
    },
    {
      "anonymous": false,
      "inputs": [
        {
          "indexed": false,
          "internalType": "address",
          "name": "token",
          "type": "address"
        },
        {
          "indexed": false,
          "internalType": "uint256",
          "name": "amount",
          "type": "uint256"
        },
        {
          "indexed": false,
          "internalType": "uint256",
          "name": "date",
          "type": "uint256"
        }
      ],
      "name": "TokenClaimed",
      "type": "event"
    },
    {
      "inputs": [],
      "name": "depositFee",
      "outputs": [
        {
          "internalType": "uint256",
          "name": "",
          "type": "uint256"
        }
      ],
      "stateMutability": "view",
      "type": "function",
      "constant": true
    },
    {
      "inputs": [
        {
          "internalType": "uint256",
          "name": "",
          "type": "uint256"
        }
      ],
      "name": "intervalsAvailable",
      "outputs": [
        {
          "internalType": "uint256",
          "name": "",
          "type": "uint256"
        }
      ],
      "stateMutability": "view",
      "type": "function",
      "constant": true
    },
    {
      "inputs": [],
      "name": "owner",
      "outputs": [
        {
          "internalType": "address",
          "name": "",
          "type": "address"
        }
      ],
      "stateMutability": "view",
      "type": "function",
      "constant": true
    },
    {
      "inputs": [
        {
          "internalType": "uint256",
          "name": "",
          "type": "uint256"
        }
      ],
      "name": "pairsAvailable",
      "outputs": [
        {
          "internalType": "contract IERC20",
          "name": "token_from",
          "type": "address"
        },
        {
          "internalType": "contract IERC20",
          "name": "token_to",
          "type": "address"
        },
        {
          "internalType": "bool",
          "name": "active",
          "type": "bool"
        }
      ],
      "stateMutability": "view",
      "type": "function",
      "constant": true
    },
    {
      "inputs": [],
      "name": "renounceOwnership",
      "outputs": [],
      "stateMutability": "nonpayable",
      "type": "function"
    },
    {
      "inputs": [],
      "name": "rewardsManager",
      "outputs": [
        {
          "internalType": "contract IHodlUpRewardsManager",
          "name": "",
          "type": "address"
        }
      ],
      "stateMutability": "view",
      "type": "function",
      "constant": true
    },
    {
      "inputs": [],
      "name": "swapFee",
      "outputs": [
        {
          "internalType": "uint256",
          "name": "",
          "type": "uint256"
        }
      ],
      "stateMutability": "view",
      "type": "function",
      "constant": true
    },
    {
      "inputs": [
        {
          "internalType": "address",
          "name": "newOwner",
          "type": "address"
        }
      ],
      "name": "transferOwnership",
      "outputs": [],
      "stateMutability": "nonpayable",
      "type": "function"
    },
    {
      "inputs": [],
      "name": "uniswapRouter",
      "outputs": [
        {
          "internalType": "contract IUniswapV2Router02",
          "name": "",
          "type": "address"
        }
      ],
      "stateMutability": "view",
      "type": "function",
      "constant": true
    },
    {
      "inputs": [
        {
          "internalType": "uint256",
          "name": "",
          "type": "uint256"
        }
      ],
      "name": "userAddresses",
      "outputs": [
        {
          "internalType": "address",
          "name": "",
          "type": "address"
        }
      ],
      "stateMutability": "view",
      "type": "function",
      "constant": true
    },
    {
      "inputs": [],
      "name": "_getAllInputTokenAddresses",
      "outputs": [
        {
          "internalType": "address[]",
          "name": "",
          "type": "address[]"
        }
      ],
      "stateMutability": "view",
      "type": "function",
      "constant": true
    },
    {
      "inputs": [
        {
          "internalType": "address",
          "name": "_token_from",
          "type": "address"
        },
        {
          "internalType": "address",
          "name": "_token_to",
          "type": "address"
        },
        {
          "internalType": "bool",
          "name": "_active",
          "type": "bool"
        }
      ],
      "name": "addPair",
      "outputs": [],
      "stateMutability": "nonpayable",
      "type": "function"
    },
    {
      "inputs": [
        {
          "internalType": "uint256",
          "name": "_interval",
          "type": "uint256"
        }
      ],
      "name": "addInterval",
      "outputs": [],
      "stateMutability": "nonpayable",
      "type": "function"
    },
    {
      "inputs": [
        {
          "internalType": "string",
          "name": "_name",
          "type": "string"
        },
        {
          "components": [
            {
              "internalType": "contract IERC20",
              "name": "token_from",
              "type": "address"
            },
            {
              "internalType": "contract IERC20",
              "name": "token_to",
              "type": "address"
            },
            {
              "internalType": "bool",
              "name": "active",
              "type": "bool"
            }
          ],
          "internalType": "struct HodlUpHub.Pair",
          "name": "_pair",
          "type": "tuple"
        },
        {
          "internalType": "uint256",
          "name": "_totalAmountToSwap",
          "type": "uint256"
        },
        {
          "internalType": "uint256",
          "name": "_interval",
          "type": "uint256"
        },
        {
          "internalType": "uint256",
          "name": "_amountPerSwap",
          "type": "uint256"
        },
        {
          "internalType": "uint256",
          "name": "_dcaIterations",
          "type": "uint256"
        },
        {
          "internalType": "bool",
          "name": "_stacking",
          "type": "bool"
        }
      ],
      "name": "createPosition",
      "outputs": [],
      "stateMutability": "nonpayable",
      "type": "function"
    },
    {
      "inputs": [
        {
          "internalType": "uint256",
          "name": "_positionId",
          "type": "uint256"
        },
        {
          "internalType": "enum HodlUpHub.Status",
          "name": "_status",
          "type": "uint8"
        }
      ],
      "name": "setPositionStatus",
      "outputs": [],
      "stateMutability": "nonpayable",
      "type": "function"
    },
    {
      "inputs": [
        {
          "internalType": "uint256",
          "name": "_positionId",
          "type": "uint256"
        }
      ],
      "name": "closePosition",
      "outputs": [],
      "stateMutability": "nonpayable",
      "type": "function"
    },
    {
      "inputs": [
        {
          "internalType": "uint256",
          "name": "_positionId",
          "type": "uint256"
        }
      ],
      "name": "claimRewards",
      "outputs": [],
      "stateMutability": "nonpayable",
      "type": "function"
    },
    {
      "inputs": [
        {
          "internalType": "uint256",
          "name": "_positionId",
          "type": "uint256"
        }
      ],
      "name": "claimFees",
      "outputs": [],
      "stateMutability": "nonpayable",
      "type": "function"
    },
    {
      "inputs": [
        {
          "internalType": "uint256",
          "name": "_positionId",
          "type": "uint256"
        }
      ],
      "name": "getPosition",
      "outputs": [
        {
          "components": [
            {
              "internalType": "string",
              "name": "name",
              "type": "string"
            },
            {
              "components": [
                {
                  "internalType": "contract IERC20",
                  "name": "token_from",
                  "type": "address"
                },
                {
                  "internalType": "contract IERC20",
                  "name": "token_to",
                  "type": "address"
                },
                {
                  "internalType": "bool",
                  "name": "active",
                  "type": "bool"
                }
              ],
              "internalType": "struct HodlUpHub.Pair",
              "name": "pair",
              "type": "tuple"
            },
            {
              "internalType": "uint256",
              "name": "totalAmountToSwap",
              "type": "uint256"
            },
            {
              "internalType": "uint256",
              "name": "interval",
              "type": "uint256"
            },
            {
              "internalType": "uint256",
              "name": "dcaIterations",
              "type": "uint256"
            },
            {
              "internalType": "uint256",
              "name": "amountPerSwap",
              "type": "uint256"
            },
            {
              "internalType": "uint256",
              "name": "lastPurchaseTimestamp",
              "type": "uint256"
            },
            {
              "internalType": "uint256",
              "name": "createdTimestamp",
              "type": "uint256"
            },
            {
              "internalType": "uint256",
              "name": "SwappedFromBalance",
              "type": "uint256"
            },
            {
              "internalType": "uint256",
              "name": "SwappedToBalance",
              "type": "uint256"
            },
            {
              "internalType": "enum HodlUpHub.Status",
              "name": "status",
              "type": "uint8"
            },
            {
              "internalType": "address",
              "name": "recipient",
              "type": "address"
            },
            {
              "internalType": "bool",
              "name": "stacking",
              "type": "bool"
            },
            {
              "internalType": "enum HodlUpHub.DcaMode",
              "name": "mode",
              "type": "uint8"
            }
          ],
          "internalType": "struct HodlUpHub.Position",
          "name": "",
          "type": "tuple"
        }
      ],
      "stateMutability": "view",
      "type": "function",
      "constant": true
    },
    {
      "inputs": [],
      "name": "executeSwap",
      "outputs": [],
      "stateMutability": "nonpayable",
      "type": "function"
    }
  ],
  "bytecode": "0x60806040523480156200001157600080fd5b5060405162004af638038062004af68339810160408190526200003491620000eb565b6200003f336200007e565b600380546001600160a01b039586166001600160a01b031991821617909155600980549490951693169290921790925560079190915560085562000133565b600080546001600160a01b038381166001600160a01b0319831681178455604051919092169283917f8be0079c531659141344cd1fd0a4f28419497f9722a3daafe3b4186f6b6457e09190a35050565b80516001600160a01b0381168114620000e657600080fd5b919050565b600080600080608085870312156200010257600080fd5b6200010d85620000ce565b93506200011d60208601620000ce565b6040860151606090960151949790965092505050565b6149b380620001436000396000f3fe608060405234801561001057600080fd5b506004361061012c5760003560e01c8063735de9f7116100ad578063c46de5f711610071578063c46de5f714610277578063defe20531461028a578063eb02c3011461029d578063f1be589e146102bd578063f2fde38b146102d057600080fd5b8063735de9f71461021a5780638da5cb5b1461022d578063a126d6011461023e578063ac68a74814610251578063c1c7d5b41461026457600080fd5b806354cf2aeb116100f457806354cf2aeb146101bd578063599f5810146101c65780636319eb78146101ce57806367a5279314610209578063715018a61461021257600080fd5b80630962ef791461013157806319ef091b146101445780631e2305e71461015757806344c7c9841461017d578063502c9bd514610192575b600080fd5b61014261013f366004614026565b50565b005b61014261015236600461406d565b6102e3565b61016a610165366004614026565b6105b4565b6040519081526020015b60405180910390f35b6101856105d5565b60405161017491906140fc565b6101a56101a0366004614026565b61073c565b6040516001600160a01b039091168152602001610174565b61016a60085481565b610142610766565b6101e16101dc366004614026565b610780565b604080516001600160a01b039485168152939092166020840152151590820152606001610174565b61016a60075481565b6101426107c6565b6003546101a5906001600160a01b031681565b6000546001600160a01b03166101a5565b61014261024c366004614026565b6107d8565b61014261025f366004614026565b610c2f565b610142610272366004614026565b610cb7565b61014261028536600461410f565b610d7e565b6009546101a5906001600160a01b031681565b6102b06102ab366004614026565b610e2d565b60405161017491906141cd565b6101426102cb3660046142f5565b61102f565b6101426102de3660046143b0565b611611565b6102eb611687565b816001600160a01b0316836001600160a01b0316036103635760405162461bcd60e51b815260206004820152602960248201527f496e70757420616e64204f757470757420746f6b656e73206d75737420626520604482015268191a5999995c995b9d60ba1b60648201526084015b60405180910390fd5b61036c836116e1565b6103c85760405162461bcd60e51b815260206004820152602760248201527f496e70757420546f6b656e206973206e6f7420617661696c61626c652e204e6f60448201526620537570706c7960c81b606482015260840161035a565b6103d1826116e1565b61042e5760405162461bcd60e51b815260206004820152602860248201527f4f757470757420546f6b656e206973206e6f7420617661696c61626c652e204e6044820152676f20537570706c7960c01b606482015260840161035a565b6104666040518060600160405280856001600160a01b03168152602001846001600160a01b0316815260200160011515815250611797565b156104a95760405162461bcd60e51b81526020600482015260136024820152725061697220616c72656164792065786973747360681b604482015260640161035a565b60408051606080820183526001600160a01b03868116808452868216602080860182815288151587890190815260018054808201825560009190915297517fb10e2d527612073b26eecdfd717e6a320cf44b4afac2b0732d9fcbe2b7fa0cf6600290990298890180546001600160a01b03191691881691909117905590517fb10e2d527612073b26eecdfd717e6a320cf44b4afac2b0732d9fcbe2b7fa0cf790970180549151979095166001600160a81b031990911617600160a01b961515969096029590951790925584519081529283015242928201929092527fedd4b700a2980a33a301ad39ced5dbc1c98a786ecb28da5bf3926d5165005d1b910160405180910390a1505050565b600281815481106105c457600080fd5b600091825260209091200154905081565b60015460609060009067ffffffffffffffff8111156105f6576105f66143cd565b60405190808252806020026020018201604052801561061f578160200160208202803683370190505b5090506000805b600154811015610734576000805b838110156106b1576001838154811061064f5761064f6143e3565b600091825260209091206002909102015485516001600160a01b0390911690869083908110610680576106806143e3565b60200260200101516001600160a01b03160361069f57600191506106b1565b806106a98161440f565b915050610634565b508061072157600182815481106106ca576106ca6143e3565b600091825260209091206002909102015484516001600160a01b03909116908590859081106106fb576106fb6143e3565b6001600160a01b03909216602092830291909101909101528261071d8161440f565b9350505b508061072c8161440f565b915050610626565b508152919050565b6005818154811061074c57600080fd5b6000918252602090912001546001600160a01b0316905081565b61076e611687565b610776611848565b61077e6121b0565b565b6001818154811061079057600080fd5b6000918252602090912060029091020180546001909101546001600160a01b03918216925090811690600160a01b900460ff1683565b6107ce611687565b61077e6000612b6c565b3360009081526004602052604090205481106108065760405162461bcd60e51b815260040161035a90614428565b336000908152600460205260408120805483908110610827576108276143e3565b90600052602060002090600c0201604051806101c001604052908160008201805461085190614458565b80601f016020809104026020016040519081016040528092919081815260200182805461087d90614458565b80156108ca5780601f1061089f576101008083540402835291602001916108ca565b820191906000526020600020905b8154815290600101906020018083116108ad57829003601f168201915b5050509183525050604080516060808201835260018501546001600160a01b039081168352600286015490811660208481019190915260ff600160a01b90920482161515848601528501929092526003808601549385019390935260048501549084015260058401546080840152600684015460a0840152600784015460c0840152600884015460e08401526009840154610100840152600a840154610120840152600b84015461014090930192169081111561098957610989614193565b600381111561099a5761099a614193565b8152600b8201546001600160a01b03610100820416602083015260ff600160a81b8204811615156040840152606090920191600160b01b9091041660018111156109e6576109e6614193565b60018111156109f7576109f7614193565b905250905060038161014001516003811115610a1557610a15614193565b03610a625760405162461bcd60e51b815260206004820181905260248201527f506f736974696f6e206973204c6f636b65643a206e6f6e20636c6f7361626c65604482015260640161035a565b60008161010001518260400151610a79919061448c565b1115610b0d57610aa6816020015160000151338361010001518460400151610aa1919061448c565b612bbc565b60208101515161010082015160408301517fcb1e26772e882480176a3e649a5f7937dc0ec3f50126283faf56f927b070be809291610ae39161448c565b604080516001600160a01b0390931683526020830191909152429082015260600160405180910390a15b61012081015115610b95576101808101511515600103610b9557610b3f81602001516020015133836101200151612bbc565b602081810151810151610120830151604080516001600160a01b03909316835292820152428183015290517fcb1e26772e882480176a3e649a5f7937dc0ec3f50126283faf56f927b070be809181900360600190a15b33600090815260046020526040902080546002919084908110610bba57610bba6143e3565b60009182526020909120600b600c9092020101805460ff19166001836003811115610be757610be7614193565b0217905550610bf63383612c24565b50336001600160a01b031660008051602061495e83398151915283600242604051610c23939291906144a5565b60405180910390a25050565b336000908152600460205260409020548110610c5d5760405162461bcd60e51b815260040161035a90614428565b33600090815260046020526040902080546002919083908110610c8257610c826143e3565b60009182526020909120600b600c9092020101805460ff19166001836003811115610caf57610caf614193565b021790555050565b610cbf611687565b610cc8816130c0565b15610d0e5760405162461bcd60e51b8152602060048201526016602482015275125b9d195c9d985b08185b1c9958591e48185919195960521b604482015260640161035a565b600280546001810182556000919091527f405787fa12a823e0f2b7631cc41b3ba8828b3321ca811111fa75cd3aa3bb5ace01819055604080518281524260208201527f57cb492e05adb4a4f47294924a582ecb2f196432c96c592d9a24ba793dcda7da910160405180910390a150565b336000908152600460205260409020548210610dac5760405162461bcd60e51b815260040161035a90614428565b336000908152600460205260409020805482919084908110610dd057610dd06143e3565b60009182526020909120600b600c9092020101805460ff19166001836003811115610dfd57610dfd614193565b0217905550336001600160a01b031660008051602061495e833981519152838342604051610c23939291906144a5565b610e35613f40565b336000908152600460205260409020805483908110610e5657610e566143e3565b90600052602060002090600c0201604051806101c0016040529081600082018054610e8090614458565b80601f0160208091040260200160405190810160405280929190818152602001828054610eac90614458565b8015610ef95780601f10610ece57610100808354040283529160200191610ef9565b820191906000526020600020905b815481529060010190602001808311610edc57829003601f168201915b5050509183525050604080516060808201835260018501546001600160a01b039081168352600286015490811660208481019190915260ff600160a01b90920482161515848601528501929092526003808601549385019390935260048501549084015260058401546080840152600684015460a0840152600784015460c0840152600884015460e08401526009840154610100840152600a840154610120840152600b840154610140909301921690811115610fb857610fb8614193565b6003811115610fc957610fc9614193565b8152600b8201546001600160a01b03610100820416602083015260ff600160a81b8204811615156040840152606090920191600160b01b90910416600181111561101557611015614193565b600181111561102657611026614193565b90525092915050565b8661106f5760405162461bcd60e51b815260206004820152601060248201526f1b985b59481b5d5cdd081899481cd95d60821b604482015260640161035a565b6110be3389898080601f0160208091040260200160405190810160405280939291908181526020018383808284376000920191909152506110b992505050368a90038a018a6144f8565b61310d565b1561110b5760405162461bcd60e51b815260206004820152601c60248201527f506f736974696f6e20697320616c7265616479206578697374696e6700000000604482015260640161035a565b61112261111d368890038801886144f8565b611797565b6111635760405162461bcd60e51b815260206004820152601260248201527170616972206e6f7420617661696c61626c6560701b604482015260640161035a565b61116c846130c0565b6111b85760405162461bcd60e51b815260206004820152601c60248201527f7468697320696e74657276616c206973206e6f7420616c6c6f77656400000000604482015260640161035a565b600085116112005760405162461bcd60e51b81526020600482015260156024820152744e6f20616d6f756e742073657420666f722044434160581b604482015260640161035a565b8215801561120d57508115155b8061122057508215801590611220575081155b6112855760405162461bcd60e51b815260206004820152603060248201527f536574206f6e6c7920616d6f756e74207065722073776170206f72206e756d6260448201526f6572206f6620697465726174696f6e7360801b606482015260840161035a565b600061271060075487611298919061456a565b6112a29190614581565b6112ac908761448c565b905060008085116112de57612710846112c5848361456a565b6112cf9190614581565b6112d99190614581565b6112e0565b845b90506112fa6112f260208a018a6143b0565b33308a61345f565b3360009081526004602052604090205461135157600580546001810182556000919091527f036b6384b5eca791c62761152d0c79bb0604c104a5fb6f4eb0703f3154bb3db00180546001600160a01b031916331790555b3360009081526004602090815260409182902082516101e0601f8e01849004909302810183019093526101c083018c81529092918291908e908e90819085018382808284376000920191909152505050908252506020016113b7368c90038c018c6144f8565b815260200184815260200188815260200186815260200183815260200142815260200142815260200160008152602001600081526020016000600381111561140157611401614193565b815233602082015285151560408201526060018615611421576000611424565b60015b600181111561143557611435614193565b905281546001810183556000928352602090922081519192600c020190819061145e90826145f1565b506020828101518051600184810180546001600160a01b0319166001600160a01b0393841617905592820151600285018054604094850151929093166001600160a81b031990931692909217600160a01b91151591909102179055830151600380840191909155606084015160048401556080840151600584015560a0840151600684015560c0840151600784015560e084015160088401556101008401516009840155610120840151600a840155610140840151600b840180549193909260ff1990921691849081111561153557611535614193565b0217905550610160820151600b820180546101808501511515600160a81b0260ff60a81b196001600160a01b039094166101000293909316610100600160b01b031990911617919091178082556101a0840151919060ff60b01b1916600160b01b8360018111156115a8576115a8614193565b021790555050336000818152600460205260409020549091507f4b82aa16e071a61de1a6b9aeec9edab0356331f8122c78683b469ac8e685dabc906115ef9060019061448c565b604080519182524260208301520160405180910390a250505050505050505050565b611619611687565b6001600160a01b03811661167e5760405162461bcd60e51b815260206004820152602660248201527f4f776e61626c653a206e6577206f776e657220697320746865207a65726f206160448201526564647265737360d01b606482015260840161035a565b61013f81612b6c565b6000546001600160a01b0316331461077e5760405162461bcd60e51b815260206004820181905260248201527f4f776e61626c653a2063616c6c6572206973206e6f7420746865206f776e6572604482015260640161035a565b6000816001600160a01b03166318160ddd6040518163ffffffff1660e01b8152600401602060405180830381865afa92505050801561173d575060408051601f3d908101601f1916820190925261173a918101906146b1565b60015b61177a573d80801561176b576040519150601f19603f3d011682016040523d82523d6000602084013e611770565b606091505b5060009392505050565b80156117895750600192915050565b50600092915050565b919050565b6000805b6001548110156117895782600001516001600160a01b0316600182815481106117c6576117c66143e3565b60009182526020909120600290910201546001600160a01b0316148015611828575082602001516001600160a01b031660018281548110611809576118096143e3565b60009182526020909120600160029092020101546001600160a01b0316145b156118365750600192915050565b806118408161440f565b91505061179b565b60005b60055481101561013f576000600460006005848154811061186e5761186e6143e3565b60009182526020808320909101546001600160a01b031683528281019390935260409182018120805483518186028101860190945280845292939092919084015b82821015611a9c57838290600052602060002090600c0201604051806101c00160405290816000820180546118e390614458565b80601f016020809104026020016040519081016040528092919081815260200182805461190f90614458565b801561195c5780601f106119315761010080835404028352916020019161195c565b820191906000526020600020905b81548152906001019060200180831161193f57829003601f168201915b5050509183525050604080516060808201835260018501546001600160a01b039081168352600286015490811660208481019190915260ff600160a01b90920482161515848601528501929092526003808601549385019390935260048501549084015260058401546080840152600684015460a0840152600784015460c0840152600884015460e08401526009840154610100840152600a840154610120840152600b840154610140909301921690811115611a1b57611a1b614193565b6003811115611a2c57611a2c614193565b8152600b8201546001600160a01b03610100820416602083015260ff600160a81b8204811615156040840152606090920191600160b01b909104166001811115611a7857611a78614193565b6001811115611a8957611a89614193565b81525050815260200190600101906118af565b50505050905060005b815181101561219b576000828281518110611ac257611ac26143e3565b602002602001015161014001516003811115611ae057611ae0614193565b148015611b0c5750818181518110611afa57611afa6143e3565b60209081029190910101516101800151155b8015611b5c5750818181518110611b2557611b256143e3565b602002602001015160600151828281518110611b4357611b436143e3565b602002602001015160c00151611b5991906146ca565b42115b1561218957818181518110611b7357611b736143e3565b60200260200101516101000151828281518110611b9257611b926143e3565b602002602001015160400151611ba8919061448c565b828281518110611bba57611bba6143e3565b602002602001015160a001511115611ca85760016004600060058681548110611be557611be56143e3565b60009182526020808320909101546001600160a01b031683528201929092526040019020805483908110611c1b57611c1b6143e3565b60009182526020909120600b600c9092020101805460ff19166001836003811115611c4857611c48614193565b021790555060058381548110611c6057611c606143e3565b6000918252602090912001546040516001600160a01b039091169060008051602061495e83398151915290611c9b90849060019042906144a5565b60405180910390a2612189565b60036004600060058681548110611cc157611cc16143e3565b60009182526020808320909101546001600160a01b031683528201929092526040019020805483908110611cf757611cf76143e3565b60009182526020909120600b600c9092020101805460ff19166001836003811115611d2457611d24614193565b02179055506000612710600854848481518110611d4357611d436143e3565b602002602001015160a00151611d59919061456a565b611d639190614581565b838381518110611d7557611d756143e3565b602002602001015160a00151611d8b919061448c565b90506000611dd5848481518110611da457611da46143e3565b60200260200101516020015183868681518110611dc357611dc36143e3565b6020026020010151610160015161349d565b90506000848481518110611deb57611deb6143e3565b60200260200101516101a001516001811115611e0957611e09614193565b03611e9b576001848481518110611e2257611e226143e3565b602002602001015160800151611e38919061448c565b6004600060058881548110611e4f57611e4f6143e3565b60009182526020808320909101546001600160a01b031683528201929092526040019020805485908110611e8557611e856143e3565b90600052602060002090600c0201600501819055505b80848481518110611eae57611eae6143e3565b60200260200101516101200151611ec591906146ca565b6004600060058881548110611edc57611edc6143e3565b60009182526020808320909101546001600160a01b031683528201929092526040019020805485908110611f1257611f126143e3565b90600052602060002090600c0201600a0181905550838381518110611f3957611f396143e3565b602002602001015160a00151848481518110611f5757611f576143e3565b60200260200101516101000151611f6e91906146ca565b6004600060058881548110611f8557611f856143e3565b60009182526020808320909101546001600160a01b031683528201929092526040019020805485908110611fbb57611fbb6143e3565b90600052602060002090600c02016009018190555060006004600060058881548110611fe957611fe96143e3565b60009182526020808320909101546001600160a01b03168352820192909252604001902080548590811061201f5761201f6143e3565b60009182526020909120600b600c9092020101805460ff1916600183600381111561204c5761204c614193565b0217905550426004600060058881548110612069576120696143e3565b60009182526020808320909101546001600160a01b03168352820192909252604001902080548590811061209f5761209f6143e3565b90600052602060002090600c0201600701819055507fd77c8e9038ce2394ee0528e954e75f9693506cd98cc37fc1d0415fd4c49ba23e600586815481106120e8576120e86143e3565b9060005260206000200160009054906101000a90046001600160a01b031684868681518110612119576121196143e3565b6020026020010151602001516000015187878151811061213b5761213b6143e3565b6020026020010151602001516020015188888151811061215d5761215d6143e3565b602002602001015160a00151864260405161217e97969594939291906146dd565b60405180910390a150505b806121938161440f565b915050611aa5565b505080806121a89061440f565b91505061184b565b60005b60015481101561013f57600061222b600183815481106121d5576121d56143e3565b60009182526020918290206040805160608101825260029390930290910180546001600160a01b03908116845260019091015490811693830193909352600160a01b90920460ff16151591810191909152613860565b9050600061271060085483612240919061456a565b61224a9190614581565b612254908361448c565b905060006122c66001858154811061226e5761226e6143e3565b60009182526020918290206040805160608101825260029390930290910180546001600160a01b03908116845260019091015490811693830193909352600160a01b90920460ff16151591810191909152833061349d565b905060005b600554811015612b5557600060046000600584815481106122ee576122ee6143e3565b60009182526020808320909101546001600160a01b031683528281019390935260409182018120805483518186028101860190945280845292939092919084015b8282101561251c57838290600052602060002090600c0201604051806101c001604052908160008201805461236390614458565b80601f016020809104026020016040519081016040528092919081815260200182805461238f90614458565b80156123dc5780601f106123b1576101008083540402835291602001916123dc565b820191906000526020600020905b8154815290600101906020018083116123bf57829003601f168201915b5050509183525050604080516060808201835260018501546001600160a01b039081168352600286015490811660208481019190915260ff600160a01b90920482161515848601528501929092526003808601549385019390935260048501549084015260058401546080840152600684015460a0840152600784015460c0840152600884015460e08401526009840154610100840152600a840154610120840152600b84015461014090930192169081111561249b5761249b614193565b60038111156124ac576124ac614193565b8152600b8201546001600160a01b03610100820416602083015260ff600160a81b8204811615156040840152606090920191600160b01b9091041660018111156124f8576124f8614193565b600181111561250957612509614193565b815250508152602001906001019061232f565b50505050905060005b8151811015612b40576003828281518110612542576125426143e3565b60200260200101516101400151600381111561256057612560614193565b14801561258f575081818151811061257a5761257a6143e3565b60200260200101516101800151151560011515145b80156125df57508181815181106125a8576125a86143e3565b6020026020010151606001518282815181106125c6576125c66143e3565b602002602001015160c001516125dc91906146ca565b42115b15612b2e578181815181106125f6576125f66143e3565b60200260200101516101000151828281518110612615576126156143e3565b60200260200101516040015161262b919061448c565b82828151811061263d5761263d6143e3565b602002602001015160a00151111561272b5760016004600060058681548110612668576126686143e3565b60009182526020808320909101546001600160a01b03168352820192909252604001902080548390811061269e5761269e6143e3565b60009182526020909120600b600c9092020101805460ff191660018360038111156126cb576126cb614193565b0217905550600583815481106126e3576126e36143e3565b6000918252602090912001546040516001600160a01b039091169060008051602061495e8339815191529061271e90849060019042906144a5565b60405180910390a2612b2e565b60006127108588858581518110612744576127446143e3565b602002602001015160a0015161271061275d919061456a565b6127679190614581565b612771919061456a565b61277b9190614581565b90506000838381518110612791576127916143e3565b60200260200101516101a0015160018111156127af576127af614193565b036128415760018383815181106127c8576127c86143e3565b6020026020010151608001516127de919061448c565b60046000600587815481106127f5576127f56143e3565b60009182526020808320909101546001600160a01b03168352820192909252604001902080548490811061282b5761282b6143e3565b90600052602060002090600c0201600501819055505b828281518110612853576128536143e3565b602002602001015160a00151838381518110612871576128716143e3565b6020026020010151610100015161288891906146ca565b600460006005878154811061289f5761289f6143e3565b60009182526020808320909101546001600160a01b0316835282019290925260400190208054849081106128d5576128d56143e3565b90600052602060002090600c020160090181905550808383815181106128fd576128fd6143e3565b6020026020010151610120015161291491906146ca565b600460006005878154811061292b5761292b6143e3565b60009182526020808320909101546001600160a01b031683528201929092526040019020805484908110612961576129616143e3565b90600052602060002090600c0201600a01819055506000600460006005878154811061298f5761298f6143e3565b60009182526020808320909101546001600160a01b0316835282019290925260400190208054849081106129c5576129c56143e3565b60009182526020909120600b600c9092020101805460ff191660018360038111156129f2576129f2614193565b0217905550426004600060058781548110612a0f57612a0f6143e3565b60009182526020808320909101546001600160a01b031683528201929092526040019020805484908110612a4557612a456143e3565b90600052602060002090600c0201600701819055507fd77c8e9038ce2394ee0528e954e75f9693506cd98cc37fc1d0415fd4c49ba23e60058581548110612a8e57612a8e6143e3565b9060005260206000200160009054906101000a90046001600160a01b031683858581518110612abf57612abf6143e3565b60200260200101516020015160000151868681518110612ae157612ae16143e3565b60200260200101516020015160200151878781518110612b0357612b036143e3565b602002602001015160a001518642604051612b2497969594939291906146dd565b60405180910390a1505b80612b388161440f565b915050612525565b50508080612b4d9061440f565b9150506122cb565b505050508080612b649061440f565b9150506121b3565b600080546001600160a01b038381166001600160a01b0319831681178455604051919092169283917f8be0079c531659141344cd1fd0a4f28419497f9722a3daafe3b4186f6b6457e09190a35050565b6040516001600160a01b038316602482015260448101829052612c1f90849063a9059cbb60e01b906064015b60408051601f198184030181529190526020810180516001600160e01b03166001600160e01b031990931692909217909152613cde565b505050565b6001600160a01b0382166000908152600460205260408120805460018201919084908110612c5457612c546143e3565b6000918252602080832084546001810186559484529220600c91820290920192020180612c818382614721565b5060018281015482820180546001600160a01b039283166001600160a01b0319918216179091556002808601805491860180549290941692821683178455546001600160a81b0319909116909117600160a01b9182900460ff90811615159092021790915560038085015481850155600480860154908501556005808601549085015560068086015490850155600780860154908501556008808601549085015560098086015490850155600a8086015490850155600b808601549085018054919093169360ff19909116918490811115612d5e57612d5e614193565b0217905550600b828101805491830180546001600160a01b036101009485900416909302610100600160a81b0319841681178255825460ff600160a81b918290048116151590910260ff60a81b19909216610100600160b01b031990951694909417178082559154600160b01b9081900490931692909160ff60b01b191690836001811115612def57612def614193565b021790555050506001600160a01b03831660009081526004602052604090208054612e1c9060019061448c565b81548110612e2c57612e2c6143e3565b90600052602060002090600c020160046000856001600160a01b03166001600160a01b031681526020019081526020016000206000018381548110612e7357612e736143e3565b60009182526020909120600c9091020180612e8e8382614721565b5060018281015482820180546001600160a01b039283166001600160a01b0319918216179091556002808601805491860180549290941692821683178455546001600160a81b0319909116909117600160a01b9182900460ff90811615159092021790915560038085015481850155600480860154908501556005808601549085015560068086015490850155600780860154908501556008808601549085015560098086015490850155600a8086015490850155600b808601549085018054919093169360ff19909116918490811115612f6b57612f6b614193565b0217905550600b828101805491830180546001600160a01b036101009485900416909302610100600160a81b0319841681178255825460ff600160a81b918290048116151590910260ff60a81b19909216610100600160b01b031990951694909417178082559154600160b01b9081900490931692909160ff60b01b191690836001811115612ffc57612ffc614193565b021790555050506001600160a01b038316600090815260046020526040902080548061302a5761302a6147fc565b60008281526020812060001990920191600c8302019061304a8282613fd8565b506001810180546001600160a01b03191690556002810180546001600160a81b0319169055600060038201819055600482018190556005820181905560068201819055600782018190556008820181905560098201819055600a820155600b0180546001600160b81b0319169055905592915050565b6000805b6002548110156117895782600282815481106130e2576130e26143e3565b9060005260206000200154036130fb5750600192915050565b806131058161440f565b9150506130c4565b6001600160a01b038316600090815260046020908152604080832080548251818502810185019093528083528493849084015b8282101561332d57838290600052602060002090600c0201604051806101c001604052908160008201805461317490614458565b80601f01602080910402602001604051908101604052809291908181526020018280546131a090614458565b80156131ed5780601f106131c2576101008083540402835291602001916131ed565b820191906000526020600020905b8154815290600101906020018083116131d057829003601f168201915b5050509183525050604080516060808201835260018501546001600160a01b039081168352600286015490811660208481019190915260ff600160a01b90920482161515848601528501929092526003808601549385019390935260048501549084015260058401546080840152600684015460a0840152600784015460c0840152600884015460e08401526009840154610100840152600a840154610120840152600b8401546101409093019216908111156132ac576132ac614193565b60038111156132bd576132bd614193565b8152600b8201546001600160a01b03610100820416602083015260ff600160a81b8204811615156040840152606090920191600160b01b90910416600181111561330957613309614193565b600181111561331a5761331a614193565b8152505081526020019060010190613140565b50505050905060005b815181101561345157818181518110613351576133516143e3565b60200260200101516000015160405160200161336d9190614812565b60405160208183030381529060405280519060200120856040516020016133949190614812565b604051602081830303815290604052805190602001201480156133ed57508181815181106133c4576133c46143e3565b602002602001015160200151600001516001600160a01b031684600001516001600160a01b0316145b801561342f5750818181518110613406576134066143e3565b602002602001015160200151602001516001600160a01b031684602001516001600160a01b0316145b1561343f57600192505050613458565b806134498161440f565b915050613336565b5060009150505b9392505050565b6040516001600160a01b03808516602483015283166044820152606481018290526134979085906323b872dd60e01b90608401612be8565b50505050565b82516040516370a0823160e01b815230600482015260009184916001600160a01b03909116906370a0823190602401602060405180830381865afa1580156134e9573d6000803e3d6000fd5b505050506040513d601f19601f8201168201806040525081019061350d91906146b1565b116135665760405162461bcd60e51b8152602060048201526024808201527f496e73756666696369656e742062616c616e6365206f66206f726967696e205460448201526337b5b2b760e11b606482015260840161035a565b835160035460405163095ea7b360e01b81526001600160a01b0391821660048201526024810186905291169063095ea7b3906044016020604051808303816000875af11580156135ba573d6000803e3d6000fd5b505050506040513d601f19601f820116820180604052508101906135de919061482e565b506003546040805163c45a015560e01b815290516000926001600160a01b03169163c45a01559160048083019260209291908290030181865afa158015613629573d6000803e3d6000fd5b505050506040513d601f19601f8201168201806040525081019061364d919061484b565b8551602087015160405163e6a4390560e01b81526001600160a01b039283166004820152908216602482015291169063e6a4390590604401602060405180830381865afa1580156136a2573d6000803e3d6000fd5b505050506040513d601f19601f820116820180604052508101906136c6919061484b565b90506001600160a01b0381161561382357604080516002808252606082018352600092602083019080368337019050509050856000015181600081518110613710576137106143e3565b60200260200101906001600160a01b031690816001600160a01b031681525050856020015181600181518110613748576137486143e3565b6001600160a01b03909216602092830291909101909101528415613818576003546000906001600160a01b03166338ed17398783858961378a426107086146ca565b6040518663ffffffff1660e01b81526004016137aa959493929190614868565b6000604051808303816000875af11580156137c9573d6000803e3d6000fd5b505050506040513d6000823e601f3d908101601f191682016040526137f191908101906148a4565b905080600181518110613806576138066143e3565b60200260200101519350505050613458565b600092505050613458565b60405162461bcd60e51b815260206004820152601260248201527114185a5c88191bd95cdb89dd08195e1a5cdd60721b604482015260640161035a565b60008060005b600554811015613cd75760006004600060058481548110613889576138896143e3565b60009182526020808320909101546001600160a01b031683528281019390935260409182018120805483518186028101860190945280845292939092919084015b82821015613ab757838290600052602060002090600c0201604051806101c00160405290816000820180546138fe90614458565b80601f016020809104026020016040519081016040528092919081815260200182805461392a90614458565b80156139775780601f1061394c57610100808354040283529160200191613977565b820191906000526020600020905b81548152906001019060200180831161395a57829003601f168201915b5050509183525050604080516060808201835260018501546001600160a01b039081168352600286015490811660208481019190915260ff600160a01b90920482161515848601528501929092526003808601549385019390935260048501549084015260058401546080840152600684015460a0840152600784015460c0840152600884015460e08401526009840154610100840152600a840154610120840152600b840154610140909301921690811115613a3657613a36614193565b6003811115613a4757613a47614193565b8152600b8201546001600160a01b03610100820416602083015260ff600160a81b8204811615156040840152606090920191600160b01b909104166001811115613a9357613a93614193565b6001811115613aa457613aa4614193565b81525050815260200190600101906138ca565b50505050905060005b8151811015613cc25785600001516001600160a01b0316828281518110613ae957613ae96143e3565b602002602001015160200151600001516001600160a01b0316148015613b45575085602001516001600160a01b0316828281518110613b2a57613b2a6143e3565b602002602001015160200151602001516001600160a01b0316145b8015613b8057506000828281518110613b6057613b606143e3565b602002602001015161014001516003811115613b7e57613b7e614193565b145b8015613bae5750818181518110613b9957613b996143e3565b60200260200101516101800151151560011515145b8015613bfe5750818181518110613bc757613bc76143e3565b602002602001015160600151828281518110613be557613be56143e3565b602002602001015160c00151613bfb91906146ca565b42115b15613cb057818181518110613c1557613c156143e3565b602002602001015160a0015184613c2c91906146ca565b935060036004600060058681548110613c4757613c476143e3565b60009182526020808320909101546001600160a01b031683528201929092526040019020805483908110613c7d57613c7d6143e3565b60009182526020909120600b600c9092020101805460ff19166001836003811115613caa57613caa614193565b02179055505b80613cba8161440f565b915050613ac0565b50508080613ccf9061440f565b915050613866565b5092915050565b6000613d33826040518060400160405280602081526020017f5361666545524332303a206c6f772d6c6576656c2063616c6c206661696c6564815250856001600160a01b0316613db09092919063ffffffff16565b805190915015612c1f5780806020019051810190613d51919061482e565b612c1f5760405162461bcd60e51b815260206004820152602a60248201527f5361666545524332303a204552433230206f7065726174696f6e20646964206e6044820152691bdd081cdd58d8d9595960b21b606482015260840161035a565b6060613dbf8484600085613dc7565b949350505050565b606082471015613e285760405162461bcd60e51b815260206004820152602660248201527f416464726573733a20696e73756666696369656e742062616c616e636520666f6044820152651c8818d85b1b60d21b606482015260840161035a565b600080866001600160a01b03168587604051613e449190614812565b60006040518083038185875af1925050503d8060008114613e81576040519150601f19603f3d011682016040523d82523d6000602084013e613e86565b606091505b5091509150613e9787838387613ea2565b979650505050505050565b60608315613f11578251600003613f0a576001600160a01b0385163b613f0a5760405162461bcd60e51b815260206004820152601d60248201527f416464726573733a2063616c6c20746f206e6f6e2d636f6e7472616374000000604482015260640161035a565b5081613dbf565b613dbf8383815115613f265781518083602001fd5b8060405162461bcd60e51b815260040161035a919061494a565b604080516101c081018252606080825282519081018352600080825260208281018290529382015290918201908152602001600081526020016000815260200160008152602001600081526020016000815260200160008152602001600081526020016000815260200160006003811115613fbd57613fbd614193565b81526000602082018190526040820181905260609091015290565b508054613fe490614458565b6000825580601f10613ff4575050565b601f01602090049060005260206000209081019061013f91905b80821115614022576000815560010161400e565b5090565b60006020828403121561403857600080fd5b5035919050565b6001600160a01b038116811461013f57600080fd5b801515811461013f57600080fd5b803561179281614054565b60008060006060848603121561408257600080fd5b833561408d8161403f565b9250602084013561409d8161403f565b915060408401356140ad81614054565b809150509250925092565b600081518084526020808501945080840160005b838110156140f15781516001600160a01b0316875295820195908201906001016140cc565b509495945050505050565b60208152600061345860208301846140b8565b6000806040838503121561412257600080fd5b8235915060208301356004811061413857600080fd5b809150509250929050565b60005b8381101561415e578181015183820152602001614146565b50506000910152565b6000815180845261417f816020860160208601614143565b601f01601f19169290920160200192915050565b634e487b7160e01b600052602160045260246000fd5b600481106141b9576141b9614193565b9052565b600281106141b9576141b9614193565b60208152600082516102008060208501526141ec610220850183614167565b91506020850151614224604086018280516001600160a01b039081168352602080830151909116908301526040908101511515910152565b50604085015160a0850152606085015160c0850152608085015160e085015260a0850151610100818187015260c08701519150610120828188015260e0880151925061014083818901528289015193506101609250838389015281890151935061018091508382890152808901519350506101a06142a4818901856141a9565b918801516001600160a01b03166101c088015287015115156101e087015286015190506142d3828601826141bd565b5090949350505050565b6000606082840312156142ef57600080fd5b50919050565b600080600080600080600080610120898b03121561431257600080fd5b883567ffffffffffffffff8082111561432a57600080fd5b818b0191508b601f83011261433e57600080fd5b81358181111561434d57600080fd5b8c602082850101111561435f57600080fd5b60209283019a509850614376918c91508b016142dd565b95506080890135945060a0890135935060c0890135925060e089013591506143a16101008a01614062565b90509295985092959890939650565b6000602082840312156143c257600080fd5b81356134588161403f565b634e487b7160e01b600052604160045260246000fd5b634e487b7160e01b600052603260045260246000fd5b634e487b7160e01b600052601160045260246000fd5b600060018201614421576144216143f9565b5060010190565b602080825260169082015275141bdcda5d1a5bdb88191bd95cdb89dd08195e1a5cdd60521b604082015260600190565b600181811c9082168061446c57607f821691505b6020821081036142ef57634e487b7160e01b600052602260045260246000fd5b8181038181111561449f5761449f6143f9565b92915050565b838152606081016144b960208301856141a9565b826040830152949350505050565b604051601f8201601f1916810167ffffffffffffffff811182821017156144f0576144f06143cd565b604052919050565b60006060828403121561450a57600080fd5b6040516060810181811067ffffffffffffffff8211171561452d5761452d6143cd565b604052823561453b8161403f565b8152602083013561454b8161403f565b6020820152604083013561455e81614054565b60408201529392505050565b808202811582820484141761449f5761449f6143f9565b60008261459e57634e487b7160e01b600052601260045260246000fd5b500490565b601f821115612c1f57600081815260208120601f850160051c810160208610156145ca5750805b601f850160051c820191505b818110156145e9578281556001016145d6565b505050505050565b815167ffffffffffffffff81111561460b5761460b6143cd565b61461f816146198454614458565b846145a3565b602080601f831160018114614654576000841561463c5750858301515b600019600386901b1c1916600185901b1785556145e9565b600085815260208120601f198616915b8281101561468357888601518255948401946001909101908401614664565b50858210156146a15787850151600019600388901b60f8161c191681555b5050505050600190811b01905550565b6000602082840312156146c357600080fd5b5051919050565b8082018082111561449f5761449f6143f9565b6001600160a01b03978816815260208101969096529386166040860152919094166060840152608083019390935260a082019290925260c081019190915260e00190565b81810361472c575050565b6147368254614458565b67ffffffffffffffff81111561474e5761474e6143cd565b61475c816146198454614458565b6000601f82116001811461479057600083156147785750848201545b600019600385901b1c1916600184901b1784556147f5565b600085815260209020601f19841690600086815260209020845b838110156147ca57828601548255600195860195909101906020016147aa565b50858310156147e85781850154600019600388901b60f8161c191681555b50505060018360011b0184555b5050505050565b634e487b7160e01b600052603160045260246000fd5b60008251614824818460208701614143565b9190910192915050565b60006020828403121561484057600080fd5b815161345881614054565b60006020828403121561485d57600080fd5b81516134588161403f565b85815284602082015260a06040820152600061488760a08301866140b8565b6001600160a01b0394909416606083015250608001529392505050565b600060208083850312156148b757600080fd5b825167ffffffffffffffff808211156148cf57600080fd5b818501915085601f8301126148e357600080fd5b8151818111156148f5576148f56143cd565b8060051b91506149068483016144c7565b818152918301840191848101908884111561492057600080fd5b938501935b8385101561493e57845182529385019390850190614925565b98975050505050505050565b602081526000613458602083018461416756fe1ee227ac62b3f06afe9df95df8797497fe7b63f1e4c3cc120f8a333b6f65d196a264697066735822122026bc1ff890bc30e584b5c13f5152ed052861e44714bfc1735148b9dfbe8cea6464736f6c63430008120033",
  "immutableReferences": {},
  "source": "// SPDX-License-Identifier: MIT\n\npragma solidity ^0.8.18;\n\nimport '../node_modules/@uniswap/v2-periphery/contracts/interfaces/IUniswapV2Router02.sol';\nimport '../node_modules/@uniswap/v2-core/contracts/interfaces/IUniswapV2Factory.sol';\nimport '../node_modules/@uniswap/v2-core/contracts/interfaces/IUniswapV2Pair.sol';\nimport \"../node_modules/@openzeppelin/contracts/access/Ownable.sol\";\nimport \"../node_modules/@openzeppelin/contracts/token/ERC20/IERC20.sol\";\nimport \"../node_modules/@openzeppelin/contracts/token/ERC20/ERC20.sol\";\nimport \"../node_modules/@openzeppelin/contracts/token/ERC20/utils/SafeERC20.sol\";\nimport \"./interfaces/IHodlUpRewardsManager.sol\";\n//import \"../node_modules/@ganache/console.log/console.sol\";\nusing SafeERC20 for IERC20;\n\n/**\n * @title HodlUpHub contract\n * @dev This contract is used for hodling tokens and executing automated periodic swaps.\n */\ncontract HodlUpHub is Ownable {\n\n    /**\n     * @dev Enum representing the available statuses for a position.\n     * Active: the position is currently being executed\n     * Pause: the position is temporarily paused\n     * Closed: the position has been fully executed and cannot be reopened\n     * Locked: the position is locked for DCA, meaning that the tokens have been swapped but not transferred to the user\n     */\n    enum Status {\n        Active,\n        Pause,\n        Closed,\n        Locked\n    }\n\n    enum DcaMode {\n        Limited,\n        Unlimited\n    }\n\n    Pair[] public pairsAvailable;\n    uint256[] public intervalsAvailable;\n    IUniswapV2Router02 public uniswapRouter;\n\n    struct User {\n        Position[] positions;\n        Position[] closedPositions;\n    }\n\n    struct Pair {\n        IERC20 token_from;\n        IERC20 token_to;\n        bool active;\n    }\n\n    struct Position {\n        string name;\n        Pair pair;\n        uint totalAmountToSwap;\n        uint interval;\n        uint dcaIterations;\n        uint amountPerSwap;\n        uint lastPurchaseTimestamp;\n        uint createdTimestamp;\n        uint SwappedFromBalance;\n        uint SwappedToBalance;  \n        Status status;\n        address recipient;\n        bool stacking;\n        DcaMode mode;\n    }\n\n    mapping(address => User) users;\n    address [] public userAddresses;\n\n    mapping(address => uint) feesBalances;\n\n    // Represents fee percentage taken for deposit. \n    // to avoid rounding errors, we multiply it by 10000. 1% is represented by 100\n    uint public depositFee;\n    uint public swapFee;\n\n    IHodlUpRewardsManager public rewardsManager;\n\n    constructor(address _uniswapRouter, address _rewardManager, uint _depositFee, uint _swapFee) {\n        uniswapRouter = IUniswapV2Router02(_uniswapRouter);\n        rewardsManager = IHodlUpRewardsManager(_rewardManager);\n        depositFee = _depositFee;\n        swapFee = _swapFee;\n    }\n\n    function _userExists(address _userAddress) internal view returns (bool) {\n        return (users[_userAddress].positions.length > 0);\n    }\n\n    // execute DCA for users that has choosen to stack\n    function _executeStakedDCA () internal {\n        for (uint i = 0; i < pairsAvailable.length; i++) {\n            uint totalToSwap = _getTotalToSwap(pairsAvailable[i]);\n            uint totalToSwapAfterFees = totalToSwap - (totalToSwap * swapFee / 10000);\n            uint totalSwapped = _swap(pairsAvailable[i], totalToSwapAfterFees, address(this)) ;\n            for (uint256 j = 0; j < userAddresses.length; j++) {\n                Position[] memory positions = users[userAddresses[j]].positions;\n                for (uint256 k = 0; k < positions.length; k++) {\n                    if (positions[k].status == Status.Locked &&\n                        positions[k].stacking == true &&\n                        block.timestamp > positions[k].lastPurchaseTimestamp + positions[k].interval\n                    ) {\n                        if (positions[k].amountPerSwap > (positions[k].totalAmountToSwap - positions[k].SwappedFromBalance)){\n                            users[userAddresses[j]].positions[k].status = Status.Pause;\n                            emit PositionStatusChanged (userAddresses[j], k, Status.Pause, block.timestamp);  \n                        }\n                        else{\n                            uint amountSwapped = ( ( (positions[k].amountPerSwap * 10000) / totalToSwap ) * totalSwapped) / 10000;\n                            if (positions[k].mode == DcaMode.Limited){\n                                users[userAddresses[j]].positions[k].dcaIterations = positions[k].dcaIterations - 1 ;\n                            }\n                            users[userAddresses[j]].positions[k].SwappedFromBalance = positions[k].SwappedFromBalance + positions[k].amountPerSwap;\n                            users[userAddresses[j]].positions[k].SwappedToBalance = positions[k].SwappedToBalance + amountSwapped;\n                            users[userAddresses[j]].positions[k].status = Status.Active;\n                            users[userAddresses[j]].positions[k].lastPurchaseTimestamp = block.timestamp;\n                            emit DCAExecuted (userAddresses[j], k, address(positions[k].pair.token_from), address(positions[k].pair.token_to), positions[k].amountPerSwap, amountSwapped, block.timestamp);\n                        }\n                     }\n                }\n            }\n            //emit DCAExecuted (userAddresses[i], j, address(positions[j].pair.token_from), address(positions[j].pair.token_to), positions[j].amountPerSwap);\n        }\n    }\n\n    // execute DCA for users that want to get back directly to their wallet\n    function _executeIndividualDCA () internal {\n\n        for (uint256 i = 0; i < userAddresses.length; i++) {\n            Position[] memory positions = users[userAddresses[i]].positions;\n            for (uint256 j = 0; j < positions.length; j++) {\n                if (positions[j].status == Status.Active &&\n                    positions[j].stacking == false &&\n                    block.timestamp > (positions[j].lastPurchaseTimestamp + positions[j].interval)\n                ) {\n                    if (positions[j].amountPerSwap > (positions[j].totalAmountToSwap - positions[j].SwappedFromBalance)){\n                        users[userAddresses[i]].positions[j].status = Status.Pause;\n                        emit PositionStatusChanged (userAddresses[i], j, Status.Pause, block.timestamp);  \n                    }\n                    else{\n                        users[userAddresses[i]].positions[j].status = Status.Locked;\n                        uint amoutPerSwapAfterFees =  positions[j].amountPerSwap - (positions[j].amountPerSwap * swapFee / 10000);\n                        uint resultSwap = _swap( positions[j].pair, amoutPerSwapAfterFees, positions[j].recipient) ;\n                        if (positions[j].mode == DcaMode.Limited){\n                            users[userAddresses[i]].positions[j].dcaIterations = positions[j].dcaIterations - 1 ;\n                        }\n                        users[userAddresses[i]].positions[j].SwappedToBalance = positions[j].SwappedToBalance + resultSwap;\n                        users[userAddresses[i]].positions[j].SwappedFromBalance = positions[j].SwappedFromBalance + positions[j].amountPerSwap;\n                        users[userAddresses[i]].positions[j].status = Status.Active;\n                        users[userAddresses[i]].positions[j].lastPurchaseTimestamp = block.timestamp;\n                        emit DCAExecuted (userAddresses[i], j, address(positions[j].pair.token_from), address(positions[j].pair.token_to), positions[j].amountPerSwap, resultSwap, block.timestamp);\n                    }\n                }\n            }\n        }\n    }\n\n    function _pairExists(Pair memory _pair) internal view returns (bool) {\n        for (uint i = 0; i < pairsAvailable.length; i++) {\n            if (pairsAvailable[i].token_from == _pair.token_from && pairsAvailable[i].token_to == _pair.token_to) {\n                return true;\n            }\n        }\n        return false;\n    }\n\n    function _intervalExists(uint256 interval) internal view returns (bool) {\n        for (uint i = 0; i < intervalsAvailable.length; i++) {\n            if (intervalsAvailable[i]==interval) {\n                return true;\n            }\n        }\n        return false;\n    }\n\n    function _getTotalToSwap(Pair memory _pair) internal returns(uint256) {\n        uint totalToSwap;\n        for (uint256 i = 0; i < userAddresses.length; i++) {\n            Position[] memory positions = users[userAddresses[i]].positions;\n            for (uint256 j = 0; j < positions.length; j++) {\n                if (positions[j].pair.token_from == _pair.token_from &&\n                    positions[j].pair.token_to == _pair.token_to &&\n                    positions[j].status == Status.Active &&\n                    positions[j].stacking == true &&\n                    block.timestamp > positions[j].lastPurchaseTimestamp + positions[j].interval\n                ) {                 \n                    totalToSwap +=  positions[j].amountPerSwap;\n                    users[userAddresses[i]].positions[j].status = Status.Locked;\n                }\n            }\n        }\n        return totalToSwap;\n    }\n\n    function _swap(Pair memory _pair, uint256 _amount, address _receiver) internal returns(uint256) {\n        //require(block.timestamp >= lastSwapTime + swapInterval, \"DCAUniswapV2: Not enough time has passed since the last swap\");\n        require(IERC20(_pair.token_from).balanceOf(address(this)) > _amount, \"Insufficient balance of origin Token\");\n        IERC20(_pair.token_from).approve(address(uniswapRouter), _amount);\n\n        address pair = IUniswapV2Factory(IUniswapV2Router02(uniswapRouter).factory()).getPair(address(_pair.token_from), address(_pair.token_to));\n        if (pair != address(0)){\n\n            address[] memory path = new address[](2);\n            path[0] = address(_pair.token_from);\n            path[1] = address(_pair.token_to);\n\n            if (_amount != 0){\n                    uint[] memory outputAmounts = uniswapRouter.swapExactTokensForTokens(_amount, 0, path, _receiver, block.timestamp + 1800);\n                    return outputAmounts[1];\n            }\n            else{\n                return 0;\n            }\n        }\n        else{\n            revert(\"Pair doesn't exist\");\n        }\n    }\n\n    function _positionExists(address _user, Position memory _position) internal view returns (bool) {\n        Position[] memory positions = users[_user].positions;\n        for (uint256 i = 0; i < positions.length; i++) {\n            if(keccak256(abi.encodePacked(_position.name)) == keccak256(abi.encodePacked(positions[i].name)) &&\n                _position.pair.token_from == positions[i].pair.token_from && _position.pair.token_to == positions[i].pair.token_to) {\n                return true;\n            }\n        }\n        return false;\n    }\n\n    function _positionExists(address _user, string memory _name, Pair memory _pair) internal view returns (bool) {\n        Position[] memory positions = users[_user].positions;\n        for (uint256 i = 0; i < positions.length; i++) {\n            if(keccak256(abi.encodePacked(_name)) == keccak256(abi.encodePacked(positions[i].name)) &&\n                _pair.token_from == positions[i].pair.token_from && _pair.token_to == positions[i].pair.token_to) {\n                return true;\n            }\n        }\n        return false;\n    }\n\n    function _getAllInputTokenAddresses() external view returns (address[] memory) {\n        address[] memory tokenAddresses = new address[](pairsAvailable.length);\n        uint256 distinctTokenCount = 0;\n        \n        for (uint256 i = 0; i < pairsAvailable.length; i++) {\n            // Check if the token_from address has already been added to the list\n            bool exists = false;\n            for (uint256 j = 0; j < distinctTokenCount; j++) {\n                if (tokenAddresses[j] == address(pairsAvailable[i].token_from)) {\n                    exists = true;\n                    break;\n                }\n            }\n            // If token_from has not been added to the list yet, add it\n            if (!exists) {\n                tokenAddresses[distinctTokenCount] = address(pairsAvailable[i].token_from);\n                distinctTokenCount++;\n            }\n        }\n        // Resize the tokenAddresses array to remove any empty elements\n        assembly {\n            mstore(tokenAddresses, distinctTokenCount)\n        } \n        return tokenAddresses;\n    }\n\n    function _checkValidERC20(address tokenAddress) internal view returns (bool) {\n        try IERC20(tokenAddress).totalSupply() returns (uint256 _supply) {\n            if (_supply > 0 ){\n                return true;\n            }\n            return false;\n        } catch (bytes memory) {\n            return false;\n        }\n    }\n\n    function _achivePosition(address _user, uint _positionId) internal returns (bool) {\n        users[_user].closedPositions.push( users[_user].positions[_positionId]);\n        users[_user].positions[_positionId] =  users[_user].positions[users[_user].positions.length - 1];\n        users[_user].positions.pop();\n    }\n\n\n    function addPair(address _token_from, address _token_to, bool _active) external onlyOwner {\n        require(_token_from != _token_to, \"Input and Output tokens must be different\");\n        require(_checkValidERC20(_token_from), \"Input Token is not available. No Supply\");\n        require(_checkValidERC20(_token_to), \"Output Token is not available. No Supply\");\n        require(!_pairExists(Pair(IERC20(_token_from), IERC20(_token_to), true)), \"Pair already exists\");\n        pairsAvailable.push(Pair(IERC20(_token_from), IERC20(_token_to), _active)); \n        emit PairAdded(_token_from, _token_to, block.timestamp);\n    }\n\n    function addInterval(uint256 _interval) external onlyOwner {\n        require(!_intervalExists(_interval), \"Interval already added\");\n        intervalsAvailable.push(_interval); \n        emit IntervalAdded(_interval, block.timestamp);\n    }\n\n    function createPosition(string calldata _name, Pair calldata _pair, uint _totalAmountToSwap, uint _interval, uint _amountPerSwap, uint _dcaIterations, bool _stacking) external {\n        require(bytes(_name).length > 0, \"name must be set\"); \n        require(!_positionExists(msg.sender, _name, _pair), \"Position is already existing\");\n        require(_pairExists(_pair), \"pair not available\");\n        require(_intervalExists(_interval), \"this interval is not allowed\");\n        require(_totalAmountToSwap > 0, \"No amount set for DCA\");\n        require( (_amountPerSwap == 0 && _dcaIterations != 0) || (_amountPerSwap != 0 && _dcaIterations == 0), \"Set only amount per swap or number of iterations\" );\n\n        uint totalToSwapAfterFees = _totalAmountToSwap - (_totalAmountToSwap * depositFee / 10000);\n        uint amountPerSwap = _amountPerSwap > 0 ? _amountPerSwap : ((totalToSwapAfterFees * 10000) / _dcaIterations) / 10000;\n\n        SafeERC20.safeTransferFrom(_pair.token_from, msg.sender, address(this), _totalAmountToSwap);   \n        if (!_userExists(msg.sender)){\n            userAddresses.push(msg.sender);\n        }\n        users[msg.sender].positions.push(Position(_name, _pair, totalToSwapAfterFees, _interval, _dcaIterations, amountPerSwap, block.timestamp, block.timestamp, 0, 0, Status.Active ,msg.sender, _stacking, _dcaIterations == 0 ? DcaMode.Unlimited : DcaMode.Limited ));\n    \n        emit PositionCreated (msg.sender, users[msg.sender].positions.length-1, block.timestamp);  \n    }\n\n    function setPositionStatus(uint _positionId, Status _status) external {\n        require(_positionId < users[msg.sender].positions.length , \"Position doesn't exist\");\n        users[msg.sender].positions[_positionId].status=_status;\n        emit PositionStatusChanged (msg.sender, _positionId, _status, block.timestamp);  \n    }\n\n    function closePosition(uint _positionId) external {\n        require(_positionId < users[msg.sender].positions.length , \"Position doesn't exist\");\n        Position memory positionToClose = users[msg.sender].positions[_positionId];\n        require(positionToClose.status != Status.Locked, \"Position is Locked: non closable\");\n\n        if ( (positionToClose.totalAmountToSwap - positionToClose.SwappedFromBalance) > 0 ) {\n            SafeERC20.safeTransfer(positionToClose.pair.token_from, msg.sender, positionToClose.totalAmountToSwap - positionToClose.SwappedFromBalance);\n            emit TokenClaimed( address (positionToClose.pair.token_from), positionToClose.totalAmountToSwap - positionToClose.SwappedFromBalance, block.timestamp );\n        }\n        if ( (positionToClose.SwappedToBalance) > 0 ) {\n            // swapped token could only be claimed for staking position. not stacking position swap directly to the user wallet.\n            if (positionToClose.stacking == true){\n                SafeERC20.safeTransfer(positionToClose.pair.token_to, msg.sender, positionToClose.SwappedToBalance);\n                emit TokenClaimed( address (positionToClose.pair.token_to), positionToClose.SwappedToBalance, block.timestamp );\n            }\n        }\n        users[msg.sender].positions[_positionId].status = Status.Closed;\n        _achivePosition(msg.sender, _positionId);\n        emit PositionStatusChanged (msg.sender, _positionId, Status.Closed, block.timestamp);  \n    }\n\n    function claimRewards(uint _positionId) external {\n        //require(_positionId < users[msg.sender].positions.length , \"Position doesn't exist\");\n        //users[msg.sender].positions[_positionId].status = Status.Closed;\n    }\n\n    function claimFees(uint _positionId) external {\n        require(_positionId < users[msg.sender].positions.length , \"Position doesn't exist\");\n        users[msg.sender].positions[_positionId].status = Status.Closed;\n        //emit PositionStatusChanged (msg.sender, _positionId, Status.Closed);  \n    }\n\n    function getPosition(uint _positionId) external view returns (Position memory){\n        return users[msg.sender].positions[_positionId];\n    }\n\n    function executeSwap() external onlyOwner{\n        _executeIndividualDCA();\n        _executeStakedDCA();\n    }\n\n    event PairAdded(address token_from, address token_to, uint date);\n    event IntervalAdded(uint256 interval, uint date);\n    event PositionCreated (address indexed sender, uint256 id, uint date);\n    event PositionStatusChanged (address indexed sender, uint256 id, Status status, uint date);\n    event DCAExecuted (address user, uint positionId, address token_from, address token_to, uint amountToSwap, uint amountSwapped, uint date);\n    event TokenClaimed (address token, uint amount, uint date);\n\n}\n\n",
  "sourcePath": "/home/sjouany/ProjetFinal/HodlUp/truffle/contracts/HodlUpHub.sol",
  "compiler": {
    "name": "solc",
    "version": "0.8.18+commit.87f61d96.Emscripten.clang"
  },
  "schemaVersion": "3.4.13",
  "updatedAt": "2023-04-09T10:02:26.397Z",
  "networkType": "ethereum",
  "devdoc": {
    "details": "This contract is used for hodling tokens and executing automated periodic swaps.",
    "kind": "dev",
    "methods": {
      "owner()": {
        "details": "Returns the address of the current owner."
      },
      "renounceOwnership()": {
        "details": "Leaves the contract without owner. It will not be possible to call `onlyOwner` functions anymore. Can only be called by the current owner. NOTE: Renouncing ownership will leave the contract without an owner, thereby removing any functionality that is only available to the owner."
      },
      "transferOwnership(address)": {
        "details": "Transfers ownership of the contract to a new account (`newOwner`). Can only be called by the current owner."
      }
    },
    "title": "HodlUpHub contract",
    "version": 1
  },
  "userdoc": {
    "kind": "user",
    "methods": {},
    "version": 1
  }
}