{
  "contractName": "HodlUpHub",
  "abi": [
    {
      "inputs": [
        {
          "internalType": "address",
          "name": "_uniswapRouter",
          "type": "address"
        },
        {
          "internalType": "uint256",
          "name": "_depositFee",
          "type": "uint256"
        },
        {
          "internalType": "uint256",
          "name": "_swapFee",
          "type": "uint256"
        }
      ],
      "stateMutability": "nonpayable",
      "type": "constructor"
    },
    {
      "anonymous": false,
      "inputs": [
        {
          "indexed": false,
          "internalType": "address",
          "name": "user",
          "type": "address"
        },
        {
          "indexed": false,
          "internalType": "uint256",
          "name": "positionId",
          "type": "uint256"
        },
        {
          "indexed": false,
          "internalType": "address",
          "name": "token_from",
          "type": "address"
        },
        {
          "indexed": false,
          "internalType": "address",
          "name": "token_to",
          "type": "address"
        },
        {
          "indexed": false,
          "internalType": "uint256",
          "name": "amountToSwap",
          "type": "uint256"
        },
        {
          "indexed": false,
          "internalType": "uint256",
          "name": "amountSwapped",
          "type": "uint256"
        },
        {
          "indexed": false,
          "internalType": "uint256",
          "name": "date",
          "type": "uint256"
        }
      ],
      "name": "DCAExecuted",
      "type": "event"
    },
    {
      "anonymous": false,
      "inputs": [
        {
          "indexed": false,
          "internalType": "uint256",
          "name": "interval",
          "type": "uint256"
        },
        {
          "indexed": false,
          "internalType": "uint256",
          "name": "date",
          "type": "uint256"
        }
      ],
      "name": "IntervalAdded",
      "type": "event"
    },
    {
      "anonymous": false,
      "inputs": [
        {
          "indexed": true,
          "internalType": "address",
          "name": "previousOwner",
          "type": "address"
        },
        {
          "indexed": true,
          "internalType": "address",
          "name": "newOwner",
          "type": "address"
        }
      ],
      "name": "OwnershipTransferred",
      "type": "event"
    },
    {
      "anonymous": false,
      "inputs": [
        {
          "indexed": false,
          "internalType": "address",
          "name": "token_from",
          "type": "address"
        },
        {
          "indexed": false,
          "internalType": "address",
          "name": "token_to",
          "type": "address"
        },
        {
          "indexed": false,
          "internalType": "uint256",
          "name": "date",
          "type": "uint256"
        }
      ],
      "name": "PairAdded",
      "type": "event"
    },
    {
      "anonymous": false,
      "inputs": [
        {
          "indexed": false,
          "internalType": "address",
          "name": "sender",
          "type": "address"
        },
        {
          "indexed": false,
          "internalType": "uint256",
          "name": "id",
          "type": "uint256"
        },
        {
          "indexed": false,
          "internalType": "uint256",
          "name": "date",
          "type": "uint256"
        }
      ],
      "name": "PositionCreated",
      "type": "event"
    },
    {
      "anonymous": false,
      "inputs": [
        {
          "indexed": false,
          "internalType": "address",
          "name": "sender",
          "type": "address"
        },
        {
          "indexed": false,
          "internalType": "uint256",
          "name": "id",
          "type": "uint256"
        },
        {
          "indexed": false,
          "internalType": "enum HodlUpHub.Status",
          "name": "status",
          "type": "uint8"
        },
        {
          "indexed": false,
          "internalType": "uint256",
          "name": "date",
          "type": "uint256"
        }
      ],
      "name": "PositionStatusChanged",
      "type": "event"
    },
    {
      "anonymous": false,
      "inputs": [
        {
          "indexed": false,
          "internalType": "address",
          "name": "token",
          "type": "address"
        },
        {
          "indexed": false,
          "internalType": "uint256",
          "name": "amount",
          "type": "uint256"
        },
        {
          "indexed": false,
          "internalType": "uint256",
          "name": "date",
          "type": "uint256"
        }
      ],
      "name": "TokenClaimed",
      "type": "event"
    },
    {
      "inputs": [],
      "name": "depositFee",
      "outputs": [
        {
          "internalType": "uint256",
          "name": "",
          "type": "uint256"
        }
      ],
      "stateMutability": "view",
      "type": "function",
      "constant": true
    },
    {
      "inputs": [
        {
          "internalType": "uint256",
          "name": "",
          "type": "uint256"
        }
      ],
      "name": "intervalsAvailable",
      "outputs": [
        {
          "internalType": "uint256",
          "name": "",
          "type": "uint256"
        }
      ],
      "stateMutability": "view",
      "type": "function",
      "constant": true
    },
    {
      "inputs": [],
      "name": "owner",
      "outputs": [
        {
          "internalType": "address",
          "name": "",
          "type": "address"
        }
      ],
      "stateMutability": "view",
      "type": "function",
      "constant": true
    },
    {
      "inputs": [
        {
          "internalType": "uint256",
          "name": "",
          "type": "uint256"
        }
      ],
      "name": "pairsAvailable",
      "outputs": [
        {
          "internalType": "contract IERC20",
          "name": "token_from",
          "type": "address"
        },
        {
          "internalType": "contract IERC20",
          "name": "token_to",
          "type": "address"
        },
        {
          "internalType": "bool",
          "name": "active",
          "type": "bool"
        }
      ],
      "stateMutability": "view",
      "type": "function",
      "constant": true
    },
    {
      "inputs": [],
      "name": "renounceOwnership",
      "outputs": [],
      "stateMutability": "nonpayable",
      "type": "function"
    },
    {
      "inputs": [],
      "name": "swapFee",
      "outputs": [
        {
          "internalType": "uint256",
          "name": "",
          "type": "uint256"
        }
      ],
      "stateMutability": "view",
      "type": "function",
      "constant": true
    },
    {
      "inputs": [
        {
          "internalType": "address",
          "name": "newOwner",
          "type": "address"
        }
      ],
      "name": "transferOwnership",
      "outputs": [],
      "stateMutability": "nonpayable",
      "type": "function"
    },
    {
      "inputs": [],
      "name": "uniswapRouter",
      "outputs": [
        {
          "internalType": "contract IUniswapV2Router02",
          "name": "",
          "type": "address"
        }
      ],
      "stateMutability": "view",
      "type": "function",
      "constant": true
    },
    {
      "inputs": [
        {
          "internalType": "uint256",
          "name": "",
          "type": "uint256"
        }
      ],
      "name": "userAddresses",
      "outputs": [
        {
          "internalType": "address",
          "name": "",
          "type": "address"
        }
      ],
      "stateMutability": "view",
      "type": "function",
      "constant": true
    },
    {
      "inputs": [],
      "name": "_getAllInputTokenAddresses",
      "outputs": [
        {
          "internalType": "address[]",
          "name": "",
          "type": "address[]"
        }
      ],
      "stateMutability": "view",
      "type": "function",
      "constant": true
    },
    {
      "inputs": [
        {
          "internalType": "address",
          "name": "_token_from",
          "type": "address"
        },
        {
          "internalType": "address",
          "name": "_token_to",
          "type": "address"
        },
        {
          "internalType": "bool",
          "name": "_active",
          "type": "bool"
        }
      ],
      "name": "addPair",
      "outputs": [],
      "stateMutability": "nonpayable",
      "type": "function"
    },
    {
      "inputs": [
        {
          "internalType": "uint256",
          "name": "_interval",
          "type": "uint256"
        }
      ],
      "name": "addInterval",
      "outputs": [],
      "stateMutability": "nonpayable",
      "type": "function"
    },
    {
      "inputs": [
        {
          "internalType": "string",
          "name": "_name",
          "type": "string"
        },
        {
          "components": [
            {
              "internalType": "contract IERC20",
              "name": "token_from",
              "type": "address"
            },
            {
              "internalType": "contract IERC20",
              "name": "token_to",
              "type": "address"
            },
            {
              "internalType": "bool",
              "name": "active",
              "type": "bool"
            }
          ],
          "internalType": "struct HodlUpHub.Pair",
          "name": "_pair",
          "type": "tuple"
        },
        {
          "internalType": "uint256",
          "name": "_totalAmountToSwap",
          "type": "uint256"
        },
        {
          "internalType": "uint256",
          "name": "_interval",
          "type": "uint256"
        },
        {
          "internalType": "uint256",
          "name": "_amountPerSwap",
          "type": "uint256"
        },
        {
          "internalType": "uint256",
          "name": "_dcaIterations",
          "type": "uint256"
        },
        {
          "internalType": "bool",
          "name": "_stacking",
          "type": "bool"
        }
      ],
      "name": "createPosition",
      "outputs": [],
      "stateMutability": "nonpayable",
      "type": "function"
    },
    {
      "inputs": [
        {
          "internalType": "uint256",
          "name": "_positionId",
          "type": "uint256"
        },
        {
          "internalType": "enum HodlUpHub.Status",
          "name": "_status",
          "type": "uint8"
        }
      ],
      "name": "setPositionStatus",
      "outputs": [],
      "stateMutability": "nonpayable",
      "type": "function"
    },
    {
      "inputs": [
        {
          "internalType": "uint256",
          "name": "_positionId",
          "type": "uint256"
        }
      ],
      "name": "closePosition",
      "outputs": [],
      "stateMutability": "nonpayable",
      "type": "function"
    },
    {
      "inputs": [
        {
          "internalType": "uint256",
          "name": "_positionId",
          "type": "uint256"
        }
      ],
      "name": "claimRewardGovernanceToken",
      "outputs": [],
      "stateMutability": "nonpayable",
      "type": "function"
    },
    {
      "inputs": [
        {
          "internalType": "uint256",
          "name": "_positionId",
          "type": "uint256"
        }
      ],
      "name": "claimFees",
      "outputs": [],
      "stateMutability": "nonpayable",
      "type": "function"
    },
    {
      "inputs": [
        {
          "internalType": "uint256",
          "name": "_positionId",
          "type": "uint256"
        }
      ],
      "name": "getPosition",
      "outputs": [
        {
          "components": [
            {
              "internalType": "string",
              "name": "name",
              "type": "string"
            },
            {
              "components": [
                {
                  "internalType": "contract IERC20",
                  "name": "token_from",
                  "type": "address"
                },
                {
                  "internalType": "contract IERC20",
                  "name": "token_to",
                  "type": "address"
                },
                {
                  "internalType": "bool",
                  "name": "active",
                  "type": "bool"
                }
              ],
              "internalType": "struct HodlUpHub.Pair",
              "name": "pair",
              "type": "tuple"
            },
            {
              "internalType": "uint256",
              "name": "totalAmountToSwap",
              "type": "uint256"
            },
            {
              "internalType": "uint256",
              "name": "interval",
              "type": "uint256"
            },
            {
              "internalType": "uint256",
              "name": "dcaIterations",
              "type": "uint256"
            },
            {
              "internalType": "uint256",
              "name": "amountPerSwap",
              "type": "uint256"
            },
            {
              "internalType": "uint256",
              "name": "lastPurchaseTimestamp",
              "type": "uint256"
            },
            {
              "internalType": "uint256",
              "name": "createdTimestamp",
              "type": "uint256"
            },
            {
              "internalType": "uint256",
              "name": "averagePrice",
              "type": "uint256"
            },
            {
              "internalType": "uint256",
              "name": "SwappedFromBalance",
              "type": "uint256"
            },
            {
              "internalType": "uint256",
              "name": "SwappedToBalance",
              "type": "uint256"
            },
            {
              "internalType": "enum HodlUpHub.Status",
              "name": "status",
              "type": "uint8"
            },
            {
              "internalType": "address",
              "name": "recipient",
              "type": "address"
            },
            {
              "internalType": "bool",
              "name": "stacking",
              "type": "bool"
            },
            {
              "internalType": "enum HodlUpHub.DcaMode",
              "name": "mode",
              "type": "uint8"
            }
          ],
          "internalType": "struct HodlUpHub.Position",
          "name": "",
          "type": "tuple"
        }
      ],
      "stateMutability": "view",
      "type": "function",
      "constant": true
    },
    {
      "inputs": [],
      "name": "executeSwap",
      "outputs": [],
      "stateMutability": "nonpayable",
      "type": "function"
    }
  ],
  "bytecode": "0x60806040523480156200001157600080fd5b5060405162004590380380620045908339810160408190526200003491620000bc565b6200003f336200006c565b600380546001600160a01b0319166001600160a01b03949094169390931790925560075560085562000101565b600080546001600160a01b038381166001600160a01b0319831681178455604051919092169283917f8be0079c531659141344cd1fd0a4f28419497f9722a3daafe3b4186f6b6457e09190a35050565b600080600060608486031215620000d257600080fd5b83516001600160a01b0381168114620000ea57600080fd5b602085015160409095015190969495509392505050565b61447f80620001116000396000f3fe608060405234801561001057600080fd5b50600436106101215760003560e01c8063715018a6116100ad578063c1c7d5b411610071578063c1c7d5b414610259578063c46de5f71461026c578063eb02c3011461027f578063f1be589e1461029f578063f2fde38b146102b257600080fd5b8063715018a614610207578063735de9f71461020f5780638da5cb5b14610222578063a126d60114610233578063ac68a7481461024657600080fd5b8063502c9bd5116100f4578063502c9bd51461018757806354cf2aeb146101b2578063599f5810146101bb5780636319eb78146101c357806367a52793146101fe57600080fd5b806319ef091b146101265780631e2305e71461013b5780633da036cf1461016157806344c7c98414610172575b600080fd5b610139610134366004613bf0565b6102c5565b005b61014e610149366004613c3b565b610596565b6040519081526020015b60405180910390f35b61013961016f366004613c3b565b50565b61017a6105b7565b6040516101589190613c98565b61019a610195366004613c3b565b61071e565b6040516001600160a01b039091168152602001610158565b61014e60085481565b610139610748565b6101d66101d1366004613c3b565b610762565b604080516001600160a01b039485168152939092166020840152151590820152606001610158565b61014e60075481565b6101396107a8565b60035461019a906001600160a01b031681565b6000546001600160a01b031661019a565b610139610241366004613c3b565b6107ba565b610139610254366004613c3b565b610c09565b610139610267366004613c3b565b610c91565b61013961027a366004613cab565b610d58565b61029261028d366004613c3b565b610dff565b6040516101589190613d69565b6101396102ad366004613ea1565b61100c565b6101396102c0366004613f5c565b61160a565b6102cd611680565b816001600160a01b0316836001600160a01b0316036103455760405162461bcd60e51b815260206004820152602960248201527f496e70757420616e64204f757470757420746f6b656e73206d75737420626520604482015268191a5999995c995b9d60ba1b60648201526084015b60405180910390fd5b61034e836116da565b6103aa5760405162461bcd60e51b815260206004820152602760248201527f496e70757420546f6b656e206973206e6f7420617661696c61626c652e204e6f60448201526620537570706c7960c81b606482015260840161033c565b6103b3826116da565b6104105760405162461bcd60e51b815260206004820152602860248201527f4f757470757420546f6b656e206973206e6f7420617661696c61626c652e204e6044820152676f20537570706c7960c01b606482015260840161033c565b6104486040518060600160405280856001600160a01b03168152602001846001600160a01b0316815260200160011515815250611790565b1561048b5760405162461bcd60e51b81526020600482015260136024820152725061697220616c72656164792065786973747360681b604482015260640161033c565b60408051606080820183526001600160a01b03868116808452868216602080860182815288151587890190815260018054808201825560009190915297517fb10e2d527612073b26eecdfd717e6a320cf44b4afac2b0732d9fcbe2b7fa0cf6600290990298890180546001600160a01b03191691881691909117905590517fb10e2d527612073b26eecdfd717e6a320cf44b4afac2b0732d9fcbe2b7fa0cf790970180549151979095166001600160a81b031990911617600160a01b961515969096029590951790925584519081529283015242928201929092527fedd4b700a2980a33a301ad39ced5dbc1c98a786ecb28da5bf3926d5165005d1b910160405180910390a1505050565b600281815481106105a657600080fd5b600091825260209091200154905081565b60015460609060009067ffffffffffffffff8111156105d8576105d8613f79565b604051908082528060200260200182016040528015610601578160200160208202803683370190505b5090506000805b600154811015610716576000805b83811015610693576001838154811061063157610631613f8f565b600091825260209091206002909102015485516001600160a01b039091169086908390811061066257610662613f8f565b60200260200101516001600160a01b0316036106815760019150610693565b8061068b81613fbb565b915050610616565b508061070357600182815481106106ac576106ac613f8f565b600091825260209091206002909102015484516001600160a01b03909116908590859081106106dd576106dd613f8f565b6001600160a01b0390921660209283029190910190910152826106ff81613fbb565b9350505b508061070e81613fbb565b915050610608565b508152919050565b6005818154811061072e57600080fd5b6000918252602090912001546001600160a01b0316905081565b610750611680565b610758611841565b6107606121b1565b565b6001818154811061077257600080fd5b6000918252602090912060029091020180546001909101546001600160a01b03918216925090811690600160a01b900460ff1683565b6107b0611680565b6107606000612b75565b3360009081526004602052604090205481106107e85760405162461bcd60e51b815260040161033c90613fd4565b33600090815260046020526040812080548390811061080957610809613f8f565b90600052602060002090600d0201604051806101e001604052908160008201805461083390614004565b80601f016020809104026020016040519081016040528092919081815260200182805461085f90614004565b80156108ac5780601f10610881576101008083540402835291602001916108ac565b820191906000526020600020905b81548152906001019060200180831161088f57829003601f168201915b5050509183525050604080516060808201835260018501546001600160a01b039081168352600286015490811660208481019190915260ff600160a01b90920482161515848601528501929092526003808601549385019390935260048501549084015260058401546080840152600684015460a0840152600784015460c0840152600884015460e08401526009840154610100840152600a840154610120840152600b840154610140840152600c84015461016090930192169081111561097657610976613d2f565b600381111561098757610987613d2f565b8152600c8201546001600160a01b03610100820416602083015260ff600160a81b8204811615156040840152606090920191600160b01b9091041660018111156109d3576109d3613d2f565b60018111156109e4576109e4613d2f565b905250905060038161016001516003811115610a0257610a02613d2f565b03610a4f5760405162461bcd60e51b815260206004820181905260248201527f506f736974696f6e206973204c6f636b65643a206e6f6e20636c6f7361626c65604482015260640161033c565b60008161012001518260400151610a669190614038565b1115610afa57610a93816020015160000151338361012001518460400151610a8e9190614038565b612bc5565b60208101515161012082015160408301517fcb1e26772e882480176a3e649a5f7937dc0ec3f50126283faf56f927b070be809291610ad091614038565b604080516001600160a01b0390931683526020830191909152429082015260600160405180910390a15b61014081015115610b82576101a08101511515600103610b8257610b2c81602001516020015133836101400151612bc5565b602081810151810151610140830151604080516001600160a01b03909316835292820152428183015290517fcb1e26772e882480176a3e649a5f7937dc0ec3f50126283faf56f927b070be809181900360600190a15b33600090815260046020526040902080546002919084908110610ba757610ba7613f8f565b60009182526020909120600c600d9092020101805460ff19166001836003811115610bd457610bd4613d2f565b021790555060008051602061442a8339815191523383600242604051610bfd9493929190614051565b60405180910390a15050565b336000908152600460205260409020548110610c375760405162461bcd60e51b815260040161033c90613fd4565b33600090815260046020526040902080546002919083908110610c5c57610c5c613f8f565b60009182526020909120600c600d9092020101805460ff19166001836003811115610c8957610c89613d2f565b021790555050565b610c99611680565b610ca281612c2d565b15610ce85760405162461bcd60e51b8152602060048201526016602482015275125b9d195c9d985b08185b1c9958591e48185919195960521b604482015260640161033c565b600280546001810182556000919091527f405787fa12a823e0f2b7631cc41b3ba8828b3321ca811111fa75cd3aa3bb5ace01819055604080518281524260208201527f57cb492e05adb4a4f47294924a582ecb2f196432c96c592d9a24ba793dcda7da910160405180910390a150565b336000908152600460205260409020548210610d865760405162461bcd60e51b815260040161033c90613fd4565b336000908152600460205260409020805482919084908110610daa57610daa613f8f565b60009182526020909120600c600d9092020101805460ff19166001836003811115610dd757610dd7613d2f565b021790555060008051602061442a83398151915233838342604051610bfd9493929190614051565b610e07613b23565b336000908152600460205260409020805483908110610e2857610e28613f8f565b90600052602060002090600d0201604051806101e0016040529081600082018054610e5290614004565b80601f0160208091040260200160405190810160405280929190818152602001828054610e7e90614004565b8015610ecb5780601f10610ea057610100808354040283529160200191610ecb565b820191906000526020600020905b815481529060010190602001808311610eae57829003601f168201915b5050509183525050604080516060808201835260018501546001600160a01b039081168352600286015490811660208481019190915260ff600160a01b90920482161515848601528501929092526003808601549385019390935260048501549084015260058401546080840152600684015460a0840152600784015460c0840152600884015460e08401526009840154610100840152600a840154610120840152600b840154610140840152600c840154610160909301921690811115610f9557610f95613d2f565b6003811115610fa657610fa6613d2f565b8152600c8201546001600160a01b03610100820416602083015260ff600160a81b8204811615156040840152606090920191600160b01b909104166001811115610ff257610ff2613d2f565b600181111561100357611003613d2f565b90525092915050565b8661104c5760405162461bcd60e51b815260206004820152601060248201526f1b985b59481b5d5cdd081899481cd95d60821b604482015260640161033c565b61109b3389898080601f01602080910402602001604051908101604052809392919081815260200183838082843760009201919091525061109692505050368a90038a018a6140b5565b612c7a565b156110e85760405162461bcd60e51b815260206004820152601c60248201527f506f736974696f6e20697320616c7265616479206578697374696e6700000000604482015260640161033c565b6110ff6110fa368890038801886140b5565b611790565b6111405760405162461bcd60e51b815260206004820152601260248201527170616972206e6f7420617661696c61626c6560701b604482015260640161033c565b61114984612c2d565b6111955760405162461bcd60e51b815260206004820152601c60248201527f7468697320696e74657276616c206973206e6f7420616c6c6f77656400000000604482015260640161033c565b600085116111dd5760405162461bcd60e51b81526020600482015260156024820152744e6f20616d6f756e742073657420666f722044434160581b604482015260640161033c565b821580156111ea57508115155b806111fd575082158015906111fd575081155b6112625760405162461bcd60e51b815260206004820152603060248201527f536574206f6e6c7920616d6f756e74207065722073776170206f72206e756d6260448201526f6572206f6620697465726174696f6e7360801b606482015260840161033c565b6000612710600754876112759190614127565b61127f919061413e565b6112899087614038565b905060008085116112bb57612710846112a28483614127565b6112ac919061413e565b6112b6919061413e565b6112bd565b845b90506112d76112cf60208a018a613f5c565b33308a612fd7565b6112e033613015565b61132757600580546001810182556000919091527f036b6384b5eca791c62761152d0c79bb0604c104a5fb6f4eb0703f3154bb3db00180546001600160a01b031916331790555b336000908152600460209081526040918290208251610200601f8e01849004909302810183019093526101e083018c81529092918291908e908e908190850183828082843760009201919091525050509082525060200161138d368c90038c018c6140b5565b8152602001848152602001888152602001868152602001838152602001428152602001428152602001600081526020016000815260200160008152602001600060038111156113de576113de613d2f565b8152336020820152851515604082015260600186156113fe576000611401565b60015b600181111561141257611412613d2f565b905281546001810183556000928352602090922081519192600d020190819061143b90826141ae565b506020828101518051600184810180546001600160a01b0319166001600160a01b0393841617905592820151600285018054604094850151929093166001600160a81b031990931692909217600160a01b91151591909102179055830151600380840191909155606084015160048401556080840151600584015560a0840151600684015560c0840151600784015560e084015160088401556101008401516009840155610120840151600a840155610140840151600b840155610160840151600c840180549193909260ff1990921691849081111561151d5761151d613d2f565b0217905550610180820151600c820180546101a08501511515600160a81b0260ff60a81b196001600160a01b039094166101000293909316610100600160b01b031990911617919091178082556101c0840151919060ff60b01b1916600160b01b83600181111561159057611590613d2f565b021790555050336000818152600460205260409020547f4b82aa16e071a61de1a6b9aeec9edab0356331f8122c78683b469ac8e685dabc92506115d590600190614038565b604080516001600160a01b0390931683526020830191909152429082015260600160405180910390a150505050505050505050565b611612611680565b6001600160a01b0381166116775760405162461bcd60e51b815260206004820152602660248201527f4f776e61626c653a206e6577206f776e657220697320746865207a65726f206160448201526564647265737360d01b606482015260840161033c565b61016f81612b75565b6000546001600160a01b031633146107605760405162461bcd60e51b815260206004820181905260248201527f4f776e61626c653a2063616c6c6572206973206e6f7420746865206f776e6572604482015260640161033c565b6000816001600160a01b03166318160ddd6040518163ffffffff1660e01b8152600401602060405180830381865afa925050508015611736575060408051601f3d908101601f191682019092526117339181019061426e565b60015b611773573d808015611764576040519150601f19603f3d011682016040523d82523d6000602084013e611769565b606091505b5060009392505050565b80156117825750600192915050565b50600092915050565b919050565b6000805b6001548110156117825782600001516001600160a01b0316600182815481106117bf576117bf613f8f565b60009182526020909120600290910201546001600160a01b0316148015611821575082602001516001600160a01b03166001828154811061180257611802613f8f565b60009182526020909120600160029092020101546001600160a01b0316145b1561182f5750600192915050565b8061183981613fbb565b915050611794565b60005b60055481101561016f576000600460006005848154811061186757611867613f8f565b60009182526020808320909101546001600160a01b031683528281019390935260409182018120805483518186028101860190945280845292939092919084015b82821015611aa057838290600052602060002090600d0201604051806101e00160405290816000820180546118dc90614004565b80601f016020809104026020016040519081016040528092919081815260200182805461190890614004565b80156119555780601f1061192a57610100808354040283529160200191611955565b820191906000526020600020905b81548152906001019060200180831161193857829003601f168201915b5050509183525050604080516060808201835260018501546001600160a01b039081168352600286015490811660208481019190915260ff600160a01b90920482161515848601528501929092526003808601549385019390935260048501549084015260058401546080840152600684015460a0840152600784015460c0840152600884015460e08401526009840154610100840152600a840154610120840152600b840154610140840152600c840154610160909301921690811115611a1f57611a1f613d2f565b6003811115611a3057611a30613d2f565b8152600c8201546001600160a01b03610100820416602083015260ff600160a81b8204811615156040840152606090920191600160b01b909104166001811115611a7c57611a7c613d2f565b6001811115611a8d57611a8d613d2f565b81525050815260200190600101906118a8565b50505050905060005b815181101561219c576000828281518110611ac657611ac6613f8f565b602002602001015161016001516003811115611ae457611ae4613d2f565b148015611b105750818181518110611afe57611afe613f8f565b60209081029190910101516101a00151155b8015611b605750818181518110611b2957611b29613f8f565b602002602001015160600151828281518110611b4757611b47613f8f565b602002602001015160c00151611b5d9190614287565b42115b1561218a57818181518110611b7757611b77613f8f565b60200260200101516101200151828281518110611b9657611b96613f8f565b602002602001015160400151611bac9190614038565b828281518110611bbe57611bbe613f8f565b602002602001015160a001511115611ca95760016004600060058681548110611be957611be9613f8f565b60009182526020808320909101546001600160a01b031683528201929092526040019020805483908110611c1f57611c1f613f8f565b60009182526020909120600c600d9092020101805460ff19166001836003811115611c4c57611c4c613d2f565b021790555060008051602061442a83398151915260058481548110611c7357611c73613f8f565b600091825260209091200154604051611c9c916001600160a01b03169084906001904290614051565b60405180910390a161218a565b60036004600060058681548110611cc257611cc2613f8f565b60009182526020808320909101546001600160a01b031683528201929092526040019020805483908110611cf857611cf8613f8f565b60009182526020909120600c600d9092020101805460ff19166001836003811115611d2557611d25613d2f565b02179055506000612710600854848481518110611d4457611d44613f8f565b602002602001015160a00151611d5a9190614127565b611d64919061413e565b838381518110611d7657611d76613f8f565b602002602001015160a00151611d8c9190614038565b90506000611dd6848481518110611da557611da5613f8f565b60200260200101516020015183868681518110611dc457611dc4613f8f565b60200260200101516101800151613075565b90506000848481518110611dec57611dec613f8f565b60200260200101516101c001516001811115611e0a57611e0a613d2f565b03611e9c576001848481518110611e2357611e23613f8f565b602002602001015160800151611e399190614038565b6004600060058881548110611e5057611e50613f8f565b60009182526020808320909101546001600160a01b031683528201929092526040019020805485908110611e8657611e86613f8f565b90600052602060002090600d0201600501819055505b80848481518110611eaf57611eaf613f8f565b60200260200101516101400151611ec69190614287565b6004600060058881548110611edd57611edd613f8f565b60009182526020808320909101546001600160a01b031683528201929092526040019020805485908110611f1357611f13613f8f565b90600052602060002090600d0201600b0181905550838381518110611f3a57611f3a613f8f565b602002602001015160a00151848481518110611f5857611f58613f8f565b60200260200101516101200151611f6f9190614287565b6004600060058881548110611f8657611f86613f8f565b60009182526020808320909101546001600160a01b031683528201929092526040019020805485908110611fbc57611fbc613f8f565b90600052602060002090600d0201600a018190555060006004600060058881548110611fea57611fea613f8f565b60009182526020808320909101546001600160a01b03168352820192909252604001902080548590811061202057612020613f8f565b60009182526020909120600c600d9092020101805460ff1916600183600381111561204d5761204d613d2f565b021790555042600460006005888154811061206a5761206a613f8f565b60009182526020808320909101546001600160a01b0316835282019290925260400190208054859081106120a0576120a0613f8f565b90600052602060002090600d0201600701819055507fd77c8e9038ce2394ee0528e954e75f9693506cd98cc37fc1d0415fd4c49ba23e600586815481106120e9576120e9613f8f565b9060005260206000200160009054906101000a90046001600160a01b03168486868151811061211a5761211a613f8f565b6020026020010151602001516000015187878151811061213c5761213c613f8f565b6020026020010151602001516020015188888151811061215e5761215e613f8f565b602002602001015160a00151864260405161217f979695949392919061429a565b60405180910390a150505b8061219481613fbb565b915050611aa9565b505080806121a990613fbb565b915050611844565b60005b60015481101561016f57600061222c600183815481106121d6576121d6613f8f565b60009182526020918290206040805160608101825260029390930290910180546001600160a01b03908116845260019091015490811693830193909352600160a01b90920460ff16151591810191909152613438565b90506000612710600854836122419190614127565b61224b919061413e565b6122559083614038565b905060006122c76001858154811061226f5761226f613f8f565b60009182526020918290206040805160608101825260029390930290910180546001600160a01b03908116845260019091015490811693830193909352600160a01b90920460ff161515918101919091528330613075565b905060005b600554811015612b5e57600060046000600584815481106122ef576122ef613f8f565b60009182526020808320909101546001600160a01b031683528281019390935260409182018120805483518186028101860190945280845292939092919084015b8282101561252857838290600052602060002090600d0201604051806101e001604052908160008201805461236490614004565b80601f016020809104026020016040519081016040528092919081815260200182805461239090614004565b80156123dd5780601f106123b2576101008083540402835291602001916123dd565b820191906000526020600020905b8154815290600101906020018083116123c057829003601f168201915b5050509183525050604080516060808201835260018501546001600160a01b039081168352600286015490811660208481019190915260ff600160a01b90920482161515848601528501929092526003808601549385019390935260048501549084015260058401546080840152600684015460a0840152600784015460c0840152600884015460e08401526009840154610100840152600a840154610120840152600b840154610140840152600c8401546101609093019216908111156124a7576124a7613d2f565b60038111156124b8576124b8613d2f565b8152600c8201546001600160a01b03610100820416602083015260ff600160a81b8204811615156040840152606090920191600160b01b90910416600181111561250457612504613d2f565b600181111561251557612515613d2f565b8152505081526020019060010190612330565b50505050905060005b8151811015612b4957600382828151811061254e5761254e613f8f565b60200260200101516101600151600381111561256c5761256c613d2f565b14801561259b575081818151811061258657612586613f8f565b60200260200101516101a00151151560011515145b80156125eb57508181815181106125b4576125b4613f8f565b6020026020010151606001518282815181106125d2576125d2613f8f565b602002602001015160c001516125e89190614287565b42115b15612b375781818151811061260257612602613f8f565b6020026020010151610120015182828151811061262157612621613f8f565b6020026020010151604001516126379190614038565b82828151811061264957612649613f8f565b602002602001015160a001511115612734576001600460006005868154811061267457612674613f8f565b60009182526020808320909101546001600160a01b0316835282019290925260400190208054839081106126aa576126aa613f8f565b60009182526020909120600c600d9092020101805460ff191660018360038111156126d7576126d7613d2f565b021790555060008051602061442a833981519152600584815481106126fe576126fe613f8f565b600091825260209091200154604051612727916001600160a01b03169084906001904290614051565b60405180910390a1612b37565b6000612710858885858151811061274d5761274d613f8f565b602002602001015160a001516127106127669190614127565b612770919061413e565b61277a9190614127565b612784919061413e565b9050600083838151811061279a5761279a613f8f565b60200260200101516101c0015160018111156127b8576127b8613d2f565b0361284a5760018383815181106127d1576127d1613f8f565b6020026020010151608001516127e79190614038565b60046000600587815481106127fe576127fe613f8f565b60009182526020808320909101546001600160a01b03168352820192909252604001902080548490811061283457612834613f8f565b90600052602060002090600d0201600501819055505b82828151811061285c5761285c613f8f565b602002602001015160a0015183838151811061287a5761287a613f8f565b602002602001015161012001516128919190614287565b60046000600587815481106128a8576128a8613f8f565b60009182526020808320909101546001600160a01b0316835282019290925260400190208054849081106128de576128de613f8f565b90600052602060002090600d0201600a01819055508083838151811061290657612906613f8f565b6020026020010151610140015161291d9190614287565b600460006005878154811061293457612934613f8f565b60009182526020808320909101546001600160a01b03168352820192909252604001902080548490811061296a5761296a613f8f565b90600052602060002090600d0201600b01819055506000600460006005878154811061299857612998613f8f565b60009182526020808320909101546001600160a01b0316835282019290925260400190208054849081106129ce576129ce613f8f565b60009182526020909120600c600d9092020101805460ff191660018360038111156129fb576129fb613d2f565b0217905550426004600060058781548110612a1857612a18613f8f565b60009182526020808320909101546001600160a01b031683528201929092526040019020805484908110612a4e57612a4e613f8f565b90600052602060002090600d0201600701819055507fd77c8e9038ce2394ee0528e954e75f9693506cd98cc37fc1d0415fd4c49ba23e60058581548110612a9757612a97613f8f565b9060005260206000200160009054906101000a90046001600160a01b031683858581518110612ac857612ac8613f8f565b60200260200101516020015160000151868681518110612aea57612aea613f8f565b60200260200101516020015160200151878781518110612b0c57612b0c613f8f565b602002602001015160a001518642604051612b2d979695949392919061429a565b60405180910390a1505b80612b4181613fbb565b915050612531565b50508080612b5690613fbb565b9150506122cc565b505050508080612b6d90613fbb565b9150506121b4565b600080546001600160a01b038381166001600160a01b0319831681178455604051919092169283917f8be0079c531659141344cd1fd0a4f28419497f9722a3daafe3b4186f6b6457e09190a35050565b6040516001600160a01b038316602482015260448101829052612c2890849063a9059cbb60e01b906064015b60408051601f198184030181529190526020810180516001600160e01b03166001600160e01b0319909316929092179091526138c1565b505050565b6000805b600254811015611782578260028281548110612c4f57612c4f613f8f565b906000526020600020015403612c685750600192915050565b80612c7281613fbb565b915050612c31565b6001600160a01b038316600090815260046020908152604080832080548251818502810185019093528083528493849084015b82821015612ea557838290600052602060002090600d0201604051806101e0016040529081600082018054612ce190614004565b80601f0160208091040260200160405190810160405280929190818152602001828054612d0d90614004565b8015612d5a5780601f10612d2f57610100808354040283529160200191612d5a565b820191906000526020600020905b815481529060010190602001808311612d3d57829003601f168201915b5050509183525050604080516060808201835260018501546001600160a01b039081168352600286015490811660208481019190915260ff600160a01b90920482161515848601528501929092526003808601549385019390935260048501549084015260058401546080840152600684015460a0840152600784015460c0840152600884015460e08401526009840154610100840152600a840154610120840152600b840154610140840152600c840154610160909301921690811115612e2457612e24613d2f565b6003811115612e3557612e35613d2f565b8152600c8201546001600160a01b03610100820416602083015260ff600160a81b8204811615156040840152606090920191600160b01b909104166001811115612e8157612e81613d2f565b6001811115612e9257612e92613d2f565b8152505081526020019060010190612cad565b50505050905060005b8151811015612fc957818181518110612ec957612ec9613f8f565b602002602001015160000151604051602001612ee591906142de565b6040516020818303038152906040528051906020012085604051602001612f0c91906142de565b60405160208183030381529060405280519060200120148015612f655750818181518110612f3c57612f3c613f8f565b602002602001015160200151600001516001600160a01b031684600001516001600160a01b0316145b8015612fa75750818181518110612f7e57612f7e613f8f565b602002602001015160200151602001516001600160a01b031684602001516001600160a01b0316145b15612fb757600192505050612fd0565b80612fc181613fbb565b915050612eae565b5060009150505b9392505050565b6040516001600160a01b038085166024830152831660448201526064810182905261300f9085906323b872dd60e01b90608401612bf1565b50505050565b6000805b60055481101561178257826001600160a01b03166005828154811061304057613040613f8f565b6000918252602090912001546001600160a01b0316036130635750600192915050565b8061306d81613fbb565b915050613019565b82516040516370a0823160e01b815230600482015260009184916001600160a01b03909116906370a0823190602401602060405180830381865afa1580156130c1573d6000803e3d6000fd5b505050506040513d601f19601f820116820180604052508101906130e5919061426e565b1161313e5760405162461bcd60e51b8152602060048201526024808201527f496e73756666696369656e742062616c616e6365206f66206f726967696e205460448201526337b5b2b760e11b606482015260840161033c565b835160035460405163095ea7b360e01b81526001600160a01b0391821660048201526024810186905291169063095ea7b3906044016020604051808303816000875af1158015613192573d6000803e3d6000fd5b505050506040513d601f19601f820116820180604052508101906131b691906142fa565b506003546040805163c45a015560e01b815290516000926001600160a01b03169163c45a01559160048083019260209291908290030181865afa158015613201573d6000803e3d6000fd5b505050506040513d601f19601f820116820180604052508101906132259190614317565b8551602087015160405163e6a4390560e01b81526001600160a01b039283166004820152908216602482015291169063e6a4390590604401602060405180830381865afa15801561327a573d6000803e3d6000fd5b505050506040513d601f19601f8201168201806040525081019061329e9190614317565b90506001600160a01b038116156133fb576040805160028082526060820183526000926020830190803683370190505090508560000151816000815181106132e8576132e8613f8f565b60200260200101906001600160a01b031690816001600160a01b03168152505085602001518160018151811061332057613320613f8f565b6001600160a01b039092166020928302919091019091015284156133f0576003546000906001600160a01b03166338ed17398783858961336242610708614287565b6040518663ffffffff1660e01b8152600401613382959493929190614334565b6000604051808303816000875af11580156133a1573d6000803e3d6000fd5b505050506040513d6000823e601f3d908101601f191682016040526133c99190810190614370565b9050806001815181106133de576133de613f8f565b60200260200101519350505050612fd0565b600092505050612fd0565b60405162461bcd60e51b815260206004820152601260248201527114185a5c88191bd95cdb89dd08195e1a5cdd60721b604482015260640161033c565b60008060005b6005548110156138ba576000600460006005848154811061346157613461613f8f565b60009182526020808320909101546001600160a01b031683528281019390935260409182018120805483518186028101860190945280845292939092919084015b8282101561369a57838290600052602060002090600d0201604051806101e00160405290816000820180546134d690614004565b80601f016020809104026020016040519081016040528092919081815260200182805461350290614004565b801561354f5780601f106135245761010080835404028352916020019161354f565b820191906000526020600020905b81548152906001019060200180831161353257829003601f168201915b5050509183525050604080516060808201835260018501546001600160a01b039081168352600286015490811660208481019190915260ff600160a01b90920482161515848601528501929092526003808601549385019390935260048501549084015260058401546080840152600684015460a0840152600784015460c0840152600884015460e08401526009840154610100840152600a840154610120840152600b840154610140840152600c84015461016090930192169081111561361957613619613d2f565b600381111561362a5761362a613d2f565b8152600c8201546001600160a01b03610100820416602083015260ff600160a81b8204811615156040840152606090920191600160b01b90910416600181111561367657613676613d2f565b600181111561368757613687613d2f565b81525050815260200190600101906134a2565b50505050905060005b81518110156138a55785600001516001600160a01b03168282815181106136cc576136cc613f8f565b602002602001015160200151600001516001600160a01b0316148015613728575085602001516001600160a01b031682828151811061370d5761370d613f8f565b602002602001015160200151602001516001600160a01b0316145b80156137635750600082828151811061374357613743613f8f565b60200260200101516101600151600381111561376157613761613d2f565b145b8015613791575081818151811061377c5761377c613f8f565b60200260200101516101a00151151560011515145b80156137e157508181815181106137aa576137aa613f8f565b6020026020010151606001518282815181106137c8576137c8613f8f565b602002602001015160c001516137de9190614287565b42115b15613893578181815181106137f8576137f8613f8f565b602002602001015160a001518461380f9190614287565b93506003600460006005868154811061382a5761382a613f8f565b60009182526020808320909101546001600160a01b03168352820192909252604001902080548390811061386057613860613f8f565b60009182526020909120600c600d9092020101805460ff1916600183600381111561388d5761388d613d2f565b02179055505b8061389d81613fbb565b9150506136a3565b505080806138b290613fbb565b91505061343e565b5092915050565b6000613916826040518060400160405280602081526020017f5361666545524332303a206c6f772d6c6576656c2063616c6c206661696c6564815250856001600160a01b03166139939092919063ffffffff16565b805190915015612c28578080602001905181019061393491906142fa565b612c285760405162461bcd60e51b815260206004820152602a60248201527f5361666545524332303a204552433230206f7065726174696f6e20646964206e6044820152691bdd081cdd58d8d9595960b21b606482015260840161033c565b60606139a284846000856139aa565b949350505050565b606082471015613a0b5760405162461bcd60e51b815260206004820152602660248201527f416464726573733a20696e73756666696369656e742062616c616e636520666f6044820152651c8818d85b1b60d21b606482015260840161033c565b600080866001600160a01b03168587604051613a2791906142de565b60006040518083038185875af1925050503d8060008114613a64576040519150601f19603f3d011682016040523d82523d6000602084013e613a69565b606091505b5091509150613a7a87838387613a85565b979650505050505050565b60608315613af4578251600003613aed576001600160a01b0385163b613aed5760405162461bcd60e51b815260206004820152601d60248201527f416464726573733a2063616c6c20746f206e6f6e2d636f6e7472616374000000604482015260640161033c565b50816139a2565b6139a28383815115613b095781518083602001fd5b8060405162461bcd60e51b815260040161033c9190614416565b604080516101e08101825260608082528251908101835260008082526020828101829052938201529091820190815260200160008152602001600081526020016000815260200160008152602001600081526020016000815260200160008152602001600081526020016000815260200160006003811115613ba757613ba7613d2f565b81526000602082018190526040820181905260609091015290565b6001600160a01b038116811461016f57600080fd5b801515811461016f57600080fd5b803561178b81613bd7565b600080600060608486031215613c0557600080fd5b8335613c1081613bc2565b92506020840135613c2081613bc2565b91506040840135613c3081613bd7565b809150509250925092565b600060208284031215613c4d57600080fd5b5035919050565b600081518084526020808501945080840160005b83811015613c8d5781516001600160a01b031687529582019590820190600101613c68565b509495945050505050565b602081526000612fd06020830184613c54565b60008060408385031215613cbe57600080fd5b82359150602083013560048110613cd457600080fd5b809150509250929050565b60005b83811015613cfa578181015183820152602001613ce2565b50506000910152565b60008151808452613d1b816020860160208601613cdf565b601f01601f19169290920160200192915050565b634e487b7160e01b600052602160045260246000fd5b60048110613d5557613d55613d2f565b9052565b60028110613d5557613d55613d2f565b6020815260008251610220806020850152613d88610240850183613d03565b91506020850151613dc0604086018280516001600160a01b039081168352602080830151909116908301526040908101511515910152565b50604085015160a0850152606085015160c0850152608085015160e085015260a0850151610100818187015260c08701519150610120828188015260e0880151925061014083818901528289015193506101609250838389015281890151935061018091508382890152808901519350506101a083818901528289015193506101c09250613e5083890185613d45565b908801516001600160a01b03166101e088015287015115156102008701528601519050613e7f82860182613d59565b5090949350505050565b600060608284031215613e9b57600080fd5b50919050565b600080600080600080600080610120898b031215613ebe57600080fd5b883567ffffffffffffffff80821115613ed657600080fd5b818b0191508b601f830112613eea57600080fd5b813581811115613ef957600080fd5b8c6020828501011115613f0b57600080fd5b60209283019a509850613f22918c91508b01613e89565b95506080890135945060a0890135935060c0890135925060e08901359150613f4d6101008a01613be5565b90509295985092959890939650565b600060208284031215613f6e57600080fd5b8135612fd081613bc2565b634e487b7160e01b600052604160045260246000fd5b634e487b7160e01b600052603260045260246000fd5b634e487b7160e01b600052601160045260246000fd5b600060018201613fcd57613fcd613fa5565b5060010190565b602080825260169082015275141bdcda5d1a5bdb88191bd95cdb89dd08195e1a5cdd60521b604082015260600190565b600181811c9082168061401857607f821691505b602082108103613e9b57634e487b7160e01b600052602260045260246000fd5b8181038181111561404b5761404b613fa5565b92915050565b6001600160a01b038516815260208101849052608081016140756040830185613d45565b82606083015295945050505050565b604051601f8201601f1916810167ffffffffffffffff811182821017156140ad576140ad613f79565b604052919050565b6000606082840312156140c757600080fd5b6040516060810181811067ffffffffffffffff821117156140ea576140ea613f79565b60405282356140f881613bc2565b8152602083013561410881613bc2565b6020820152604083013561411b81613bd7565b60408201529392505050565b808202811582820484141761404b5761404b613fa5565b60008261415b57634e487b7160e01b600052601260045260246000fd5b500490565b601f821115612c2857600081815260208120601f850160051c810160208610156141875750805b601f850160051c820191505b818110156141a657828155600101614193565b505050505050565b815167ffffffffffffffff8111156141c8576141c8613f79565b6141dc816141d68454614004565b84614160565b602080601f83116001811461421157600084156141f95750858301515b600019600386901b1c1916600185901b1785556141a6565b600085815260208120601f198616915b8281101561424057888601518255948401946001909101908401614221565b508582101561425e5787850151600019600388901b60f8161c191681555b5050505050600190811b01905550565b60006020828403121561428057600080fd5b5051919050565b8082018082111561404b5761404b613fa5565b6001600160a01b03978816815260208101969096529386166040860152919094166060840152608083019390935260a082019290925260c081019190915260e00190565b600082516142f0818460208701613cdf565b9190910192915050565b60006020828403121561430c57600080fd5b8151612fd081613bd7565b60006020828403121561432957600080fd5b8151612fd081613bc2565b85815284602082015260a06040820152600061435360a0830186613c54565b6001600160a01b0394909416606083015250608001529392505050565b6000602080838503121561438357600080fd5b825167ffffffffffffffff8082111561439b57600080fd5b818501915085601f8301126143af57600080fd5b8151818111156143c1576143c1613f79565b8060051b91506143d2848301614084565b81815291830184019184810190888411156143ec57600080fd5b938501935b8385101561440a578451825293850193908501906143f1565b98975050505050505050565b602081526000612fd06020830184613d0356fe1ee227ac62b3f06afe9df95df8797497fe7b63f1e4c3cc120f8a333b6f65d196a26469706673582212202a0bdb8e333b94c14cbfe6de920aeded8b37451a817fd5e0fe070768d4ec307a64736f6c63430008120033",
  "immutableReferences": {},
  "source": "// SPDX-License-Identifier: MIT\n\n// wallet whale MATIC: 0xe7804c37c13166fF0b37F5aE0BB07A3aEbb6e245\n// token MATIC 0x0000000000000000000000000000000000001010\n// token SAND 0xBbba073C31bF03b8ACf7c28EF0738DeCF3695683\n// token USDC 0x2791Bca1f2de4661ED88A30C99A7a9449Aa84174\n//   ganache --fork https://polygon-mumbai.g.alchemy.com/v2/kN9xDViXa7ZgWWDQgNzzz-I9aIvsxIw3 --seed \"grass permit accident owner lock above hello stick divide cigar void language\" -i --unlock 0xe7804c37c13166fF0b37F5aE0BB07A3aEbb6e245 --networkId 999\n// ganache -f https://polygon-mainnet.g.alchemy.com/v2/E_47dJ_8PBLE24COiPQ1hcE1ZIBVgcps -u 0xe7804c37c13166fF0b37F5aE0BB07A3aEbb6e245 --networkId 999\n// ganache -f https://polygon-mainnet.g.alchemy.com/v2/E_47dJ_8PBLE24COiPQ1hcE1ZIBVgcps -u 0xe7804c37c13166fF0b37F5aE0BB07A3aEbb6e245 --networkId 137 -m \"grass permit accident owner lock above hello stick divide cigar void language\"\n//approve sur l'adresse du token ERC20\n// voir chainlink pour le prix\n//approve sur l'adresse du token ERC20\n// voir chainlink pour le prix\n// paraswap aggreg mais non dispo sur testnet\n//NFT ERC-1155\n\npragma solidity ^0.8.18;\n\nimport '../node_modules/@uniswap/v2-periphery/contracts/interfaces/IUniswapV2Router02.sol';\nimport '../node_modules/@uniswap/v2-core/contracts/interfaces/IUniswapV2Factory.sol';\nimport '../node_modules/@uniswap/v2-core/contracts/interfaces/IUniswapV2Pair.sol';\nimport \"../node_modules/@openzeppelin/contracts/access/Ownable.sol\";\nimport \"../node_modules/@openzeppelin/contracts/token/ERC20/IERC20.sol\";\nimport \"../node_modules/@openzeppelin/contracts/token/ERC20/utils/SafeERC20.sol\";\nimport \"../node_modules/@ganache/console.log/console.sol\";\nusing SafeERC20 for IERC20;\n\n/**\n * @title HodlUpHub contract\n * @dev This contract is used for hodling tokens and executing automated periodic swaps.\n */\ncontract HodlUpHub is Ownable {\n\n    /**\n     * @dev Enum representing the available statuses for a position.\n     * Active: the position is currently being executed\n     * Pause: the position is temporarily paused\n     * Closed: the position has been fully executed and cannot be reopened\n     * Locked: the position is locked for DCA, meaning that the tokens have been swapped but not transferred to the user\n     */\n    enum Status {\n        Active,\n        Pause,\n        Closed,\n        Locked\n    }\n\n    enum DcaMode {\n        Limited,\n        Unlimited\n    }\n\n    Pair[] public pairsAvailable;\n    uint256[] public intervalsAvailable;\n    IUniswapV2Router02 public uniswapRouter;\n\n    struct User {\n        Position[] Positions;\n    }\n\n    struct Pair {\n        IERC20 token_from;\n        IERC20 token_to;\n        bool active;\n    }\n\n    struct Position {\n        string name;\n        Pair pair;\n        uint totalAmountToSwap;\n        uint interval;\n        uint dcaIterations;\n        uint amountPerSwap;\n        uint lastPurchaseTimestamp;\n        uint createdTimestamp;\n        uint averagePrice;\n        uint SwappedFromBalance;\n        uint SwappedToBalance;  \n        Status status;\n        address recipient;\n        bool stacking;\n        DcaMode mode;\n    }\n\n    mapping(address => User) users;\n    address [] public userAddresses;\n\n    mapping(address => uint) feesBalances;\n\n    // Represents fee percentage taken for deposit. \n    // to avoid rounding errors, we multiply it by 10000. 1% is represented by 100\n    uint public depositFee;\n    uint public swapFee;\n\n    constructor(address _uniswapRouter, uint _depositFee, uint _swapFee) {\n        uniswapRouter = IUniswapV2Router02(_uniswapRouter);\n        depositFee = _depositFee;\n        swapFee = _swapFee;\n    }\n\n    function _userExists(address _userAddress) internal view returns (bool) {\n        for (uint i = 0; i < userAddresses.length; i++) {\n            if (userAddresses[i] == _userAddress) {\n                return true;\n            }\n        }\n        return false;\n    }\n\n    // execute DCA for users that has choosen to stack\n    function _executeStakedDCA () internal {\n        for (uint i = 0; i < pairsAvailable.length; i++) {\n            uint totalToSwap = _getTotalToSwap(pairsAvailable[i]);\n            uint totalToSwapAfterFees = totalToSwap - (totalToSwap * swapFee / 10000);\n            uint totalSwapped = _swap(pairsAvailable[i], totalToSwapAfterFees, address(this)) ;\n            for (uint256 j = 0; j < userAddresses.length; j++) {\n                Position[] memory positions = users[userAddresses[j]].Positions;\n                for (uint256 k = 0; k < positions.length; k++) {\n                    if (positions[k].status == Status.Locked &&\n                        positions[k].stacking == true &&\n                        block.timestamp > positions[k].lastPurchaseTimestamp + positions[k].interval\n                    ) {\n                        if (positions[k].amountPerSwap > (positions[k].totalAmountToSwap - positions[k].SwappedFromBalance)){\n                            users[userAddresses[j]].Positions[k].status = Status.Pause;\n                            emit PositionStatusChanged (userAddresses[j], k, Status.Pause, block.timestamp);  \n                        }\n                        else{\n                            uint amountSwapped = ( ( (positions[k].amountPerSwap * 10000) / totalToSwap ) * totalSwapped) / 10000;\n                            if (positions[k].mode == DcaMode.Limited){\n                                users[userAddresses[j]].Positions[k].dcaIterations = positions[k].dcaIterations - 1 ;\n                            }\n                            users[userAddresses[j]].Positions[k].SwappedFromBalance = positions[k].SwappedFromBalance + positions[k].amountPerSwap;\n                            users[userAddresses[j]].Positions[k].SwappedToBalance = positions[k].SwappedToBalance + amountSwapped;\n                            users[userAddresses[j]].Positions[k].status = Status.Active;\n                            users[userAddresses[j]].Positions[k].lastPurchaseTimestamp = block.timestamp;\n                            emit DCAExecuted (userAddresses[j], k, address(positions[k].pair.token_from), address(positions[k].pair.token_to), positions[k].amountPerSwap, amountSwapped, block.timestamp);\n                        }\n                     }\n                }\n            }\n            //emit DCAExecuted (userAddresses[i], j, address(positions[j].pair.token_from), address(positions[j].pair.token_to), positions[j].amountPerSwap);\n        }\n    }\n\n    // execute DCA for users that want to get back directly to their wallet\n    function _executeIndividualDCA () internal {\n\n        for (uint256 i = 0; i < userAddresses.length; i++) {\n            Position[] memory positions = users[userAddresses[i]].Positions;\n            for (uint256 j = 0; j < positions.length; j++) {\n                if (positions[j].status == Status.Active &&\n                    positions[j].stacking == false &&\n                    block.timestamp > (positions[j].lastPurchaseTimestamp + positions[j].interval)\n                ) {\n                    if (positions[j].amountPerSwap > (positions[j].totalAmountToSwap - positions[j].SwappedFromBalance)){\n                        users[userAddresses[i]].Positions[j].status = Status.Pause;\n                        emit PositionStatusChanged (userAddresses[i], j, Status.Pause, block.timestamp);  \n                    }\n                    else{\n                        users[userAddresses[i]].Positions[j].status = Status.Locked;\n                        uint amoutPerSwapAfterFees =  positions[j].amountPerSwap - (positions[j].amountPerSwap * swapFee / 10000);\n                        uint resultSwap = _swap( positions[j].pair, amoutPerSwapAfterFees, positions[j].recipient) ;\n                        if (positions[j].mode == DcaMode.Limited){\n                            users[userAddresses[i]].Positions[j].dcaIterations = positions[j].dcaIterations - 1 ;\n                        }\n                        users[userAddresses[i]].Positions[j].SwappedToBalance = positions[j].SwappedToBalance + resultSwap;\n                        users[userAddresses[i]].Positions[j].SwappedFromBalance = positions[j].SwappedFromBalance + positions[j].amountPerSwap;\n                        users[userAddresses[i]].Positions[j].status = Status.Active;\n                        users[userAddresses[i]].Positions[j].lastPurchaseTimestamp = block.timestamp;\n                        emit DCAExecuted (userAddresses[i], j, address(positions[j].pair.token_from), address(positions[j].pair.token_to), positions[j].amountPerSwap, resultSwap, block.timestamp);\n                    }\n                }\n            }\n        }\n    }\n\n    function _pairExists(Pair memory _pair) internal view returns (bool) {\n        for (uint i = 0; i < pairsAvailable.length; i++) {\n            if (pairsAvailable[i].token_from == _pair.token_from && pairsAvailable[i].token_to == _pair.token_to) {\n                return true;\n            }\n        }\n        return false;\n    }\n\n    function _intervalExists(uint256 interval) internal view returns (bool) {\n        for (uint i = 0; i < intervalsAvailable.length; i++) {\n            if (intervalsAvailable[i]==interval) {\n                return true;\n            }\n        }\n        return false;\n    }\n\n    function _getTotalToSwap(Pair memory _pair) internal returns(uint256) {\n        uint totalToSwap;\n        for (uint256 i = 0; i < userAddresses.length; i++) {\n            Position[] memory positions = users[userAddresses[i]].Positions;\n            for (uint256 j = 0; j < positions.length; j++) {\n                if (positions[j].pair.token_from == _pair.token_from &&\n                    positions[j].pair.token_to == _pair.token_to &&\n                    positions[j].status == Status.Active &&\n                    positions[j].stacking == true &&\n                    block.timestamp > positions[j].lastPurchaseTimestamp + positions[j].interval\n                ) {                 \n                    totalToSwap +=  positions[j].amountPerSwap;\n                    users[userAddresses[i]].Positions[j].status = Status.Locked;\n                }\n            }\n        }\n        return totalToSwap;\n    }\n\n    function _swap(Pair memory _pair, uint256 _amount, address _receiver) internal returns(uint256) {\n        //require(block.timestamp >= lastSwapTime + swapInterval, \"DCAUniswapV2: Not enough time has passed since the last swap\");\n        require(IERC20(_pair.token_from).balanceOf(address(this)) > _amount, \"Insufficient balance of origin Token\");\n        IERC20(_pair.token_from).approve(address(uniswapRouter), _amount);\n\n        address pair = IUniswapV2Factory(IUniswapV2Router02(uniswapRouter).factory()).getPair(address(_pair.token_from), address(_pair.token_to));\n        if (pair != address(0)){\n\n            address[] memory path = new address[](2);\n            path[0] = address(_pair.token_from);\n            path[1] = address(_pair.token_to);\n\n            //uint[] memory amounts = uniswapRouter.getAmountsOut(_pair.token_from, path);\n             // require(amounts[1] >= montant deduit de chainlink +/- 10%, \"Uniswap returned insufficient output amount\");\n            if (_amount != 0){\n                    uint[] memory outputAmounts = uniswapRouter.swapExactTokensForTokens(_amount, 0, path, _receiver, block.timestamp + 1800);\n                    return outputAmounts[1];\n            }\n            else{\n                return 0;\n            }\n        }\n        else{\n            revert(\"Pair doesn't exist\");\n        }\n    }\n\n    function _positionExists(address _user, Position memory _position) internal view returns (bool) {\n        Position[] memory positions = users[_user].Positions;\n        for (uint256 i = 0; i < positions.length; i++) {\n            if(keccak256(abi.encodePacked(_position.name)) == keccak256(abi.encodePacked(positions[i].name)) &&\n                _position.pair.token_from == positions[i].pair.token_from && _position.pair.token_to == positions[i].pair.token_to) {\n                return true;\n            }\n        }\n        return false;\n    }\n\n    function _positionExists(address _user, string memory _name, Pair memory _pair) internal view returns (bool) {\n        Position[] memory positions = users[_user].Positions;\n        for (uint256 i = 0; i < positions.length; i++) {\n            if(keccak256(abi.encodePacked(_name)) == keccak256(abi.encodePacked(positions[i].name)) &&\n                _pair.token_from == positions[i].pair.token_from && _pair.token_to == positions[i].pair.token_to) {\n                return true;\n            }\n        }\n        return false;\n    }\n\n    function _getAllInputTokenAddresses() external view returns (address[] memory) {\n        address[] memory tokenAddresses = new address[](pairsAvailable.length);\n        uint256 distinctTokenCount = 0;\n        \n        for (uint256 i = 0; i < pairsAvailable.length; i++) {\n            // Check if the token_from address has already been added to the list\n            bool exists = false;\n            for (uint256 j = 0; j < distinctTokenCount; j++) {\n                if (tokenAddresses[j] == address(pairsAvailable[i].token_from)) {\n                    exists = true;\n                    break;\n                }\n            }\n            // If token_from has not been added to the list yet, add it\n            if (!exists) {\n                tokenAddresses[distinctTokenCount] = address(pairsAvailable[i].token_from);\n                distinctTokenCount++;\n            }\n        }\n        // Resize the tokenAddresses array to remove any empty elements\n        assembly {\n            mstore(tokenAddresses, distinctTokenCount)\n        } \n        return tokenAddresses;\n    }\n\n    function _checkValidERC20(address tokenAddress) internal view returns (bool) {\n        try IERC20(tokenAddress).totalSupply() returns (uint256 _supply) {\n            if (_supply > 0 ){\n                return true;\n            }\n            return false;\n        } catch (bytes memory) {\n            return false;\n        }\n    }\n\n\n    function addPair(address _token_from, address _token_to, bool _active) external onlyOwner {\n        require(_token_from != _token_to, \"Input and Output tokens must be different\");\n        require(_checkValidERC20(_token_from), \"Input Token is not available. No Supply\");\n        require(_checkValidERC20(_token_to), \"Output Token is not available. No Supply\");\n        require(!_pairExists(Pair(IERC20(_token_from), IERC20(_token_to), true)), \"Pair already exists\");\n        pairsAvailable.push(Pair(IERC20(_token_from), IERC20(_token_to), _active)); \n        emit PairAdded(_token_from, _token_to, block.timestamp);\n    }\n\n    function addInterval(uint256 _interval) external onlyOwner {\n        require(!_intervalExists(_interval), \"Interval already added\");\n        intervalsAvailable.push(_interval); \n        emit IntervalAdded(_interval, block.timestamp);\n    }\n\n    function createPosition(string calldata _name, Pair calldata _pair, uint _totalAmountToSwap, uint _interval, uint _amountPerSwap, uint _dcaIterations, bool _stacking) external {\n        require(bytes(_name).length > 0, \"name must be set\"); \n        require(!_positionExists(msg.sender, _name, _pair), \"Position is already existing\");\n        require(_pairExists(_pair), \"pair not available\");\n        require(_intervalExists(_interval), \"this interval is not allowed\");\n        require(_totalAmountToSwap > 0, \"No amount set for DCA\");\n        require( (_amountPerSwap == 0 && _dcaIterations != 0) || (_amountPerSwap != 0 && _dcaIterations == 0), \"Set only amount per swap or number of iterations\" );\n\n        uint totalToSwapAfterFees = _totalAmountToSwap - (_totalAmountToSwap * depositFee / 10000);\n        uint amountPerSwap = _amountPerSwap > 0 ? _amountPerSwap : ((totalToSwapAfterFees * 10000) / _dcaIterations) / 10000;\n\n        SafeERC20.safeTransferFrom(_pair.token_from, msg.sender, address(this), _totalAmountToSwap);   \n        if (!_userExists(msg.sender)){\n            userAddresses.push(msg.sender);\n        }\n        users[msg.sender].Positions.push(Position(_name, _pair, totalToSwapAfterFees, _interval, _dcaIterations, amountPerSwap, block.timestamp, block.timestamp, 0, 0, 0, Status.Active ,msg.sender, _stacking, _dcaIterations == 0 ? DcaMode.Unlimited : DcaMode.Limited ));\n    \n        emit PositionCreated (msg.sender, users[msg.sender].Positions.length-1, block.timestamp);  \n    }\n\n    function setPositionStatus(uint _positionId, Status _status) external {\n        require(_positionId < users[msg.sender].Positions.length , \"Position doesn't exist\");\n        users[msg.sender].Positions[_positionId].status=_status;\n        emit PositionStatusChanged (msg.sender, _positionId, _status, block.timestamp);  \n    }\n\n    function closePosition(uint _positionId) external {\n        require(_positionId < users[msg.sender].Positions.length , \"Position doesn't exist\");\n        Position memory positionToClose = users[msg.sender].Positions[_positionId];\n        require(positionToClose.status != Status.Locked, \"Position is Locked: non closable\");\n\n        if ( (positionToClose.totalAmountToSwap - positionToClose.SwappedFromBalance) > 0 ) {\n            SafeERC20.safeTransfer(positionToClose.pair.token_from, msg.sender, positionToClose.totalAmountToSwap - positionToClose.SwappedFromBalance);\n            emit TokenClaimed( address (positionToClose.pair.token_from), positionToClose.totalAmountToSwap - positionToClose.SwappedFromBalance, block.timestamp );\n        }\n        if ( (positionToClose.SwappedToBalance) > 0 ) {\n            // swapped token could only be claimed for staking position. not stacking position swap directly to the user wallet.\n            if (positionToClose.stacking == true){\n                SafeERC20.safeTransfer(positionToClose.pair.token_to, msg.sender, positionToClose.SwappedToBalance);\n                emit TokenClaimed( address (positionToClose.pair.token_to), positionToClose.SwappedToBalance, block.timestamp );\n            }\n        }\n        users[msg.sender].Positions[_positionId].status = Status.Closed;\n        emit PositionStatusChanged (msg.sender, _positionId, Status.Closed, block.timestamp);  \n    }\n\n    function claimRewardGovernanceToken(uint _positionId) external {\n        //require(_positionId < users[msg.sender].Positions.length , \"Position doesn't exist\");\n        //users[msg.sender].Positions[_positionId].status = Status.Closed;\n    }\n\n    function claimFees(uint _positionId) external {\n        require(_positionId < users[msg.sender].Positions.length , \"Position doesn't exist\");\n        users[msg.sender].Positions[_positionId].status = Status.Closed;\n        //emit PositionStatusChanged (msg.sender, _positionId, Status.Closed);  \n    }\n\n    function getPosition(uint _positionId) external view returns (Position memory){\n        return users[msg.sender].Positions[_positionId];\n    }\n\n    function executeSwap() external onlyOwner{\n        _executeIndividualDCA();\n        _executeStakedDCA();\n    }\n\n    event PairAdded(address token_from, address token_to, uint date);\n    event IntervalAdded(uint256 interval, uint date);\n    event PositionCreated (address sender, uint256 id, uint date);\n    event PositionStatusChanged (address sender, uint256 id, Status status, uint date);\n    event DCAExecuted (address user, uint positionId, address token_from, address token_to, uint amountToSwap, uint amountSwapped, uint date);\n    event TokenClaimed (address token, uint amount, uint date);\n\n}\n\n",
  "sourcePath": "/home/sjouany/ProjetFinal/HodlUp/truffle/contracts/HodlUpHub.sol",
  "compiler": {
    "name": "solc",
    "version": "0.8.18+commit.87f61d96.Emscripten.clang"
  },
  "schemaVersion": "3.4.13",
  "updatedAt": "2023-04-05T22:57:34.645Z",
  "networkType": "ethereum",
  "devdoc": {
    "details": "This contract is used for hodling tokens and executing automated periodic swaps.",
    "kind": "dev",
    "methods": {
      "owner()": {
        "details": "Returns the address of the current owner."
      },
      "renounceOwnership()": {
        "details": "Leaves the contract without owner. It will not be possible to call `onlyOwner` functions anymore. Can only be called by the current owner. NOTE: Renouncing ownership will leave the contract without an owner, thereby removing any functionality that is only available to the owner."
      },
      "transferOwnership(address)": {
        "details": "Transfers ownership of the contract to a new account (`newOwner`). Can only be called by the current owner."
      }
    },
    "title": "HodlUpHub contract",
    "version": 1
  },
  "userdoc": {
    "kind": "user",
    "methods": {},
    "version": 1
  }
}