{
  "contractName": "HodlUpHub",
  "abi": [
    {
      "inputs": [
        {
          "internalType": "address",
          "name": "_uniswapRouter",
          "type": "address"
        }
      ],
      "stateMutability": "nonpayable",
      "type": "constructor"
    },
    {
      "anonymous": false,
      "inputs": [
        {
          "indexed": false,
          "internalType": "uint256",
          "name": "interval",
          "type": "uint256"
        }
      ],
      "name": "IntervalAdded",
      "type": "event"
    },
    {
      "anonymous": false,
      "inputs": [
        {
          "indexed": true,
          "internalType": "address",
          "name": "previousOwner",
          "type": "address"
        },
        {
          "indexed": true,
          "internalType": "address",
          "name": "newOwner",
          "type": "address"
        }
      ],
      "name": "OwnershipTransferred",
      "type": "event"
    },
    {
      "anonymous": false,
      "inputs": [
        {
          "indexed": false,
          "internalType": "address",
          "name": "token_from",
          "type": "address"
        },
        {
          "indexed": false,
          "internalType": "address",
          "name": "token_to",
          "type": "address"
        }
      ],
      "name": "PairAdded",
      "type": "event"
    },
    {
      "anonymous": false,
      "inputs": [
        {
          "indexed": false,
          "internalType": "address",
          "name": "sender",
          "type": "address"
        },
        {
          "indexed": false,
          "internalType": "uint256",
          "name": "id",
          "type": "uint256"
        }
      ],
      "name": "PositionCreated",
      "type": "event"
    },
    {
      "inputs": [
        {
          "internalType": "uint256",
          "name": "",
          "type": "uint256"
        }
      ],
      "name": "intervalsAvailable",
      "outputs": [
        {
          "internalType": "uint256",
          "name": "",
          "type": "uint256"
        }
      ],
      "stateMutability": "view",
      "type": "function",
      "constant": true
    },
    {
      "inputs": [],
      "name": "owner",
      "outputs": [
        {
          "internalType": "address",
          "name": "",
          "type": "address"
        }
      ],
      "stateMutability": "view",
      "type": "function",
      "constant": true
    },
    {
      "inputs": [
        {
          "internalType": "uint256",
          "name": "",
          "type": "uint256"
        }
      ],
      "name": "pairsAvailable",
      "outputs": [
        {
          "internalType": "contract IERC20",
          "name": "token_from",
          "type": "address"
        },
        {
          "internalType": "contract IERC20",
          "name": "token_to",
          "type": "address"
        },
        {
          "internalType": "bool",
          "name": "active",
          "type": "bool"
        }
      ],
      "stateMutability": "view",
      "type": "function",
      "constant": true
    },
    {
      "inputs": [],
      "name": "renounceOwnership",
      "outputs": [],
      "stateMutability": "nonpayable",
      "type": "function"
    },
    {
      "inputs": [
        {
          "internalType": "address",
          "name": "newOwner",
          "type": "address"
        }
      ],
      "name": "transferOwnership",
      "outputs": [],
      "stateMutability": "nonpayable",
      "type": "function"
    },
    {
      "inputs": [
        {
          "internalType": "address",
          "name": "_token_from",
          "type": "address"
        },
        {
          "internalType": "address",
          "name": "_token_to",
          "type": "address"
        },
        {
          "internalType": "bool",
          "name": "_active",
          "type": "bool"
        }
      ],
      "name": "addPair",
      "outputs": [],
      "stateMutability": "nonpayable",
      "type": "function"
    },
    {
      "inputs": [
        {
          "internalType": "uint256",
          "name": "_interval",
          "type": "uint256"
        }
      ],
      "name": "addInterval",
      "outputs": [],
      "stateMutability": "nonpayable",
      "type": "function"
    },
    {
      "inputs": [
        {
          "internalType": "string",
          "name": "_name",
          "type": "string"
        },
        {
          "components": [
            {
              "internalType": "contract IERC20",
              "name": "token_from",
              "type": "address"
            },
            {
              "internalType": "contract IERC20",
              "name": "token_to",
              "type": "address"
            },
            {
              "internalType": "bool",
              "name": "active",
              "type": "bool"
            }
          ],
          "internalType": "struct HodlUpHub.Pair",
          "name": "_pair",
          "type": "tuple"
        },
        {
          "internalType": "uint256",
          "name": "_totalAmountToSwap",
          "type": "uint256"
        },
        {
          "internalType": "uint256",
          "name": "_interval",
          "type": "uint256"
        },
        {
          "internalType": "uint256",
          "name": "_duration",
          "type": "uint256"
        }
      ],
      "name": "createPosition",
      "outputs": [],
      "stateMutability": "nonpayable",
      "type": "function"
    },
    {
      "inputs": [],
      "name": "executeDCA",
      "outputs": [],
      "stateMutability": "nonpayable",
      "type": "function"
    }
  ],
  "bytecode": "0x60806040523480156200001157600080fd5b5060405162003567380380620035678339818101604052810190620000379190620001d5565b620000576200004b6200009f60201b60201c565b620000a760201b60201c565b80600360006101000a81548173ffffffffffffffffffffffffffffffffffffffff021916908373ffffffffffffffffffffffffffffffffffffffff1602179055505062000207565b600033905090565b60008060009054906101000a900473ffffffffffffffffffffffffffffffffffffffff169050816000806101000a81548173ffffffffffffffffffffffffffffffffffffffff021916908373ffffffffffffffffffffffffffffffffffffffff1602179055508173ffffffffffffffffffffffffffffffffffffffff168173ffffffffffffffffffffffffffffffffffffffff167f8be0079c531659141344cd1fd0a4f28419497f9722a3daafe3b4186f6b6457e060405160405180910390a35050565b600080fd5b600073ffffffffffffffffffffffffffffffffffffffff82169050919050565b60006200019d8262000170565b9050919050565b620001af8162000190565b8114620001bb57600080fd5b50565b600081519050620001cf81620001a4565b92915050565b600060208284031215620001ee57620001ed6200016b565b5b6000620001fe84828501620001be565b91505092915050565b61335080620002176000396000f3fe608060405234801561001057600080fd5b50600436106100935760003560e01c80638da5cb5b116100665780638da5cb5b14610120578063950da2871461013e578063c1c7d5b414610148578063d27106db14610164578063f2fde38b1461018057610093565b806319ef091b146100985780631e2305e7146100b45780636319eb78146100e4578063715018a614610116575b600080fd5b6100b260048036038101906100ad9190611f0d565b61019c565b005b6100ce60048036038101906100c99190611f96565b610568565b6040516100db9190611fd2565b60405180910390f35b6100fe60048036038101906100f99190611f96565b61058c565b60405161010d9392919061205b565b60405180910390f35b61011e610613565b005b610128610627565b60405161013591906120a1565b60405180910390f35b610146610650565b005b610162600480360381019061015d9190611f96565b61087d565b005b61017e60048036038101906101799190612145565b610931565b005b61019a600480360381019061019591906121df565b610da9565b005b6101a4610e2c565b8173ffffffffffffffffffffffffffffffffffffffff168373ffffffffffffffffffffffffffffffffffffffff1603610212576040517f08c379a00000000000000000000000000000000000000000000000000000000081526004016102099061228f565b60405180910390fd5b60008373ffffffffffffffffffffffffffffffffffffffff166318160ddd6040518163ffffffff1660e01b8152600401602060405180830381865afa15801561025f573d6000803e3d6000fd5b505050506040513d601f19601f8201168201806040525081019061028391906122c4565b116102c3576040517f08c379a00000000000000000000000000000000000000000000000000000000081526004016102ba90612363565b60405180910390fd5b60008273ffffffffffffffffffffffffffffffffffffffff166318160ddd6040518163ffffffff1660e01b8152600401602060405180830381865afa158015610310573d6000803e3d6000fd5b505050506040513d601f19601f8201168201806040525081019061033491906122c4565b11610374576040517f08c379a000000000000000000000000000000000000000000000000000000000815260040161036b906123f5565b60405180910390fd5b6103c660405180606001604052808573ffffffffffffffffffffffffffffffffffffffff1681526020018473ffffffffffffffffffffffffffffffffffffffff16815260200160011515815250610eaa565b15610406576040517f08c379a00000000000000000000000000000000000000000000000000000000081526004016103fd90612461565b60405180910390fd5b600160405180606001604052808573ffffffffffffffffffffffffffffffffffffffff1681526020018473ffffffffffffffffffffffffffffffffffffffff168152602001831515815250908060018154018082558091505060019003906000526020600020906002020160009091909190915060008201518160000160006101000a81548173ffffffffffffffffffffffffffffffffffffffff021916908373ffffffffffffffffffffffffffffffffffffffff16021790555060208201518160010160006101000a81548173ffffffffffffffffffffffffffffffffffffffff021916908373ffffffffffffffffffffffffffffffffffffffff16021790555060408201518160010160146101000a81548160ff02191690831515021790555050507fc26cc79589f7c5b1fb18650002371abf239e6083ab356e4179c11da5185611ec838360405161055b929190612481565b60405180910390a1505050565b6002818154811061057857600080fd5b906000526020600020016000915090505481565b6001818154811061059c57600080fd5b90600052602060002090600202016000915090508060000160009054906101000a900473ffffffffffffffffffffffffffffffffffffffff16908060010160009054906101000a900473ffffffffffffffffffffffffffffffffffffffff16908060010160149054906101000a900460ff16905083565b61061b610e2c565b6106256000610fe4565b565b60008060009054906101000a900473ffffffffffffffffffffffffffffffffffffffff16905090565b610658610e2c565b60005b60018054905081101561087a57600061076660018381548110610681576106806124aa565b5b90600052602060002090600202016040518060600160405290816000820160009054906101000a900473ffffffffffffffffffffffffffffffffffffffff1673ffffffffffffffffffffffffffffffffffffffff1673ffffffffffffffffffffffffffffffffffffffff1681526020016001820160009054906101000a900473ffffffffffffffffffffffffffffffffffffffff1673ffffffffffffffffffffffffffffffffffffffff1673ffffffffffffffffffffffffffffffffffffffff1681526020016001820160149054906101000a900460ff1615151515815250506110a8565b90506108656001838154811061077f5761077e6124aa565b5b90600052602060002090600202016040518060600160405290816000820160009054906101000a900473ffffffffffffffffffffffffffffffffffffffff1673ffffffffffffffffffffffffffffffffffffffff1673ffffffffffffffffffffffffffffffffffffffff1681526020016001820160009054906101000a900473ffffffffffffffffffffffffffffffffffffffff1673ffffffffffffffffffffffffffffffffffffffff1673ffffffffffffffffffffffffffffffffffffffff1681526020016001820160149054906101000a900460ff1615151515815250508261155f565b5050808061087290612508565b91505061065b565b50565b610885610e2c565b61088e81611a2e565b156108ce576040517f08c379a00000000000000000000000000000000000000000000000000000000081526004016108c59061259c565b60405180910390fd5b60028190806001815401808255809150506001900390600052602060002001600090919091909150557f88b7fdf581bd51ea599cc19a1013fde53651b93ffad3177861e345a9ab01fadd816040516109269190611fd2565b60405180910390a150565b60008686905011610977576040517f08c379a000000000000000000000000000000000000000000000000000000000815260040161096e90612608565b60405180910390fd5b6109908480360381019061098b919061275b565b610eaa565b6109cf576040517f08c379a00000000000000000000000000000000000000000000000000000000081526004016109c6906127d4565b60405180910390fd5b600460003373ffffffffffffffffffffffffffffffffffffffff1673ffffffffffffffffffffffffffffffffffffffff16815260200190815260200160002060000160405180610180016040528088888080601f016020809104026020016040519081016040528093929190818152602001838380828437600081840152601f19601f82011690508083019250505050505050815260200186803603810190610a78919061275b565b81526020018581526020016000815260200160008152602001600081526020014281526020018481526020014281526020018381526020016000151581526020013373ffffffffffffffffffffffffffffffffffffffff1681525090806001815401808255809150506001900390600052602060002090600c02016000909190919091506000820151816000019081610b119190612a01565b5060208201518160010160008201518160000160006101000a81548173ffffffffffffffffffffffffffffffffffffffff021916908373ffffffffffffffffffffffffffffffffffffffff16021790555060208201518160010160006101000a81548173ffffffffffffffffffffffffffffffffffffffff021916908373ffffffffffffffffffffffffffffffffffffffff16021790555060408201518160010160146101000a81548160ff021916908315150217905550505060408201518160030155606082015181600401556080820151816005015560a0820151816006015560c0820151816007015560e08201518160080155610100820151816009015561012082015181600a015561014082015181600b0160006101000a81548160ff02191690831515021790555061016082015181600b0160016101000a81548173ffffffffffffffffffffffffffffffffffffffff021916908373ffffffffffffffffffffffffffffffffffffffff1602179055505050610c9133611a90565b610cf9576005339080600181540180825580915050600190039060005260206000200160009091909190916101000a81548173ffffffffffffffffffffffffffffffffffffffff021916908373ffffffffffffffffffffffffffffffffffffffff1602179055505b610d17846000016020810190610d0f9190612ad3565b333086611b3e565b7f77b029cdc31eeab36803cd47dc813d0ffb6332baea128b6cd6a2abb332879e15336001600460003373ffffffffffffffffffffffffffffffffffffffff1673ffffffffffffffffffffffffffffffffffffffff16815260200190815260200160002060000180549050610d8b9190612b00565b604051610d99929190612b34565b60405180910390a1505050505050565b610db1610e2c565b600073ffffffffffffffffffffffffffffffffffffffff168173ffffffffffffffffffffffffffffffffffffffff1603610e20576040517f08c379a0000000000000000000000000000000000000000000000000000000008152600401610e1790612bcf565b60405180910390fd5b610e2981610fe4565b50565b610e34611bc7565b73ffffffffffffffffffffffffffffffffffffffff16610e52610627565b73ffffffffffffffffffffffffffffffffffffffff1614610ea8576040517f08c379a0000000000000000000000000000000000000000000000000000000008152600401610e9f90612c3b565b60405180910390fd5b565b600080600090505b600180549050811015610fd957826000015173ffffffffffffffffffffffffffffffffffffffff1660018281548110610eee57610eed6124aa565b5b906000526020600020906002020160000160009054906101000a900473ffffffffffffffffffffffffffffffffffffffff1673ffffffffffffffffffffffffffffffffffffffff16148015610fb75750826020015173ffffffffffffffffffffffffffffffffffffffff1660018281548110610f6d57610f6c6124aa565b5b906000526020600020906002020160010160009054906101000a900473ffffffffffffffffffffffffffffffffffffffff1673ffffffffffffffffffffffffffffffffffffffff16145b15610fc6576001915050610fdf565b8080610fd190612508565b915050610eb2565b50600090505b919050565b60008060009054906101000a900473ffffffffffffffffffffffffffffffffffffffff169050816000806101000a81548173ffffffffffffffffffffffffffffffffffffffff021916908373ffffffffffffffffffffffffffffffffffffffff1602179055508173ffffffffffffffffffffffffffffffffffffffff168173ffffffffffffffffffffffffffffffffffffffff167f8be0079c531659141344cd1fd0a4f28419497f9722a3daafe3b4186f6b6457e060405160405180910390a35050565b600080600090505b60058054905081101561155957600060046000600584815481106110d7576110d66124aa565b5b9060005260206000200160009054906101000a900473ffffffffffffffffffffffffffffffffffffffff1673ffffffffffffffffffffffffffffffffffffffff1673ffffffffffffffffffffffffffffffffffffffff168152602001908152602001600020600001805480602002602001604051908101604052809291908181526020016000905b828210156113c057838290600052602060002090600c0201604051806101800160405290816000820180546111939061282e565b80601f01602080910402602001604051908101604052809291908181526020018280546111bf9061282e565b801561120c5780601f106111e15761010080835404028352916020019161120c565b820191906000526020600020905b8154815290600101906020018083116111ef57829003601f168201915b50505050508152602001600182016040518060600160405290816000820160009054906101000a900473ffffffffffffffffffffffffffffffffffffffff1673ffffffffffffffffffffffffffffffffffffffff1673ffffffffffffffffffffffffffffffffffffffff1681526020016001820160009054906101000a900473ffffffffffffffffffffffffffffffffffffffff1673ffffffffffffffffffffffffffffffffffffffff1673ffffffffffffffffffffffffffffffffffffffff1681526020016001820160149054906101000a900460ff161515151581525050815260200160038201548152602001600482015481526020016005820154815260200160068201548152602001600782015481526020016008820154815260200160098201548152602001600a8201548152602001600b820160009054906101000a900460ff16151515158152602001600b820160019054906101000a900473ffffffffffffffffffffffffffffffffffffffff1673ffffffffffffffffffffffffffffffffffffffff1673ffffffffffffffffffffffffffffffffffffffff16815250508152602001906001019061115f565b50505050905060005b815181101561154457846000015173ffffffffffffffffffffffffffffffffffffffff16828281518110611400576113ff6124aa565b5b6020026020010151602001516000015173ffffffffffffffffffffffffffffffffffffffff161480156114845750846020015173ffffffffffffffffffffffffffffffffffffffff1682828151811061145c5761145b6124aa565b5b6020026020010151602001516020015173ffffffffffffffffffffffffffffffffffffffff16145b80156114ad575081818151811061149e5761149d6124aa565b5b60200260200101516101400151155b80156114ff57508181815181106114c7576114c66124aa565b5b602002602001015160e001518282815181106114e6576114e56124aa565b5b602002602001015160c001516114fc9190612c5b565b42115b1561153157818181518110611517576115166124aa565b5b6020026020010151606001518461152e9190612c5b565b93505b808061153c90612508565b9150506113c9565b5050808061155190612508565b9150506110b0565b50919050565b600080836000015173ffffffffffffffffffffffffffffffffffffffff166370a08231306040518263ffffffff1660e01b815260040161159f91906120a1565b602060405180830381865afa1580156115bc573d6000803e3d6000fd5b505050506040513d601f19601f820116820180604052508101906115e091906122c4565b9050828111611624576040517f08c379a000000000000000000000000000000000000000000000000000000000815260040161161b90612d01565b60405180910390fd5b836000015173ffffffffffffffffffffffffffffffffffffffff1663095ea7b3600360009054906101000a900473ffffffffffffffffffffffffffffffffffffffff16856040518363ffffffff1660e01b8152600401611685929190612b34565b6020604051808303816000875af11580156116a4573d6000803e3d6000fd5b505050506040513d601f19601f820116820180604052508101906116c89190612d36565b506000600360009054906101000a900473ffffffffffffffffffffffffffffffffffffffff1673ffffffffffffffffffffffffffffffffffffffff1663c45a01556040518163ffffffff1660e01b8152600401602060405180830381865afa158015611738573d6000803e3d6000fd5b505050506040513d601f19601f8201168201806040525081019061175c9190612d78565b73ffffffffffffffffffffffffffffffffffffffff1663e6a43905866000015187602001516040518363ffffffff1660e01b815260040161179e929190612481565b602060405180830381865afa1580156117bb573d6000803e3d6000fd5b505050506040513d601f19601f820116820180604052508101906117df9190612d78565b9050600073ffffffffffffffffffffffffffffffffffffffff168173ffffffffffffffffffffffffffffffffffffffff16146119ed576000600267ffffffffffffffff8111156118325761183161263e565b5b6040519080825280602002602001820160405280156118605781602001602082028036833780820191505090505b50905085600001518160008151811061187c5761187b6124aa565b5b602002602001019073ffffffffffffffffffffffffffffffffffffffff16908173ffffffffffffffffffffffffffffffffffffffff16815250508560200151816001815181106118cf576118ce6124aa565b5b602002602001019073ffffffffffffffffffffffffffffffffffffffff16908173ffffffffffffffffffffffffffffffffffffffff16815250506000600360009054906101000a900473ffffffffffffffffffffffffffffffffffffffff1673ffffffffffffffffffffffffffffffffffffffff166338ed173987600085306107084261195c9190612c5b565b6040518663ffffffff1660e01b815260040161197c959493929190612e9e565b6000604051808303816000875af115801561199b573d6000803e3d6000fd5b505050506040513d6000823e3d601f19601f820116820180604052508101906119c49190612fbb565b9050806001815181106119da576119d96124aa565b5b6020026020010151945050505050611a28565b6040517f08c379a0000000000000000000000000000000000000000000000000000000008152600401611a1f90613050565b60405180910390fd5b92915050565b600080600090505b600280549050811015611a85578260028281548110611a5857611a576124aa565b5b906000526020600020015403611a72576001915050611a8b565b8080611a7d90612508565b915050611a36565b50600090505b919050565b600080600090505b600580549050811015611b33578273ffffffffffffffffffffffffffffffffffffffff1660058281548110611ad057611acf6124aa565b5b9060005260206000200160009054906101000a900473ffffffffffffffffffffffffffffffffffffffff1673ffffffffffffffffffffffffffffffffffffffff1603611b20576001915050611b39565b8080611b2b90612508565b915050611a98565b50600090505b919050565b611bc1846323b872dd60e01b858585604051602401611b5f93929190613070565b604051602081830303815290604052907bffffffffffffffffffffffffffffffffffffffffffffffffffffffff19166020820180517bffffffffffffffffffffffffffffffffffffffffffffffffffffffff8381831617835250505050611bcf565b50505050565b600033905090565b6000611c31826040518060400160405280602081526020017f5361666545524332303a206c6f772d6c6576656c2063616c6c206661696c65648152508573ffffffffffffffffffffffffffffffffffffffff16611c969092919063ffffffff16565b9050600081511115611c915780806020019051810190611c519190612d36565b611c90576040517f08c379a0000000000000000000000000000000000000000000000000000000008152600401611c8790613119565b60405180910390fd5b5b505050565b6060611ca58484600085611cae565b90509392505050565b606082471015611cf3576040517f08c379a0000000000000000000000000000000000000000000000000000000008152600401611cea906131ab565b60405180910390fd5b6000808673ffffffffffffffffffffffffffffffffffffffff168587604051611d1c919061323c565b60006040518083038185875af1925050503d8060008114611d59576040519150601f19603f3d011682016040523d82523d6000602084013e611d5e565b606091505b5091509150611d6f87838387611d7b565b92505050949350505050565b60608315611ddd576000835103611dd557611d9585611df0565b611dd4576040517f08c379a0000000000000000000000000000000000000000000000000000000008152600401611dcb9061329f565b60405180910390fd5b5b829050611de8565b611de78383611e13565b5b949350505050565b6000808273ffffffffffffffffffffffffffffffffffffffff163b119050919050565b600082511115611e265781518083602001fd5b806040517f08c379a0000000000000000000000000000000000000000000000000000000008152600401611e5a91906132f8565b60405180910390fd5b6000604051905090565b600080fd5b600080fd5b600073ffffffffffffffffffffffffffffffffffffffff82169050919050565b6000611ea282611e77565b9050919050565b611eb281611e97565b8114611ebd57600080fd5b50565b600081359050611ecf81611ea9565b92915050565b60008115159050919050565b611eea81611ed5565b8114611ef557600080fd5b50565b600081359050611f0781611ee1565b92915050565b600080600060608486031215611f2657611f25611e6d565b5b6000611f3486828701611ec0565b9350506020611f4586828701611ec0565b9250506040611f5686828701611ef8565b9150509250925092565b6000819050919050565b611f7381611f60565b8114611f7e57600080fd5b50565b600081359050611f9081611f6a565b92915050565b600060208284031215611fac57611fab611e6d565b5b6000611fba84828501611f81565b91505092915050565b611fcc81611f60565b82525050565b6000602082019050611fe76000830184611fc3565b92915050565b6000819050919050565b600061201261200d61200884611e77565b611fed565b611e77565b9050919050565b600061202482611ff7565b9050919050565b600061203682612019565b9050919050565b6120468161202b565b82525050565b61205581611ed5565b82525050565b6000606082019050612070600083018661203d565b61207d602083018561203d565b61208a604083018461204c565b949350505050565b61209b81611e97565b82525050565b60006020820190506120b66000830184612092565b92915050565b600080fd5b600080fd5b600080fd5b60008083601f8401126120e1576120e06120bc565b5b8235905067ffffffffffffffff8111156120fe576120fd6120c1565b5b60208301915083600182028301111561211a576121196120c6565b5b9250929050565b600080fd5b60006060828403121561213c5761213b612121565b5b81905092915050565b60008060008060008060e0878903121561216257612161611e6d565b5b600087013567ffffffffffffffff8111156121805761217f611e72565b5b61218c89828a016120cb565b9650965050602061219f89828a01612126565b94505060806121b089828a01611f81565b93505060a06121c189828a01611f81565b92505060c06121d289828a01611f81565b9150509295509295509295565b6000602082840312156121f5576121f4611e6d565b5b600061220384828501611ec0565b91505092915050565b600082825260208201905092915050565b7f496e70757420616e64204f757470757420746f6b656e73206d7573742062652060008201527f646966666572656e740000000000000000000000000000000000000000000000602082015250565b600061227960298361220c565b91506122848261221d565b604082019050919050565b600060208201905081810360008301526122a88161226c565b9050919050565b6000815190506122be81611f6a565b92915050565b6000602082840312156122da576122d9611e6d565b5b60006122e8848285016122af565b91505092915050565b7f496e70757420546f6b656e206973206e6f7420617661696c61626c652e204e6f60008201527f20537570706c7900000000000000000000000000000000000000000000000000602082015250565b600061234d60278361220c565b9150612358826122f1565b604082019050919050565b6000602082019050818103600083015261237c81612340565b9050919050565b7f4f757470757420546f6b656e206973206e6f7420617661696c61626c652e204e60008201527f6f20537570706c79000000000000000000000000000000000000000000000000602082015250565b60006123df60288361220c565b91506123ea82612383565b604082019050919050565b6000602082019050818103600083015261240e816123d2565b9050919050565b7f5061697220616c72656164792065786973747300000000000000000000000000600082015250565b600061244b60138361220c565b915061245682612415565b602082019050919050565b6000602082019050818103600083015261247a8161243e565b9050919050565b60006040820190506124966000830185612092565b6124a36020830184612092565b9392505050565b7f4e487b7100000000000000000000000000000000000000000000000000000000600052603260045260246000fd5b7f4e487b7100000000000000000000000000000000000000000000000000000000600052601160045260246000fd5b600061251382611f60565b91507fffffffffffffffffffffffffffffffffffffffffffffffffffffffffffffffff8203612545576125446124d9565b5b600182019050919050565b7f496e74657276616c20616c726561647920616464656400000000000000000000600082015250565b600061258660168361220c565b915061259182612550565b602082019050919050565b600060208201905081810360008301526125b581612579565b9050919050565b7f6e616d65206d7573742062652073657400000000000000000000000000000000600082015250565b60006125f260108361220c565b91506125fd826125bc565b602082019050919050565b60006020820190508181036000830152612621816125e5565b9050919050565b600080fd5b6000601f19601f8301169050919050565b7f4e487b7100000000000000000000000000000000000000000000000000000000600052604160045260246000fd5b6126768261262d565b810181811067ffffffffffffffff821117156126955761269461263e565b5b80604052505050565b60006126a8611e63565b90506126b4828261266d565b919050565b60006126c482611e97565b9050919050565b6126d4816126b9565b81146126df57600080fd5b50565b6000813590506126f1816126cb565b92915050565b60006060828403121561270d5761270c612628565b5b612717606061269e565b90506000612727848285016126e2565b600083015250602061273b848285016126e2565b602083015250604061274f84828501611ef8565b60408301525092915050565b60006060828403121561277157612770611e6d565b5b600061277f848285016126f7565b91505092915050565b7f70616972206e6f7420617661696c61626c650000000000000000000000000000600082015250565b60006127be60128361220c565b91506127c982612788565b602082019050919050565b600060208201905081810360008301526127ed816127b1565b9050919050565b600081519050919050565b7f4e487b7100000000000000000000000000000000000000000000000000000000600052602260045260246000fd5b6000600282049050600182168061284657607f821691505b602082108103612859576128586127ff565b5b50919050565b60008190508160005260206000209050919050565b60006020601f8301049050919050565b600082821b905092915050565b6000600883026128c17fffffffffffffffffffffffffffffffffffffffffffffffffffffffffffffffff82612884565b6128cb8683612884565b95508019841693508086168417925050509392505050565b60006128fe6128f96128f484611f60565b611fed565b611f60565b9050919050565b6000819050919050565b612918836128e3565b61292c61292482612905565b848454612891565b825550505050565b600090565b612941612934565b61294c81848461290f565b505050565b5b8181101561297057612965600082612939565b600181019050612952565b5050565b601f8211156129b5576129868161285f565b61298f84612874565b8101602085101561299e578190505b6129b26129aa85612874565b830182612951565b50505b505050565b600082821c905092915050565b60006129d8600019846008026129ba565b1980831691505092915050565b60006129f183836129c7565b9150826002028217905092915050565b612a0a826127f4565b67ffffffffffffffff811115612a2357612a2261263e565b5b612a2d825461282e565b612a38828285612974565b600060209050601f831160018114612a6b5760008415612a59578287015190505b612a6385826129e5565b865550612acb565b601f198416612a798661285f565b60005b82811015612aa157848901518255600182019150602085019450602081019050612a7c565b86831015612abe5784890151612aba601f8916826129c7565b8355505b6001600288020188555050505b505050505050565b600060208284031215612ae957612ae8611e6d565b5b6000612af7848285016126e2565b91505092915050565b6000612b0b82611f60565b9150612b1683611f60565b9250828203905081811115612b2e57612b2d6124d9565b5b92915050565b6000604082019050612b496000830185612092565b612b566020830184611fc3565b9392505050565b7f4f776e61626c653a206e6577206f776e657220697320746865207a65726f206160008201527f6464726573730000000000000000000000000000000000000000000000000000602082015250565b6000612bb960268361220c565b9150612bc482612b5d565b604082019050919050565b60006020820190508181036000830152612be881612bac565b9050919050565b7f4f776e61626c653a2063616c6c6572206973206e6f7420746865206f776e6572600082015250565b6000612c2560208361220c565b9150612c3082612bef565b602082019050919050565b60006020820190508181036000830152612c5481612c18565b9050919050565b6000612c6682611f60565b9150612c7183611f60565b9250828201905080821115612c8957612c886124d9565b5b92915050565b7f496e73756666696369656e742062616c616e6365206f66206f726967696e205460008201527f6f6b656e00000000000000000000000000000000000000000000000000000000602082015250565b6000612ceb60248361220c565b9150612cf682612c8f565b604082019050919050565b60006020820190508181036000830152612d1a81612cde565b9050919050565b600081519050612d3081611ee1565b92915050565b600060208284031215612d4c57612d4b611e6d565b5b6000612d5a84828501612d21565b91505092915050565b600081519050612d7281611ea9565b92915050565b600060208284031215612d8e57612d8d611e6d565b5b6000612d9c84828501612d63565b91505092915050565b6000819050919050565b6000612dca612dc5612dc084612da5565b611fed565b611f60565b9050919050565b612dda81612daf565b82525050565b600081519050919050565b600082825260208201905092915050565b6000819050602082019050919050565b612e1581611e97565b82525050565b6000612e278383612e0c565b60208301905092915050565b6000602082019050919050565b6000612e4b82612de0565b612e558185612deb565b9350612e6083612dfc565b8060005b83811015612e91578151612e788882612e1b565b9750612e8383612e33565b925050600181019050612e64565b5085935050505092915050565b600060a082019050612eb36000830188611fc3565b612ec06020830187612dd1565b8181036040830152612ed28186612e40565b9050612ee16060830185612092565b612eee6080830184611fc3565b9695505050505050565b600067ffffffffffffffff821115612f1357612f1261263e565b5b602082029050602081019050919050565b6000612f37612f3284612ef8565b61269e565b90508083825260208201905060208402830185811115612f5a57612f596120c6565b5b835b81811015612f835780612f6f88826122af565b845260208401935050602081019050612f5c565b5050509392505050565b600082601f830112612fa257612fa16120bc565b5b8151612fb2848260208601612f24565b91505092915050565b600060208284031215612fd157612fd0611e6d565b5b600082015167ffffffffffffffff811115612fef57612fee611e72565b5b612ffb84828501612f8d565b91505092915050565b7f5061697220646f65736e27742065786973740000000000000000000000000000600082015250565b600061303a60128361220c565b915061304582613004565b602082019050919050565b600060208201905081810360008301526130698161302d565b9050919050565b60006060820190506130856000830186612092565b6130926020830185612092565b61309f6040830184611fc3565b949350505050565b7f5361666545524332303a204552433230206f7065726174696f6e20646964206e60008201527f6f74207375636365656400000000000000000000000000000000000000000000602082015250565b6000613103602a8361220c565b915061310e826130a7565b604082019050919050565b60006020820190508181036000830152613132816130f6565b9050919050565b7f416464726573733a20696e73756666696369656e742062616c616e636520666f60008201527f722063616c6c0000000000000000000000000000000000000000000000000000602082015250565b600061319560268361220c565b91506131a082613139565b604082019050919050565b600060208201905081810360008301526131c481613188565b9050919050565b600081519050919050565b600081905092915050565b60005b838110156131ff5780820151818401526020810190506131e4565b60008484015250505050565b6000613216826131cb565b61322081856131d6565b93506132308185602086016131e1565b80840191505092915050565b6000613248828461320b565b915081905092915050565b7f416464726573733a2063616c6c20746f206e6f6e2d636f6e7472616374000000600082015250565b6000613289601d8361220c565b915061329482613253565b602082019050919050565b600060208201905081810360008301526132b88161327c565b9050919050565b60006132ca826127f4565b6132d4818561220c565b93506132e48185602086016131e1565b6132ed8161262d565b840191505092915050565b6000602082019050818103600083015261331281846132bf565b90509291505056fea2646970667358221220416afc07ae3713ac5a722003abe75566f886419cdc494946af68aafe3556281164736f6c63430008120033",
  "immutableReferences": {},
  "source": "// SPDX-License-Identifier: MIT\n\npragma solidity ^0.8.18;\n\nimport '../node_modules/@uniswap/v2-periphery/contracts/interfaces/IUniswapV2Router02.sol';\nimport '../node_modules/@uniswap/v2-core/contracts/interfaces/IUniswapV2Factory.sol';\nimport '../node_modules/@uniswap/v2-core/contracts/interfaces/IUniswapV2Pair.sol';\nimport \"../node_modules/@openzeppelin/contracts/access/Ownable.sol\";\nimport \"../node_modules/@openzeppelin/contracts/token/ERC20/IERC20.sol\";\nimport \"../node_modules/@openzeppelin/contracts/token/ERC20/utils/SafeERC20.sol\";\nusing SafeERC20 for IERC20;\n\ncontract HodlUpHub is Ownable {\n\n// wallet whale MATIC: 0xe7804c37c13166fF0b37F5aE0BB07A3aEbb6e245\n// token MATIC 0x0000000000000000000000000000000000001010\n// token SAND 0xBbba073C31bF03b8ACf7c28EF0738DeCF3695683\n// token USDC 0x2791Bca1f2de4661ED88A30C99A7a9449Aa84174\n//   ganache --fork https://polygon-mumbai.g.alchemy.com/v2/kN9xDViXa7ZgWWDQgNzzz-I9aIvsxIw3 --seed \"grass permit accident owner lock above hello stick divide cigar void language\" -i --unlock 0xe7804c37c13166fF0b37F5aE0BB07A3aEbb6e245 --networkId 999\n// ganache -f https://polygon-mainnet.g.alchemy.com/v2/E_47dJ_8PBLE24COiPQ1hcE1ZIBVgcps -u 0xe7804c37c13166fF0b37F5aE0BB07A3aEbb6e245 --networkId 999\n// ganache -f https://polygon-mainnet.g.alchemy.com/v2/E_47dJ_8PBLE24COiPQ1hcE1ZIBVgcps -u 0xe7804c37c13166fF0b37F5aE0BB07A3aEbb6e245 --networkId 137 -m \"grass permit accident owner lock above hello stick divide cigar void language\"\n//approve sur l'adresse du token ERC20\n// voir chainlink pour le prix\n//approve sur l'adresse du token ERC20\n// voir chainlink pour le prix\n// paraswap aggreg mais non dispo sur testnet\n//NFT ERC-1155\n\n    Pair[] public pairsAvailable;\n    uint256[] public intervalsAvailable;\n    //address constant private UNISWAP_V2_FACTORY_ADDRESS = 0x5757371414417b8C6CAad45bAeF941aBc7d3Ab32;\n    //address constant private UNISWAP_V2_ROUTER_ADDRESS = 0xa5E0829CaCEd8fFDD4De3c43696c57F7D7A678ff;\n    IUniswapV2Router02 uniswapRouter;\n    //IUniswapV2Factory uniswapV2Factory;\n\n    struct User {\n        Position[] Positions;\n    }\n\n    struct Pair {\n        IERC20 token_from;\n        IERC20 token_to;\n        bool active;\n    }\n\n    struct Position {\n        string name;\n        Pair pair;\n        uint totalAmountToSwap;\n        uint amountToSwap;\n        uint totalSwapped;\n        uint averagePrice;\n        uint lastPurchaseTimestamp;\n        uint interval;\n        uint createdTimestamp;\n        uint dcaDuration;\n        bool pause;\n        address recipient;\n    }\n\n    mapping(address => User) users;\n    address [] userAddresses;\n\n\n    constructor(address _uniswapRouter) {\n        uniswapRouter = IUniswapV2Router02(_uniswapRouter);\n        //uniswapV2Factory = IUniswapV2Factory(_uniswapV2Factory);\n    }\n\n    function addPair(address _token_from, address _token_to, bool _active) external onlyOwner {\n        require(_token_from != _token_to, \"Input and Output tokens must be different\");\n        require(IERC20(_token_from).totalSupply() > 0, \"Input Token is not available. No Supply\");\n        require(IERC20(_token_to).totalSupply() > 0, \"Output Token is not available. No Supply\");\n        require(!_pairExists(Pair(IERC20(_token_from), IERC20(_token_to), true)), \"Pair already exists\");\n        pairsAvailable.push(Pair(IERC20(_token_from), IERC20(_token_to), _active)); \n        emit PairAdded(_token_from, _token_to);\n    }\n\n    function addInterval(uint256 _interval) external onlyOwner {\n        require(!_intervalExists(_interval), \"Interval already added\");\n        intervalsAvailable.push(_interval); \n        emit IntervalAdded(_interval);\n    }\n\n    function createPosition(string calldata _name, Pair calldata _pair, uint _totalAmountToSwap, uint _interval, uint _duration) external {\n        require(bytes(_name).length > 0, \"name must be set\"); \n        require(_pairExists(_pair), \"pair not available\");\n        users[msg.sender].Positions.push(Position(_name, _pair, _totalAmountToSwap, 0, 0, 0, block.timestamp, _interval, block.timestamp, _duration, false, msg.sender));\n      \n       if (!_userExists(msg.sender)){\n            userAddresses.push(msg.sender);\n        }\n        SafeERC20.safeTransferFrom(_pair.token_from, msg.sender, address(this), _totalAmountToSwap);       \n        emit PositionCreated (msg.sender, users[msg.sender].Positions.length-1);  \n    }\n\n    function _userExists(address _userAddress) internal view returns (bool) {\n        for (uint i = 0; i < userAddresses.length; i++) {\n            if (userAddresses[i] == _userAddress) {\n                return true;\n            }\n        }\n        return false;\n    }\n\n    function executeDCA () external onlyOwner {\n        for (uint i = 0; i < pairsAvailable.length; i++) {\n            uint totalToSwap = _getTotalToSwap(pairsAvailable[i]);\n            _swap(pairsAvailable[i], totalToSwap) ;\n        }\n    }\n\n    function _pairExists(Pair memory _pair) internal view returns (bool) {\n        for (uint i = 0; i < pairsAvailable.length; i++) {\n            if (pairsAvailable[i].token_from == _pair.token_from && pairsAvailable[i].token_to == _pair.token_to) {\n                return true;\n            }\n        }\n        return false;\n    }\n\n    function _intervalExists(uint256 interval) internal view returns (bool) {\n        for (uint i = 0; i < intervalsAvailable.length; i++) {\n            if (intervalsAvailable[i]==interval) {\n                return true;\n            }\n        }\n        return false;\n    }\n\n    function _getTotalToSwap(Pair memory _pair) internal view returns(uint256 totalToSwap) {\n        for (uint256 i = 0; i < userAddresses.length; i++) {\n            Position[] memory positions = users[userAddresses[i]].Positions;\n            for (uint256 j = 0; j < positions.length; j++) {\n                if (positions[j].pair.token_from == _pair.token_from &&\n                    positions[j].pair.token_to == _pair.token_to &&\n                    !positions[j].pause &&\n                    block.timestamp > positions[j].lastPurchaseTimestamp + positions[j].interval\n                ) {\n                    totalToSwap += positions[j].amountToSwap;\n                }\n            }\n        }\n    }\n\n    function _swap(Pair memory _pair, uint256 _amount) internal returns(uint256 totalSwapped) {\n        //require(block.timestamp >= lastSwapTime + swapInterval, \"DCAUniswapV2: Not enough time has passed since the last swap\");\n        uint256 tokenFromAmount = IERC20(_pair.token_from).balanceOf(address(this));\n        require(tokenFromAmount > _amount, \"Insufficient balance of origin Token\");\n        IERC20(_pair.token_from).approve(address(uniswapRouter), _amount);\n\n        address pair = IUniswapV2Factory(IUniswapV2Router02(uniswapRouter).factory()).getPair(address(_pair.token_from), address(_pair.token_to));\n        if (pair != address(0)){\n\n            address[] memory path = new address[](2);\n            path[0] = address(_pair.token_from);\n            path[1] = address(_pair.token_to);\n\n            //uint[] memory amounts = uniswapRouter.getAmountsOut(_pair.token_from, path);\n             // require(amounts[1] >= montant deduit de chainlink +/- 10%, \"Uniswap returned insufficient output amount\");\n            uint[] memory outputAmounts = uniswapRouter.swapExactTokensForTokens(_amount, 0, path, address(this), block.timestamp + 1800);\n            return outputAmounts[1];\n        }\n        else{\n            revert(\"Pair doesn't exist\");\n        }\n    }\n\n    event PairAdded(address token_from, address token_to);\n    event IntervalAdded(uint256 interval);\n    event PositionCreated (address sender, uint256 id);\n\n}\n\n",
  "sourcePath": "/home/sjouany/ProjetFinal/HodlUp/truffle/contracts/HodlUpHub.sol",
  "compiler": {
    "name": "solc",
    "version": "0.8.18+commit.87f61d96.Emscripten.clang"
  },
  "schemaVersion": "3.4.11",
  "updatedAt": "2023-03-27T23:26:46.026Z",
  "networkType": "ethereum",
  "devdoc": {
    "kind": "dev",
    "methods": {
      "owner()": {
        "details": "Returns the address of the current owner."
      },
      "renounceOwnership()": {
        "details": "Leaves the contract without owner. It will not be possible to call `onlyOwner` functions anymore. Can only be called by the current owner. NOTE: Renouncing ownership will leave the contract without an owner, thereby removing any functionality that is only available to the owner."
      },
      "transferOwnership(address)": {
        "details": "Transfers ownership of the contract to a new account (`newOwner`). Can only be called by the current owner."
      }
    },
    "version": 1
  },
  "userdoc": {
    "kind": "user",
    "methods": {},
    "version": 1
  }
}