{
  "contractName": "HodlUpHub",
  "abi": [
    {
      "inputs": [
        {
          "internalType": "address",
          "name": "_uniswapRouter",
          "type": "address"
        },
        {
          "internalType": "address",
          "name": "_rewardManager",
          "type": "address"
        },
        {
          "internalType": "uint256",
          "name": "_depositFee",
          "type": "uint256"
        },
        {
          "internalType": "uint256",
          "name": "_swapFee",
          "type": "uint256"
        }
      ],
      "stateMutability": "nonpayable",
      "type": "constructor"
    },
    {
      "anonymous": false,
      "inputs": [
        {
          "indexed": false,
          "internalType": "address",
          "name": "user",
          "type": "address"
        },
        {
          "indexed": false,
          "internalType": "uint256",
          "name": "positionId",
          "type": "uint256"
        },
        {
          "indexed": false,
          "internalType": "address",
          "name": "token_from",
          "type": "address"
        },
        {
          "indexed": false,
          "internalType": "address",
          "name": "token_to",
          "type": "address"
        },
        {
          "indexed": false,
          "internalType": "uint256",
          "name": "amountToSwap",
          "type": "uint256"
        },
        {
          "indexed": false,
          "internalType": "uint256",
          "name": "amountSwapped",
          "type": "uint256"
        },
        {
          "indexed": false,
          "internalType": "uint256",
          "name": "date",
          "type": "uint256"
        }
      ],
      "name": "DCAExecuted",
      "type": "event"
    },
    {
      "anonymous": false,
      "inputs": [
        {
          "indexed": false,
          "internalType": "uint256",
          "name": "interval",
          "type": "uint256"
        },
        {
          "indexed": false,
          "internalType": "uint256",
          "name": "date",
          "type": "uint256"
        }
      ],
      "name": "IntervalAdded",
      "type": "event"
    },
    {
      "anonymous": false,
      "inputs": [
        {
          "indexed": true,
          "internalType": "address",
          "name": "previousOwner",
          "type": "address"
        },
        {
          "indexed": true,
          "internalType": "address",
          "name": "newOwner",
          "type": "address"
        }
      ],
      "name": "OwnershipTransferred",
      "type": "event"
    },
    {
      "anonymous": false,
      "inputs": [
        {
          "indexed": false,
          "internalType": "address",
          "name": "token_from",
          "type": "address"
        },
        {
          "indexed": false,
          "internalType": "address",
          "name": "token_to",
          "type": "address"
        },
        {
          "indexed": false,
          "internalType": "uint256",
          "name": "date",
          "type": "uint256"
        }
      ],
      "name": "PairAdded",
      "type": "event"
    },
    {
      "anonymous": false,
      "inputs": [
        {
          "indexed": false,
          "internalType": "address",
          "name": "sender",
          "type": "address"
        },
        {
          "indexed": false,
          "internalType": "uint256",
          "name": "id",
          "type": "uint256"
        },
        {
          "indexed": false,
          "internalType": "uint256",
          "name": "date",
          "type": "uint256"
        }
      ],
      "name": "PositionCreated",
      "type": "event"
    },
    {
      "anonymous": false,
      "inputs": [
        {
          "indexed": false,
          "internalType": "address",
          "name": "sender",
          "type": "address"
        },
        {
          "indexed": false,
          "internalType": "uint256",
          "name": "id",
          "type": "uint256"
        },
        {
          "indexed": false,
          "internalType": "enum HodlUpHub.Status",
          "name": "status",
          "type": "uint8"
        },
        {
          "indexed": false,
          "internalType": "uint256",
          "name": "date",
          "type": "uint256"
        }
      ],
      "name": "PositionStatusChanged",
      "type": "event"
    },
    {
      "anonymous": false,
      "inputs": [
        {
          "indexed": false,
          "internalType": "address",
          "name": "token",
          "type": "address"
        },
        {
          "indexed": false,
          "internalType": "uint256",
          "name": "amount",
          "type": "uint256"
        },
        {
          "indexed": false,
          "internalType": "uint256",
          "name": "date",
          "type": "uint256"
        }
      ],
      "name": "TokenClaimed",
      "type": "event"
    },
    {
      "inputs": [],
      "name": "depositFee",
      "outputs": [
        {
          "internalType": "uint256",
          "name": "",
          "type": "uint256"
        }
      ],
      "stateMutability": "view",
      "type": "function",
      "constant": true
    },
    {
      "inputs": [
        {
          "internalType": "uint256",
          "name": "",
          "type": "uint256"
        }
      ],
      "name": "intervalsAvailable",
      "outputs": [
        {
          "internalType": "uint256",
          "name": "",
          "type": "uint256"
        }
      ],
      "stateMutability": "view",
      "type": "function",
      "constant": true
    },
    {
      "inputs": [],
      "name": "owner",
      "outputs": [
        {
          "internalType": "address",
          "name": "",
          "type": "address"
        }
      ],
      "stateMutability": "view",
      "type": "function",
      "constant": true
    },
    {
      "inputs": [
        {
          "internalType": "uint256",
          "name": "",
          "type": "uint256"
        }
      ],
      "name": "pairsAvailable",
      "outputs": [
        {
          "internalType": "contract IERC20",
          "name": "token_from",
          "type": "address"
        },
        {
          "internalType": "contract IERC20",
          "name": "token_to",
          "type": "address"
        },
        {
          "internalType": "bool",
          "name": "active",
          "type": "bool"
        }
      ],
      "stateMutability": "view",
      "type": "function",
      "constant": true
    },
    {
      "inputs": [],
      "name": "renounceOwnership",
      "outputs": [],
      "stateMutability": "nonpayable",
      "type": "function"
    },
    {
      "inputs": [],
      "name": "rewardsManager",
      "outputs": [
        {
          "internalType": "contract IHodlUpRewardsManager",
          "name": "",
          "type": "address"
        }
      ],
      "stateMutability": "view",
      "type": "function",
      "constant": true
    },
    {
      "inputs": [],
      "name": "swapFee",
      "outputs": [
        {
          "internalType": "uint256",
          "name": "",
          "type": "uint256"
        }
      ],
      "stateMutability": "view",
      "type": "function",
      "constant": true
    },
    {
      "inputs": [
        {
          "internalType": "address",
          "name": "newOwner",
          "type": "address"
        }
      ],
      "name": "transferOwnership",
      "outputs": [],
      "stateMutability": "nonpayable",
      "type": "function"
    },
    {
      "inputs": [],
      "name": "uniswapRouter",
      "outputs": [
        {
          "internalType": "contract IUniswapV2Router02",
          "name": "",
          "type": "address"
        }
      ],
      "stateMutability": "view",
      "type": "function",
      "constant": true
    },
    {
      "inputs": [
        {
          "internalType": "uint256",
          "name": "",
          "type": "uint256"
        }
      ],
      "name": "userAddresses",
      "outputs": [
        {
          "internalType": "address",
          "name": "",
          "type": "address"
        }
      ],
      "stateMutability": "view",
      "type": "function",
      "constant": true
    },
    {
      "inputs": [],
      "name": "_getAllInputTokenAddresses",
      "outputs": [
        {
          "internalType": "address[]",
          "name": "",
          "type": "address[]"
        }
      ],
      "stateMutability": "view",
      "type": "function",
      "constant": true
    },
    {
      "inputs": [
        {
          "internalType": "address",
          "name": "_token_from",
          "type": "address"
        },
        {
          "internalType": "address",
          "name": "_token_to",
          "type": "address"
        },
        {
          "internalType": "bool",
          "name": "_active",
          "type": "bool"
        }
      ],
      "name": "addPair",
      "outputs": [],
      "stateMutability": "nonpayable",
      "type": "function"
    },
    {
      "inputs": [
        {
          "internalType": "uint256",
          "name": "_interval",
          "type": "uint256"
        }
      ],
      "name": "addInterval",
      "outputs": [],
      "stateMutability": "nonpayable",
      "type": "function"
    },
    {
      "inputs": [
        {
          "internalType": "string",
          "name": "_name",
          "type": "string"
        },
        {
          "components": [
            {
              "internalType": "contract IERC20",
              "name": "token_from",
              "type": "address"
            },
            {
              "internalType": "contract IERC20",
              "name": "token_to",
              "type": "address"
            },
            {
              "internalType": "bool",
              "name": "active",
              "type": "bool"
            }
          ],
          "internalType": "struct HodlUpHub.Pair",
          "name": "_pair",
          "type": "tuple"
        },
        {
          "internalType": "uint256",
          "name": "_totalAmountToSwap",
          "type": "uint256"
        },
        {
          "internalType": "uint256",
          "name": "_interval",
          "type": "uint256"
        },
        {
          "internalType": "uint256",
          "name": "_amountPerSwap",
          "type": "uint256"
        },
        {
          "internalType": "uint256",
          "name": "_dcaIterations",
          "type": "uint256"
        },
        {
          "internalType": "bool",
          "name": "_stacking",
          "type": "bool"
        }
      ],
      "name": "createPosition",
      "outputs": [],
      "stateMutability": "nonpayable",
      "type": "function"
    },
    {
      "inputs": [
        {
          "internalType": "uint256",
          "name": "_positionId",
          "type": "uint256"
        },
        {
          "internalType": "enum HodlUpHub.Status",
          "name": "_status",
          "type": "uint8"
        }
      ],
      "name": "setPositionStatus",
      "outputs": [],
      "stateMutability": "nonpayable",
      "type": "function"
    },
    {
      "inputs": [
        {
          "internalType": "uint256",
          "name": "_positionId",
          "type": "uint256"
        }
      ],
      "name": "closePosition",
      "outputs": [],
      "stateMutability": "nonpayable",
      "type": "function"
    },
    {
      "inputs": [
        {
          "internalType": "uint256",
          "name": "_positionId",
          "type": "uint256"
        }
      ],
      "name": "claimRewards",
      "outputs": [],
      "stateMutability": "nonpayable",
      "type": "function"
    },
    {
      "inputs": [
        {
          "internalType": "uint256",
          "name": "_positionId",
          "type": "uint256"
        }
      ],
      "name": "claimFees",
      "outputs": [],
      "stateMutability": "nonpayable",
      "type": "function"
    },
    {
      "inputs": [
        {
          "internalType": "uint256",
          "name": "_positionId",
          "type": "uint256"
        }
      ],
      "name": "getPosition",
      "outputs": [
        {
          "components": [
            {
              "internalType": "string",
              "name": "name",
              "type": "string"
            },
            {
              "components": [
                {
                  "internalType": "contract IERC20",
                  "name": "token_from",
                  "type": "address"
                },
                {
                  "internalType": "contract IERC20",
                  "name": "token_to",
                  "type": "address"
                },
                {
                  "internalType": "bool",
                  "name": "active",
                  "type": "bool"
                }
              ],
              "internalType": "struct HodlUpHub.Pair",
              "name": "pair",
              "type": "tuple"
            },
            {
              "internalType": "uint256",
              "name": "totalAmountToSwap",
              "type": "uint256"
            },
            {
              "internalType": "uint256",
              "name": "interval",
              "type": "uint256"
            },
            {
              "internalType": "uint256",
              "name": "dcaIterations",
              "type": "uint256"
            },
            {
              "internalType": "uint256",
              "name": "amountPerSwap",
              "type": "uint256"
            },
            {
              "internalType": "uint256",
              "name": "lastPurchaseTimestamp",
              "type": "uint256"
            },
            {
              "internalType": "uint256",
              "name": "createdTimestamp",
              "type": "uint256"
            },
            {
              "internalType": "uint256",
              "name": "SwappedFromBalance",
              "type": "uint256"
            },
            {
              "internalType": "uint256",
              "name": "SwappedToBalance",
              "type": "uint256"
            },
            {
              "internalType": "enum HodlUpHub.Status",
              "name": "status",
              "type": "uint8"
            },
            {
              "internalType": "address",
              "name": "recipient",
              "type": "address"
            },
            {
              "internalType": "bool",
              "name": "stacking",
              "type": "bool"
            },
            {
              "internalType": "enum HodlUpHub.DcaMode",
              "name": "mode",
              "type": "uint8"
            }
          ],
          "internalType": "struct HodlUpHub.Position",
          "name": "",
          "type": "tuple"
        }
      ],
      "stateMutability": "view",
      "type": "function",
      "constant": true
    },
    {
      "inputs": [],
      "name": "executeSwap",
      "outputs": [],
      "stateMutability": "nonpayable",
      "type": "function"
    }
  ],
  "bytecode": "0x60806040523480156200001157600080fd5b5060405162004b0238038062004b028339810160408190526200003491620000eb565b6200003f336200007e565b600380546001600160a01b039586166001600160a01b031991821617909155600980549490951693169290921790925560079190915560085562000133565b600080546001600160a01b038381166001600160a01b0319831681178455604051919092169283917f8be0079c531659141344cd1fd0a4f28419497f9722a3daafe3b4186f6b6457e09190a35050565b80516001600160a01b0381168114620000e657600080fd5b919050565b600080600080608085870312156200010257600080fd5b6200010d85620000ce565b93506200011d60208601620000ce565b6040860151606090960151949790965092505050565b6149bf80620001436000396000f3fe608060405234801561001057600080fd5b506004361061012c5760003560e01c8063735de9f7116100ad578063c46de5f711610071578063c46de5f714610277578063defe20531461028a578063eb02c3011461029d578063f1be589e146102bd578063f2fde38b146102d057600080fd5b8063735de9f71461021a5780638da5cb5b1461022d578063a126d6011461023e578063ac68a74814610251578063c1c7d5b41461026457600080fd5b806354cf2aeb116100f457806354cf2aeb146101bd578063599f5810146101c65780636319eb78146101ce57806367a5279314610209578063715018a61461021257600080fd5b80630962ef791461013157806319ef091b146101445780631e2305e71461015757806344c7c9841461017d578063502c9bd514610192575b600080fd5b61014261013f366004614021565b50565b005b610142610152366004614068565b6102e3565b61016a610165366004614021565b6105b4565b6040519081526020015b60405180910390f35b6101856105d5565b60405161017491906140f7565b6101a56101a0366004614021565b61073c565b6040516001600160a01b039091168152602001610174565b61016a60085481565b610142610766565b6101e16101dc366004614021565b610780565b604080516001600160a01b039485168152939092166020840152151590820152606001610174565b61016a60075481565b6101426107c6565b6003546101a5906001600160a01b031681565b6000546001600160a01b03166101a5565b61014261024c366004614021565b6107d8565b61014261025f366004614021565b610c27565b610142610272366004614021565b610caf565b61014261028536600461410a565b610d76565b6009546101a5906001600160a01b031681565b6102b06102ab366004614021565b610e1d565b60405161017491906141c8565b6101426102cb3660046142f0565b61101f565b6101426102de3660046143ab565b611612565b6102eb611688565b816001600160a01b0316836001600160a01b0316036103635760405162461bcd60e51b815260206004820152602960248201527f496e70757420616e64204f757470757420746f6b656e73206d75737420626520604482015268191a5999995c995b9d60ba1b60648201526084015b60405180910390fd5b61036c836116e2565b6103c85760405162461bcd60e51b815260206004820152602760248201527f496e70757420546f6b656e206973206e6f7420617661696c61626c652e204e6f60448201526620537570706c7960c81b606482015260840161035a565b6103d1826116e2565b61042e5760405162461bcd60e51b815260206004820152602860248201527f4f757470757420546f6b656e206973206e6f7420617661696c61626c652e204e6044820152676f20537570706c7960c01b606482015260840161035a565b6104666040518060600160405280856001600160a01b03168152602001846001600160a01b0316815260200160011515815250611798565b156104a95760405162461bcd60e51b81526020600482015260136024820152725061697220616c72656164792065786973747360681b604482015260640161035a565b60408051606080820183526001600160a01b03868116808452868216602080860182815288151587890190815260018054808201825560009190915297517fb10e2d527612073b26eecdfd717e6a320cf44b4afac2b0732d9fcbe2b7fa0cf6600290990298890180546001600160a01b03191691881691909117905590517fb10e2d527612073b26eecdfd717e6a320cf44b4afac2b0732d9fcbe2b7fa0cf790970180549151979095166001600160a81b031990911617600160a01b961515969096029590951790925584519081529283015242928201929092527fedd4b700a2980a33a301ad39ced5dbc1c98a786ecb28da5bf3926d5165005d1b910160405180910390a1505050565b600281815481106105c457600080fd5b600091825260209091200154905081565b60015460609060009067ffffffffffffffff8111156105f6576105f66143c8565b60405190808252806020026020018201604052801561061f578160200160208202803683370190505b5090506000805b600154811015610734576000805b838110156106b1576001838154811061064f5761064f6143de565b600091825260209091206002909102015485516001600160a01b0390911690869083908110610680576106806143de565b60200260200101516001600160a01b03160361069f57600191506106b1565b806106a98161440a565b915050610634565b508061072157600182815481106106ca576106ca6143de565b600091825260209091206002909102015484516001600160a01b03909116908590859081106106fb576106fb6143de565b6001600160a01b03909216602092830291909101909101528261071d8161440a565b9350505b508061072c8161440a565b915050610626565b508152919050565b6005818154811061074c57600080fd5b6000918252602090912001546001600160a01b0316905081565b61076e611688565b610776611849565b61077e6121ae565b565b6001818154811061079057600080fd5b6000918252602090912060029091020180546001909101546001600160a01b03918216925090811690600160a01b900460ff1683565b6107ce611688565b61077e6000612b67565b3360009081526004602052604090205481106108065760405162461bcd60e51b815260040161035a90614423565b336000908152600460205260408120805483908110610827576108276143de565b90600052602060002090600c0201604051806101c001604052908160008201805461085190614453565b80601f016020809104026020016040519081016040528092919081815260200182805461087d90614453565b80156108ca5780601f1061089f576101008083540402835291602001916108ca565b820191906000526020600020905b8154815290600101906020018083116108ad57829003601f168201915b5050509183525050604080516060808201835260018501546001600160a01b039081168352600286015490811660208481019190915260ff600160a01b90920482161515848601528501929092526003808601549385019390935260048501549084015260058401546080840152600684015460a0840152600784015460c0840152600884015460e08401526009840154610100840152600a840154610120840152600b8401546101409093019216908111156109895761098961418e565b600381111561099a5761099a61418e565b8152600b8201546001600160a01b03610100820416602083015260ff600160a81b8204811615156040840152606090920191600160b01b9091041660018111156109e6576109e661418e565b60018111156109f7576109f761418e565b905250905060038161014001516003811115610a1557610a1561418e565b03610a625760405162461bcd60e51b815260206004820181905260248201527f506f736974696f6e206973204c6f636b65643a206e6f6e20636c6f7361626c65604482015260640161035a565b60008161010001518260400151610a799190614487565b1115610b0d57610aa6816020015160000151338361010001518460400151610aa19190614487565b612bb7565b60208101515161010082015160408301517fcb1e26772e882480176a3e649a5f7937dc0ec3f50126283faf56f927b070be809291610ae391614487565b604080516001600160a01b0390931683526020830191909152429082015260600160405180910390a15b61012081015115610b95576101808101511515600103610b9557610b3f81602001516020015133836101200151612bb7565b602081810151810151610120830151604080516001600160a01b03909316835292820152428183015290517fcb1e26772e882480176a3e649a5f7937dc0ec3f50126283faf56f927b070be809181900360600190a15b33600090815260046020526040902080546002919084908110610bba57610bba6143de565b60009182526020909120600b600c9092020101805460ff19166001836003811115610be757610be761418e565b0217905550610bf63383612c1f565b5060008051602061496a8339815191523383600242604051610c1b94939291906144a0565b60405180910390a15050565b336000908152600460205260409020548110610c555760405162461bcd60e51b815260040161035a90614423565b33600090815260046020526040902080546002919083908110610c7a57610c7a6143de565b60009182526020909120600b600c9092020101805460ff19166001836003811115610ca757610ca761418e565b021790555050565b610cb7611688565b610cc0816130bb565b15610d065760405162461bcd60e51b8152602060048201526016602482015275125b9d195c9d985b08185b1c9958591e48185919195960521b604482015260640161035a565b600280546001810182556000919091527f405787fa12a823e0f2b7631cc41b3ba8828b3321ca811111fa75cd3aa3bb5ace01819055604080518281524260208201527f57cb492e05adb4a4f47294924a582ecb2f196432c96c592d9a24ba793dcda7da910160405180910390a150565b336000908152600460205260409020548210610da45760405162461bcd60e51b815260040161035a90614423565b336000908152600460205260409020805482919084908110610dc857610dc86143de565b60009182526020909120600b600c9092020101805460ff19166001836003811115610df557610df561418e565b021790555060008051602061496a83398151915233838342604051610c1b94939291906144a0565b610e25613f3b565b336000908152600460205260409020805483908110610e4657610e466143de565b90600052602060002090600c0201604051806101c0016040529081600082018054610e7090614453565b80601f0160208091040260200160405190810160405280929190818152602001828054610e9c90614453565b8015610ee95780601f10610ebe57610100808354040283529160200191610ee9565b820191906000526020600020905b815481529060010190602001808311610ecc57829003601f168201915b5050509183525050604080516060808201835260018501546001600160a01b039081168352600286015490811660208481019190915260ff600160a01b90920482161515848601528501929092526003808601549385019390935260048501549084015260058401546080840152600684015460a0840152600784015460c0840152600884015460e08401526009840154610100840152600a840154610120840152600b840154610140909301921690811115610fa857610fa861418e565b6003811115610fb957610fb961418e565b8152600b8201546001600160a01b03610100820416602083015260ff600160a81b8204811615156040840152606090920191600160b01b9091041660018111156110055761100561418e565b60018111156110165761101661418e565b90525092915050565b8661105f5760405162461bcd60e51b815260206004820152601060248201526f1b985b59481b5d5cdd081899481cd95d60821b604482015260640161035a565b6110ae3389898080601f0160208091040260200160405190810160405280939291908181526020018383808284376000920191909152506110a992505050368a90038a018a614504565b613108565b156110fb5760405162461bcd60e51b815260206004820152601c60248201527f506f736974696f6e20697320616c7265616479206578697374696e6700000000604482015260640161035a565b61111261110d36889003880188614504565b611798565b6111535760405162461bcd60e51b815260206004820152601260248201527170616972206e6f7420617661696c61626c6560701b604482015260640161035a565b61115c846130bb565b6111a85760405162461bcd60e51b815260206004820152601c60248201527f7468697320696e74657276616c206973206e6f7420616c6c6f77656400000000604482015260640161035a565b600085116111f05760405162461bcd60e51b81526020600482015260156024820152744e6f20616d6f756e742073657420666f722044434160581b604482015260640161035a565b821580156111fd57508115155b8061121057508215801590611210575081155b6112755760405162461bcd60e51b815260206004820152603060248201527f536574206f6e6c7920616d6f756e74207065722073776170206f72206e756d6260448201526f6572206f6620697465726174696f6e7360801b606482015260840161035a565b6000612710600754876112889190614576565b611292919061458d565b61129c9087614487565b905060008085116112ce57612710846112b58483614576565b6112bf919061458d565b6112c9919061458d565b6112d0565b845b90506112ea6112e260208a018a6143ab565b33308a61345a565b3360009081526004602052604090205461134157600580546001810182556000919091527f036b6384b5eca791c62761152d0c79bb0604c104a5fb6f4eb0703f3154bb3db00180546001600160a01b031916331790555b3360009081526004602090815260409182902082516101e0601f8e01849004909302810183019093526101c083018c81529092918291908e908e90819085018382808284376000920191909152505050908252506020016113a7368c90038c018c614504565b81526020018481526020018881526020018681526020018381526020014281526020014281526020016000815260200160008152602001600060038111156113f1576113f161418e565b815233602082015285151560408201526060018615611411576000611414565b60015b60018111156114255761142561418e565b905281546001810183556000928352602090922081519192600c020190819061144e90826145fd565b506020828101518051600184810180546001600160a01b0319166001600160a01b0393841617905592820151600285018054604094850151929093166001600160a81b031990931692909217600160a01b91151591909102179055830151600380840191909155606084015160048401556080840151600584015560a0840151600684015560c0840151600784015560e084015160088401556101008401516009840155610120840151600a840155610140840151600b840180549193909260ff199092169184908111156115255761152561418e565b0217905550610160820151600b820180546101808501511515600160a81b0260ff60a81b196001600160a01b039094166101000293909316610100600160b01b031990911617919091178082556101a0840151919060ff60b01b1916600160b01b8360018111156115985761159861418e565b021790555050336000818152600460205260409020547f4b82aa16e071a61de1a6b9aeec9edab0356331f8122c78683b469ac8e685dabc92506115dd90600190614487565b604080516001600160a01b0390931683526020830191909152429082015260600160405180910390a150505050505050505050565b61161a611688565b6001600160a01b03811661167f5760405162461bcd60e51b815260206004820152602660248201527f4f776e61626c653a206e6577206f776e657220697320746865207a65726f206160448201526564647265737360d01b606482015260840161035a565b61013f81612b67565b6000546001600160a01b0316331461077e5760405162461bcd60e51b815260206004820181905260248201527f4f776e61626c653a2063616c6c6572206973206e6f7420746865206f776e6572604482015260640161035a565b6000816001600160a01b03166318160ddd6040518163ffffffff1660e01b8152600401602060405180830381865afa92505050801561173e575060408051601f3d908101601f1916820190925261173b918101906146bd565b60015b61177b573d80801561176c576040519150601f19603f3d011682016040523d82523d6000602084013e611771565b606091505b5060009392505050565b801561178a5750600192915050565b50600092915050565b919050565b6000805b60015481101561178a5782600001516001600160a01b0316600182815481106117c7576117c76143de565b60009182526020909120600290910201546001600160a01b0316148015611829575082602001516001600160a01b03166001828154811061180a5761180a6143de565b60009182526020909120600160029092020101546001600160a01b0316145b156118375750600192915050565b806118418161440a565b91505061179c565b60005b60055481101561013f576000600460006005848154811061186f5761186f6143de565b60009182526020808320909101546001600160a01b031683528281019390935260409182018120805483518186028101860190945280845292939092919084015b82821015611a9d57838290600052602060002090600c0201604051806101c00160405290816000820180546118e490614453565b80601f016020809104026020016040519081016040528092919081815260200182805461191090614453565b801561195d5780601f106119325761010080835404028352916020019161195d565b820191906000526020600020905b81548152906001019060200180831161194057829003601f168201915b5050509183525050604080516060808201835260018501546001600160a01b039081168352600286015490811660208481019190915260ff600160a01b90920482161515848601528501929092526003808601549385019390935260048501549084015260058401546080840152600684015460a0840152600784015460c0840152600884015460e08401526009840154610100840152600a840154610120840152600b840154610140909301921690811115611a1c57611a1c61418e565b6003811115611a2d57611a2d61418e565b8152600b8201546001600160a01b03610100820416602083015260ff600160a81b8204811615156040840152606090920191600160b01b909104166001811115611a7957611a7961418e565b6001811115611a8a57611a8a61418e565b81525050815260200190600101906118b0565b50505050905060005b8151811015612199576000828281518110611ac357611ac36143de565b602002602001015161014001516003811115611ae157611ae161418e565b148015611b0d5750818181518110611afb57611afb6143de565b60209081029190910101516101800151155b8015611b5d5750818181518110611b2657611b266143de565b602002602001015160600151828281518110611b4457611b446143de565b602002602001015160c00151611b5a91906146d6565b42115b1561218757818181518110611b7457611b746143de565b60200260200101516101000151828281518110611b9357611b936143de565b602002602001015160400151611ba99190614487565b828281518110611bbb57611bbb6143de565b602002602001015160a001511115611ca65760016004600060058681548110611be657611be66143de565b60009182526020808320909101546001600160a01b031683528201929092526040019020805483908110611c1c57611c1c6143de565b60009182526020909120600b600c9092020101805460ff19166001836003811115611c4957611c4961418e565b021790555060008051602061496a83398151915260058481548110611c7057611c706143de565b600091825260209091200154604051611c99916001600160a01b031690849060019042906144a0565b60405180910390a1612187565b60036004600060058681548110611cbf57611cbf6143de565b60009182526020808320909101546001600160a01b031683528201929092526040019020805483908110611cf557611cf56143de565b60009182526020909120600b600c9092020101805460ff19166001836003811115611d2257611d2261418e565b02179055506000612710600854848481518110611d4157611d416143de565b602002602001015160a00151611d579190614576565b611d61919061458d565b838381518110611d7357611d736143de565b602002602001015160a00151611d899190614487565b90506000611dd3848481518110611da257611da26143de565b60200260200101516020015183868681518110611dc157611dc16143de565b60200260200101516101600151613498565b90506000848481518110611de957611de96143de565b60200260200101516101a001516001811115611e0757611e0761418e565b03611e99576001848481518110611e2057611e206143de565b602002602001015160800151611e369190614487565b6004600060058881548110611e4d57611e4d6143de565b60009182526020808320909101546001600160a01b031683528201929092526040019020805485908110611e8357611e836143de565b90600052602060002090600c0201600501819055505b80848481518110611eac57611eac6143de565b60200260200101516101200151611ec391906146d6565b6004600060058881548110611eda57611eda6143de565b60009182526020808320909101546001600160a01b031683528201929092526040019020805485908110611f1057611f106143de565b90600052602060002090600c0201600a0181905550838381518110611f3757611f376143de565b602002602001015160a00151848481518110611f5557611f556143de565b60200260200101516101000151611f6c91906146d6565b6004600060058881548110611f8357611f836143de565b60009182526020808320909101546001600160a01b031683528201929092526040019020805485908110611fb957611fb96143de565b90600052602060002090600c02016009018190555060006004600060058881548110611fe757611fe76143de565b60009182526020808320909101546001600160a01b03168352820192909252604001902080548590811061201d5761201d6143de565b60009182526020909120600b600c9092020101805460ff1916600183600381111561204a5761204a61418e565b0217905550426004600060058881548110612067576120676143de565b60009182526020808320909101546001600160a01b03168352820192909252604001902080548590811061209d5761209d6143de565b90600052602060002090600c0201600701819055507fd77c8e9038ce2394ee0528e954e75f9693506cd98cc37fc1d0415fd4c49ba23e600586815481106120e6576120e66143de565b9060005260206000200160009054906101000a90046001600160a01b031684868681518110612117576121176143de565b60200260200101516020015160000151878781518110612139576121396143de565b6020026020010151602001516020015188888151811061215b5761215b6143de565b602002602001015160a00151864260405161217c97969594939291906146e9565b60405180910390a150505b806121918161440a565b915050611aa6565b505080806121a69061440a565b91505061184c565b60005b60015481101561013f576000612229600183815481106121d3576121d36143de565b60009182526020918290206040805160608101825260029390930290910180546001600160a01b03908116845260019091015490811693830193909352600160a01b90920460ff1615159181019190915261385b565b905060006127106008548361223e9190614576565b612248919061458d565b6122529083614487565b905060006122c46001858154811061226c5761226c6143de565b60009182526020918290206040805160608101825260029390930290910180546001600160a01b03908116845260019091015490811693830193909352600160a01b90920460ff161515918101919091528330613498565b905060005b600554811015612b5057600060046000600584815481106122ec576122ec6143de565b60009182526020808320909101546001600160a01b031683528281019390935260409182018120805483518186028101860190945280845292939092919084015b8282101561251a57838290600052602060002090600c0201604051806101c001604052908160008201805461236190614453565b80601f016020809104026020016040519081016040528092919081815260200182805461238d90614453565b80156123da5780601f106123af576101008083540402835291602001916123da565b820191906000526020600020905b8154815290600101906020018083116123bd57829003601f168201915b5050509183525050604080516060808201835260018501546001600160a01b039081168352600286015490811660208481019190915260ff600160a01b90920482161515848601528501929092526003808601549385019390935260048501549084015260058401546080840152600684015460a0840152600784015460c0840152600884015460e08401526009840154610100840152600a840154610120840152600b8401546101409093019216908111156124995761249961418e565b60038111156124aa576124aa61418e565b8152600b8201546001600160a01b03610100820416602083015260ff600160a81b8204811615156040840152606090920191600160b01b9091041660018111156124f6576124f661418e565b60018111156125075761250761418e565b815250508152602001906001019061232d565b50505050905060005b8151811015612b3b576003828281518110612540576125406143de565b60200260200101516101400151600381111561255e5761255e61418e565b14801561258d5750818181518110612578576125786143de565b60200260200101516101800151151560011515145b80156125dd57508181815181106125a6576125a66143de565b6020026020010151606001518282815181106125c4576125c46143de565b602002602001015160c001516125da91906146d6565b42115b15612b29578181815181106125f4576125f46143de565b60200260200101516101000151828281518110612613576126136143de565b6020026020010151604001516126299190614487565b82828151811061263b5761263b6143de565b602002602001015160a0015111156127265760016004600060058681548110612666576126666143de565b60009182526020808320909101546001600160a01b03168352820192909252604001902080548390811061269c5761269c6143de565b60009182526020909120600b600c9092020101805460ff191660018360038111156126c9576126c961418e565b021790555060008051602061496a833981519152600584815481106126f0576126f06143de565b600091825260209091200154604051612719916001600160a01b031690849060019042906144a0565b60405180910390a1612b29565b6000612710858885858151811061273f5761273f6143de565b602002602001015160a001516127106127589190614576565b612762919061458d565b61276c9190614576565b612776919061458d565b9050600083838151811061278c5761278c6143de565b60200260200101516101a0015160018111156127aa576127aa61418e565b0361283c5760018383815181106127c3576127c36143de565b6020026020010151608001516127d99190614487565b60046000600587815481106127f0576127f06143de565b60009182526020808320909101546001600160a01b031683528201929092526040019020805484908110612826576128266143de565b90600052602060002090600c0201600501819055505b82828151811061284e5761284e6143de565b602002602001015160a0015183838151811061286c5761286c6143de565b6020026020010151610100015161288391906146d6565b600460006005878154811061289a5761289a6143de565b60009182526020808320909101546001600160a01b0316835282019290925260400190208054849081106128d0576128d06143de565b90600052602060002090600c020160090181905550808383815181106128f8576128f86143de565b6020026020010151610120015161290f91906146d6565b6004600060058781548110612926576129266143de565b60009182526020808320909101546001600160a01b03168352820192909252604001902080548490811061295c5761295c6143de565b90600052602060002090600c0201600a01819055506000600460006005878154811061298a5761298a6143de565b60009182526020808320909101546001600160a01b0316835282019290925260400190208054849081106129c0576129c06143de565b60009182526020909120600b600c9092020101805460ff191660018360038111156129ed576129ed61418e565b0217905550426004600060058781548110612a0a57612a0a6143de565b60009182526020808320909101546001600160a01b031683528201929092526040019020805484908110612a4057612a406143de565b90600052602060002090600c0201600701819055507fd77c8e9038ce2394ee0528e954e75f9693506cd98cc37fc1d0415fd4c49ba23e60058581548110612a8957612a896143de565b9060005260206000200160009054906101000a90046001600160a01b031683858581518110612aba57612aba6143de565b60200260200101516020015160000151868681518110612adc57612adc6143de565b60200260200101516020015160200151878781518110612afe57612afe6143de565b602002602001015160a001518642604051612b1f97969594939291906146e9565b60405180910390a1505b80612b338161440a565b915050612523565b50508080612b489061440a565b9150506122c9565b505050508080612b5f9061440a565b9150506121b1565b600080546001600160a01b038381166001600160a01b0319831681178455604051919092169283917f8be0079c531659141344cd1fd0a4f28419497f9722a3daafe3b4186f6b6457e09190a35050565b6040516001600160a01b038316602482015260448101829052612c1a90849063a9059cbb60e01b906064015b60408051601f198184030181529190526020810180516001600160e01b03166001600160e01b031990931692909217909152613cd9565b505050565b6001600160a01b0382166000908152600460205260408120805460018201919084908110612c4f57612c4f6143de565b6000918252602080832084546001810186559484529220600c91820290920192020180612c7c838261472d565b5060018281015482820180546001600160a01b039283166001600160a01b0319918216179091556002808601805491860180549290941692821683178455546001600160a81b0319909116909117600160a01b9182900460ff90811615159092021790915560038085015481850155600480860154908501556005808601549085015560068086015490850155600780860154908501556008808601549085015560098086015490850155600a8086015490850155600b808601549085018054919093169360ff19909116918490811115612d5957612d5961418e565b0217905550600b828101805491830180546001600160a01b036101009485900416909302610100600160a81b0319841681178255825460ff600160a81b918290048116151590910260ff60a81b19909216610100600160b01b031990951694909417178082559154600160b01b9081900490931692909160ff60b01b191690836001811115612dea57612dea61418e565b021790555050506001600160a01b03831660009081526004602052604090208054612e1790600190614487565b81548110612e2757612e276143de565b90600052602060002090600c020160046000856001600160a01b03166001600160a01b031681526020019081526020016000206000018381548110612e6e57612e6e6143de565b60009182526020909120600c9091020180612e89838261472d565b5060018281015482820180546001600160a01b039283166001600160a01b0319918216179091556002808601805491860180549290941692821683178455546001600160a81b0319909116909117600160a01b9182900460ff90811615159092021790915560038085015481850155600480860154908501556005808601549085015560068086015490850155600780860154908501556008808601549085015560098086015490850155600a8086015490850155600b808601549085018054919093169360ff19909116918490811115612f6657612f6661418e565b0217905550600b828101805491830180546001600160a01b036101009485900416909302610100600160a81b0319841681178255825460ff600160a81b918290048116151590910260ff60a81b19909216610100600160b01b031990951694909417178082559154600160b01b9081900490931692909160ff60b01b191690836001811115612ff757612ff761418e565b021790555050506001600160a01b038316600090815260046020526040902080548061302557613025614808565b60008281526020812060001990920191600c830201906130458282613fd3565b506001810180546001600160a01b03191690556002810180546001600160a81b0319169055600060038201819055600482018190556005820181905560068201819055600782018190556008820181905560098201819055600a820155600b0180546001600160b81b0319169055905592915050565b6000805b60025481101561178a5782600282815481106130dd576130dd6143de565b9060005260206000200154036130f65750600192915050565b806131008161440a565b9150506130bf565b6001600160a01b038316600090815260046020908152604080832080548251818502810185019093528083528493849084015b8282101561332857838290600052602060002090600c0201604051806101c001604052908160008201805461316f90614453565b80601f016020809104026020016040519081016040528092919081815260200182805461319b90614453565b80156131e85780601f106131bd576101008083540402835291602001916131e8565b820191906000526020600020905b8154815290600101906020018083116131cb57829003601f168201915b5050509183525050604080516060808201835260018501546001600160a01b039081168352600286015490811660208481019190915260ff600160a01b90920482161515848601528501929092526003808601549385019390935260048501549084015260058401546080840152600684015460a0840152600784015460c0840152600884015460e08401526009840154610100840152600a840154610120840152600b8401546101409093019216908111156132a7576132a761418e565b60038111156132b8576132b861418e565b8152600b8201546001600160a01b03610100820416602083015260ff600160a81b8204811615156040840152606090920191600160b01b9091041660018111156133045761330461418e565b60018111156133155761331561418e565b815250508152602001906001019061313b565b50505050905060005b815181101561344c5781818151811061334c5761334c6143de565b602002602001015160000151604051602001613368919061481e565b604051602081830303815290604052805190602001208560405160200161338f919061481e565b604051602081830303815290604052805190602001201480156133e857508181815181106133bf576133bf6143de565b602002602001015160200151600001516001600160a01b031684600001516001600160a01b0316145b801561342a5750818181518110613401576134016143de565b602002602001015160200151602001516001600160a01b031684602001516001600160a01b0316145b1561343a57600192505050613453565b806134448161440a565b915050613331565b5060009150505b9392505050565b6040516001600160a01b03808516602483015283166044820152606481018290526134929085906323b872dd60e01b90608401612be3565b50505050565b82516040516370a0823160e01b815230600482015260009184916001600160a01b03909116906370a0823190602401602060405180830381865afa1580156134e4573d6000803e3d6000fd5b505050506040513d601f19601f8201168201806040525081019061350891906146bd565b116135615760405162461bcd60e51b8152602060048201526024808201527f496e73756666696369656e742062616c616e6365206f66206f726967696e205460448201526337b5b2b760e11b606482015260840161035a565b835160035460405163095ea7b360e01b81526001600160a01b0391821660048201526024810186905291169063095ea7b3906044016020604051808303816000875af11580156135b5573d6000803e3d6000fd5b505050506040513d601f19601f820116820180604052508101906135d9919061483a565b506003546040805163c45a015560e01b815290516000926001600160a01b03169163c45a01559160048083019260209291908290030181865afa158015613624573d6000803e3d6000fd5b505050506040513d601f19601f820116820180604052508101906136489190614857565b8551602087015160405163e6a4390560e01b81526001600160a01b039283166004820152908216602482015291169063e6a4390590604401602060405180830381865afa15801561369d573d6000803e3d6000fd5b505050506040513d601f19601f820116820180604052508101906136c19190614857565b90506001600160a01b0381161561381e5760408051600280825260608201835260009260208301908036833701905050905085600001518160008151811061370b5761370b6143de565b60200260200101906001600160a01b031690816001600160a01b031681525050856020015181600181518110613743576137436143de565b6001600160a01b03909216602092830291909101909101528415613813576003546000906001600160a01b03166338ed173987838589613785426107086146d6565b6040518663ffffffff1660e01b81526004016137a5959493929190614874565b6000604051808303816000875af11580156137c4573d6000803e3d6000fd5b505050506040513d6000823e601f3d908101601f191682016040526137ec91908101906148b0565b905080600181518110613801576138016143de565b60200260200101519350505050613453565b600092505050613453565b60405162461bcd60e51b815260206004820152601260248201527114185a5c88191bd95cdb89dd08195e1a5cdd60721b604482015260640161035a565b60008060005b600554811015613cd25760006004600060058481548110613884576138846143de565b60009182526020808320909101546001600160a01b031683528281019390935260409182018120805483518186028101860190945280845292939092919084015b82821015613ab257838290600052602060002090600c0201604051806101c00160405290816000820180546138f990614453565b80601f016020809104026020016040519081016040528092919081815260200182805461392590614453565b80156139725780601f1061394757610100808354040283529160200191613972565b820191906000526020600020905b81548152906001019060200180831161395557829003601f168201915b5050509183525050604080516060808201835260018501546001600160a01b039081168352600286015490811660208481019190915260ff600160a01b90920482161515848601528501929092526003808601549385019390935260048501549084015260058401546080840152600684015460a0840152600784015460c0840152600884015460e08401526009840154610100840152600a840154610120840152600b840154610140909301921690811115613a3157613a3161418e565b6003811115613a4257613a4261418e565b8152600b8201546001600160a01b03610100820416602083015260ff600160a81b8204811615156040840152606090920191600160b01b909104166001811115613a8e57613a8e61418e565b6001811115613a9f57613a9f61418e565b81525050815260200190600101906138c5565b50505050905060005b8151811015613cbd5785600001516001600160a01b0316828281518110613ae457613ae46143de565b602002602001015160200151600001516001600160a01b0316148015613b40575085602001516001600160a01b0316828281518110613b2557613b256143de565b602002602001015160200151602001516001600160a01b0316145b8015613b7b57506000828281518110613b5b57613b5b6143de565b602002602001015161014001516003811115613b7957613b7961418e565b145b8015613ba95750818181518110613b9457613b946143de565b60200260200101516101800151151560011515145b8015613bf95750818181518110613bc257613bc26143de565b602002602001015160600151828281518110613be057613be06143de565b602002602001015160c00151613bf691906146d6565b42115b15613cab57818181518110613c1057613c106143de565b602002602001015160a0015184613c2791906146d6565b935060036004600060058681548110613c4257613c426143de565b60009182526020808320909101546001600160a01b031683528201929092526040019020805483908110613c7857613c786143de565b60009182526020909120600b600c9092020101805460ff19166001836003811115613ca557613ca561418e565b02179055505b80613cb58161440a565b915050613abb565b50508080613cca9061440a565b915050613861565b5092915050565b6000613d2e826040518060400160405280602081526020017f5361666545524332303a206c6f772d6c6576656c2063616c6c206661696c6564815250856001600160a01b0316613dab9092919063ffffffff16565b805190915015612c1a5780806020019051810190613d4c919061483a565b612c1a5760405162461bcd60e51b815260206004820152602a60248201527f5361666545524332303a204552433230206f7065726174696f6e20646964206e6044820152691bdd081cdd58d8d9595960b21b606482015260840161035a565b6060613dba8484600085613dc2565b949350505050565b606082471015613e235760405162461bcd60e51b815260206004820152602660248201527f416464726573733a20696e73756666696369656e742062616c616e636520666f6044820152651c8818d85b1b60d21b606482015260840161035a565b600080866001600160a01b03168587604051613e3f919061481e565b60006040518083038185875af1925050503d8060008114613e7c576040519150601f19603f3d011682016040523d82523d6000602084013e613e81565b606091505b5091509150613e9287838387613e9d565b979650505050505050565b60608315613f0c578251600003613f05576001600160a01b0385163b613f055760405162461bcd60e51b815260206004820152601d60248201527f416464726573733a2063616c6c20746f206e6f6e2d636f6e7472616374000000604482015260640161035a565b5081613dba565b613dba8383815115613f215781518083602001fd5b8060405162461bcd60e51b815260040161035a9190614956565b604080516101c081018252606080825282519081018352600080825260208281018290529382015290918201908152602001600081526020016000815260200160008152602001600081526020016000815260200160008152602001600081526020016000815260200160006003811115613fb857613fb861418e565b81526000602082018190526040820181905260609091015290565b508054613fdf90614453565b6000825580601f10613fef575050565b601f01602090049060005260206000209081019061013f91905b8082111561401d5760008155600101614009565b5090565b60006020828403121561403357600080fd5b5035919050565b6001600160a01b038116811461013f57600080fd5b801515811461013f57600080fd5b80356117938161404f565b60008060006060848603121561407d57600080fd5b83356140888161403a565b925060208401356140988161403a565b915060408401356140a88161404f565b809150509250925092565b600081518084526020808501945080840160005b838110156140ec5781516001600160a01b0316875295820195908201906001016140c7565b509495945050505050565b60208152600061345360208301846140b3565b6000806040838503121561411d57600080fd5b8235915060208301356004811061413357600080fd5b809150509250929050565b60005b83811015614159578181015183820152602001614141565b50506000910152565b6000815180845261417a81602086016020860161413e565b601f01601f19169290920160200192915050565b634e487b7160e01b600052602160045260246000fd5b600481106141b4576141b461418e565b9052565b600281106141b4576141b461418e565b60208152600082516102008060208501526141e7610220850183614162565b9150602085015161421f604086018280516001600160a01b039081168352602080830151909116908301526040908101511515910152565b50604085015160a0850152606085015160c0850152608085015160e085015260a0850151610100818187015260c08701519150610120828188015260e0880151925061014083818901528289015193506101609250838389015281890151935061018091508382890152808901519350506101a061429f818901856141a4565b918801516001600160a01b03166101c088015287015115156101e087015286015190506142ce828601826141b8565b5090949350505050565b6000606082840312156142ea57600080fd5b50919050565b600080600080600080600080610120898b03121561430d57600080fd5b883567ffffffffffffffff8082111561432557600080fd5b818b0191508b601f83011261433957600080fd5b81358181111561434857600080fd5b8c602082850101111561435a57600080fd5b60209283019a509850614371918c91508b016142d8565b95506080890135945060a0890135935060c0890135925060e0890135915061439c6101008a0161405d565b90509295985092959890939650565b6000602082840312156143bd57600080fd5b81356134538161403a565b634e487b7160e01b600052604160045260246000fd5b634e487b7160e01b600052603260045260246000fd5b634e487b7160e01b600052601160045260246000fd5b60006001820161441c5761441c6143f4565b5060010190565b602080825260169082015275141bdcda5d1a5bdb88191bd95cdb89dd08195e1a5cdd60521b604082015260600190565b600181811c9082168061446757607f821691505b6020821081036142ea57634e487b7160e01b600052602260045260246000fd5b8181038181111561449a5761449a6143f4565b92915050565b6001600160a01b038516815260208101849052608081016144c460408301856141a4565b82606083015295945050505050565b604051601f8201601f1916810167ffffffffffffffff811182821017156144fc576144fc6143c8565b604052919050565b60006060828403121561451657600080fd5b6040516060810181811067ffffffffffffffff82111715614539576145396143c8565b60405282356145478161403a565b815260208301356145578161403a565b6020820152604083013561456a8161404f565b60408201529392505050565b808202811582820484141761449a5761449a6143f4565b6000826145aa57634e487b7160e01b600052601260045260246000fd5b500490565b601f821115612c1a57600081815260208120601f850160051c810160208610156145d65750805b601f850160051c820191505b818110156145f5578281556001016145e2565b505050505050565b815167ffffffffffffffff811115614617576146176143c8565b61462b816146258454614453565b846145af565b602080601f83116001811461466057600084156146485750858301515b600019600386901b1c1916600185901b1785556145f5565b600085815260208120601f198616915b8281101561468f57888601518255948401946001909101908401614670565b50858210156146ad5787850151600019600388901b60f8161c191681555b5050505050600190811b01905550565b6000602082840312156146cf57600080fd5b5051919050565b8082018082111561449a5761449a6143f4565b6001600160a01b03978816815260208101969096529386166040860152919094166060840152608083019390935260a082019290925260c081019190915260e00190565b818103614738575050565b6147428254614453565b67ffffffffffffffff81111561475a5761475a6143c8565b614768816146258454614453565b6000601f82116001811461479c57600083156147845750848201545b600019600385901b1c1916600184901b178455614801565b600085815260209020601f19841690600086815260209020845b838110156147d657828601548255600195860195909101906020016147b6565b50858310156147f45781850154600019600388901b60f8161c191681555b50505060018360011b0184555b5050505050565b634e487b7160e01b600052603160045260246000fd5b6000825161483081846020870161413e565b9190910192915050565b60006020828403121561484c57600080fd5b81516134538161404f565b60006020828403121561486957600080fd5b81516134538161403a565b85815284602082015260a06040820152600061489360a08301866140b3565b6001600160a01b0394909416606083015250608001529392505050565b600060208083850312156148c357600080fd5b825167ffffffffffffffff808211156148db57600080fd5b818501915085601f8301126148ef57600080fd5b815181811115614901576149016143c8565b8060051b91506149128483016144d3565b818152918301840191848101908884111561492c57600080fd5b938501935b8385101561494a57845182529385019390850190614931565b98975050505050505050565b602081526000613453602083018461416256fe1ee227ac62b3f06afe9df95df8797497fe7b63f1e4c3cc120f8a333b6f65d196a264697066735822122059222b1bb5bb696892633beac778d6cbc04b821c15c2835e0ab58da5bf119f3d64736f6c63430008120033",
  "immutableReferences": {},
  "source": "// SPDX-License-Identifier: MIT\n\npragma solidity ^0.8.18;\n\nimport '../node_modules/@uniswap/v2-periphery/contracts/interfaces/IUniswapV2Router02.sol';\nimport '../node_modules/@uniswap/v2-core/contracts/interfaces/IUniswapV2Factory.sol';\nimport '../node_modules/@uniswap/v2-core/contracts/interfaces/IUniswapV2Pair.sol';\nimport \"../node_modules/@openzeppelin/contracts/access/Ownable.sol\";\nimport \"../node_modules/@openzeppelin/contracts/token/ERC20/IERC20.sol\";\nimport \"../node_modules/@openzeppelin/contracts/token/ERC20/ERC20.sol\";\nimport \"../node_modules/@openzeppelin/contracts/token/ERC20/utils/SafeERC20.sol\";\nimport \"./interfaces/IHodlUpRewardsManager.sol\";\n//import \"../node_modules/@ganache/console.log/console.sol\";\nusing SafeERC20 for IERC20;\n\n/**\n * @title HodlUpHub contract\n * @dev This contract is used for hodling tokens and executing automated periodic swaps.\n */\ncontract HodlUpHub is Ownable {\n\n    /**\n     * @dev Enum representing the available statuses for a position.\n     * Active: the position is currently being executed\n     * Pause: the position is temporarily paused\n     * Closed: the position has been fully executed and cannot be reopened\n     * Locked: the position is locked for DCA, meaning that the tokens have been swapped but not transferred to the user\n     */\n    enum Status {\n        Active,\n        Pause,\n        Closed,\n        Locked\n    }\n\n    enum DcaMode {\n        Limited,\n        Unlimited\n    }\n\n    Pair[] public pairsAvailable;\n    uint256[] public intervalsAvailable;\n    IUniswapV2Router02 public uniswapRouter;\n\n    struct User {\n        Position[] positions;\n        Position[] closedPositions;\n    }\n\n    struct Pair {\n        IERC20 token_from;\n        IERC20 token_to;\n        bool active;\n    }\n\n    struct Position {\n        string name;\n        Pair pair;\n        uint totalAmountToSwap;\n        uint interval;\n        uint dcaIterations;\n        uint amountPerSwap;\n        uint lastPurchaseTimestamp;\n        uint createdTimestamp;\n        uint SwappedFromBalance;\n        uint SwappedToBalance;  \n        Status status;\n        address recipient;\n        bool stacking;\n        DcaMode mode;\n    }\n\n    mapping(address => User) users;\n    address [] public userAddresses;\n\n    mapping(address => uint) feesBalances;\n\n    // Represents fee percentage taken for deposit. \n    // to avoid rounding errors, we multiply it by 10000. 1% is represented by 100\n    uint public depositFee;\n    uint public swapFee;\n\n    IHodlUpRewardsManager public rewardsManager;\n\n    constructor(address _uniswapRouter, address _rewardManager, uint _depositFee, uint _swapFee) {\n        uniswapRouter = IUniswapV2Router02(_uniswapRouter);\n        rewardsManager = IHodlUpRewardsManager(_rewardManager);\n        depositFee = _depositFee;\n        swapFee = _swapFee;\n    }\n\n    function _userExists(address _userAddress) internal view returns (bool) {\n        return (users[_userAddress].positions.length > 0);\n    }\n\n    // execute DCA for users that has choosen to stack\n    function _executeStakedDCA () internal {\n        for (uint i = 0; i < pairsAvailable.length; i++) {\n            uint totalToSwap = _getTotalToSwap(pairsAvailable[i]);\n            uint totalToSwapAfterFees = totalToSwap - (totalToSwap * swapFee / 10000);\n            uint totalSwapped = _swap(pairsAvailable[i], totalToSwapAfterFees, address(this)) ;\n            for (uint256 j = 0; j < userAddresses.length; j++) {\n                Position[] memory positions = users[userAddresses[j]].positions;\n                for (uint256 k = 0; k < positions.length; k++) {\n                    if (positions[k].status == Status.Locked &&\n                        positions[k].stacking == true &&\n                        block.timestamp > positions[k].lastPurchaseTimestamp + positions[k].interval\n                    ) {\n                        if (positions[k].amountPerSwap > (positions[k].totalAmountToSwap - positions[k].SwappedFromBalance)){\n                            users[userAddresses[j]].positions[k].status = Status.Pause;\n                            emit PositionStatusChanged (userAddresses[j], k, Status.Pause, block.timestamp);  \n                        }\n                        else{\n                            uint amountSwapped = ( ( (positions[k].amountPerSwap * 10000) / totalToSwap ) * totalSwapped) / 10000;\n                            if (positions[k].mode == DcaMode.Limited){\n                                users[userAddresses[j]].positions[k].dcaIterations = positions[k].dcaIterations - 1 ;\n                            }\n                            users[userAddresses[j]].positions[k].SwappedFromBalance = positions[k].SwappedFromBalance + positions[k].amountPerSwap;\n                            users[userAddresses[j]].positions[k].SwappedToBalance = positions[k].SwappedToBalance + amountSwapped;\n                            users[userAddresses[j]].positions[k].status = Status.Active;\n                            users[userAddresses[j]].positions[k].lastPurchaseTimestamp = block.timestamp;\n                            emit DCAExecuted (userAddresses[j], k, address(positions[k].pair.token_from), address(positions[k].pair.token_to), positions[k].amountPerSwap, amountSwapped, block.timestamp);\n                        }\n                     }\n                }\n            }\n            //emit DCAExecuted (userAddresses[i], j, address(positions[j].pair.token_from), address(positions[j].pair.token_to), positions[j].amountPerSwap);\n        }\n    }\n\n    // execute DCA for users that want to get back directly to their wallet\n    function _executeIndividualDCA () internal {\n\n        for (uint256 i = 0; i < userAddresses.length; i++) {\n            Position[] memory positions = users[userAddresses[i]].positions;\n            for (uint256 j = 0; j < positions.length; j++) {\n                if (positions[j].status == Status.Active &&\n                    positions[j].stacking == false &&\n                    block.timestamp > (positions[j].lastPurchaseTimestamp + positions[j].interval)\n                ) {\n                    if (positions[j].amountPerSwap > (positions[j].totalAmountToSwap - positions[j].SwappedFromBalance)){\n                        users[userAddresses[i]].positions[j].status = Status.Pause;\n                        emit PositionStatusChanged (userAddresses[i], j, Status.Pause, block.timestamp);  \n                    }\n                    else{\n                        users[userAddresses[i]].positions[j].status = Status.Locked;\n                        uint amoutPerSwapAfterFees =  positions[j].amountPerSwap - (positions[j].amountPerSwap * swapFee / 10000);\n                        uint resultSwap = _swap( positions[j].pair, amoutPerSwapAfterFees, positions[j].recipient) ;\n                        if (positions[j].mode == DcaMode.Limited){\n                            users[userAddresses[i]].positions[j].dcaIterations = positions[j].dcaIterations - 1 ;\n                        }\n                        users[userAddresses[i]].positions[j].SwappedToBalance = positions[j].SwappedToBalance + resultSwap;\n                        users[userAddresses[i]].positions[j].SwappedFromBalance = positions[j].SwappedFromBalance + positions[j].amountPerSwap;\n                        users[userAddresses[i]].positions[j].status = Status.Active;\n                        users[userAddresses[i]].positions[j].lastPurchaseTimestamp = block.timestamp;\n                        emit DCAExecuted (userAddresses[i], j, address(positions[j].pair.token_from), address(positions[j].pair.token_to), positions[j].amountPerSwap, resultSwap, block.timestamp);\n                    }\n                }\n            }\n        }\n    }\n\n    function _pairExists(Pair memory _pair) internal view returns (bool) {\n        for (uint i = 0; i < pairsAvailable.length; i++) {\n            if (pairsAvailable[i].token_from == _pair.token_from && pairsAvailable[i].token_to == _pair.token_to) {\n                return true;\n            }\n        }\n        return false;\n    }\n\n    function _intervalExists(uint256 interval) internal view returns (bool) {\n        for (uint i = 0; i < intervalsAvailable.length; i++) {\n            if (intervalsAvailable[i]==interval) {\n                return true;\n            }\n        }\n        return false;\n    }\n\n    function _getTotalToSwap(Pair memory _pair) internal returns(uint256) {\n        uint totalToSwap;\n        for (uint256 i = 0; i < userAddresses.length; i++) {\n            Position[] memory positions = users[userAddresses[i]].positions;\n            for (uint256 j = 0; j < positions.length; j++) {\n                if (positions[j].pair.token_from == _pair.token_from &&\n                    positions[j].pair.token_to == _pair.token_to &&\n                    positions[j].status == Status.Active &&\n                    positions[j].stacking == true &&\n                    block.timestamp > positions[j].lastPurchaseTimestamp + positions[j].interval\n                ) {                 \n                    totalToSwap +=  positions[j].amountPerSwap;\n                    users[userAddresses[i]].positions[j].status = Status.Locked;\n                }\n            }\n        }\n        return totalToSwap;\n    }\n\n    function _swap(Pair memory _pair, uint256 _amount, address _receiver) internal returns(uint256) {\n        //require(block.timestamp >= lastSwapTime + swapInterval, \"DCAUniswapV2: Not enough time has passed since the last swap\");\n        require(IERC20(_pair.token_from).balanceOf(address(this)) > _amount, \"Insufficient balance of origin Token\");\n        IERC20(_pair.token_from).approve(address(uniswapRouter), _amount);\n\n        address pair = IUniswapV2Factory(IUniswapV2Router02(uniswapRouter).factory()).getPair(address(_pair.token_from), address(_pair.token_to));\n        if (pair != address(0)){\n\n            address[] memory path = new address[](2);\n            path[0] = address(_pair.token_from);\n            path[1] = address(_pair.token_to);\n\n            if (_amount != 0){\n                    uint[] memory outputAmounts = uniswapRouter.swapExactTokensForTokens(_amount, 0, path, _receiver, block.timestamp + 1800);\n                    return outputAmounts[1];\n            }\n            else{\n                return 0;\n            }\n        }\n        else{\n            revert(\"Pair doesn't exist\");\n        }\n    }\n\n    function _positionExists(address _user, Position memory _position) internal view returns (bool) {\n        Position[] memory positions = users[_user].positions;\n        for (uint256 i = 0; i < positions.length; i++) {\n            if(keccak256(abi.encodePacked(_position.name)) == keccak256(abi.encodePacked(positions[i].name)) &&\n                _position.pair.token_from == positions[i].pair.token_from && _position.pair.token_to == positions[i].pair.token_to) {\n                return true;\n            }\n        }\n        return false;\n    }\n\n    function _positionExists(address _user, string memory _name, Pair memory _pair) internal view returns (bool) {\n        Position[] memory positions = users[_user].positions;\n        for (uint256 i = 0; i < positions.length; i++) {\n            if(keccak256(abi.encodePacked(_name)) == keccak256(abi.encodePacked(positions[i].name)) &&\n                _pair.token_from == positions[i].pair.token_from && _pair.token_to == positions[i].pair.token_to) {\n                return true;\n            }\n        }\n        return false;\n    }\n\n    function _getAllInputTokenAddresses() external view returns (address[] memory) {\n        address[] memory tokenAddresses = new address[](pairsAvailable.length);\n        uint256 distinctTokenCount = 0;\n        \n        for (uint256 i = 0; i < pairsAvailable.length; i++) {\n            // Check if the token_from address has already been added to the list\n            bool exists = false;\n            for (uint256 j = 0; j < distinctTokenCount; j++) {\n                if (tokenAddresses[j] == address(pairsAvailable[i].token_from)) {\n                    exists = true;\n                    break;\n                }\n            }\n            // If token_from has not been added to the list yet, add it\n            if (!exists) {\n                tokenAddresses[distinctTokenCount] = address(pairsAvailable[i].token_from);\n                distinctTokenCount++;\n            }\n        }\n        // Resize the tokenAddresses array to remove any empty elements\n        assembly {\n            mstore(tokenAddresses, distinctTokenCount)\n        } \n        return tokenAddresses;\n    }\n\n    function _checkValidERC20(address tokenAddress) internal view returns (bool) {\n        try IERC20(tokenAddress).totalSupply() returns (uint256 _supply) {\n            if (_supply > 0 ){\n                return true;\n            }\n            return false;\n        } catch (bytes memory) {\n            return false;\n        }\n    }\n\n    function _achivePosition(address _user, uint _positionId) internal returns (bool) {\n        users[_user].closedPositions.push( users[_user].positions[_positionId]);\n        users[_user].positions[_positionId] =  users[_user].positions[users[_user].positions.length - 1];\n        users[_user].positions.pop();\n    }\n\n\n    function addPair(address _token_from, address _token_to, bool _active) external onlyOwner {\n        require(_token_from != _token_to, \"Input and Output tokens must be different\");\n        require(_checkValidERC20(_token_from), \"Input Token is not available. No Supply\");\n        require(_checkValidERC20(_token_to), \"Output Token is not available. No Supply\");\n        require(!_pairExists(Pair(IERC20(_token_from), IERC20(_token_to), true)), \"Pair already exists\");\n        pairsAvailable.push(Pair(IERC20(_token_from), IERC20(_token_to), _active)); \n        emit PairAdded(_token_from, _token_to, block.timestamp);\n    }\n\n    function addInterval(uint256 _interval) external onlyOwner {\n        require(!_intervalExists(_interval), \"Interval already added\");\n        intervalsAvailable.push(_interval); \n        emit IntervalAdded(_interval, block.timestamp);\n    }\n\n    function createPosition(string calldata _name, Pair calldata _pair, uint _totalAmountToSwap, uint _interval, uint _amountPerSwap, uint _dcaIterations, bool _stacking) external {\n        require(bytes(_name).length > 0, \"name must be set\"); \n        require(!_positionExists(msg.sender, _name, _pair), \"Position is already existing\");\n        require(_pairExists(_pair), \"pair not available\");\n        require(_intervalExists(_interval), \"this interval is not allowed\");\n        require(_totalAmountToSwap > 0, \"No amount set for DCA\");\n        require( (_amountPerSwap == 0 && _dcaIterations != 0) || (_amountPerSwap != 0 && _dcaIterations == 0), \"Set only amount per swap or number of iterations\" );\n\n        uint totalToSwapAfterFees = _totalAmountToSwap - (_totalAmountToSwap * depositFee / 10000);\n        uint amountPerSwap = _amountPerSwap > 0 ? _amountPerSwap : ((totalToSwapAfterFees * 10000) / _dcaIterations) / 10000;\n\n        SafeERC20.safeTransferFrom(_pair.token_from, msg.sender, address(this), _totalAmountToSwap);   \n        if (!_userExists(msg.sender)){\n            userAddresses.push(msg.sender);\n        }\n        users[msg.sender].positions.push(Position(_name, _pair, totalToSwapAfterFees, _interval, _dcaIterations, amountPerSwap, block.timestamp, block.timestamp, 0, 0, Status.Active ,msg.sender, _stacking, _dcaIterations == 0 ? DcaMode.Unlimited : DcaMode.Limited ));\n    \n        emit PositionCreated (msg.sender, users[msg.sender].positions.length-1, block.timestamp);  \n    }\n\n    function setPositionStatus(uint _positionId, Status _status) external {\n        require(_positionId < users[msg.sender].positions.length , \"Position doesn't exist\");\n        users[msg.sender].positions[_positionId].status=_status;\n        emit PositionStatusChanged (msg.sender, _positionId, _status, block.timestamp);  \n    }\n\n    function closePosition(uint _positionId) external {\n        require(_positionId < users[msg.sender].positions.length , \"Position doesn't exist\");\n        Position memory positionToClose = users[msg.sender].positions[_positionId];\n        require(positionToClose.status != Status.Locked, \"Position is Locked: non closable\");\n\n        if ( (positionToClose.totalAmountToSwap - positionToClose.SwappedFromBalance) > 0 ) {\n            SafeERC20.safeTransfer(positionToClose.pair.token_from, msg.sender, positionToClose.totalAmountToSwap - positionToClose.SwappedFromBalance);\n            emit TokenClaimed( address (positionToClose.pair.token_from), positionToClose.totalAmountToSwap - positionToClose.SwappedFromBalance, block.timestamp );\n        }\n        if ( (positionToClose.SwappedToBalance) > 0 ) {\n            // swapped token could only be claimed for staking position. not stacking position swap directly to the user wallet.\n            if (positionToClose.stacking == true){\n                SafeERC20.safeTransfer(positionToClose.pair.token_to, msg.sender, positionToClose.SwappedToBalance);\n                emit TokenClaimed( address (positionToClose.pair.token_to), positionToClose.SwappedToBalance, block.timestamp );\n            }\n        }\n        users[msg.sender].positions[_positionId].status = Status.Closed;\n        _achivePosition(msg.sender, _positionId);\n        emit PositionStatusChanged (msg.sender, _positionId, Status.Closed, block.timestamp);  \n    }\n\n    function claimRewards(uint _positionId) external {\n        //require(_positionId < users[msg.sender].positions.length , \"Position doesn't exist\");\n        //users[msg.sender].positions[_positionId].status = Status.Closed;\n    }\n\n    function claimFees(uint _positionId) external {\n        require(_positionId < users[msg.sender].positions.length , \"Position doesn't exist\");\n        users[msg.sender].positions[_positionId].status = Status.Closed;\n        //emit PositionStatusChanged (msg.sender, _positionId, Status.Closed);  \n    }\n\n    function getPosition(uint _positionId) external view returns (Position memory){\n        return users[msg.sender].positions[_positionId];\n    }\n\n    function executeSwap() external onlyOwner{\n        _executeIndividualDCA();\n        _executeStakedDCA();\n    }\n\n    event PairAdded(address token_from, address token_to, uint date);\n    event IntervalAdded(uint256 interval, uint date);\n    event PositionCreated (address sender, uint256 id, uint date);\n    event PositionStatusChanged (address sender, uint256 id, Status status, uint date);\n    event DCAExecuted (address user, uint positionId, address token_from, address token_to, uint amountToSwap, uint amountSwapped, uint date);\n    event TokenClaimed (address token, uint amount, uint date);\n\n}\n\n",
  "sourcePath": "/home/sjouany/ProjetFinal/HodlUp/truffle/contracts/HodlUpHub.sol",
  "compiler": {
    "name": "solc",
    "version": "0.8.18+commit.87f61d96.Emscripten.clang"
  },
  "schemaVersion": "3.4.13",
  "updatedAt": "2023-04-08T13:29:24.307Z",
  "networkType": "ethereum",
  "devdoc": {
    "details": "This contract is used for hodling tokens and executing automated periodic swaps.",
    "kind": "dev",
    "methods": {
      "owner()": {
        "details": "Returns the address of the current owner."
      },
      "renounceOwnership()": {
        "details": "Leaves the contract without owner. It will not be possible to call `onlyOwner` functions anymore. Can only be called by the current owner. NOTE: Renouncing ownership will leave the contract without an owner, thereby removing any functionality that is only available to the owner."
      },
      "transferOwnership(address)": {
        "details": "Transfers ownership of the contract to a new account (`newOwner`). Can only be called by the current owner."
      }
    },
    "title": "HodlUpHub contract",
    "version": 1
  },
  "userdoc": {
    "kind": "user",
    "methods": {},
    "version": 1
  }
}