{
  "contractName": "HodlupManager",
  "abi": [
    {
      "anonymous": false,
      "inputs": [
        {
          "indexed": false,
          "internalType": "string",
          "name": "_name",
          "type": "string"
        },
        {
          "indexed": false,
          "internalType": "address",
          "name": "_contractAddress",
          "type": "address"
        },
        {
          "indexed": false,
          "internalType": "uint256",
          "name": "_timestamp",
          "type": "uint256"
        }
      ],
      "name": "DcaCreated",
      "type": "event"
    },
    {
      "anonymous": false,
      "inputs": [
        {
          "indexed": true,
          "internalType": "address",
          "name": "previousOwner",
          "type": "address"
        },
        {
          "indexed": true,
          "internalType": "address",
          "name": "newOwner",
          "type": "address"
        }
      ],
      "name": "OwnershipTransferred",
      "type": "event"
    },
    {
      "inputs": [
        {
          "internalType": "string",
          "name": "",
          "type": "string"
        }
      ],
      "name": "dcaContracts",
      "outputs": [
        {
          "internalType": "address",
          "name": "",
          "type": "address"
        }
      ],
      "stateMutability": "view",
      "type": "function"
    },
    {
      "inputs": [],
      "name": "owner",
      "outputs": [
        {
          "internalType": "address",
          "name": "",
          "type": "address"
        }
      ],
      "stateMutability": "view",
      "type": "function"
    },
    {
      "inputs": [],
      "name": "renounceOwnership",
      "outputs": [],
      "stateMutability": "nonpayable",
      "type": "function"
    },
    {
      "inputs": [
        {
          "internalType": "address",
          "name": "newOwner",
          "type": "address"
        }
      ],
      "name": "transferOwnership",
      "outputs": [],
      "stateMutability": "nonpayable",
      "type": "function"
    },
    {
      "inputs": [
        {
          "internalType": "string",
          "name": "_name",
          "type": "string"
        },
        {
          "internalType": "address",
          "name": "_tokenFrom",
          "type": "address"
        },
        {
          "internalType": "address",
          "name": "_tokenTo",
          "type": "address"
        },
        {
          "internalType": "address",
          "name": "_uniswapRouter",
          "type": "address"
        },
        {
          "internalType": "uint256",
          "name": "_fee",
          "type": "uint256"
        }
      ],
      "name": "createDcaPaire",
      "outputs": [
        {
          "internalType": "address",
          "name": "dcaContract",
          "type": "address"
        }
      ],
      "stateMutability": "nonpayable",
      "type": "function"
    },
    {
      "inputs": [
        {
          "internalType": "string",
          "name": "contractName",
          "type": "string"
        }
      ],
      "name": "withdrawFees",
      "outputs": [
        {
          "internalType": "uint256",
          "name": "",
          "type": "uint256"
        }
      ],
      "stateMutability": "nonpayable",
      "type": "function"
    },
    {
      "inputs": [],
      "name": "withdrawAllFees",
      "outputs": [
        {
          "internalType": "uint256",
          "name": "totalFees",
          "type": "uint256"
        }
      ],
      "stateMutability": "nonpayable",
      "type": "function"
    },
    {
      "inputs": [
        {
          "internalType": "string",
          "name": "contractName",
          "type": "string"
        }
      ],
      "name": "executeSwap",
      "outputs": [],
      "stateMutability": "nonpayable",
      "type": "function"
    },
    {
      "inputs": [],
      "name": "executeAllSwap",
      "outputs": [],
      "stateMutability": "nonpayable",
      "type": "function"
    }
  ],
  "bytecode": "0x608060405234801561001057600080fd5b5061001a3361001f565b61006f565b600080546001600160a01b038381166001600160a01b0319831681178455604051919092169283917f8be0079c531659141344cd1fd0a4f28419497f9722a3daafe3b4186f6b6457e09190a35050565b6136d78061007e6000396000f3fe608060405234801561001057600080fd5b50600436106100925760003560e01c806392c4b2891161006657806392c4b2891461010357806394ea338714610116578063af236af41461014a578063de55dbbc14610152578063f2fde38b1461015a57600080fd5b80627fedfe146100975780635145b2b4146100bd578063715018a6146100e85780638da5cb5b146100f2575b600080fd5b6100aa6100a53660046107eb565b61016d565b6040519081526020015b60405180910390f35b6100d06100cb36600461083f565b610204565b6040516001600160a01b0390911681526020016100b4565b6100f06103ad565b005b6000546001600160a01b03166100d0565b6100f06101113660046107eb565b6103c1565b6100d06101243660046107eb565b80516020818301810180516001825292820191909301209152546001600160a01b031681565b6100aa610443565b6100f0610533565b6100f06101683660046108b6565b610613565b6000610177610691565b60018260405161018791906108fc565b90815260408051602092819003830181205463d294f09360e01b825291516001600160a01b039092169263d294f0939260048084019382900301816000875af11580156101d8573d6000803e3d6000fd5b505050506040513d601f19601f820116820180604052508101906101fc9190610918565b90505b919050565b600061020e610691565b60008660405160200161022191906108fc565b60405160208183030381529060405280519060200120905060006040518060200161024b9061073b565b6020820181038252601f19601f820116604052509050818151602083016000f59250823b61027857600080fd5b60405163cf756fdf60e01b81526001600160a01b038881166004830152878116602483015286811660448301526064820186905284169063cf756fdf90608401600060405180830381600087803b1580156102d257600080fd5b505af11580156102e6573d6000803e3d6000fd5b50505050826001896040516102fb91906108fc565b90815260405190819003602001902080546001600160a01b03929092166001600160a01b0319909216919091179055600280546001810182556000919091527f405787fa12a823e0f2b7631cc41b3ba8828b3321ca811111fa75cd3aa3bb5ace0161036689826109ba565b507fba2ffa1886908ded7f5c34a05cf9ddb538ac0a72200e97db4b78757b710da55388844260405161039a93929190610a7a565b60405180910390a1505095945050505050565b6103b5610691565b6103bf60006106eb565b565b6103c9610691565b6001816040516103d991906108fc565b9081526040805191829003602001822054630599f58160e41b835290516001600160a01b039091169163599f581091600480830192600092919082900301818387803b15801561042857600080fd5b505af115801561043c573d6000803e3d6000fd5b5050505050565b600061044d610691565b60025460005b8181101561052e5760006002828154811061047057610470610ac5565b90600052602060002001805461048590610931565b80601f01602080910402602001604051908101604052809291908181526020018280546104b190610931565b80156104fe5780601f106104d3576101008083540402835291602001916104fe565b820191906000526020600020905b8154815290600101906020018083116104e157829003601f168201915b5050505050905061050e8161016d565b6105189085610af1565b935050808061052690610b0a565b915050610453565b505090565b61053b610691565b60025460005b8181101561060f5760006002828154811061055e5761055e610ac5565b90600052602060002001805461057390610931565b80601f016020809104026020016040519081016040528092919081815260200182805461059f90610931565b80156105ec5780601f106105c1576101008083540402835291602001916105ec565b820191906000526020600020905b8154815290600101906020018083116105cf57829003601f168201915b505050505090506105fc816103c1565b508061060781610b0a565b915050610541565b5050565b61061b610691565b6001600160a01b0381166106855760405162461bcd60e51b815260206004820152602660248201527f4f776e61626c653a206e6577206f776e657220697320746865207a65726f206160448201526564647265737360d01b60648201526084015b60405180910390fd5b61068e816106eb565b50565b6000546001600160a01b031633146103bf5760405162461bcd60e51b815260206004820181905260248201527f4f776e61626c653a2063616c6c6572206973206e6f7420746865206f776e6572604482015260640161067c565b600080546001600160a01b038381166001600160a01b0319831681178455604051919092169283917f8be0079c531659141344cd1fd0a4f28419497f9722a3daafe3b4186f6b6457e09190a35050565b612b7e80610b2483390190565b634e487b7160e01b600052604160045260246000fd5b600082601f83011261076f57600080fd5b813567ffffffffffffffff8082111561078a5761078a610748565b604051601f8301601f19908116603f011681019082821181831017156107b2576107b2610748565b816040528381528660208588010111156107cb57600080fd5b836020870160208301376000602085830101528094505050505092915050565b6000602082840312156107fd57600080fd5b813567ffffffffffffffff81111561081457600080fd5b6108208482850161075e565b949350505050565b80356001600160a01b03811681146101ff57600080fd5b600080600080600060a0868803121561085757600080fd5b853567ffffffffffffffff81111561086e57600080fd5b61087a8882890161075e565b95505061088960208701610828565b935061089760408701610828565b92506108a560608701610828565b949793965091946080013592915050565b6000602082840312156108c857600080fd5b6108d182610828565b9392505050565b60005b838110156108f35781810151838201526020016108db565b50506000910152565b6000825161090e8184602087016108d8565b9190910192915050565b60006020828403121561092a57600080fd5b5051919050565b600181811c9082168061094557607f821691505b60208210810361096557634e487b7160e01b600052602260045260246000fd5b50919050565b601f8211156109b557600081815260208120601f850160051c810160208610156109925750805b601f850160051c820191505b818110156109b15782815560010161099e565b5050505b505050565b815167ffffffffffffffff8111156109d4576109d4610748565b6109e8816109e28454610931565b8461096b565b602080601f831160018114610a1d5760008415610a055750858301515b600019600386901b1c1916600185901b1785556109b1565b600085815260208120601f198616915b82811015610a4c57888601518255948401946001909101908401610a2d565b5085821015610a6a5787850151600019600388901b60f8161c191681555b5050505050600190811b01905550565b6060815260008451806060840152610a998160808501602089016108d8565b6001600160a01b039490941660208301525060408101919091526080601f909201601f19160101919050565b634e487b7160e01b600052603260045260246000fd5b634e487b7160e01b600052601160045260246000fd5b80820180821115610b0457610b04610adb565b92915050565b600060018201610b1c57610b1c610adb565b506001019056fe608060405234801561001057600080fd5b5061001a3361001f565b61006f565b600080546001600160a01b038381166001600160a01b0319831681178455604051919092169283917f8be0079c531659141344cd1fd0a4f28419497f9722a3daafe3b4186f6b6457e09190a35050565b612aff806200007f6000396000f3fe608060405234801561001057600080fd5b50600436106100b45760003560e01c80639c89bb3d116100715780639c89bb3d14610147578063cf756fdf1461015a578063d294f0931461016d578063d2ad500314610175578063d816b20414610188578063f2fde38b1461019b57600080fd5b806310fb6fc1146100b9578063502c9bd5146100e257806354cf2aeb1461010d578063599f581014610124578063715018a61461012e5780638da5cb5b14610136575b600080fd5b6100cc6100c736600461225f565b6101ae565b6040516100d9919061232b565b60405180910390f35b6100f56100f03660046123f1565b61035b565b6040516001600160a01b0390911681526020016100d9565b61011660075481565b6040519081526020016100d9565b61012c610385565b005b61012c610397565b6000546001600160a01b03166100f5565b61012c61015536600461225f565b6103a9565b61012c610168366004612426565b6103fb565b6101166104a9565b61012c610183366004612471565b6105c7565b61012c6101963660046124cc565b6106b8565b61012c6101a936600461252e565b610bbb565b6101b6612156565b336000908152600460205260409081902090516101d69085908590612550565b90815260200160405180910390206040518061018001604052908160008201805461020090612560565b80601f016020809104026020016040519081016040528092919081815260200182805461022c90612560565b80156102795780601f1061024e57610100808354040283529160200191610279565b820191906000526020600020905b81548152906001019060200180831161025c57829003601f168201915b50505091835250506001820154602082015260028201546040820152600380830154606083015260048301546080830152600583015460a0830152600683015460c0830152600783015460e0830152600883015461010083015260098301546101209092019160ff16908111156102f2576102f26122f1565b6003811115610303576103036122f1565b8152600982015461010081046001600160a01b03166020830152604090910190600160a81b900460ff16600181111561033e5761033e6122f1565b600181111561034f5761034f6122f1565b90525090505b92915050565b6005818154811061036b57600080fd5b6000918252602090912001546001600160a01b0316905081565b61038d610c34565b610395610c8e565b565b61039f610c34565b6103956000611531565b81818080601f0160208091040260200160405190810160405280939291908181526020018383808284376000920191909152506103eb92508391506115819050565b6103f63384846115f6565b505050565b6001546001600160a01b0316156104675760405162461bcd60e51b815260206004820152602560248201527f436f6e74726163742068617320616c7265616479206265656e20696e697469616044820152641b1a5e995960da1b60648201526084015b60405180910390fd5b600180546001600160a01b03199081166001600160a01b0396871617909155600280548216948616949094179093556003805490931691909316179055600755565b60006104b3610c34565b506001546001600160a01b0316600081815260066020526040908190205490516370a0823160e01b8152306004820152909182916370a0823190602401602060405180830381865afa15801561050d573d6000803e3d6000fd5b505050506040513d601f19601f82011682018060405250810190610531919061259a565b1061056b5760015461054d906001600160a01b03163383611b26565b6001546001600160a01b031660009081526006602052604081205590565b60405162461bcd60e51b815260206004820152602b60248201527f4e6f2073756666696369656e742066756e6473206f6e20636f6e74726163742060448201526a746f20676574206665657360a81b606482015260840161045e565b82828080601f01602080910402602001604051908101604052809392919081815260200183838082843760009201919091525061060992508391506115819050565b3360009081526004602052604090819020905183919061062c9087908790612550565b908152604051908190036020019020600901805460ff19166001836003811115610658576106586122f1565b02179055506001805460025460405133937f0aeed090124458b07ced6994263a843236db56546c55434529a62a575818833f936106aa936001600160a01b03918216939116918a918a919042906125dc565b60405180910390a250505050565b846106f85760405162461bcd60e51b815260206004820152601060248201526f1b985b59481b5d5cdd081899481cd95d60821b604482015260640161045e565b336000908152600460205260409081902090516107189088908890612550565b9081526020016040518091039020600601546000146107795760405162461bcd60e51b815260206004820152601c60248201527f506f736974696f6e20697320616c7265616479206578697374696e6700000000604482015260640161045e565b60038310156107ca5760405162461bcd60e51b815260206004820152601c60248201527f7468697320696e74657276616c206973206e6f7420616c6c6f77656400000000604482015260640161045e565b600084116108125760405162461bcd60e51b81526020600482015260156024820152744e6f20616d6f756e742073657420666f722044434160581b604482015260640161045e565b8115801561081f57508015155b8061083257508115801590610832575080155b6108975760405162461bcd60e51b815260206004820152603060248201527f536574206f6e6c7920616d6f756e74207065722073776170206f72206e756d6260448201526f6572206f6620697465726174696f6e7360801b606482015260840161045e565b6108d56040518060400160405280601f81526020017f706f757575757575757575757575757575757575657421212121212121212100815250611b89565b600080831161090557612710826108ec878361263f565b6108f69190612656565b6109009190612656565b610907565b825b905061091233611bcc565b61095957600580546001810182556000919091527f036b6384b5eca791c62761152d0c79bb0604c104a5fb6f4eb0703f3154bb3db00180546001600160a01b031916331790555b60405180610180016040528088888080601f0160208091040260200160405190810160405280939291908181526020018383808284376000920182905250938552505050602082018890526040820187905260608201859052608082018490524260a0830181905260c083015260e082018190526101008201819052610120820152336101408201526101600183156109f35760006109f6565b60015b6001811115610a0757610a076122f1565b905233600090815260046020526040908190209051610a29908a908a90612550565b90815260405190819003602001902081518190610a4690826126f1565b506020820151816001015560408201518160020155606082015181600301556080820151816004015560a0820151816005015560c0820151816006015560e0820151816007015561010082015181600801556101208201518160090160006101000a81548160ff02191690836003811115610ac357610ac36122f1565b02179055506101408201516009820180546001600160a01b0390921661010002610100600160a81b03198316811782556101608501519260ff60a81b19909116610100600160b01b031990911617600160a81b836001811115610b2857610b286122f1565b021790555050336000908152600460209081526040822060019081018054918201815583529120019050610b5d8789836127ab565b5060015460025460405133927f2c7b57ffa9ff86280c81f437c215c7efeb16c055c6ea6e9b892af17cb10f9bcf92610baa926001600160a01b0392831692909116908c908c904290612866565b60405180910390a250505050505050565b610bc3610c34565b6001600160a01b038116610c285760405162461bcd60e51b815260206004820152602660248201527f4f776e61626c653a206e6577206f776e657220697320746865207a65726f206160448201526564647265737360d01b606482015260840161045e565b610c3181611531565b50565b6000546001600160a01b031633146103955760405162461bcd60e51b815260206004820181905260248201527f4f776e61626c653a2063616c6c6572206973206e6f7420746865206f776e6572604482015260640161045e565b60005b600554811015610c315760006004600060058481548110610cb457610cb46128a5565b60009182526020808320909101546001600160a01b0316835282019290925260400181206001015491505b8181101561151c5760006004600060058681548110610d0057610d006128a5565b60009182526020808320909101546001600160a01b031683528201929092526040019020600101805483908110610d3957610d396128a5565b906000526020600020018054610d4e90612560565b80601f0160208091040260200160405190810160405280929190818152602001828054610d7a90612560565b8015610dc75780601f10610d9c57610100808354040283529160200191610dc7565b820191906000526020600020905b815481529060010190602001808311610daa57829003601f168201915b5050505050905060006004600060058781548110610de757610de76128a5565b60009182526020808320909101546001600160a01b0316835282019290925260409081019091209051610e1b9084906128bb565b908152602001604051809103902060405180610180016040529081600082018054610e4590612560565b80601f0160208091040260200160405190810160405280929190818152602001828054610e7190612560565b8015610ebe5780601f10610e9357610100808354040283529160200191610ebe565b820191906000526020600020905b815481529060010190602001808311610ea157829003601f168201915b50505091835250506001820154602082015260028201546040820152600380830154606083015260048301546080830152600583015460a0830152600683015460c0830152600783015460e0830152600883015461010083015260098301546101209092019160ff1690811115610f3757610f376122f1565b6003811115610f4857610f486122f1565b8152600982015461010081046001600160a01b03166020830152604090910190600160a81b900460ff166001811115610f8357610f836122f1565b6001811115610f9457610f946122f1565b905250905060008161012001516003811115610fb257610fb26122f1565b148015610fd1575080604001518160a00151610fce91906128d7565b42115b15611507578060e001518160200151610fea91906128ea565b816080015111156110ec576001600460006005888154811061100e5761100e6128a5565b60009182526020808320909101546001600160a01b03168352820192909252604090810190912090516110429085906128bb565b908152604051908190036020019020600901805460ff1916600183600381111561106e5761106e6122f1565b021790555060058581548110611086576110866128a5565b600091825260209091200154600180546002546040516001600160a01b03948516947f0aeed090124458b07ced6994263a843236db56546c55434529a62a575818833f946110df948216939091169188919042906128fd565b60405180910390a2611507565b60036004600060058881548110611105576111056128a5565b60009182526020808320909101546001600160a01b03168352820192909252604090810190912090516111399085906128bb565b908152604051908190036020019020600901805460ff19166001836003811115611165576111656122f1565b0217905550600154600580546111b4926001600160a01b0316919088908110611190576111906128a5565b60009182526020909120015460808401516001600160a01b03909116903090611c11565b600061271060075483608001516111cb919061263f565b6111d59190612656565b905060008183608001516111e991906128ea565b905060006111fc82856101400151611c4f565b6001546001600160a01b031660009081526006602052604081208054929350859290919061122b9084906128d7565b9091555060009050846101600151600181111561124a5761124a6122f1565b036112c25760016004600060058b81548110611268576112686128a5565b60009182526020808320909101546001600160a01b031683528201929092526040908101909120905161129c9088906128bb565b908152602001604051809103902060030160008282546112bc91906128ea565b90915550505b806004600060058b815481106112da576112da6128a5565b60009182526020808320909101546001600160a01b031683528201929092526040908101909120905161130e9088906128bb565b9081526020016040518091039020600801600082825461132e91906128d7565b9250508190555083608001516004600060058b81548110611351576113516128a5565b60009182526020808320909101546001600160a01b03168352820192909252604090810190912090516113859088906128bb565b908152602001604051809103902060070160008282546113a591906128d7565b9250508190555060006004600060058b815481106113c5576113c56128a5565b60009182526020808320909101546001600160a01b03168352820192909252604090810190912090516113f99088906128bb565b908152604051908190036020019020600901805460ff19166001836003811115611425576114256122f1565b0217905550426004600060058b81548110611442576114426128a5565b60009182526020808320909101546001600160a01b03168352820192909252604090810190912090516114769088906128bb565b9081526020016040518091039020600501819055507fb59d2884dc4704cee22474623144a36d0c59d281b8eb5a128761e01325691393600589815481106114bf576114bf6128a5565b60009182526020909120015460015460025460808801516040516114fb946001600160a01b03908116948c949082169391169188904290612948565b60405180910390a15050505b5050808061151490612998565b915050610cdf565b5050808061152990612998565b915050610c91565b600080546001600160a01b038381166001600160a01b0319831681178455604051919092169283917f8be0079c531659141344cd1fd0a4f28419497f9722a3daafe3b4186f6b6457e09190a35050565b33600090815260046020526040808220905161159e9084906128bb565b90815260200160405180910390206006015411610c315760405162461bcd60e51b8152602060048201526016602482015275141bdcda5d1a5bdb88191bd95cdb89dd08195e1a5cdd60521b604482015260640161045e565b6001600160a01b038316600090815260046020526040908190209051600291906116239085908590612550565b908152604051908190036020019020600901805460ff1916600183600381111561164f5761164f6122f1565b02179055506001600160a01b03831660009081526004602090815260408220600301805460018101825590835291200161168a8284836127ab565b506001600160a01b0383166000908152600460205260409081902090516116b49084908490612550565b908152602001604051809103902060046000856001600160a01b03166001600160a01b0316815260200190815260200160002060020183836040516116fa929190612550565b9081526040519081900360200190208061171483826129b1565b5060018201548160010155600282015481600201556003820154816003015560048201548160040155600582015481600501556006820154816006015560078201548160070155600882015481600801556009820160009054906101000a900460ff168160090160006101000a81548160ff0219169083600381111561179c5761179c6122f1565b02179055506009828101805491830180546001600160a01b036101009485900416909302610100600160a81b0319841681178255915460ff600160a81b918290041693919260ff60a81b1916610100600160b01b0319909216919091179083600181111561180c5761180c6122f1565b021790555050506001600160a01b03831660009081526004602052604090819020905161183c9084908490612550565b908152604051908190036020019020600061185782826121c8565b50600060018281018290556002830182905560038301829055600480840183905560058401839055600684018390556007840183905560088401839055600990930180546001600160b01b03191690556001600160a01b03861682526020929092526040812090910154905b81811015611ad5576001600160a01b03851660009081526004602052604081206001018054839081106118f8576118f86128a5565b90600052602060002001805461190d90612560565b80601f016020809104026020016040519081016040528092919081815260200182805461193990612560565b80156119865780601f1061195b57610100808354040283529160200191611986565b820191906000526020600020905b81548152906001019060200180831161196957829003601f168201915b505050505090508060405160200161199e91906128bb565b6040516020818303038152906040528051906020012085856040516020016119c7929190612550565b6040516020818303038152906040528051906020012003611ac2576001600160a01b0386166000908152600460205260409020600190810190611a0a90856128ea565b81548110611a1a57611a1a6128a5565b9060005260206000200160046000886001600160a01b03166001600160a01b031681526020019081526020016000206001018381548110611a5d57611a5d6128a5565b906000526020600020019081611a7391906129b1565b506001600160a01b0386166000908152600460205260409020600101805480611a9e57611a9e612a7e565b600190038181906000526020600020016000611aba91906121c8565b905550611ad5565b5080611acd81612998565b9150506118c3565b50600154600280546040516001600160a01b03888116947f0aeed090124458b07ced6994263a843236db56546c55434529a62a575818833f946106aa949183169392909116918991899142906125dc565b6040516001600160a01b0383166024820152604481018290526103f690849063a9059cbb60e01b906064015b60408051601f198184030181529190526020810180516001600160e01b03166001600160e01b031990931692909217909152611ed2565b610c3181604051602401611b9d9190612a94565b60408051601f198184030181529190526020810180516001600160e01b031663104c13eb60e21b179052611fa4565b6001600160a01b0381166000908152600460205260408120600101541515806103555750506001600160a01b0316600090815260046020526040902060030154151590565b6040516001600160a01b0380851660248301528316604482015260648101829052611c499085906323b872dd60e01b90608401611b52565b50505050565b6001546040516370a0823160e01b815230600482015260009184916001600160a01b03909116906370a0823190602401602060405180830381865afa158015611c9c573d6000803e3d6000fd5b505050506040513d601f19601f82011682018060405250810190611cc0919061259a565b11611d195760405162461bcd60e51b8152602060048201526024808201527f496e73756666696369656e742062616c616e6365206f66206f726967696e205460448201526337b5b2b760e11b606482015260840161045e565b60015460035460405163095ea7b360e01b81526001600160a01b0391821660048201526024810186905291169063095ea7b3906044016020604051808303816000875af1158015611d6e573d6000803e3d6000fd5b505050506040513d601f19601f82011682018060405250810190611d929190612aa7565b5060408051610100810182526001546001600160a01b03908116825260025481166020830152610bb892820192909252908316606082015260009060808101611ddd426107086128d7565b81526020810186905260006040820181905260609091015290508315611ec8576003546040805163414bf38960e01b815283516001600160a01b0390811660048301526020850151811660248301529184015162ffffff1660448201526060840151821660648201526080840151608482015260a084015160a482015260c084015160c482015260e0840151821660e482015291169063414bf38990610104016020604051808303816000875af1158015611e9c573d6000803e3d6000fd5b505050506040513d601f19601f82011682018060405250810190611ec0919061259a565b915050610355565b6000915050610355565b6000611f27826040518060400160405280602081526020017f5361666545524332303a206c6f772d6c6576656c2063616c6c206661696c6564815250856001600160a01b0316611fc69092919063ffffffff16565b8051909150156103f65780806020019051810190611f459190612aa7565b6103f65760405162461bcd60e51b815260206004820152602a60248201527f5361666545524332303a204552433230206f7065726174696f6e20646964206e6044820152691bdd081cdd58d8d9595960b21b606482015260840161045e565b80516a636f6e736f6c652e6c6f6790602083016000808383865afa5050505050565b6060611fd58484600085611fdd565b949350505050565b60608247101561203e5760405162461bcd60e51b815260206004820152602660248201527f416464726573733a20696e73756666696369656e742062616c616e636520666f6044820152651c8818d85b1b60d21b606482015260840161045e565b600080866001600160a01b0316858760405161205a91906128bb565b60006040518083038185875af1925050503d8060008114612097576040519150601f19603f3d011682016040523d82523d6000602084013e61209c565b606091505b50915091506120ad878383876120b8565b979650505050505050565b60608315612127578251600003612120576001600160a01b0385163b6121205760405162461bcd60e51b815260206004820152601d60248201527f416464726573733a2063616c6c20746f206e6f6e2d636f6e7472616374000000604482015260640161045e565b5081611fd5565b611fd5838381511561213c5781518083602001fd5b8060405162461bcd60e51b815260040161045e9190612a94565b604051806101800160405280606081526020016000815260200160008152602001600081526020016000815260200160008152602001600081526020016000815260200160008152602001600060038111156121b4576121b46122f1565b815260006020820181905260409091015290565b5080546121d490612560565b6000825580601f106121e4575050565b601f016020900490600052602060002090810190610c3191905b8082111561221257600081556001016121fe565b5090565b60008083601f84011261222857600080fd5b50813567ffffffffffffffff81111561224057600080fd5b60208301915083602082850101111561225857600080fd5b9250929050565b6000806020838503121561227257600080fd5b823567ffffffffffffffff81111561228957600080fd5b61229585828601612216565b90969095509350505050565b60005b838110156122bc5781810151838201526020016122a4565b50506000910152565b600081518084526122dd8160208601602086016122a1565b601f01601f19169290920160200192915050565b634e487b7160e01b600052602160045260246000fd5b60048110612317576123176122f1565b9052565b60028110612317576123176122f1565b602081526000825161018080602085015261234a6101a08501836122c5565b9150602085015160408501526040850151606085015260608501516080850152608085015160a085015260a085015160c085015260c085015160e085015260e08501516101008181870152808701519150506101208181870152808701519150506101406123ba81870183612307565b86015190506101606123d6868201836001600160a01b03169052565b86015190506123e78583018261231b565b5090949350505050565b60006020828403121561240357600080fd5b5035919050565b80356001600160a01b038116811461242157600080fd5b919050565b6000806000806080858703121561243c57600080fd5b6124458561240a565b93506124536020860161240a565b92506124616040860161240a565b9396929550929360600135925050565b60008060006040848603121561248657600080fd5b833567ffffffffffffffff81111561249d57600080fd5b6124a986828701612216565b9094509250506020840135600481106124c157600080fd5b809150509250925092565b60008060008060008060a087890312156124e557600080fd5b863567ffffffffffffffff8111156124fc57600080fd5b61250889828a01612216565b909a90995060208901359860408101359850606081013597506080013595509350505050565b60006020828403121561254057600080fd5b6125498261240a565b9392505050565b8183823760009101908152919050565b600181811c9082168061257457607f821691505b60208210810361259457634e487b7160e01b600052602260045260246000fd5b50919050565b6000602082840312156125ac57600080fd5b5051919050565b81835281816020850137506000828201602090810191909152601f909101601f19169091010190565b6001600160a01b0387811682528616602082015260a06040820181905260009061260990830186886125b3565b90506126186060830185612307565b826080830152979650505050505050565b634e487b7160e01b600052601160045260246000fd5b808202811582820484141761035557610355612629565b60008261267357634e487b7160e01b600052601260045260246000fd5b500490565b634e487b7160e01b600052604160045260246000fd5b601f8211156103f657600081815260208120601f850160051c810160208610156126b55750805b601f850160051c820191505b818110156126d4578281556001016126c1565b505050505050565b600019600383901b1c191660019190911b1790565b815167ffffffffffffffff81111561270b5761270b612678565b61271f816127198454612560565b8461268e565b602080601f83116001811461274e576000841561273c5750858301515b61274685826126dc565b8655506126d4565b600085815260208120601f198616915b8281101561277d5788860151825594840194600190910190840161275e565b508582101561279b5787850151600019600388901b60f8161c191681555b5050505050600190811b01905550565b67ffffffffffffffff8311156127c3576127c3612678565b6127d7836127d18354612560565b8361268e565b6000601f84116001811461280557600085156127f35750838201355b6127fd86826126dc565b84555061285f565b600083815260209020601f19861690835b828110156128365786850135825560209485019460019092019101612816565b50868210156128535760001960f88860031b161c19848701351681555b505060018560011b0183555b5050505050565b6001600160a01b0386811682528516602082015260806040820181905260009061289390830185876125b3565b90508260608301529695505050505050565b634e487b7160e01b600052603260045260246000fd5b600082516128cd8184602087016122a1565b9190910192915050565b8082018082111561035557610355612629565b8181038181111561035557610355612629565b6001600160a01b0386811682528516602082015260a060408201819052600090612929908301866122c5565b90506129386060830185612307565b8260808301529695505050505050565b600060018060a01b03808a16835260e0602084015261296a60e084018a6122c5565b9781166040840152959095166060820152608081019390935260a083019190915260c0909101525092915050565b6000600182016129aa576129aa612629565b5060010190565b8181036129bc575050565b6129c68254612560565b67ffffffffffffffff8111156129de576129de612678565b6129ec816127198454612560565b6000601f821160018114612a1a5760008315612a085750848201545b612a1284826126dc565b85555061285f565b600085815260209020601f19841690600086815260209020845b83811015612a545782860154825560019586019590910190602001612a34565b508583101561279b5793015460001960f8600387901b161c19169092555050600190811b01905550565b634e487b7160e01b600052603160045260246000fd5b60208152600061254960208301846122c5565b600060208284031215612ab957600080fd5b8151801515811461254957600080fdfea26469706673582212203faffebac722745757ddf8d16de095461364e6906a4439d1cd177e7d4b81668664736f6c63430008120033a26469706673582212209f8f252e99840978215107e23ed161f29659cafa6ffed12c0c10d3685d9988ca64736f6c63430008120033",
  "immutableReferences": {},
  "source": "// SPDX-License-Identifier: MIT\n\npragma solidity ^0.8.18;\n\nimport \"./DcaHodlup.sol\";\nimport \"../node_modules/@openzeppelin/contracts/access/Ownable.sol\";\n\ncontract HodlupManager is Ownable {\n    mapping(string => address) public dcaContracts;\n    string[] dcaContractsNames;\n\n    event DcaCreated(string _name, address _contractAddress, uint256 _timestamp);\n\n    function createDcaPaire(string memory _name, address _tokenFrom, address _tokenTo, address _uniswapRouter, uint256 _fee)\n        external\n        onlyOwner\n        returns (address dcaContract)\n    {\n        bytes32 salt = keccak256(abi.encodePacked(_name));\n        bytes memory bytecode = type(DcaHodlup).creationCode;\n\n        assembly {\n            dcaContract := create2(0, add(bytecode, 0x20), mload(bytecode), salt)\n            if iszero(extcodesize(dcaContract)) { revert(0, 0) }\n        }\n\n        DcaHodlup(dcaContract).initialize(_tokenFrom, _tokenTo, _uniswapRouter, _fee);\n\n        dcaContracts[_name] = dcaContract;\n        dcaContractsNames.push(_name);\n        emit DcaCreated(_name, dcaContract, block.timestamp);\n    }\n\n    function withdrawFees(string memory contractName) public onlyOwner returns (uint256) {\n        return DcaHodlup(dcaContracts[contractName]).claimFees();\n    }\n\n    function withdrawAllFees() external onlyOwner returns (uint256 totalFees) {\n        uint256 dcaContNamesLength = dcaContractsNames.length;\n        for (uint256 j = 0; j < dcaContNamesLength; j++) {\n            string memory name = dcaContractsNames[j];\n            totalFees = totalFees + withdrawFees(name);\n        }\n    }\n\n    function executeSwap(string memory contractName) public onlyOwner {\n        DcaHodlup(dcaContracts[contractName]).executeSwap();\n    }\n\n    \n    function executeAllSwap() public onlyOwner {\n        uint256 dcaContNamesLength = dcaContractsNames.length;\n        for (uint256 j = 0; j < dcaContNamesLength; j++) {\n            string memory name = dcaContractsNames[j];\n            executeSwap(name);\n        }\n    }\n\n\n    /// implementer le swap pour un contrat\n    // le swap compter les positions\n}\n",
  "sourcePath": "/home/sjouany/ProjetFinal/HodlUp/truffle/contracts/HodlupManager.sol",
  "compiler": {
    "name": "solc",
    "version": "0.8.18+commit.87f61d96.Emscripten.clang"
  },
  "schemaVersion": "3.4.13",
  "updatedAt": "2023-08-02T22:39:05.912Z",
  "devdoc": {
    "kind": "dev",
    "methods": {
      "owner()": {
        "details": "Returns the address of the current owner."
      },
      "renounceOwnership()": {
        "details": "Leaves the contract without owner. It will not be possible to call `onlyOwner` functions anymore. Can only be called by the current owner. NOTE: Renouncing ownership will leave the contract without an owner, thereby removing any functionality that is only available to the owner."
      },
      "transferOwnership(address)": {
        "details": "Transfers ownership of the contract to a new account (`newOwner`). Can only be called by the current owner."
      }
    },
    "version": 1
  },
  "userdoc": {
    "kind": "user",
    "methods": {},
    "version": 1
  }
}