{
  "contractName": "HodlUpHub",
  "abi": [
    {
      "inputs": [
        {
          "internalType": "address",
          "name": "_uniswapRouter",
          "type": "address"
        },
        {
          "internalType": "address",
          "name": "_rewardManager",
          "type": "address"
        },
        {
          "internalType": "uint256",
          "name": "_depositFee",
          "type": "uint256"
        },
        {
          "internalType": "uint256",
          "name": "_swapFee",
          "type": "uint256"
        }
      ],
      "stateMutability": "nonpayable",
      "type": "constructor"
    },
    {
      "anonymous": false,
      "inputs": [
        {
          "indexed": false,
          "internalType": "address",
          "name": "user",
          "type": "address"
        },
        {
          "indexed": false,
          "internalType": "uint256",
          "name": "positionId",
          "type": "uint256"
        },
        {
          "indexed": false,
          "internalType": "address",
          "name": "token_from",
          "type": "address"
        },
        {
          "indexed": false,
          "internalType": "address",
          "name": "token_to",
          "type": "address"
        },
        {
          "indexed": false,
          "internalType": "uint256",
          "name": "amountToSwap",
          "type": "uint256"
        },
        {
          "indexed": false,
          "internalType": "uint256",
          "name": "amountSwapped",
          "type": "uint256"
        },
        {
          "indexed": false,
          "internalType": "uint256",
          "name": "date",
          "type": "uint256"
        }
      ],
      "name": "DCAExecuted",
      "type": "event"
    },
    {
      "anonymous": false,
      "inputs": [
        {
          "indexed": false,
          "internalType": "uint256",
          "name": "interval",
          "type": "uint256"
        },
        {
          "indexed": false,
          "internalType": "uint256",
          "name": "date",
          "type": "uint256"
        }
      ],
      "name": "IntervalAdded",
      "type": "event"
    },
    {
      "anonymous": false,
      "inputs": [
        {
          "indexed": true,
          "internalType": "address",
          "name": "previousOwner",
          "type": "address"
        },
        {
          "indexed": true,
          "internalType": "address",
          "name": "newOwner",
          "type": "address"
        }
      ],
      "name": "OwnershipTransferred",
      "type": "event"
    },
    {
      "anonymous": false,
      "inputs": [
        {
          "indexed": false,
          "internalType": "address",
          "name": "token_from",
          "type": "address"
        },
        {
          "indexed": false,
          "internalType": "address",
          "name": "token_to",
          "type": "address"
        },
        {
          "indexed": false,
          "internalType": "uint256",
          "name": "date",
          "type": "uint256"
        }
      ],
      "name": "PairAdded",
      "type": "event"
    },
    {
      "anonymous": false,
      "inputs": [
        {
          "indexed": true,
          "internalType": "address",
          "name": "sender",
          "type": "address"
        },
        {
          "indexed": false,
          "internalType": "uint256",
          "name": "id",
          "type": "uint256"
        },
        {
          "indexed": false,
          "internalType": "uint256",
          "name": "date",
          "type": "uint256"
        }
      ],
      "name": "PositionCreated",
      "type": "event"
    },
    {
      "anonymous": false,
      "inputs": [
        {
          "indexed": true,
          "internalType": "address",
          "name": "sender",
          "type": "address"
        },
        {
          "indexed": false,
          "internalType": "uint256",
          "name": "id",
          "type": "uint256"
        },
        {
          "indexed": false,
          "internalType": "enum HodlUpHub.Status",
          "name": "status",
          "type": "uint8"
        },
        {
          "indexed": false,
          "internalType": "uint256",
          "name": "date",
          "type": "uint256"
        }
      ],
      "name": "PositionStatusChanged",
      "type": "event"
    },
    {
      "anonymous": false,
      "inputs": [
        {
          "indexed": false,
          "internalType": "address",
          "name": "token",
          "type": "address"
        },
        {
          "indexed": false,
          "internalType": "uint256",
          "name": "amount",
          "type": "uint256"
        },
        {
          "indexed": false,
          "internalType": "uint256",
          "name": "date",
          "type": "uint256"
        }
      ],
      "name": "TokenClaimed",
      "type": "event"
    },
    {
      "inputs": [],
      "name": "depositFee",
      "outputs": [
        {
          "internalType": "uint256",
          "name": "",
          "type": "uint256"
        }
      ],
      "stateMutability": "view",
      "type": "function"
    },
    {
      "inputs": [
        {
          "internalType": "uint256",
          "name": "",
          "type": "uint256"
        }
      ],
      "name": "intervalsAvailable",
      "outputs": [
        {
          "internalType": "uint256",
          "name": "",
          "type": "uint256"
        }
      ],
      "stateMutability": "view",
      "type": "function"
    },
    {
      "inputs": [],
      "name": "owner",
      "outputs": [
        {
          "internalType": "address",
          "name": "",
          "type": "address"
        }
      ],
      "stateMutability": "view",
      "type": "function"
    },
    {
      "inputs": [
        {
          "internalType": "uint256",
          "name": "",
          "type": "uint256"
        }
      ],
      "name": "pairsAvailable",
      "outputs": [
        {
          "internalType": "contract IERC20",
          "name": "token_from",
          "type": "address"
        },
        {
          "internalType": "contract IERC20",
          "name": "token_to",
          "type": "address"
        },
        {
          "internalType": "bool",
          "name": "active",
          "type": "bool"
        }
      ],
      "stateMutability": "view",
      "type": "function"
    },
    {
      "inputs": [],
      "name": "renounceOwnership",
      "outputs": [],
      "stateMutability": "nonpayable",
      "type": "function"
    },
    {
      "inputs": [],
      "name": "rewardsManager",
      "outputs": [
        {
          "internalType": "contract IHodlUpRewardsManager",
          "name": "",
          "type": "address"
        }
      ],
      "stateMutability": "view",
      "type": "function"
    },
    {
      "inputs": [],
      "name": "swapFee",
      "outputs": [
        {
          "internalType": "uint256",
          "name": "",
          "type": "uint256"
        }
      ],
      "stateMutability": "view",
      "type": "function"
    },
    {
      "inputs": [
        {
          "internalType": "address",
          "name": "newOwner",
          "type": "address"
        }
      ],
      "name": "transferOwnership",
      "outputs": [],
      "stateMutability": "nonpayable",
      "type": "function"
    },
    {
      "inputs": [],
      "name": "uniswapRouter",
      "outputs": [
        {
          "internalType": "contract IUniswapV2Router02",
          "name": "",
          "type": "address"
        }
      ],
      "stateMutability": "view",
      "type": "function"
    },
    {
      "inputs": [
        {
          "internalType": "uint256",
          "name": "",
          "type": "uint256"
        }
      ],
      "name": "userAddresses",
      "outputs": [
        {
          "internalType": "address",
          "name": "",
          "type": "address"
        }
      ],
      "stateMutability": "view",
      "type": "function"
    },
    {
      "inputs": [
        {
          "internalType": "address",
          "name": "_token_from",
          "type": "address"
        },
        {
          "internalType": "address",
          "name": "_token_to",
          "type": "address"
        },
        {
          "internalType": "bool",
          "name": "_active",
          "type": "bool"
        }
      ],
      "name": "addPair",
      "outputs": [],
      "stateMutability": "nonpayable",
      "type": "function"
    },
    {
      "inputs": [
        {
          "internalType": "uint256",
          "name": "_interval",
          "type": "uint256"
        }
      ],
      "name": "addInterval",
      "outputs": [],
      "stateMutability": "nonpayable",
      "type": "function"
    },
    {
      "inputs": [
        {
          "internalType": "string",
          "name": "_name",
          "type": "string"
        },
        {
          "components": [
            {
              "internalType": "contract IERC20",
              "name": "token_from",
              "type": "address"
            },
            {
              "internalType": "contract IERC20",
              "name": "token_to",
              "type": "address"
            },
            {
              "internalType": "bool",
              "name": "active",
              "type": "bool"
            }
          ],
          "internalType": "struct HodlUpHub.Pair",
          "name": "_pair",
          "type": "tuple"
        },
        {
          "internalType": "uint256",
          "name": "_totalAmountToSwap",
          "type": "uint256"
        },
        {
          "internalType": "uint256",
          "name": "_interval",
          "type": "uint256"
        },
        {
          "internalType": "uint256",
          "name": "_amountPerSwap",
          "type": "uint256"
        },
        {
          "internalType": "uint256",
          "name": "_dcaIterations",
          "type": "uint256"
        },
        {
          "internalType": "bool",
          "name": "_stacking",
          "type": "bool"
        }
      ],
      "name": "createPosition",
      "outputs": [],
      "stateMutability": "nonpayable",
      "type": "function"
    },
    {
      "inputs": [
        {
          "internalType": "uint256",
          "name": "_positionId",
          "type": "uint256"
        },
        {
          "internalType": "enum HodlUpHub.Status",
          "name": "_status",
          "type": "uint8"
        }
      ],
      "name": "setPositionStatus",
      "outputs": [],
      "stateMutability": "nonpayable",
      "type": "function"
    },
    {
      "inputs": [
        {
          "internalType": "uint256",
          "name": "_positionId",
          "type": "uint256"
        }
      ],
      "name": "closePosition",
      "outputs": [],
      "stateMutability": "nonpayable",
      "type": "function"
    },
    {
      "inputs": [
        {
          "internalType": "uint256",
          "name": "_positionId",
          "type": "uint256"
        }
      ],
      "name": "claimRewards",
      "outputs": [],
      "stateMutability": "nonpayable",
      "type": "function"
    },
    {
      "inputs": [],
      "name": "claimFees",
      "outputs": [],
      "stateMutability": "nonpayable",
      "type": "function"
    },
    {
      "inputs": [
        {
          "internalType": "uint256",
          "name": "_positionId",
          "type": "uint256"
        }
      ],
      "name": "getPosition",
      "outputs": [
        {
          "components": [
            {
              "internalType": "string",
              "name": "name",
              "type": "string"
            },
            {
              "components": [
                {
                  "internalType": "contract IERC20",
                  "name": "token_from",
                  "type": "address"
                },
                {
                  "internalType": "contract IERC20",
                  "name": "token_to",
                  "type": "address"
                },
                {
                  "internalType": "bool",
                  "name": "active",
                  "type": "bool"
                }
              ],
              "internalType": "struct HodlUpHub.Pair",
              "name": "pair",
              "type": "tuple"
            },
            {
              "internalType": "uint256",
              "name": "totalAmountToSwap",
              "type": "uint256"
            },
            {
              "internalType": "uint256",
              "name": "interval",
              "type": "uint256"
            },
            {
              "internalType": "uint256",
              "name": "dcaIterations",
              "type": "uint256"
            },
            {
              "internalType": "uint256",
              "name": "amountPerSwap",
              "type": "uint256"
            },
            {
              "internalType": "uint256",
              "name": "lastPurchaseTimestamp",
              "type": "uint256"
            },
            {
              "internalType": "uint256",
              "name": "createdTimestamp",
              "type": "uint256"
            },
            {
              "internalType": "uint256",
              "name": "SwappedFromBalance",
              "type": "uint256"
            },
            {
              "internalType": "uint256",
              "name": "SwappedToBalance",
              "type": "uint256"
            },
            {
              "internalType": "enum HodlUpHub.Status",
              "name": "status",
              "type": "uint8"
            },
            {
              "internalType": "address",
              "name": "recipient",
              "type": "address"
            },
            {
              "internalType": "bool",
              "name": "stacking",
              "type": "bool"
            },
            {
              "internalType": "enum HodlUpHub.DcaMode",
              "name": "mode",
              "type": "uint8"
            }
          ],
          "internalType": "struct HodlUpHub.Position",
          "name": "",
          "type": "tuple"
        }
      ],
      "stateMutability": "view",
      "type": "function"
    },
    {
      "inputs": [],
      "name": "executeSwap",
      "outputs": [],
      "stateMutability": "nonpayable",
      "type": "function"
    }
  ],
  "bytecode": "0x60806040523480156200001157600080fd5b5060405162004c2738038062004c278339810160408190526200003491620000eb565b6200003f336200007e565b600380546001600160a01b039586166001600160a01b031991821617909155600980549490951693169290921790925560079190915560085562000133565b600080546001600160a01b038381166001600160a01b0319831681178455604051919092169283917f8be0079c531659141344cd1fd0a4f28419497f9722a3daafe3b4186f6b6457e09190a35050565b80516001600160a01b0381168114620000e657600080fd5b919050565b600080600080608085870312156200010257600080fd5b6200010d85620000ce565b93506200011d60208601620000ce565b6040860151606090960151949790965092505050565b614ae480620001436000396000f3fe608060405234801561001057600080fd5b50600436106101215760003560e01c8063735de9f7116100ad578063d294f09311610071578063d294f09314610257578063defe20531461025f578063eb02c30114610272578063f1be589e14610292578063f2fde38b146102a557600080fd5b8063735de9f7146101fa5780638da5cb5b1461020d578063a126d6011461021e578063c1c7d5b414610231578063c46de5f71461024457600080fd5b806354cf2aeb116100f457806354cf2aeb1461019d578063599f5810146101a65780636319eb78146101ae57806367a52793146101e9578063715018a6146101f257600080fd5b80630962ef791461012657806319ef091b146101395780631e2305e71461014c578063502c9bd514610172575b600080fd5b6101376101343660046141a9565b50565b005b6101376101473660046141f0565b6102b8565b61015f61015a3660046141a9565b610589565b6040519081526020015b60405180910390f35b6101856101803660046141a9565b6105aa565b6040516001600160a01b039091168152602001610169565b61015f60085481565b6101376105d4565b6101c16101bc3660046141a9565b6105ee565b604080516001600160a01b039485168152939092166020840152151590820152606001610169565b61015f60075481565b610137610634565b600354610185906001600160a01b031681565b6000546001600160a01b0316610185565b61013761022c3660046141a9565b610646565b61013761023f3660046141a9565b610ac5565b61013761025236600461423b565b610b8c565b610137610c64565b600954610185906001600160a01b031681565b6102856102803660046141a9565b610d8d565b60405161016991906142f9565b6101376102a0366004614421565b610f8f565b6101376102b33660046144dc565b611571565b6102c06115e7565b816001600160a01b0316836001600160a01b0316036103385760405162461bcd60e51b815260206004820152602960248201527f496e70757420616e64204f757470757420746f6b656e73206d75737420626520604482015268191a5999995c995b9d60ba1b60648201526084015b60405180910390fd5b61034183611641565b61039d5760405162461bcd60e51b815260206004820152602760248201527f496e70757420546f6b656e206973206e6f7420617661696c61626c652e204e6f60448201526620537570706c7960c81b606482015260840161032f565b6103a682611641565b6104035760405162461bcd60e51b815260206004820152602860248201527f4f757470757420546f6b656e206973206e6f7420617661696c61626c652e204e6044820152676f20537570706c7960c01b606482015260840161032f565b61043b6040518060600160405280856001600160a01b03168152602001846001600160a01b03168152602001600115158152506116f7565b1561047e5760405162461bcd60e51b81526020600482015260136024820152725061697220616c72656164792065786973747360681b604482015260640161032f565b60408051606080820183526001600160a01b03868116808452868216602080860182815288151587890190815260018054808201825560009190915297517fb10e2d527612073b26eecdfd717e6a320cf44b4afac2b0732d9fcbe2b7fa0cf6600290990298890180546001600160a01b03191691881691909117905590517fb10e2d527612073b26eecdfd717e6a320cf44b4afac2b0732d9fcbe2b7fa0cf790970180549151979095166001600160a81b031990911617600160a01b961515969096029590951790925584519081529283015242928201929092527fedd4b700a2980a33a301ad39ced5dbc1c98a786ecb28da5bf3926d5165005d1b910160405180910390a1505050565b6002818154811061059957600080fd5b600091825260209091200154905081565b600581815481106105ba57600080fd5b6000918252602090912001546001600160a01b0316905081565b6105dc6115e7565b6105e46117a8565b6105ec61212c565b565b600181815481106105fe57600080fd5b6000918252602090912060029091020180546001909101546001600160a01b03918216925090811690600160a01b900460ff1683565b61063c6115e7565b6105ec6000612b8f565b33600090815260046020526040902054811061069d5760405162461bcd60e51b8152602060048201526016602482015275141bdcda5d1a5bdb88191bd95cdb89dd08195e1a5cdd60521b604482015260640161032f565b3360009081526004602052604081208054839081106106be576106be6144f9565b90600052602060002090600c0201604051806101c00160405290816000820180546106e89061450f565b80601f01602080910402602001604051908101604052809291908181526020018280546107149061450f565b80156107615780601f1061073657610100808354040283529160200191610761565b820191906000526020600020905b81548152906001019060200180831161074457829003601f168201915b5050509183525050604080516060808201835260018501546001600160a01b039081168352600286015490811660208481019190915260ff600160a01b90920482161515848601528501929092526003808601549385019390935260048501549084015260058401546080840152600684015460a0840152600784015460c0840152600884015460e08401526009840154610100840152600a840154610120840152600b840154610140909301921690811115610820576108206142bf565b6003811115610831576108316142bf565b8152600b8201546001600160a01b03610100820416602083015260ff600160a81b8204811615156040840152606090920191600160b01b90910416600181111561087d5761087d6142bf565b600181111561088e5761088e6142bf565b9052509050600381610140015160038111156108ac576108ac6142bf565b036108f95760405162461bcd60e51b815260206004820181905260248201527f506f736974696f6e206973204c6f636b65643a206e6f6e20636c6f7361626c65604482015260640161032f565b600081610100015182604001516109109190614559565b11156109a45761093d8160200151600001513383610100015184604001516109389190614559565b612bdf565b60208101515161010082015160408301517fcb1e26772e882480176a3e649a5f7937dc0ec3f50126283faf56f927b070be80929161097a91614559565b604080516001600160a01b0390931683526020830191909152429082015260600160405180910390a15b61012081015115610a2c576101808101511515600103610a2c576109d681602001516020015133836101200151612bdf565b602081810151810151610120830151604080516001600160a01b03909316835292820152428183015290517fcb1e26772e882480176a3e649a5f7937dc0ec3f50126283faf56f927b070be809181900360600190a15b33600090815260046020526040902080546002919084908110610a5157610a516144f9565b60009182526020909120600b600c9092020101805460ff19166001836003811115610a7e57610a7e6142bf565b0217905550610a8d3383612c42565b336001600160a01b0316600080516020614a8f83398151915283600242604051610ab993929190614572565b60405180910390a25050565b610acd6115e7565b610ad6816130dc565b15610b1c5760405162461bcd60e51b8152602060048201526016602482015275125b9d195c9d985b08185b1c9958591e48185919195960521b604482015260640161032f565b600280546001810182556000919091527f405787fa12a823e0f2b7631cc41b3ba8828b3321ca811111fa75cd3aa3bb5ace01819055604080518281524260208201527f57cb492e05adb4a4f47294924a582ecb2f196432c96c592d9a24ba793dcda7da910160405180910390a150565b336000908152600460205260409020548210610be35760405162461bcd60e51b8152602060048201526016602482015275141bdcda5d1a5bdb88191bd95cdb89dd08195e1a5cdd60521b604482015260640161032f565b336000908152600460205260409020805482919084908110610c0757610c076144f9565b60009182526020909120600b600c9092020101805460ff19166001836003811115610c3457610c346142bf565b0217905550336001600160a01b0316600080516020614a8f833981519152838342604051610ab993929190614572565b610c6c6115e7565b6000610c76613129565b905060005b8151811015610d89576000828281518110610c9857610c986144f9565b60209081029190910101516040516370a0823160e01b81523060048201526001600160a01b03909116906370a0823190602401602060405180830381865afa158015610ce8573d6000803e3d6000fd5b505050506040513d601f19601f82011682018060405250810190610d0c9190614594565b90508015610d7657610d76838381518110610d2957610d296144f9565b60200260200101513360066000878781518110610d4857610d486144f9565b60200260200101516001600160a01b03166001600160a01b0316815260200190815260200160002054612bdf565b5080610d81816145ad565b915050610c7b565b5050565b610d956140c3565b336000908152600460205260409020805483908110610db657610db66144f9565b90600052602060002090600c0201604051806101c0016040529081600082018054610de09061450f565b80601f0160208091040260200160405190810160405280929190818152602001828054610e0c9061450f565b8015610e595780601f10610e2e57610100808354040283529160200191610e59565b820191906000526020600020905b815481529060010190602001808311610e3c57829003601f168201915b5050509183525050604080516060808201835260018501546001600160a01b039081168352600286015490811660208481019190915260ff600160a01b90920482161515848601528501929092526003808601549385019390935260048501549084015260058401546080840152600684015460a0840152600784015460c0840152600884015460e08401526009840154610100840152600a840154610120840152600b840154610140909301921690811115610f1857610f186142bf565b6003811115610f2957610f296142bf565b8152600b8201546001600160a01b03610100820416602083015260ff600160a81b8204811615156040840152606090920191600160b01b909104166001811115610f7557610f756142bf565b6001811115610f8657610f866142bf565b90525092915050565b86610fcf5760405162461bcd60e51b815260206004820152601060248201526f1b985b59481b5d5cdd081899481cd95d60821b604482015260640161032f565b61101e3389898080601f01602080910402602001604051908101604052809392919081815260200183838082843760009201919091525061101992505050368a90038a018a61460d565b613290565b1561106b5760405162461bcd60e51b815260206004820152601c60248201527f506f736974696f6e20697320616c7265616479206578697374696e6700000000604482015260640161032f565b61108261107d3688900388018861460d565b6116f7565b6110c35760405162461bcd60e51b815260206004820152601260248201527170616972206e6f7420617661696c61626c6560701b604482015260640161032f565b6110cc846130dc565b6111185760405162461bcd60e51b815260206004820152601c60248201527f7468697320696e74657276616c206973206e6f7420616c6c6f77656400000000604482015260640161032f565b600085116111605760405162461bcd60e51b81526020600482015260156024820152744e6f20616d6f756e742073657420666f722044434160581b604482015260640161032f565b8215801561116d57508115155b8061118057508215801590611180575081155b6111e55760405162461bcd60e51b815260206004820152603060248201527f536574206f6e6c7920616d6f756e74207065722073776170206f72206e756d6260448201526f6572206f6620697465726174696f6e7360801b606482015260840161032f565b6000612710600754876111f8919061467f565b6112029190614696565b61120c9087614559565b9050600080851161123e5761271084611225848361467f565b61122f9190614696565b6112399190614696565b611240565b845b905061125a61125260208a018a6144dc565b33308a6135e2565b336000908152600460205260409020546112b157600580546001810182556000919091527f036b6384b5eca791c62761152d0c79bb0604c104a5fb6f4eb0703f3154bb3db00180546001600160a01b031916331790555b3360009081526004602090815260409182902082516101e0601f8e01849004909302810183019093526101c083018c81529092918291908e908e9081908501838280828437600092019190915250505090825250602001611317368c90038c018c61460d565b8152602001848152602001888152602001868152602001838152602001428152602001428152602001600081526020016000815260200160006003811115611361576113616142bf565b815233602082015285151560408201526060018615611381576000611384565b60015b6001811115611395576113956142bf565b905281546001810183556000928352602090922081519192600c02019081906113be9082614706565b506020828101518051600184810180546001600160a01b0319166001600160a01b0393841617905592820151600285018054604094850151929093166001600160a81b031990931692909217600160a01b91151591909102179055830151600380840191909155606084015160048401556080840151600584015560a0840151600684015560c0840151600784015560e084015160088401556101008401516009840155610120840151600a840155610140840151600b840180549193909260ff19909216918490811115611495576114956142bf565b0217905550610160820151600b820180546101808501511515600160a81b0260ff60a81b196001600160a01b039094166101000293909316610100600160b01b031990911617919091178082556101a0840151919060ff60b01b1916600160b01b836001811115611508576115086142bf565b021790555050336000818152600460205260409020549091507f4b82aa16e071a61de1a6b9aeec9edab0356331f8122c78683b469ac8e685dabc9061154f90600190614559565b604080519182524260208301520160405180910390a250505050505050505050565b6115796115e7565b6001600160a01b0381166115de5760405162461bcd60e51b815260206004820152602660248201527f4f776e61626c653a206e6577206f776e657220697320746865207a65726f206160448201526564647265737360d01b606482015260840161032f565b61013481612b8f565b6000546001600160a01b031633146105ec5760405162461bcd60e51b815260206004820181905260248201527f4f776e61626c653a2063616c6c6572206973206e6f7420746865206f776e6572604482015260640161032f565b6000816001600160a01b03166318160ddd6040518163ffffffff1660e01b8152600401602060405180830381865afa92505050801561169d575060408051601f3d908101601f1916820190925261169a91810190614594565b60015b6116da573d8080156116cb576040519150601f19603f3d011682016040523d82523d6000602084013e6116d0565b606091505b5060009392505050565b80156116e95750600192915050565b50600092915050565b919050565b6000805b6001548110156116e95782600001516001600160a01b031660018281548110611726576117266144f9565b60009182526020909120600290910201546001600160a01b0316148015611788575082602001516001600160a01b031660018281548110611769576117696144f9565b60009182526020909120600160029092020101546001600160a01b0316145b156117965750600192915050565b806117a0816145ad565b9150506116fb565b60005b60055481101561013457600060046000600584815481106117ce576117ce6144f9565b60009182526020808320909101546001600160a01b031683528281019390935260409182018120805483518186028101860190945280845292939092919084015b828210156119fc57838290600052602060002090600c0201604051806101c00160405290816000820180546118439061450f565b80601f016020809104026020016040519081016040528092919081815260200182805461186f9061450f565b80156118bc5780601f10611891576101008083540402835291602001916118bc565b820191906000526020600020905b81548152906001019060200180831161189f57829003601f168201915b5050509183525050604080516060808201835260018501546001600160a01b039081168352600286015490811660208481019190915260ff600160a01b90920482161515848601528501929092526003808601549385019390935260048501549084015260058401546080840152600684015460a0840152600784015460c0840152600884015460e08401526009840154610100840152600a840154610120840152600b84015461014090930192169081111561197b5761197b6142bf565b600381111561198c5761198c6142bf565b8152600b8201546001600160a01b03610100820416602083015260ff600160a81b8204811615156040840152606090920191600160b01b9091041660018111156119d8576119d86142bf565b60018111156119e9576119e96142bf565b815250508152602001906001019061180f565b50505050905060005b8151811015612117576000828281518110611a2257611a226144f9565b602002602001015161014001516003811115611a4057611a406142bf565b148015611a6c5750818181518110611a5a57611a5a6144f9565b60209081029190910101516101800151155b8015611abc5750818181518110611a8557611a856144f9565b602002602001015160600151828281518110611aa357611aa36144f9565b602002602001015160c00151611ab991906147c6565b42115b1561210557818181518110611ad357611ad36144f9565b60200260200101516101000151828281518110611af257611af26144f9565b602002602001015160400151611b089190614559565b828281518110611b1a57611b1a6144f9565b602002602001015160a001511115611c085760016004600060058681548110611b4557611b456144f9565b60009182526020808320909101546001600160a01b031683528201929092526040019020805483908110611b7b57611b7b6144f9565b60009182526020909120600b600c9092020101805460ff19166001836003811115611ba857611ba86142bf565b021790555060058381548110611bc057611bc06144f9565b6000918252602090912001546040516001600160a01b0390911690600080516020614a8f83398151915290611bfb9084906001904290614572565b60405180910390a2612105565b60036004600060058681548110611c2157611c216144f9565b60009182526020808320909101546001600160a01b031683528201929092526040019020805483908110611c5757611c576144f9565b60009182526020909120600b600c9092020101805460ff19166001836003811115611c8457611c846142bf565b02179055506000612710600854848481518110611ca357611ca36144f9565b602002602001015160a00151611cb9919061467f565b611cc39190614696565b9050600081848481518110611cda57611cda6144f9565b602002602001015160a00151611cf09190614559565b90506000611d3a858581518110611d0957611d096144f9565b60200260200101516020015183878781518110611d2857611d286144f9565b60200260200101516101600151613620565b90508260066000878781518110611d5357611d536144f9565b602002602001015160200151600001516001600160a01b03166001600160a01b031681526020019081526020016000206000828254611d9291906147c6565b9091555060009050858581518110611dac57611dac6144f9565b60200260200101516101a001516001811115611dca57611dca6142bf565b03611e445760016004600060058981548110611de857611de86144f9565b60009182526020808320909101546001600160a01b031683528201929092526040019020805486908110611e1e57611e1e6144f9565b90600052602060002090600c02016005016000828254611e3e9190614559565b90915550505b806004600060058981548110611e5c57611e5c6144f9565b60009182526020808320909101546001600160a01b031683528201929092526040019020805486908110611e9257611e926144f9565b90600052602060002090600c0201600a016000828254611eb291906147c6565b92505081905550848481518110611ecb57611ecb6144f9565b602002602001015160a001516004600060058981548110611eee57611eee6144f9565b60009182526020808320909101546001600160a01b031683528201929092526040019020805486908110611f2457611f246144f9565b90600052602060002090600c02016009016000828254611f4491906147c6565b9250508190555060006004600060058981548110611f6457611f646144f9565b60009182526020808320909101546001600160a01b031683528201929092526040019020805486908110611f9a57611f9a6144f9565b60009182526020909120600b600c9092020101805460ff19166001836003811115611fc757611fc76142bf565b0217905550426004600060058981548110611fe457611fe46144f9565b60009182526020808320909101546001600160a01b03168352820192909252604001902080548690811061201a5761201a6144f9565b90600052602060002090600c0201600701819055507fd77c8e9038ce2394ee0528e954e75f9693506cd98cc37fc1d0415fd4c49ba23e60058781548110612063576120636144f9565b9060005260206000200160009054906101000a90046001600160a01b031685878781518110612094576120946144f9565b602002602001015160200151600001518888815181106120b6576120b66144f9565b602002602001015160200151602001518989815181106120d8576120d86144f9565b602002602001015160a0015186426040516120f997969594939291906147d9565b60405180910390a15050505b8061210f816145ad565b915050611a05565b50508080612124906145ad565b9150506117ab565b60005b6001548110156101345760006121a760018381548110612151576121516144f9565b60009182526020918290206040805160608101825260029390930290910180546001600160a01b03908116845260019091015490811693830193909352600160a01b90920460ff161515918101919091526139e3565b90506000612710600854836121bc919061467f565b6121c69190614696565b905060006121d48284614559565b90506000612246600186815481106121ee576121ee6144f9565b60009182526020918290206040805160608101825260029390930290910180546001600160a01b03908116845260019091015490811693830193909352600160a01b90920460ff161515918101919091528330613620565b9050826006600060018881548110612260576122606144f9565b600091825260208083206002909202909101546001600160a01b03168352820192909252604001812080549091906122999084906147c6565b90915550600090505b600554811015612b7757600060046000600584815481106122c5576122c56144f9565b60009182526020808320909101546001600160a01b031683528281019390935260409182018120805483518186028101860190945280845292939092919084015b828210156124f357838290600052602060002090600c0201604051806101c001604052908160008201805461233a9061450f565b80601f01602080910402602001604051908101604052809291908181526020018280546123669061450f565b80156123b35780601f10612388576101008083540402835291602001916123b3565b820191906000526020600020905b81548152906001019060200180831161239657829003601f168201915b5050509183525050604080516060808201835260018501546001600160a01b039081168352600286015490811660208481019190915260ff600160a01b90920482161515848601528501929092526003808601549385019390935260048501549084015260058401546080840152600684015460a0840152600784015460c0840152600884015460e08401526009840154610100840152600a840154610120840152600b840154610140909301921690811115612472576124726142bf565b6003811115612483576124836142bf565b8152600b8201546001600160a01b03610100820416602083015260ff600160a81b8204811615156040840152606090920191600160b01b9091041660018111156124cf576124cf6142bf565b60018111156124e0576124e06142bf565b8152505081526020019060010190612306565b50505050905060005b8151811015612b62576003828281518110612519576125196144f9565b602002602001015161014001516003811115612537576125376142bf565b1480156125665750818181518110612551576125516144f9565b60200260200101516101800151151560011515145b80156125b6575081818151811061257f5761257f6144f9565b60200260200101516060015182828151811061259d5761259d6144f9565b602002602001015160c001516125b391906147c6565b42115b15612b50578181815181106125cd576125cd6144f9565b602002602001015161010001518282815181106125ec576125ec6144f9565b6020026020010151604001516126029190614559565b828281518110612614576126146144f9565b602002602001015160a001511115612702576001600460006005868154811061263f5761263f6144f9565b60009182526020808320909101546001600160a01b031683528201929092526040019020805483908110612675576126756144f9565b60009182526020909120600b600c9092020101805460ff191660018360038111156126a2576126a26142bf565b0217905550600583815481106126ba576126ba6144f9565b6000918252602090912001546040516001600160a01b0390911690600080516020614a8f833981519152906126f59084906001904290614572565b60405180910390a2612b50565b6000612710858985858151811061271b5761271b6144f9565b602002602001015160a00151612710612734919061467f565b61273e9190614696565b612748919061467f565b6127529190614696565b90506000838381518110612768576127686144f9565b60200260200101516101a001516001811115612786576127866142bf565b0361281857600183838151811061279f5761279f6144f9565b6020026020010151608001516127b59190614559565b60046000600587815481106127cc576127cc6144f9565b60009182526020808320909101546001600160a01b031683528201929092526040019020805484908110612802576128026144f9565b90600052602060002090600c0201600501819055505b82828151811061282a5761282a6144f9565b602002602001015160a00151838381518110612848576128486144f9565b6020026020010151610100015161285f91906147c6565b6004600060058781548110612876576128766144f9565b60009182526020808320909101546001600160a01b0316835282019290925260400190208054849081106128ac576128ac6144f9565b90600052602060002090600c020160090181905550808383815181106128d4576128d46144f9565b602002602001015161012001516128eb91906147c6565b6004600060058781548110612902576129026144f9565b60009182526020808320909101546001600160a01b031683528201929092526040019020805484908110612938576129386144f9565b90600052602060002090600c0201600a018190555060006004600060058781548110612966576129666144f9565b60009182526020808320909101546001600160a01b03168352820192909252604001902080548490811061299c5761299c6144f9565b60009182526020909120600b600c9092020101805460ff191660018360038111156129c9576129c96142bf565b02179055504260046000600587815481106129e6576129e66144f9565b60009182526020808320909101546001600160a01b031683528201929092526040019020805484908110612a1c57612a1c6144f9565b90600052602060002090600c0201600701819055507fd77c8e9038ce2394ee0528e954e75f9693506cd98cc37fc1d0415fd4c49ba23e60058581548110612a6557612a656144f9565b9060005260206000200160009054906101000a90046001600160a01b031683858581518110612a9657612a966144f9565b60200260200101516020015160000151868681518110612ab857612ab86144f9565b60200260200101516020015160200151878781518110612ada57612ada6144f9565b602002602001015160a001518642604051612afb97969594939291906147d9565b60405180910390a1612b4e60058581548110612b1957612b196144f9565b9060005260206000200160009054906101000a90046001600160a01b0316848481518110612b4957612b496144f9565b505050565b505b80612b5a816145ad565b9150506124fc565b50508080612b6f906145ad565b9150506122a2565b50505050508080612b87906145ad565b91505061212f565b600080546001600160a01b038381166001600160a01b0319831681178455604051919092169283917f8be0079c531659141344cd1fd0a4f28419497f9722a3daafe3b4186f6b6457e09190a35050565b6040516001600160a01b038316602482015260448101829052612b4990849063a9059cbb60e01b906064015b60408051601f198184030181529190526020810180516001600160e01b03166001600160e01b031990931692909217909152613e61565b6001600160a01b0382166000908152600460205260409020805460018201919083908110612c7257612c726144f9565b6000918252602080832084546001810186559484529220600c91820290920192020180612c9f838261481d565b5060018281015482820180546001600160a01b039283166001600160a01b0319918216179091556002808601805491860180549290941692821683178455546001600160a81b0319909116909117600160a01b9182900460ff90811615159092021790915560038085015481850155600480860154908501556005808601549085015560068086015490850155600780860154908501556008808601549085015560098086015490850155600a8086015490850155600b808601549085018054919093169360ff19909116918490811115612d7c57612d7c6142bf565b0217905550600b828101805491830180546001600160a01b036101009485900416909302610100600160a81b0319841681178255825460ff600160a81b918290048116151590910260ff60a81b19909216610100600160b01b031990951694909417178082559154600160b01b9081900490931692909160ff60b01b191690836001811115612e0d57612e0d6142bf565b021790555050506001600160a01b03821660009081526004602052604090208054612e3a90600190614559565b81548110612e4a57612e4a6144f9565b90600052602060002090600c020160046000846001600160a01b03166001600160a01b031681526020019081526020016000206000018281548110612e9157612e916144f9565b60009182526020909120600c9091020180612eac838261481d565b5060018281015482820180546001600160a01b039283166001600160a01b0319918216179091556002808601805491860180549290941692821683178455546001600160a81b0319909116909117600160a01b9182900460ff90811615159092021790915560038085015481850155600480860154908501556005808601549085015560068086015490850155600780860154908501556008808601549085015560098086015490850155600a8086015490850155600b808601549085018054919093169360ff19909116918490811115612f8957612f896142bf565b0217905550600b828101805491830180546001600160a01b036101009485900416909302610100600160a81b0319841681178255825460ff600160a81b918290048116151590910260ff60a81b19909216610100600160b01b031990951694909417178082559154600160b01b9081900490931692909160ff60b01b19169083600181111561301a5761301a6142bf565b021790555050506001600160a01b0382166000908152600460205260409020805480613048576130486148f8565b60008281526020812060001990920191600c83020190613068828261415b565b506001810180546001600160a01b03191690556002810180546001600160a81b0319169055600060038201819055600482018190556005820181905560068201819055600782018190556008820181905560098201819055600a820155600b0180546001600160b81b031916905590555050565b6000805b6002548110156116e95782600282815481106130fe576130fe6144f9565b9060005260206000200154036131175750600192915050565b80613121816145ad565b9150506130e0565b60015460609060009067ffffffffffffffff81111561314a5761314a6145c6565b604051908082528060200260200182016040528015613173578160200160208202803683370190505b5090506000805b600154811015613288576000805b8381101561320557600183815481106131a3576131a36144f9565b600091825260209091206002909102015485516001600160a01b03909116908690839081106131d4576131d46144f9565b60200260200101516001600160a01b0316036131f35760019150613205565b806131fd816145ad565b915050613188565b5080613275576001828154811061321e5761321e6144f9565b600091825260209091206002909102015484516001600160a01b039091169085908590811061324f5761324f6144f9565b6001600160a01b039092166020928302919091019091015282613271816145ad565b9350505b5080613280816145ad565b91505061317a565b508152919050565b6001600160a01b038316600090815260046020908152604080832080548251818502810185019093528083528493849084015b828210156134b057838290600052602060002090600c0201604051806101c00160405290816000820180546132f79061450f565b80601f01602080910402602001604051908101604052809291908181526020018280546133239061450f565b80156133705780601f1061334557610100808354040283529160200191613370565b820191906000526020600020905b81548152906001019060200180831161335357829003601f168201915b5050509183525050604080516060808201835260018501546001600160a01b039081168352600286015490811660208481019190915260ff600160a01b90920482161515848601528501929092526003808601549385019390935260048501549084015260058401546080840152600684015460a0840152600784015460c0840152600884015460e08401526009840154610100840152600a840154610120840152600b84015461014090930192169081111561342f5761342f6142bf565b6003811115613440576134406142bf565b8152600b8201546001600160a01b03610100820416602083015260ff600160a81b8204811615156040840152606090920191600160b01b90910416600181111561348c5761348c6142bf565b600181111561349d5761349d6142bf565b81525050815260200190600101906132c3565b50505050905060005b81518110156135d4578181815181106134d4576134d46144f9565b6020026020010151600001516040516020016134f0919061490e565b6040516020818303038152906040528051906020012085604051602001613517919061490e565b604051602081830303815290604052805190602001201480156135705750818181518110613547576135476144f9565b602002602001015160200151600001516001600160a01b031684600001516001600160a01b0316145b80156135b25750818181518110613589576135896144f9565b602002602001015160200151602001516001600160a01b031684602001516001600160a01b0316145b156135c2576001925050506135db565b806135cc816145ad565b9150506134b9565b5060009150505b9392505050565b6040516001600160a01b038085166024830152831660448201526064810182905261361a9085906323b872dd60e01b90608401612c0b565b50505050565b82516040516370a0823160e01b815230600482015260009184916001600160a01b03909116906370a0823190602401602060405180830381865afa15801561366c573d6000803e3d6000fd5b505050506040513d601f19601f820116820180604052508101906136909190614594565b116136e95760405162461bcd60e51b8152602060048201526024808201527f496e73756666696369656e742062616c616e6365206f66206f726967696e205460448201526337b5b2b760e11b606482015260840161032f565b835160035460405163095ea7b360e01b81526001600160a01b0391821660048201526024810186905291169063095ea7b3906044016020604051808303816000875af115801561373d573d6000803e3d6000fd5b505050506040513d601f19601f82011682018060405250810190613761919061492a565b506003546040805163c45a015560e01b815290516000926001600160a01b03169163c45a01559160048083019260209291908290030181865afa1580156137ac573d6000803e3d6000fd5b505050506040513d601f19601f820116820180604052508101906137d09190614947565b8551602087015160405163e6a4390560e01b81526001600160a01b039283166004820152908216602482015291169063e6a4390590604401602060405180830381865afa158015613825573d6000803e3d6000fd5b505050506040513d601f19601f820116820180604052508101906138499190614947565b90506001600160a01b038116156139a657604080516002808252606082018352600092602083019080368337019050509050856000015181600081518110613893576138936144f9565b60200260200101906001600160a01b031690816001600160a01b0316815250508560200151816001815181106138cb576138cb6144f9565b6001600160a01b0390921660209283029190910190910152841561399b576003546000906001600160a01b03166338ed17398783858961390d426107086147c6565b6040518663ffffffff1660e01b815260040161392d959493929190614964565b6000604051808303816000875af115801561394c573d6000803e3d6000fd5b505050506040513d6000823e601f3d908101601f1916820160405261397491908101906149d5565b905080600181518110613989576139896144f9565b602002602001015193505050506135db565b6000925050506135db565b60405162461bcd60e51b815260206004820152601260248201527114185a5c88191bd95cdb89dd08195e1a5cdd60721b604482015260640161032f565b60008060005b600554811015613e5a5760006004600060058481548110613a0c57613a0c6144f9565b60009182526020808320909101546001600160a01b031683528281019390935260409182018120805483518186028101860190945280845292939092919084015b82821015613c3a57838290600052602060002090600c0201604051806101c0016040529081600082018054613a819061450f565b80601f0160208091040260200160405190810160405280929190818152602001828054613aad9061450f565b8015613afa5780601f10613acf57610100808354040283529160200191613afa565b820191906000526020600020905b815481529060010190602001808311613add57829003601f168201915b5050509183525050604080516060808201835260018501546001600160a01b039081168352600286015490811660208481019190915260ff600160a01b90920482161515848601528501929092526003808601549385019390935260048501549084015260058401546080840152600684015460a0840152600784015460c0840152600884015460e08401526009840154610100840152600a840154610120840152600b840154610140909301921690811115613bb957613bb96142bf565b6003811115613bca57613bca6142bf565b8152600b8201546001600160a01b03610100820416602083015260ff600160a81b8204811615156040840152606090920191600160b01b909104166001811115613c1657613c166142bf565b6001811115613c2757613c276142bf565b8152505081526020019060010190613a4d565b50505050905060005b8151811015613e455785600001516001600160a01b0316828281518110613c6c57613c6c6144f9565b602002602001015160200151600001516001600160a01b0316148015613cc8575085602001516001600160a01b0316828281518110613cad57613cad6144f9565b602002602001015160200151602001516001600160a01b0316145b8015613d0357506000828281518110613ce357613ce36144f9565b602002602001015161014001516003811115613d0157613d016142bf565b145b8015613d315750818181518110613d1c57613d1c6144f9565b60200260200101516101800151151560011515145b8015613d815750818181518110613d4a57613d4a6144f9565b602002602001015160600151828281518110613d6857613d686144f9565b602002602001015160c00151613d7e91906147c6565b42115b15613e3357818181518110613d9857613d986144f9565b602002602001015160a0015184613daf91906147c6565b935060036004600060058681548110613dca57613dca6144f9565b60009182526020808320909101546001600160a01b031683528201929092526040019020805483908110613e0057613e006144f9565b60009182526020909120600b600c9092020101805460ff19166001836003811115613e2d57613e2d6142bf565b02179055505b80613e3d816145ad565b915050613c43565b50508080613e52906145ad565b9150506139e9565b5092915050565b6000613eb6826040518060400160405280602081526020017f5361666545524332303a206c6f772d6c6576656c2063616c6c206661696c6564815250856001600160a01b0316613f339092919063ffffffff16565b805190915015612b495780806020019051810190613ed4919061492a565b612b495760405162461bcd60e51b815260206004820152602a60248201527f5361666545524332303a204552433230206f7065726174696f6e20646964206e6044820152691bdd081cdd58d8d9595960b21b606482015260840161032f565b6060613f428484600085613f4a565b949350505050565b606082471015613fab5760405162461bcd60e51b815260206004820152602660248201527f416464726573733a20696e73756666696369656e742062616c616e636520666f6044820152651c8818d85b1b60d21b606482015260840161032f565b600080866001600160a01b03168587604051613fc7919061490e565b60006040518083038185875af1925050503d8060008114614004576040519150601f19603f3d011682016040523d82523d6000602084013e614009565b606091505b509150915061401a87838387614025565b979650505050505050565b6060831561409457825160000361408d576001600160a01b0385163b61408d5760405162461bcd60e51b815260206004820152601d60248201527f416464726573733a2063616c6c20746f206e6f6e2d636f6e7472616374000000604482015260640161032f565b5081613f42565b613f4283838151156140a95781518083602001fd5b8060405162461bcd60e51b815260040161032f9190614a7b565b604080516101c081018252606080825282519081018352600080825260208281018290529382015290918201908152602001600081526020016000815260200160008152602001600081526020016000815260200160008152602001600081526020016000815260200160006003811115614140576141406142bf565b81526000602082018190526040820181905260609091015290565b5080546141679061450f565b6000825580601f10614177575050565b601f01602090049060005260206000209081019061013491905b808211156141a55760008155600101614191565b5090565b6000602082840312156141bb57600080fd5b5035919050565b6001600160a01b038116811461013457600080fd5b801515811461013457600080fd5b80356116f2816141d7565b60008060006060848603121561420557600080fd5b8335614210816141c2565b92506020840135614220816141c2565b91506040840135614230816141d7565b809150509250925092565b6000806040838503121561424e57600080fd5b8235915060208301356004811061426457600080fd5b809150509250929050565b60005b8381101561428a578181015183820152602001614272565b50506000910152565b600081518084526142ab81602086016020860161426f565b601f01601f19169290920160200192915050565b634e487b7160e01b600052602160045260246000fd5b600481106142e5576142e56142bf565b9052565b600281106142e5576142e56142bf565b6020815260008251610200806020850152614318610220850183614293565b91506020850151614350604086018280516001600160a01b039081168352602080830151909116908301526040908101511515910152565b50604085015160a0850152606085015160c0850152608085015160e085015260a0850151610100818187015260c08701519150610120828188015260e0880151925061014083818901528289015193506101609250838389015281890151935061018091508382890152808901519350506101a06143d0818901856142d5565b918801516001600160a01b03166101c088015287015115156101e087015286015190506143ff828601826142e9565b5090949350505050565b60006060828403121561441b57600080fd5b50919050565b600080600080600080600080610120898b03121561443e57600080fd5b883567ffffffffffffffff8082111561445657600080fd5b818b0191508b601f83011261446a57600080fd5b81358181111561447957600080fd5b8c602082850101111561448b57600080fd5b60209283019a5098506144a2918c91508b01614409565b95506080890135945060a0890135935060c0890135925060e089013591506144cd6101008a016141e5565b90509295985092959890939650565b6000602082840312156144ee57600080fd5b81356135db816141c2565b634e487b7160e01b600052603260045260246000fd5b600181811c9082168061452357607f821691505b60208210810361441b57634e487b7160e01b600052602260045260246000fd5b634e487b7160e01b600052601160045260246000fd5b8181038181111561456c5761456c614543565b92915050565b8381526060810161458660208301856142d5565b826040830152949350505050565b6000602082840312156145a657600080fd5b5051919050565b6000600182016145bf576145bf614543565b5060010190565b634e487b7160e01b600052604160045260246000fd5b604051601f8201601f1916810167ffffffffffffffff81118282101715614605576146056145c6565b604052919050565b60006060828403121561461f57600080fd5b6040516060810181811067ffffffffffffffff82111715614642576146426145c6565b6040528235614650816141c2565b81526020830135614660816141c2565b60208201526040830135614673816141d7565b60408201529392505050565b808202811582820484141761456c5761456c614543565b6000826146b357634e487b7160e01b600052601260045260246000fd5b500490565b601f821115612b4957600081815260208120601f850160051c810160208610156146df5750805b601f850160051c820191505b818110156146fe578281556001016146eb565b505050505050565b815167ffffffffffffffff811115614720576147206145c6565b6147348161472e845461450f565b846146b8565b602080601f83116001811461476957600084156147515750858301515b600019600386901b1c1916600185901b1785556146fe565b600085815260208120601f198616915b8281101561479857888601518255948401946001909101908401614779565b50858210156147b65787850151600019600388901b60f8161c191681555b5050505050600190811b01905550565b8082018082111561456c5761456c614543565b6001600160a01b03978816815260208101969096529386166040860152919094166060840152608083019390935260a082019290925260c081019190915260e00190565b818103614828575050565b614832825461450f565b67ffffffffffffffff81111561484a5761484a6145c6565b6148588161472e845461450f565b6000601f82116001811461488c57600083156148745750848201545b600019600385901b1c1916600184901b1784556148f1565b600085815260209020601f19841690600086815260209020845b838110156148c657828601548255600195860195909101906020016148a6565b50858310156148e45781850154600019600388901b60f8161c191681555b50505060018360011b0184555b5050505050565b634e487b7160e01b600052603160045260246000fd5b6000825161492081846020870161426f565b9190910192915050565b60006020828403121561493c57600080fd5b81516135db816141d7565b60006020828403121561495957600080fd5b81516135db816141c2565b600060a082018783526020878185015260a0604085015281875180845260c086019150828901935060005b818110156149b45784516001600160a01b03168352938301939183019160010161498f565b50506001600160a01b03969096166060850152505050608001529392505050565b600060208083850312156149e857600080fd5b825167ffffffffffffffff80821115614a0057600080fd5b818501915085601f830112614a1457600080fd5b815181811115614a2657614a266145c6565b8060051b9150614a378483016145dc565b8181529183018401918481019088841115614a5157600080fd5b938501935b83851015614a6f57845182529385019390850190614a56565b98975050505050505050565b6020815260006135db602083018461429356fe1ee227ac62b3f06afe9df95df8797497fe7b63f1e4c3cc120f8a333b6f65d196a26469706673582212209c30872390254a73fcdbe4877ef883fb8365f016e071b92f6aaa4cb81cd8ec1b64736f6c63430008120033",
  "immutableReferences": {},
  "source": "// SPDX-License-Identifier: MIT\n\npragma solidity ^0.8.18;\n\nimport '../node_modules/@uniswap/v2-periphery/contracts/interfaces/IUniswapV2Router02.sol';\nimport '../node_modules/@uniswap/v2-core/contracts/interfaces/IUniswapV2Factory.sol';\nimport '../node_modules/@uniswap/v2-core/contracts/interfaces/IUniswapV2Pair.sol';\nimport \"../node_modules/@openzeppelin/contracts/access/Ownable.sol\";\nimport \"../node_modules/@openzeppelin/contracts/token/ERC20/IERC20.sol\";\nimport \"../node_modules/@openzeppelin/contracts/token/ERC20/ERC20.sol\";\nimport \"../node_modules/@openzeppelin/contracts/token/ERC20/utils/SafeERC20.sol\";\nimport \"./interfaces/IHodlUpRewardsManager.sol\";\nusing SafeERC20 for IERC20;\n\n/**\n * @title HodlUpHub contract\n * @dev This contract is used for hodling tokens and executing automated periodic swaps.\n */\ncontract HodlUpHub is Ownable {\n\n    /**\n     * @dev Enum representing the available statuses for a position.\n     * Active: the position is currently being executed\n     * Pause: the position is temporarily paused\n     * Closed: the position has been fully executed and cannot be reopened\n     * Locked: the position is locked for DCA, meaning that the tokens have been swapped but not transferred to the user\n     */\n    enum Status {\n        Active,\n        Pause,\n        Closed,\n        Locked\n    }\n\n    /**\n     * @dev Enum representing the available DCA modes.\n     * Limited: the position has a fixed number of swaps.\n     * Unlimited: the position will continue to swap indefinitely.\n     */\n    enum DcaMode {\n        Limited,\n        Unlimited\n    }\n\n    /**\n     * @dev The available pairs for swapping.\n     */\n    Pair[] public pairsAvailable;\n\n    /**\n    * @dev The available intervals (in seconds) for swapping.\n    */ \n    uint256[] public intervalsAvailable;\n\n    /**\n    * @dev The Uniswap V2 router.\n    */\n    IUniswapV2Router02 public uniswapRouter;\n\n    /**\n     * @dev Struct representing a user's data.\n     * positions: An array of the user's open positions.\n     * closedPositions: An array of the user's closed positions.\n     */\n    struct User {\n        Position[] positions;\n        Position[] closedPositions;\n    }\n\n    /**\n     * @dev Struct representing a pair of tokens for swapping.\n     * token_from: The token to be swapped from.\n     * token_to: The token to be swapped to.\n     * active: A flag indicating whether the pair is currently available for swapping.\n     */\n    struct Pair {\n        IERC20 token_from;\n        IERC20 token_to;\n        bool active;\n    }\n\n\n    /**\n     * @dev Struct representing a user's position.\n     * name: The name of the position.\n     * pair: The pair of tokens to be swapped.\n     * totalAmountToSwap: The total amount of token_from to be swapped.\n     * interval: The time interval (in seconds) between swaps.\n     * dcaIterations: The number of swaps remaining for the position (in case of Limited DCA mode).\n     * amountPerSwap: The amount of token_from to be swapped per interval.\n     * lastPurchaseTimestamp: The timestamp of the last swap.\n     * createdTimestamp: The timestamp of the position creation.\n     * SwappedFromBalance: The total amount of token_from swapped so far.\n     * SwappedToBalance: The total amount of token_to received so far.\n     * status: The current status of the position.\n     * recipient: The address to receive the swapped tokens.\n     * stacking: A flag indicating whether the position is stacking.\n     * mode: The DCA mode of the position.\n     */\n    struct Position {\n        string name;\n        Pair pair;\n        uint totalAmountToSwap;\n        uint interval;\n        uint dcaIterations;\n        uint amountPerSwap;\n        uint lastPurchaseTimestamp;\n        uint createdTimestamp;\n        uint SwappedFromBalance;\n        uint SwappedToBalance;  \n        Status status;\n        address recipient;\n        bool stacking;\n        DcaMode mode;\n    }\n\n    /**\n    * @dev Mapping that stores information about each user.\n    */\n    mapping(address => User) users;\n\n    /**\n    * @dev Array that stores the addresses of all registered users.\n    */   \n    address [] public userAddresses;\n\n    /**\n    * @dev Mapping that stores the balances of fees collected for each ERC20 token.\n    */\n    mapping(IERC20 => uint) feesBalances;\n\n    /**\n    * @dev Represents the fee percentage taken for deposits. \n    *      To avoid rounding errors, the percentage is multiplied by 10000. \n    *      For example, 1% is represented by 100.\n    */\n    uint public depositFee;\n\n    /**\n    * @dev Represents the fee percentage taken for swaps. \n    *      To avoid rounding errors, the percentage is multiplied by 10000. \n    *      For example, 1% is represented by 100.\n    */ \n    uint public swapFee;\n\n    /**\n    * @dev the reward manager instance.\n    */\n    IHodlUpRewardsManager public rewardsManager;\n\n    /**\n    * @dev HodlUpHub constructor.\n    * @param _uniswapRouter Address of the Uniswap router contract.\n    * @param _rewardManager Address of the rewards manager contract.\n    * @param _depositFee Deposit fee percentage charged from each deposit.\n    * @param _swapFee Swap fee percentage charged from each swap.\n    */\n    constructor(address _uniswapRouter, address _rewardManager, uint _depositFee, uint _swapFee) {\n        uniswapRouter = IUniswapV2Router02(_uniswapRouter);\n        rewardsManager = IHodlUpRewardsManager(_rewardManager);\n        depositFee = _depositFee;\n        swapFee = _swapFee;\n    }\n\n    /**\n    * @dev Returns a boolean indicating whether a user with the specified address exists in the `users` mapping.\n    * @param _userAddress The address of the user to check.\n    * @return True if the user exists, false otherwise.\n    */\n    function _userExists(address _userAddress) internal view returns (bool) {\n        return (users[_userAddress].positions.length > 0);\n    }\n\n    /**\n    @dev Executes a staked DCA for all available pairs, for all eligible positions of all users.\n    The function iterates over all available pairs and for each pair, it calculates the total amount to swap\n    and the swap fees. Then it swaps the tokens using the UniswapV2Router02 contract. After the swap,\n    it updates the balances of the users positions and emits a DCAExecuted event.\n    If the amount to swap for a position is greater than the remaining amount, the status of the position is set to \"Pause\".\n    If the DCA mode for the position is \"Limited\", the remaining number of iterations is decreased by 1.\n    If the amount to swap is less than the remaining amount, the position is updated with the swapped amount and the status is set to \"Active\" (Locked status removing).\n    Finally, the function generates rewards for the user based on the swapped amount.\n    */\n    function _executeStakedDCA () internal {\n        for (uint i = 0; i < pairsAvailable.length; i++) {\n            uint totalToSwap = _getTotalToSwap(pairsAvailable[i]);\n            uint swapFees = (totalToSwap * swapFee / 10000);\n            uint totalToSwapAfterFees = totalToSwap - swapFees;\n            uint totalSwapped = _swap(pairsAvailable[i], totalToSwapAfterFees, address(this)) ;\n            feesBalances[pairsAvailable[i].token_from]+=swapFees;\n            for (uint256 j = 0; j < userAddresses.length; j++) {\n                Position[] memory positions = users[userAddresses[j]].positions;\n                for (uint256 k = 0; k < positions.length; k++) {\n                    if (positions[k].status == Status.Locked &&\n                        positions[k].stacking == true &&\n                        block.timestamp > positions[k].lastPurchaseTimestamp + positions[k].interval\n                    ) {\n                        if (positions[k].amountPerSwap > (positions[k].totalAmountToSwap - positions[k].SwappedFromBalance)){\n                            users[userAddresses[j]].positions[k].status = Status.Pause;\n                            emit PositionStatusChanged (userAddresses[j], k, Status.Pause, block.timestamp);  \n                        }\n                        else{\n                            uint amountSwapped = ( ( (positions[k].amountPerSwap * 10000) / totalToSwap ) * totalSwapped) / 10000;\n                            if (positions[k].mode == DcaMode.Limited){\n                                users[userAddresses[j]].positions[k].dcaIterations = positions[k].dcaIterations - 1 ;\n                            }\n                            users[userAddresses[j]].positions[k].SwappedFromBalance = positions[k].SwappedFromBalance + positions[k].amountPerSwap;\n                            users[userAddresses[j]].positions[k].SwappedToBalance = positions[k].SwappedToBalance + amountSwapped;\n                            users[userAddresses[j]].positions[k].status = Status.Active;\n                            users[userAddresses[j]].positions[k].lastPurchaseTimestamp = block.timestamp;\n                            emit DCAExecuted (userAddresses[j], k, address(positions[k].pair.token_from), address(positions[k].pair.token_to), positions[k].amountPerSwap, amountSwapped, block.timestamp);\n                            _generateRewards(userAddresses[j], ERC20(address(positions[k].pair.token_to)), amountSwapped);\n                        }\n                     }\n                }\n            }\n        }\n    }\n\n    /**\n    * @dev Executes the DCA strategy for all active positions of all users.\n    * Checks if the current time is greater than the last purchase timestamp\n    * plus the interval of the position. If so, executes a swap of the amountPerSwap\n    * for the token_from in the position's pair to the token_to in the pair,\n    * subtracts the swap fee from the amount and adds it to the feesBalances,\n    * and updates the balances and status of the position.\n    * If the amountPerSwap is greater than the remaining amount to swap,\n    * pauses the position and emits a PositionStatusChanged event.\n    * Emits a DCAExecuted event on successful execution of the swap.\n    */\n    function _executeIndividualDCA () internal {\n        for (uint256 i = 0; i < userAddresses.length; i++) {\n            Position[] memory positions = users[userAddresses[i]].positions;\n            for (uint256 j = 0; j < positions.length; j++) {\n                if (positions[j].status == Status.Active &&\n                    positions[j].stacking == false &&\n                    block.timestamp > (positions[j].lastPurchaseTimestamp + positions[j].interval)\n                ) {\n                    if (positions[j].amountPerSwap > (positions[j].totalAmountToSwap - positions[j].SwappedFromBalance)){\n                        users[userAddresses[i]].positions[j].status = Status.Pause;\n                        emit PositionStatusChanged (userAddresses[i], j, Status.Pause, block.timestamp);  \n                    }\n                    else{\n                        users[userAddresses[i]].positions[j].status = Status.Locked;\n                        uint swapFees = (positions[j].amountPerSwap * swapFee / 10000);\n                        uint amoutPerSwapAfterFees =  positions[j].amountPerSwap - (swapFees);\n                        uint resultSwap = _swap( positions[j].pair, amoutPerSwapAfterFees, positions[j].recipient) ;\n                        feesBalances[positions[j].pair.token_from]+=swapFees;\n                        if (positions[j].mode == DcaMode.Limited){\n                            users[userAddresses[i]].positions[j].dcaIterations -= 1 ;\n                        }\n                        users[userAddresses[i]].positions[j].SwappedToBalance += resultSwap;\n                        users[userAddresses[i]].positions[j].SwappedFromBalance += positions[j].amountPerSwap;\n                        users[userAddresses[i]].positions[j].status = Status.Active;\n                        users[userAddresses[i]].positions[j].lastPurchaseTimestamp = block.timestamp;\n                        emit DCAExecuted (userAddresses[i], j, address(positions[j].pair.token_from), address(positions[j].pair.token_to), positions[j].amountPerSwap, resultSwap, block.timestamp);\n                    }\n                }\n            }\n        }\n    }\n\n    /**\n    * @dev Checks if a given pair already exists in the pairsAvailable array.\n    * @param _pair The pair to check.\n    * @return A boolean indicating whether the given pair exists.\n    */\n    function _pairExists(Pair memory _pair) internal view returns (bool) {\n        for (uint i = 0; i < pairsAvailable.length; i++) {\n            if (pairsAvailable[i].token_from == _pair.token_from && pairsAvailable[i].token_to == _pair.token_to) {\n                return true;\n            }\n        }\n        return false;\n    }\n\n    /**\n    * @dev Checks if a given interval already exists in the intervalsAvailable array.\n    * @param interval The interval to check.\n    * @return A boolean indicating whether the given interval exists.\n    */\n    function _intervalExists(uint256 interval) internal view returns (bool) {\n        for (uint i = 0; i < intervalsAvailable.length; i++) {\n            if (intervalsAvailable[i]==interval) {\n                return true;\n            }\n        }\n        return false;\n    }\n\n    /**\n    * @dev Calculates the total amount of tokens to swap for a given token pair.\n    * @param _pair The token pair to swap.\n    * @return The total amount of tokens to swap.\n    */\n    function _getTotalToSwap(Pair memory _pair) internal returns(uint256) {\n        uint totalToSwap;\n        for (uint256 i = 0; i < userAddresses.length; i++) {\n            Position[] memory positions = users[userAddresses[i]].positions;\n            for (uint256 j = 0; j < positions.length; j++) {\n                if (positions[j].pair.token_from == _pair.token_from &&\n                    positions[j].pair.token_to == _pair.token_to &&\n                    positions[j].status == Status.Active &&\n                    positions[j].stacking == true &&\n                    block.timestamp > positions[j].lastPurchaseTimestamp + positions[j].interval\n                ) {                 \n                    totalToSwap +=  positions[j].amountPerSwap;\n                    users[userAddresses[i]].positions[j].status = Status.Locked;\n                }\n            }\n        }\n        return totalToSwap;\n    }\n\n    function _swap(Pair memory _pair, uint256 _amount, address _receiver) internal returns(uint256) {\n        require(IERC20(_pair.token_from).balanceOf(address(this)) > _amount, \"Insufficient balance of origin Token\");\n        IERC20(_pair.token_from).approve(address(uniswapRouter), _amount);\n\n        address pair = IUniswapV2Factory(IUniswapV2Router02(uniswapRouter).factory()).getPair(address(_pair.token_from), address(_pair.token_to));\n        if (pair != address(0)){\n\n            address[] memory path = new address[](2);\n            path[0] = address(_pair.token_from);\n            path[1] = address(_pair.token_to);\n\n            if (_amount != 0){\n                    uint[] memory outputAmounts = uniswapRouter.swapExactTokensForTokens(_amount, 0, path, _receiver, block.timestamp + 1800);\n                    return outputAmounts[1];\n            }\n            else{\n                return 0;\n            }\n        }\n        else{\n            revert(\"Pair doesn't exist\");\n        }\n    }\n\n    /**\n    * @dev Internal function to check if a position already exists for a given user and Pair.\n    * @param _user The user address.\n    * @param _name The name of the position.\n    * @param _pair The Pair struct.\n    * @return bool Returns true if the position exists, false otherwise.\n    */\n    function _positionExists(address _user, string memory _name, Pair memory _pair) internal view returns (bool) {\n        Position[] memory positions = users[_user].positions;\n        for (uint256 i = 0; i < positions.length; i++) {\n            if(keccak256(abi.encodePacked(_name)) == keccak256(abi.encodePacked(positions[i].name)) &&\n                _pair.token_from == positions[i].pair.token_from && _pair.token_to == positions[i].pair.token_to) {\n                return true;\n            }\n        }\n        return false;\n    }\n\n    /**\n    * @dev Internal function to get all input tokens from available pairs.\n    * @return IERC20[] Returns an array of IERC20 tokens.\n    */\n    function _getAllInputToken() internal view returns (IERC20[] memory) {\n        IERC20[] memory tokenAddresses = new IERC20[](pairsAvailable.length);\n        uint256 distinctTokenCount = 0;\n        \n        for (uint256 i = 0; i < pairsAvailable.length; i++) {\n            // Check if the token_from address has already been added to the list\n            bool exists = false;\n            for (uint256 j = 0; j < distinctTokenCount; j++) {\n                if (tokenAddresses[j] == pairsAvailable[i].token_from) {\n                    exists = true;\n                    break;\n                }\n            }\n            // If token_from has not been added to the list yet, add it\n            if (!exists) {\n                tokenAddresses[distinctTokenCount] = pairsAvailable[i].token_from;\n                distinctTokenCount++;\n            }\n        }\n        // Resize the tokenAddresses array to remove any empty elements\n        assembly {\n            mstore(tokenAddresses, distinctTokenCount)\n        } \n        return tokenAddresses;\n    }\n\n    /**\n    * @dev Internal function to check if a token at a given address is a valid ERC20 token.\n    * @param tokenAddress The token address.\n    * @return bool Returns true if the token is a valid ERC20 token, false otherwise.\n    */\n    function _checkValidERC20(address tokenAddress) internal view returns (bool) {\n        try IERC20(tokenAddress).totalSupply() returns (uint256 _supply) {\n            if (_supply > 0 ){\n                return true;\n            }\n            return false;\n        } catch (bytes memory) {\n            return false;\n        }\n    }\n\n    /**\n    * @dev Internal function to archive the user's position by moving it to the closedPositions array and removing it from positions array.\n    * @param _user The user's address.\n    * @param _positionId The position ID to archive.\n    */\n    function _achivePosition(address _user, uint _positionId) internal {\n        users[_user].closedPositions.push( users[_user].positions[_positionId]);\n        users[_user].positions[_positionId] =  users[_user].positions[users[_user].positions.length - 1];\n        users[_user].positions.pop();\n    }\n\n    /**\n    * @dev Add a new token pair to the pairsAvailable array.\n    * @param _token_from The address of the input token.\n    * @param _token_to The address of the output token.\n    * @param _active Whether the pair is active or not.\n    * Requirements:\n    * - The input and output tokens must be different.\n    * - The input token must be a valid ERC20 token with a total supply greater than 0.\n    * - The output token must be a valid ERC20 token with a total supply greater than 0.\n    * - The pair does not already exist in pairsAvailable.\n    */\n    function addPair(address _token_from, address _token_to, bool _active) external onlyOwner {\n        require(_token_from != _token_to, \"Input and Output tokens must be different\");\n        require(_checkValidERC20(_token_from), \"Input Token is not available. No Supply\");\n        require(_checkValidERC20(_token_to), \"Output Token is not available. No Supply\");\n        require(!_pairExists(Pair(IERC20(_token_from), IERC20(_token_to), true)), \"Pair already exists\");\n        pairsAvailable.push(Pair(IERC20(_token_from), IERC20(_token_to), _active)); \n        emit PairAdded(_token_from, _token_to, block.timestamp);\n    }\n\n    /**\n    * @dev Add a new interval to the intervalsAvailable array.\n    * @param _interval The interval value to add.\n    * Requirements:\n    * - The interval value has not been added previously.\n    */\n    function addInterval(uint256 _interval) external onlyOwner {\n        require(!_intervalExists(_interval), \"Interval already added\");\n        intervalsAvailable.push(_interval); \n        emit IntervalAdded(_interval, block.timestamp);\n    }\n\n    /**\n    * @dev Create a new position for the user.\n    * @param _name The name of the position.\n    * @param _pair The pair to swap for the position.\n    * @param _totalAmountToSwap The total amount to swap for the position.\n    * @param _interval The interval for DCA swaps.\n    * @param _amountPerSwap The amount to swap per DCA iteration.\n    * @param _dcaIterations The number of DCA iterations.\n    * @param _stacking Whether the user wants to stack rewards.\n    * Requirements:\n    * - The name must be set.\n    * - The position does not already exist for the user.\n    * - The pair exists in pairsAvailable.\n    * - The interval exists in intervalsAvailable.\n    * - The total amount to swap is greater than 0.\n    * - Either the amount per swap or the number of DCA iterations is set, but not both.\n    */\n    function createPosition(string calldata _name, Pair calldata _pair, uint _totalAmountToSwap, uint _interval, uint _amountPerSwap, uint _dcaIterations, bool _stacking) external {\n        require(bytes(_name).length > 0, \"name must be set\"); \n        require(!_positionExists(msg.sender, _name, _pair), \"Position is already existing\");\n        require(_pairExists(_pair), \"pair not available\");\n        require(_intervalExists(_interval), \"this interval is not allowed\");\n        require(_totalAmountToSwap > 0, \"No amount set for DCA\");\n        require( (_amountPerSwap == 0 && _dcaIterations != 0) || (_amountPerSwap != 0 && _dcaIterations == 0), \"Set only amount per swap or number of iterations\" );\n\n        uint totalToSwapAfterFees = _totalAmountToSwap - (_totalAmountToSwap * depositFee / 10000);\n        uint amountPerSwap = _amountPerSwap > 0 ? _amountPerSwap : ((totalToSwapAfterFees * 10000) / _dcaIterations) / 10000;\n\n        SafeERC20.safeTransferFrom(_pair.token_from, msg.sender, address(this), _totalAmountToSwap);   \n        if (!_userExists(msg.sender)){\n            userAddresses.push(msg.sender);\n        }\n        users[msg.sender].positions.push(Position(_name, _pair, totalToSwapAfterFees, _interval, _dcaIterations, amountPerSwap, block.timestamp, block.timestamp, 0, 0, Status.Active ,msg.sender, _stacking, _dcaIterations == 0 ? DcaMode.Unlimited : DcaMode.Limited ));\n    \n        emit PositionCreated (msg.sender, users[msg.sender].positions.length-1, block.timestamp);  \n    }\n\n    /**\n    * @dev Set the status of a user's position.\n    * @param _positionId The ID of the position to update.\n    * @param _status The new status of the position.\n    * Emits a {PositionStatusChanged} event.\n    * Requirements:\n    * - The position must exist.\n    */\n    function setPositionStatus(uint _positionId, Status _status) external {\n        require(_positionId < users[msg.sender].positions.length , \"Position doesn't exist\");\n        users[msg.sender].positions[_positionId].status=_status;\n        emit PositionStatusChanged (msg.sender, _positionId, _status, block.timestamp);  \n    }\n\n    /**\n    * @dev Close a position and transfer any remaining tokens back to the user's wallet.\n    * @param _positionId The ID of the position to close.\n    * Requirements:\n    * - The position must exist.\n    * - The position must not be locked.\n    */\n    function closePosition(uint _positionId) external {\n        require(_positionId < users[msg.sender].positions.length , \"Position doesn't exist\");\n        Position memory positionToClose = users[msg.sender].positions[_positionId];\n        require(positionToClose.status != Status.Locked, \"Position is Locked: non closable\");\n\n        if ( (positionToClose.totalAmountToSwap - positionToClose.SwappedFromBalance) > 0 ) {\n            SafeERC20.safeTransfer(positionToClose.pair.token_from, msg.sender, positionToClose.totalAmountToSwap - positionToClose.SwappedFromBalance);\n            emit TokenClaimed( address (positionToClose.pair.token_from), positionToClose.totalAmountToSwap - positionToClose.SwappedFromBalance, block.timestamp );\n        }\n        if ( (positionToClose.SwappedToBalance) > 0 ) {\n            // swapped token could only be claimed for staking position. not stacking position swap directly to the user wallet.\n            if (positionToClose.stacking == true){\n                SafeERC20.safeTransfer(positionToClose.pair.token_to, msg.sender, positionToClose.SwappedToBalance);\n                emit TokenClaimed( address (positionToClose.pair.token_to), positionToClose.SwappedToBalance, block.timestamp );\n            }\n        }\n        users[msg.sender].positions[_positionId].status = Status.Closed;\n        _achivePosition(msg.sender, _positionId);\n        emit PositionStatusChanged (msg.sender, _positionId, Status.Closed, block.timestamp);  \n    }\n\n    /**\n    * @dev Claim rewards for a closed position.\n    * @param _positionId The ID of the closed position to claim rewards for.\n    * Requirements:\n    * - The position must exist.\n    * - The position must be closed.\n    */\n    function claimRewards(uint _positionId) external {\n    }\n\n    /**\n    * @dev Claim all fees collected by the contract.\n    * Requirements:\n    * - The caller must be the contract owner.\n    */\n    function claimFees() external onlyOwner{\n        IERC20[] memory tokens = _getAllInputToken();\n        for (uint256 i = 0; i < tokens.length; i++) {\n            uint256 balance = tokens[i].balanceOf(address(this));\n            if (balance > 0) {\n                SafeERC20.safeTransfer(tokens[i], msg.sender, feesBalances[tokens[i]]);\n            }\n        }\n    }\n\n    /**\n    * @dev Get a position by ID.\n    * @param _positionId The ID of the position to get.\n    * @return The position object.\n    */\n    function getPosition(uint _positionId) external view returns (Position memory){\n        return users[msg.sender].positions[_positionId];\n    }\n\n    /**\n    * @dev Execute swaps for all individual and staked DCA positions.\n    * Requirements:\n    * - The caller must be the contract owner.\n    */\n    function executeSwap() external onlyOwner{\n        _executeIndividualDCA();\n        _executeStakedDCA();\n    }\n\n    /**\n    * @dev Generate rewards for a user.\n    * @param _user The address of the user to generate rewards for.\n    * @param _token The token to generate rewards for.\n    * @param _amount The amount of rewards to generate.\n    * Requirements:\n    * - The caller must be an authorized rewards manager.\n    */\n    function _generateRewards(address _user, ERC20 _token, uint _amount) internal {\n       //rewardsManager.generateRewards(_user, _token, _amount);\n    }\n\n    /**\n    * @dev Emitted when a new pair is added to the contract.\n    * @param token_from The address of the ERC20 token being swapped from.\n    * @param token_to The address of the ERC20 token being swapped to.\n    * @param date The timestamp of when the event was emitted.\n    */\n    event PairAdded(address token_from, address token_to, uint date);\n\n    /**\n    * @dev Emitted when a new DCA interval is added to the contract.\n    * @param interval The DCA interval in seconds.\n    * @param date The timestamp of when the event was emitted.\n    */\n    event IntervalAdded(uint256 interval, uint date);\n\n    /**\n    * @dev Emitted when a new position is created.\n    * @param sender The address of the user who created the position.\n    * @param id The ID of the position created.\n    * @param date The timestamp of when the event was emitted.\n    */\n    event PositionCreated (address indexed sender, uint256 id, uint date);\n\n    /**\n    * @dev Emitted when the status of a position is changed.\n    * @param sender The address of the user who changed the position status.\n    * @param id The ID of the position whose status was changed.\n    * @param status The new status of the position.\n    * @param date The timestamp of when the event was emitted.\n    */\n    event PositionStatusChanged (address indexed sender, uint256 id, Status status, uint date);\n\n    /**\n    * @dev Emitted when a DCA is executed.\n    * @param user The address of the user who executed the DCA.\n    * @param positionId The ID of the position associated with the DCA.\n    * @param token_from The address of the ERC20 token being swapped from.\n    * @param token_to The address of the ERC20 token being swapped to.\n    * @param amountToSwap The amount of token_from being swapped.\n    * @param amountSwapped The amount of token_to received in the swap.\n    * @param date The timestamp of when the event was emitted.\n    */   \n    event DCAExecuted (address user, uint positionId, address token_from, address token_to, uint amountToSwap, uint amountSwapped, uint date);\n    \n    /**\n    * @dev Emitted when a token is claimed from a position.\n    * @param token The address of the ERC20 token being claimed.\n    * @param amount The amount of the token being claimed.\n    * @param date The timestamp of when the event was emitted.\n    */\n    event TokenClaimed(address token, uint amount, uint date);\n\n}\n\n",
  "sourcePath": "/home/sjouany/ProjetFinal/HodlUp/truffle/contracts/HodlUpHub.sol",
  "compiler": {
    "name": "solc",
    "version": "0.8.18+commit.87f61d96.Emscripten.clang"
  },
  "schemaVersion": "3.4.13",
  "updatedAt": "2023-04-10T19:20:40.636Z",
  "devdoc": {
    "details": "This contract is used for hodling tokens and executing automated periodic swaps.",
    "events": {
      "DCAExecuted(address,uint256,address,address,uint256,uint256,uint256)": {
        "details": "Emitted when a DCA is executed.",
        "params": {
          "amountSwapped": "The amount of token_to received in the swap.",
          "amountToSwap": "The amount of token_from being swapped.",
          "date": "The timestamp of when the event was emitted.",
          "positionId": "The ID of the position associated with the DCA.",
          "token_from": "The address of the ERC20 token being swapped from.",
          "token_to": "The address of the ERC20 token being swapped to.",
          "user": "The address of the user who executed the DCA."
        }
      },
      "IntervalAdded(uint256,uint256)": {
        "details": "Emitted when a new DCA interval is added to the contract.",
        "params": {
          "date": "The timestamp of when the event was emitted.",
          "interval": "The DCA interval in seconds."
        }
      },
      "PairAdded(address,address,uint256)": {
        "details": "Emitted when a new pair is added to the contract.",
        "params": {
          "date": "The timestamp of when the event was emitted.",
          "token_from": "The address of the ERC20 token being swapped from.",
          "token_to": "The address of the ERC20 token being swapped to."
        }
      },
      "PositionCreated(address,uint256,uint256)": {
        "details": "Emitted when a new position is created.",
        "params": {
          "date": "The timestamp of when the event was emitted.",
          "id": "The ID of the position created.",
          "sender": "The address of the user who created the position."
        }
      },
      "PositionStatusChanged(address,uint256,uint8,uint256)": {
        "details": "Emitted when the status of a position is changed.",
        "params": {
          "date": "The timestamp of when the event was emitted.",
          "id": "The ID of the position whose status was changed.",
          "sender": "The address of the user who changed the position status.",
          "status": "The new status of the position."
        }
      },
      "TokenClaimed(address,uint256,uint256)": {
        "details": "Emitted when a token is claimed from a position.",
        "params": {
          "amount": "The amount of the token being claimed.",
          "date": "The timestamp of when the event was emitted.",
          "token": "The address of the ERC20 token being claimed."
        }
      }
    },
    "kind": "dev",
    "methods": {
      "addInterval(uint256)": {
        "details": "Add a new interval to the intervalsAvailable array.",
        "params": {
          "_interval": "The interval value to add. Requirements: - The interval value has not been added previously."
        }
      },
      "addPair(address,address,bool)": {
        "details": "Add a new token pair to the pairsAvailable array.",
        "params": {
          "_active": "Whether the pair is active or not. Requirements: - The input and output tokens must be different. - The input token must be a valid ERC20 token with a total supply greater than 0. - The output token must be a valid ERC20 token with a total supply greater than 0. - The pair does not already exist in pairsAvailable.",
          "_token_from": "The address of the input token.",
          "_token_to": "The address of the output token."
        }
      },
      "claimFees()": {
        "details": "Claim all fees collected by the contract. Requirements: - The caller must be the contract owner."
      },
      "claimRewards(uint256)": {
        "details": "Claim rewards for a closed position.",
        "params": {
          "_positionId": "The ID of the closed position to claim rewards for. Requirements: - The position must exist. - The position must be closed."
        }
      },
      "closePosition(uint256)": {
        "details": "Close a position and transfer any remaining tokens back to the user's wallet.",
        "params": {
          "_positionId": "The ID of the position to close. Requirements: - The position must exist. - The position must not be locked."
        }
      },
      "constructor": {
        "details": "HodlUpHub constructor.",
        "params": {
          "_depositFee": "Deposit fee percentage charged from each deposit.",
          "_rewardManager": "Address of the rewards manager contract.",
          "_swapFee": "Swap fee percentage charged from each swap.",
          "_uniswapRouter": "Address of the Uniswap router contract."
        }
      },
      "createPosition(string,(address,address,bool),uint256,uint256,uint256,uint256,bool)": {
        "details": "Create a new position for the user.",
        "params": {
          "_amountPerSwap": "The amount to swap per DCA iteration.",
          "_dcaIterations": "The number of DCA iterations.",
          "_interval": "The interval for DCA swaps.",
          "_name": "The name of the position.",
          "_pair": "The pair to swap for the position.",
          "_stacking": "Whether the user wants to stack rewards. Requirements: - The name must be set. - The position does not already exist for the user. - The pair exists in pairsAvailable. - The interval exists in intervalsAvailable. - The total amount to swap is greater than 0. - Either the amount per swap or the number of DCA iterations is set, but not both.",
          "_totalAmountToSwap": "The total amount to swap for the position."
        }
      },
      "executeSwap()": {
        "details": "Execute swaps for all individual and staked DCA positions. Requirements: - The caller must be the contract owner."
      },
      "getPosition(uint256)": {
        "details": "Get a position by ID.",
        "params": {
          "_positionId": "The ID of the position to get."
        },
        "returns": {
          "_0": "The position object."
        }
      },
      "owner()": {
        "details": "Returns the address of the current owner."
      },
      "renounceOwnership()": {
        "details": "Leaves the contract without owner. It will not be possible to call `onlyOwner` functions anymore. Can only be called by the current owner. NOTE: Renouncing ownership will leave the contract without an owner, thereby removing any functionality that is only available to the owner."
      },
      "setPositionStatus(uint256,uint8)": {
        "details": "Set the status of a user's position.",
        "params": {
          "_positionId": "The ID of the position to update.",
          "_status": "The new status of the position. Emits a {PositionStatusChanged} event. Requirements: - The position must exist."
        }
      },
      "transferOwnership(address)": {
        "details": "Transfers ownership of the contract to a new account (`newOwner`). Can only be called by the current owner."
      }
    },
    "stateVariables": {
      "depositFee": {
        "details": "Represents the fee percentage taken for deposits.       To avoid rounding errors, the percentage is multiplied by 10000.       For example, 1% is represented by 100."
      },
      "feesBalances": {
        "details": "Mapping that stores the balances of fees collected for each ERC20 token."
      },
      "intervalsAvailable": {
        "details": "The available intervals (in seconds) for swapping."
      },
      "pairsAvailable": {
        "details": "The available pairs for swapping."
      },
      "rewardsManager": {
        "details": "the reward manager instance."
      },
      "swapFee": {
        "details": "Represents the fee percentage taken for swaps.       To avoid rounding errors, the percentage is multiplied by 10000.       For example, 1% is represented by 100."
      },
      "uniswapRouter": {
        "details": "The Uniswap V2 router."
      },
      "userAddresses": {
        "details": "Array that stores the addresses of all registered users."
      },
      "users": {
        "details": "Mapping that stores information about each user."
      }
    },
    "title": "HodlUpHub contract",
    "version": 1
  },
  "userdoc": {
    "kind": "user",
    "methods": {},
    "version": 1
  }
}