{
  "contractName": "HodlUpRewardsManager",
  "abi": [
    {
      "inputs": [
        {
          "internalType": "address",
          "name": "_rewardTokenAddress",
          "type": "address"
        },
        {
          "internalType": "uint256",
          "name": "_rewardApy",
          "type": "uint256"
        }
      ],
      "stateMutability": "nonpayable",
      "type": "constructor"
    },
    {
      "anonymous": false,
      "inputs": [
        {
          "indexed": true,
          "internalType": "address",
          "name": "previousOwner",
          "type": "address"
        },
        {
          "indexed": true,
          "internalType": "address",
          "name": "newOwner",
          "type": "address"
        }
      ],
      "name": "OwnershipTransferred",
      "type": "event"
    },
    {
      "inputs": [],
      "name": "owner",
      "outputs": [
        {
          "internalType": "address",
          "name": "",
          "type": "address"
        }
      ],
      "stateMutability": "view",
      "type": "function",
      "constant": true
    },
    {
      "inputs": [],
      "name": "renounceOwnership",
      "outputs": [],
      "stateMutability": "nonpayable",
      "type": "function"
    },
    {
      "inputs": [
        {
          "internalType": "address",
          "name": "newOwner",
          "type": "address"
        }
      ],
      "name": "transferOwnership",
      "outputs": [],
      "stateMutability": "nonpayable",
      "type": "function"
    },
    {
      "inputs": [
        {
          "internalType": "address",
          "name": "token",
          "type": "address"
        }
      ],
      "name": "getPriceFromOracle",
      "outputs": [
        {
          "internalType": "uint256",
          "name": "",
          "type": "uint256"
        }
      ],
      "stateMutability": "view",
      "type": "function",
      "constant": true
    }
  ],
  "bytecode": "0x608060405234801561001057600080fd5b5060405161059738038061059783398101604081905261002f916100b1565b61003833610061565b600180546001600160a01b0319166001600160a01b0393909316929092179091556002556100eb565b600080546001600160a01b038381166001600160a01b0319831681178455604051919092169283917f8be0079c531659141344cd1fd0a4f28419497f9722a3daafe3b4186f6b6457e09190a35050565b600080604083850312156100c457600080fd5b82516001600160a01b03811681146100db57600080fd5b6020939093015192949293505050565b61049d806100fa6000396000f3fe608060405234801561001057600080fd5b506004361061004c5760003560e01c8063538e573c14610051578063715018a6146100775780638da5cb5b14610081578063f2fde38b1461009c575b600080fd5b61006461005f3660046103a5565b6100af565b6040519081526020015b60405180910390f35b61007f610207565b005b6000546040516001600160a01b03909116815260200161006e565b61007f6100aa3660046103a5565b61021b565b60008073ab594600376ec9fd91f8e885dadf0ce036862de090506000816001600160a01b031663feaf968c6040518163ffffffff1660e01b815260040160a060405180830381865afa158015610109573d6000803e3d6000fd5b505050506040513d601f19601f8201168201806040525081019061012d91906103f4565b505050915050600081136101885760405162461bcd60e51b815260206004820152601960248201527f546f6b656e50726963653a20707269636520696e76616c69640000000000000060448201526064015b60405180910390fd5b8061019281610294565b6101ff836001600160a01b031663313ce5676040518163ffffffff1660e01b8152600401602060405180830381865afa1580156101d3573d6000803e3d6000fd5b505050506040513d601f19601f820116820180604052508101906101f79190610444565b60ff16610294565b949350505050565b61020f6102d9565b6102196000610333565b565b6102236102d9565b6001600160a01b0381166102885760405162461bcd60e51b815260206004820152602660248201527f4f776e61626c653a206e6577206f776e657220697320746865207a65726f206160448201526564647265737360d01b606482015260840161017f565b61029181610333565b50565b610291816040516024016102aa91815260200190565b60408051601f198184030181529190526020810180516001600160e01b031663f82c50f160e01b179052610383565b6000546001600160a01b031633146102195760405162461bcd60e51b815260206004820181905260248201527f4f776e61626c653a2063616c6c6572206973206e6f7420746865206f776e6572604482015260640161017f565b600080546001600160a01b038381166001600160a01b0319831681178455604051919092169283917f8be0079c531659141344cd1fd0a4f28419497f9722a3daafe3b4186f6b6457e09190a35050565b80516a636f6e736f6c652e6c6f6790602083016000808383865afa5050505050565b6000602082840312156103b757600080fd5b81356001600160a01b03811681146103ce57600080fd5b9392505050565b805169ffffffffffffffffffff811681146103ef57600080fd5b919050565b600080600080600060a0868803121561040c57600080fd5b610415866103d5565b9450602086015193506040860151925060608601519150610438608087016103d5565b90509295509295909350565b60006020828403121561045657600080fd5b815160ff811681146103ce57600080fdfea2646970667358221220a1bd762f60adc06d40f0af8577db1de8f2873f59fec0cb480f81e03b9cbc491b64736f6c63430008120033",
  "immutableReferences": {},
  "source": "// SPDX-License-Identifier: MIT\n\npragma solidity ^0.8.18;\n\nimport \"../node_modules/@chainlink/contracts/src/v0.8/interfaces/AggregatorV3Interface.sol\";\nimport \"../node_modules/@openzeppelin/contracts/access/Ownable.sol\";\nimport \"../node_modules/@openzeppelin/contracts/token/ERC20/IERC20.sol\";\nimport \"../node_modules/@openzeppelin/contracts/token/ERC20/ERC20.sol\";\nimport \"../node_modules/@openzeppelin/contracts/token/ERC20/utils/SafeERC20.sol\";\nimport \"../node_modules/@ganache/console.log/console.sol\";\nusing SafeERC20 for IERC20;\n\ncontract HodlUpRewardsManager is Ownable {\n\n    ERC20 rewardToken;\n    uint rewardApy;\n    mapping(address => uint) balances;\n    mapping(address => address) oracles;\n\n    constructor(address _rewardTokenAddress, uint _rewardApy) {\n        rewardToken = ERC20(_rewardTokenAddress);\n        rewardApy = _rewardApy;\n    }\n\n    function getPriceFromOracle(address token) external view returns (uint256) {\n        //AggregatorV3Interface priceFeed = AggregatorV3Interface(oracles[token]);\n        AggregatorV3Interface priceFeed = AggregatorV3Interface(0xAB594600376Ec9fD91F8e885dADF0CE036862dE0);\n        (, int256 price, , ,) = priceFeed.latestRoundData();\n        require(price > 0, \"TokenPrice: price invalid\");\n        uint256 result = uint256(price);\n        console.log(result);\n        console.log(priceFeed.decimals());\n        return result;\n    }\n\n\n    // function getPriceFromOracle(address token) external view returns (uint256) {\n    //     //AggregatorV3Interface priceFeed = AggregatorV3Interface(oracles[token]);\n    //     AggregatorV3Interface priceFeed = AggregatorV3Interface(0x3D49406EDd4D52Fb7FFd25485f32E073b529C924);\n    //     (, int256 price, , ,) = priceFeed.latestRoundData();\n    //     require(price > 0, \"TokenPrice: price invalid\");\n    //     return uint256(price);\n    // }\n\n// creer un mapping address de token et address de contrat oracle:     mapping(address => address) oracles;\n// ajout d'entre dans mapping\n// \n// MATIC   USD   0xAB594600376Ec9fD91F8e885dADF0CE036862dE0\n// USDT    USD   0x0A6513e40db6EB1b165753AD52E80663aeA50545\n// USDC    USD   0xfE4A8cc5b5B2366C1B58Bea3858e81843581b2F7\n// SAND    USD   0x3D49406EDd4D52Fb7FFd25485f32E073b529C924\n//\n// claim Rewards\n\n//   address private oracleAddress;\n//     AggregatorV3Interface private priceFeed;\n    \n//     constructor(address _oracleAddress) {\n//         oracleAddress = _oracleAddress;\n//         priceFeed = AggregatorV3Interface(oracleAddress);\n//     }\n    \n//     function getTokenPrice(address token) external view returns (uint256) {\n//         uint256 price = getPriceFromOracle(token);\n//         uint256 decimals = IERC20(token).decimals();\n//         uint256 tokenAmount = 10**decimals;\n//         return price * tokenAmount;\n//     }\n    \n//     function getPriceFromOracle(address token) internal view returns (uint256) {\n//         (, int256 price, , ,) = priceFeed.latestRoundData();\n//         require(price > 0, \"TokenPrice: price invalid\");\n//         uint8 decimals = priceFeed.decimals();\n//         uint256 usdPrice = uint256(price) * (10**decimals);\n//         return usdPrice;\n//     }\n\n}\n\n",
  "sourcePath": "/home/sjouany/ProjetFinal/HodlUp/truffle/contracts/HodlUpRewardsManager.sol",
  "compiler": {
    "name": "solc",
    "version": "0.8.18+commit.87f61d96.Emscripten.clang"
  },
  "schemaVersion": "3.4.13",
  "updatedAt": "2023-04-05T22:57:34.693Z",
  "networkType": "ethereum",
  "devdoc": {
    "kind": "dev",
    "methods": {
      "owner()": {
        "details": "Returns the address of the current owner."
      },
      "renounceOwnership()": {
        "details": "Leaves the contract without owner. It will not be possible to call `onlyOwner` functions anymore. Can only be called by the current owner. NOTE: Renouncing ownership will leave the contract without an owner, thereby removing any functionality that is only available to the owner."
      },
      "transferOwnership(address)": {
        "details": "Transfers ownership of the contract to a new account (`newOwner`). Can only be called by the current owner."
      }
    },
    "version": 1
  },
  "userdoc": {
    "kind": "user",
    "methods": {},
    "version": 1
  }
}