{
  "contractName": "HodlUpRewardsManager",
  "abi": [
    {
      "inputs": [
        {
          "internalType": "address",
          "name": "_rewardTokenAddress",
          "type": "address"
        },
        {
          "internalType": "uint256",
          "name": "_rewardApy",
          "type": "uint256"
        }
      ],
      "stateMutability": "nonpayable",
      "type": "constructor"
    },
    {
      "anonymous": false,
      "inputs": [
        {
          "indexed": false,
          "internalType": "address",
          "name": "contractAdded",
          "type": "address"
        }
      ],
      "name": "ContractAdded",
      "type": "event"
    },
    {
      "anonymous": false,
      "inputs": [
        {
          "indexed": true,
          "internalType": "address",
          "name": "previousOwner",
          "type": "address"
        },
        {
          "indexed": true,
          "internalType": "address",
          "name": "newOwner",
          "type": "address"
        }
      ],
      "name": "OwnershipTransferred",
      "type": "event"
    },
    {
      "anonymous": false,
      "inputs": [
        {
          "indexed": false,
          "internalType": "contract ERC20",
          "name": "token",
          "type": "address"
        },
        {
          "indexed": false,
          "internalType": "address",
          "name": "user",
          "type": "address"
        },
        {
          "indexed": false,
          "internalType": "uint256",
          "name": "amount",
          "type": "uint256"
        },
        {
          "indexed": false,
          "internalType": "uint256",
          "name": "date",
          "type": "uint256"
        }
      ],
      "name": "RewardsClaimed",
      "type": "event"
    },
    {
      "inputs": [
        {
          "internalType": "address",
          "name": "",
          "type": "address"
        }
      ],
      "name": "authorizedContracts",
      "outputs": [
        {
          "internalType": "bool",
          "name": "",
          "type": "bool"
        }
      ],
      "stateMutability": "view",
      "type": "function"
    },
    {
      "inputs": [
        {
          "internalType": "address",
          "name": "",
          "type": "address"
        }
      ],
      "name": "oracles",
      "outputs": [
        {
          "internalType": "address",
          "name": "",
          "type": "address"
        }
      ],
      "stateMutability": "view",
      "type": "function"
    },
    {
      "inputs": [],
      "name": "owner",
      "outputs": [
        {
          "internalType": "address",
          "name": "",
          "type": "address"
        }
      ],
      "stateMutability": "view",
      "type": "function"
    },
    {
      "inputs": [],
      "name": "renounceOwnership",
      "outputs": [],
      "stateMutability": "nonpayable",
      "type": "function"
    },
    {
      "inputs": [],
      "name": "rewardApy",
      "outputs": [
        {
          "internalType": "uint256",
          "name": "",
          "type": "uint256"
        }
      ],
      "stateMutability": "view",
      "type": "function"
    },
    {
      "inputs": [],
      "name": "rewardToken",
      "outputs": [
        {
          "internalType": "contract ERC20",
          "name": "",
          "type": "address"
        }
      ],
      "stateMutability": "view",
      "type": "function"
    },
    {
      "inputs": [
        {
          "internalType": "address",
          "name": "newOwner",
          "type": "address"
        }
      ],
      "name": "transferOwnership",
      "outputs": [],
      "stateMutability": "nonpayable",
      "type": "function"
    },
    {
      "inputs": [
        {
          "internalType": "address",
          "name": "_token",
          "type": "address"
        }
      ],
      "name": "setRewardToken",
      "outputs": [],
      "stateMutability": "nonpayable",
      "type": "function"
    },
    {
      "inputs": [
        {
          "internalType": "uint256",
          "name": "_apy",
          "type": "uint256"
        }
      ],
      "name": "setApy",
      "outputs": [],
      "stateMutability": "nonpayable",
      "type": "function"
    },
    {
      "inputs": [
        {
          "internalType": "address",
          "name": "_token",
          "type": "address"
        },
        {
          "internalType": "address",
          "name": "_oracle",
          "type": "address"
        }
      ],
      "name": "addOracle",
      "outputs": [],
      "stateMutability": "nonpayable",
      "type": "function"
    },
    {
      "inputs": [
        {
          "internalType": "address",
          "name": "_token",
          "type": "address"
        }
      ],
      "name": "getUSDPriceFromOracle",
      "outputs": [
        {
          "internalType": "uint256",
          "name": "",
          "type": "uint256"
        }
      ],
      "stateMutability": "view",
      "type": "function"
    },
    {
      "inputs": [
        {
          "internalType": "address",
          "name": "_contract",
          "type": "address"
        }
      ],
      "name": "addContract",
      "outputs": [],
      "stateMutability": "nonpayable",
      "type": "function"
    },
    {
      "inputs": [
        {
          "internalType": "address",
          "name": "_user",
          "type": "address"
        },
        {
          "internalType": "contract ERC20",
          "name": "_token",
          "type": "address"
        },
        {
          "internalType": "uint256",
          "name": "_amount",
          "type": "uint256"
        }
      ],
      "name": "generateRewards",
      "outputs": [
        {
          "internalType": "uint256",
          "name": "",
          "type": "uint256"
        }
      ],
      "stateMutability": "nonpayable",
      "type": "function"
    },
    {
      "inputs": [
        {
          "internalType": "uint256",
          "name": "_amount",
          "type": "uint256"
        }
      ],
      "name": "claimRewards",
      "outputs": [],
      "stateMutability": "nonpayable",
      "type": "function"
    },
    {
      "inputs": [],
      "name": "claimAllRewards",
      "outputs": [],
      "stateMutability": "nonpayable",
      "type": "function"
    }
  ],
  "bytecode": "0x608060405234801561001057600080fd5b5060405161100b38038061100b83398101604081905261002f916100b1565b61003833610061565b600180546001600160a01b0319166001600160a01b0393909316929092179091556002556100eb565b600080546001600160a01b038381166001600160a01b0319831681178455604051919092169283917f8be0079c531659141344cd1fd0a4f28419497f9722a3daafe3b4186f6b6457e09190a35050565b600080604083850312156100c457600080fd5b82516001600160a01b03811681146100db57600080fd5b6020939093015192949293505050565b610f11806100fa6000396000f3fe608060405234801561001057600080fd5b50600436106100f55760003560e01c80638aee812711610097578063f0ca4adb11610066578063f0ca4adb14610208578063f2fde38b1461021b578063f7c618c11461022e578063ff52775d1461024157600080fd5b80638aee8127146101745780638da5cb5b14610187578063addd5099146101ac578063d5b9221b146101d557600080fd5b80635f539d69116100d35780635f539d691461012a5780636cc6ba791461013d578063715018a61461015957806378e368651461016157600080fd5b80630962ef79146100fa5780630b83a7271461010f5780633b3f5e3614610117575b600080fd5b61010d610108366004610b67565b610254565b005b61010d610363565b61010d610125366004610b67565b61045b565b61010d610138366004610b95565b610468565b61014660025481565b6040519081526020015b60405180910390f35b61010d6104c4565b61014661016f366004610bb9565b6104d8565b61010d610182366004610b95565b61057b565b6000546001600160a01b03165b6040516001600160a01b039091168152602001610150565b6101946101ba366004610b95565b6004602052600090815260409020546001600160a01b031681565b6101f86101e3366004610b95565b60056020526000908152604090205460ff1681565b6040519015158152602001610150565b61010d610216366004610bfa565b6105a5565b61010d610229366004610b95565b6105db565b600154610194906001600160a01b031681565b61014661024f366004610b95565b610654565b3360009081526003602052604081205461026f908390610c49565b116102c15760405162461bcd60e51b815260206004820152601c60248201527f4e6f2073756666696369656e742066756e647320746f20636c61696d0000000060448201526064015b60405180910390fd5b33600090815260036020526040812080548392906102e0908490610c49565b90915550506001546102fc906001600160a01b0316338361072e565b600154336000818152600360209081526040918290205482516001600160a01b039095168552908401929092528201524260608201527fd92c424393cb3ccdf7d5e36602e3bfa34f24490579ba47978f4bcfad496995f2906080015b60405180910390a150565b336000908152600360205260409020546103bf5760405162461bcd60e51b815260206004820152601c60248201527f4e6f2073756666696369656e742066756e647320746f20636c61696d0000000060448201526064016102b8565b600154336000818152600360205260409020546103e6926001600160a01b0316919061072e565b600154336000818152600360209081526040918290205482516001600160a01b039095168552908401929092528201524260608201527fd92c424393cb3ccdf7d5e36602e3bfa34f24490579ba47978f4bcfad496995f29060800160405180910390a133600090815260036020526040812055565b610463610785565b600255565b610470610785565b6001600160a01b038116600081815260056020908152604091829020805460ff1916600117905590519182527f89c66952b48f3e96bf1d8ba1b63189520fd988a6979b8b740bd5c5d8dc53e2059101610358565b6104cc610785565b6104d660006107df565b565b3360009081526005602052604081205460ff1615156001146105345760405162461bcd60e51b81526020600482015260156024820152741058d8d95cdcc81b9bdd08185d5d1a1bdc9a5e9959605a1b60448201526064016102b8565b6000610540848461082f565b6001600160a01b03861660009081526003602052604081208054929350839290919061056d908490610c5c565b909155509095945050505050565b610583610785565b600180546001600160a01b0319166001600160a01b0392909216919091179055565b6105ad610785565b6001600160a01b03918216600090815260046020526040902080546001600160a01b03191691909216179055565b6105e3610785565b6001600160a01b0381166106485760405162461bcd60e51b815260206004820152602660248201527f4f776e61626c653a206e6577206f776e657220697320746865207a65726f206160448201526564647265737360d01b60648201526084016102b8565b610651816107df565b50565b6001600160a01b038082166000908152600460208190526040808320548151633fabe5a360e21b815291519394859491169263feaf968c928082019260a09290918290030181865afa1580156106ae573d6000803e3d6000fd5b505050506040513d601f19601f820116820180604052508101906106d29190610c8e565b505050915050600081136107285760405162461bcd60e51b815260206004820152601960248201527f546f6b656e50726963653a20707269636520696e76616c69640000000000000060448201526064016102b8565b92915050565b604080516001600160a01b038416602482015260448082018490528251808303909101815260649091019091526020810180516001600160e01b031663a9059cbb60e01b179052610780908490610972565b505050565b6000546001600160a01b031633146104d65760405162461bcd60e51b815260206004820181905260248201527f4f776e61626c653a2063616c6c6572206973206e6f7420746865206f776e657260448201526064016102b8565b600080546001600160a01b038381166001600160a01b0319831681178455604051919092169283917f8be0079c531659141344cd1fd0a4f28419497f9722a3daafe3b4186f6b6457e09190a35050565b6001600160a01b03808316600090815260046020818152604080842054815163313ce56760e01b815291519495869591169363313ce5679383820193909291908290030181865afa158015610888573d6000803e3d6000fd5b505050506040513d601f19601f820116820180604052508101906108ac9190610cde565b846001600160a01b031663313ce5676040518163ffffffff1660e01b8152600401602060405180830381865afa1580156108ea573d6000803e3d6000fd5b505050506040513d601f19601f8201168201806040525081019061090e9190610cde565b6109189190610d01565b61092390600a610dfe565b61092c85610654565b6109369085610e0d565b6109409190610e24565b905061016d612710600254836109569190610e0d565b6109609190610e24565b61096a9190610e24565b949350505050565b60006109c7826040518060400160405280602081526020017f5361666545524332303a206c6f772d6c6576656c2063616c6c206661696c6564815250856001600160a01b0316610a449092919063ffffffff16565b80519091501561078057808060200190518101906109e59190610e46565b6107805760405162461bcd60e51b815260206004820152602a60248201527f5361666545524332303a204552433230206f7065726174696f6e20646964206e6044820152691bdd081cdd58d8d9595960b21b60648201526084016102b8565b606061096a848460008585600080866001600160a01b03168587604051610a6b9190610e8c565b60006040518083038185875af1925050503d8060008114610aa8576040519150601f19603f3d011682016040523d82523d6000602084013e610aad565b606091505b5091509150610abe87838387610ac9565b979650505050505050565b60608315610b38578251600003610b31576001600160a01b0385163b610b315760405162461bcd60e51b815260206004820152601d60248201527f416464726573733a2063616c6c20746f206e6f6e2d636f6e747261637400000060448201526064016102b8565b508161096a565b61096a8383815115610b4d5781518083602001fd5b8060405162461bcd60e51b81526004016102b89190610ea8565b600060208284031215610b7957600080fd5b5035919050565b6001600160a01b038116811461065157600080fd5b600060208284031215610ba757600080fd5b8135610bb281610b80565b9392505050565b600080600060608486031215610bce57600080fd5b8335610bd981610b80565b92506020840135610be981610b80565b929592945050506040919091013590565b60008060408385031215610c0d57600080fd5b8235610c1881610b80565b91506020830135610c2881610b80565b809150509250929050565b634e487b7160e01b600052601160045260246000fd5b8181038181111561072857610728610c33565b8082018082111561072857610728610c33565b805169ffffffffffffffffffff81168114610c8957600080fd5b919050565b600080600080600060a08688031215610ca657600080fd5b610caf86610c6f565b9450602086015193506040860151925060608601519150610cd260808701610c6f565b90509295509295909350565b600060208284031215610cf057600080fd5b815160ff81168114610bb257600080fd5b60ff828116828216039081111561072857610728610c33565b600181815b80851115610d55578160001904821115610d3b57610d3b610c33565b80851615610d4857918102915b93841c9390800290610d1f565b509250929050565b600082610d6c57506001610728565b81610d7957506000610728565b8160018114610d8f5760028114610d9957610db5565b6001915050610728565b60ff841115610daa57610daa610c33565b50506001821b610728565b5060208310610133831016604e8410600b8410161715610dd8575081810a610728565b610de28383610d1a565b8060001904821115610df657610df6610c33565b029392505050565b6000610bb260ff841683610d5d565b808202811582820484141761072857610728610c33565b600082610e4157634e487b7160e01b600052601260045260246000fd5b500490565b600060208284031215610e5857600080fd5b81518015158114610bb257600080fd5b60005b83811015610e83578181015183820152602001610e6b565b50506000910152565b60008251610e9e818460208701610e68565b9190910192915050565b6020815260008251806020840152610ec7816040850160208701610e68565b601f01601f1916919091016040019291505056fea264697066735822122029b13de7843265905f2ea57ec0faeee7f1d4a572c3ea0bb5408c8cd614d2ebe864736f6c63430008120033",
  "immutableReferences": {},
  "source": "// SPDX-License-Identifier: MIT\n\npragma solidity ^0.8.18;\n\nimport \"../node_modules/@chainlink/contracts/src/v0.8/interfaces/AggregatorV3Interface.sol\";\nimport \"../node_modules/@openzeppelin/contracts/access/Ownable.sol\";\nimport \"../node_modules/@openzeppelin/contracts/token/ERC20/ERC20.sol\";\nimport \"../node_modules/@openzeppelin/contracts/token/ERC20/utils/SafeERC20.sol\";\n\nusing SafeERC20 for IERC20;\n\n/**\n * @title HodlUpRewardsManager\n * @dev This contract manages the distribution of rewards in the form of an ERC20 token (HODL) to users who hold specific ERC20 tokens.\n */\ncontract HodlUpRewardsManager is Ownable {\n\n    // 1 rewardToken (here HODL) is equal to 1 USD\n    ERC20 public rewardToken;\n    uint public rewardApy;\n    mapping(address => uint) balances;\n    mapping(address => address) public oracles;\n    mapping(address => bool) public authorizedContracts;\n\n    /**\n     * @dev Constructor function\n     * @param _rewardTokenAddress The address of the reward token (HODL)\n     * @param _rewardApy The annual percentage yield (APY) for the reward token\n     */\n    constructor(address _rewardTokenAddress, uint _rewardApy) {\n        rewardToken = ERC20(_rewardTokenAddress);\n        rewardApy = _rewardApy;\n    }\n\n    /**\n     * @dev Internal function to get the daily reward for a specific ERC20 token based on its USD price and the reward APY\n     * @param _token The ERC20 token for which to calculate the daily reward\n     * @param _amount The amount of the ERC20 token for which to calculate the daily reward\n     * @return The daily reward amount in HODL tokens\n     */\n    function _getDailyRewardWithAPY(ERC20 _token, uint256 _amount) internal view returns (uint256){\n        uint amountConverted = (_amount * getUSDPriceFromOracle(address(_token))) / (10 ** (ERC20(_token).decimals() - AggregatorV3Interface(oracles[address(_token)]).decimals()));\n        return ((amountConverted * rewardApy) / 10000) / 365;\n    }\n\n    /**\n     * @dev Set the reward token \n     * @param _token The address of the new reward token\n     */\n    function setRewardToken(address _token) external onlyOwner {\n        rewardToken = ERC20(_token);\n    }\n\n    /**\n     * @dev Set the reward APY\n     * @param _apy The new reward APY\n     */\n    function setApy(uint _apy) external onlyOwner {\n        rewardApy = _apy;\n    }    \n\n    /**\n     * @dev Adds an oracle address to the oracles mapping\n     * @param _token The address of the ERC20 token corresponding to the oracle\n     * @param _oracle The address of the Chainlink oracle contract\n     */\n    function addOracle(address _token, address _oracle) external onlyOwner {\n        oracles[_token] = _oracle;\n    }\n\n    /**\n     * @dev Get the USD price of an ERC20 token from its associated Chainlink oracle\n     * @param _token The ERC20 token for which to get the USD price\n     * @return The USD price of the ERC20 token\n     */\n    function getUSDPriceFromOracle(address _token) public view returns (uint256) {\n        (, int256 price, , ,) = AggregatorV3Interface(oracles[_token]).latestRoundData();\n        require(price > 0, \"TokenPrice: price invalid\");\n        // result is on 8 decimals \n        return uint256(price);\n    }\n\n    /**\n    * @dev Adds an authorized contract that is allowed to generate rewards for users.\n    * Only the contract owner can call this function.\n    * @param _contract The address of the authorized contract.\n    */\n    function addContract(address _contract) external onlyOwner{\n        authorizedContracts[_contract] = true;\n        emit ContractAdded (_contract);\n    }\n\n    /**\n    * @dev Generates rewards for a user based on the given amount of tokens and the current APY.\n    * Only authorized contracts can call this function.\n    * @param _user The address of the user to receive the rewards.\n    * @param _token The ERC20 token used to generate the rewards.\n    * @param _amount The amount of tokens to generate rewards for.\n    */\n    function generateRewards(address _user, ERC20 _token, uint _amount) external returns (uint256){\n        require (authorizedContracts[msg.sender] == true, \"Access not authorized\" );\n        uint256 rewards = _getDailyRewardWithAPY(_token, _amount);\n        balances[_user] += rewards;\n        return rewards;\n    }\n\n    /**\n    * @dev Allows a user to claim their rewards in the specified amount of tokens.\n    * The user must have a balance greater than or equal to the amount being claimed.\n    * @param _amount The amount of tokens to claim as rewards.\n    */\n    function claimRewards(uint _amount) external {\n        require (balances[msg.sender] - _amount > 0, \"No sufficient funds to claim\" );\n        balances[msg.sender] -=  _amount ;\n        SafeERC20.safeTransfer(rewardToken, msg.sender, _amount);\n        emit RewardsClaimed (rewardToken, msg.sender, balances[msg.sender], block.timestamp);\n    }   \n\n    /**\n    * @dev Allows a user to claim all of their available rewards in the reward token.\n    * The user must have a balance greater than 0 to claim any rewards.\n    */\n    function claimAllRewards() external {\n        require (balances[msg.sender] > 0, \"No sufficient funds to claim\" );\n        SafeERC20.safeTransfer(rewardToken, msg.sender, balances[msg.sender]);\n        emit RewardsClaimed (rewardToken, msg.sender, balances[msg.sender], block.timestamp);\n        balances[msg.sender] = 0 ;   \n    }   \n\n    /**\n    * @dev Emitted when a user claims rewards.\n    * @param token The ERC20 token that was claimed.\n    * @param user The user who claimed the rewards.\n    * @param amount The amount of tokens claimed.\n    * @param date The timestamp of the claim.\n    */\n    event RewardsClaimed (ERC20 token, address user, uint amount, uint date);\n    /**\n    * @dev Emitted when a new contract is added to the system.\n    * @param contractAdded The address of the contract that was added.\n    */\n    event ContractAdded (address contractAdded);\n}\n\n",
  "sourcePath": "/home/sjouany/ProjetFinal/HodlUp/truffle/contracts/HodlUpRewardsManager.sol",
  "compiler": {
    "name": "solc",
    "version": "0.8.18+commit.87f61d96.Emscripten.clang"
  },
  "schemaVersion": "3.4.13",
  "updatedAt": "2023-04-10T18:04:39.988Z",
  "devdoc": {
    "details": "This contract manages the distribution of rewards in the form of an ERC20 token (HODL) to users who hold specific ERC20 tokens.",
    "events": {
      "ContractAdded(address)": {
        "details": "Emitted when a new contract is added to the system.",
        "params": {
          "contractAdded": "The address of the contract that was added."
        }
      },
      "RewardsClaimed(address,address,uint256,uint256)": {
        "details": "Emitted when a user claims rewards.",
        "params": {
          "amount": "The amount of tokens claimed.",
          "date": "The timestamp of the claim.",
          "token": "The ERC20 token that was claimed.",
          "user": "The user who claimed the rewards."
        }
      }
    },
    "kind": "dev",
    "methods": {
      "addContract(address)": {
        "details": "Adds an authorized contract that is allowed to generate rewards for users. Only the contract owner can call this function.",
        "params": {
          "_contract": "The address of the authorized contract."
        }
      },
      "addOracle(address,address)": {
        "details": "Adds an oracle address to the oracles mapping",
        "params": {
          "_oracle": "The address of the Chainlink oracle contract",
          "_token": "The address of the ERC20 token corresponding to the oracle"
        }
      },
      "claimAllRewards()": {
        "details": "Allows a user to claim all of their available rewards in the reward token. The user must have a balance greater than 0 to claim any rewards."
      },
      "claimRewards(uint256)": {
        "details": "Allows a user to claim their rewards in the specified amount of tokens. The user must have a balance greater than or equal to the amount being claimed.",
        "params": {
          "_amount": "The amount of tokens to claim as rewards."
        }
      },
      "constructor": {
        "details": "Constructor function",
        "params": {
          "_rewardApy": "The annual percentage yield (APY) for the reward token",
          "_rewardTokenAddress": "The address of the reward token (HODL)"
        }
      },
      "generateRewards(address,address,uint256)": {
        "details": "Generates rewards for a user based on the given amount of tokens and the current APY. Only authorized contracts can call this function.",
        "params": {
          "_amount": "The amount of tokens to generate rewards for.",
          "_token": "The ERC20 token used to generate the rewards.",
          "_user": "The address of the user to receive the rewards."
        }
      },
      "getUSDPriceFromOracle(address)": {
        "details": "Get the USD price of an ERC20 token from its associated Chainlink oracle",
        "params": {
          "_token": "The ERC20 token for which to get the USD price"
        },
        "returns": {
          "_0": "The USD price of the ERC20 token"
        }
      },
      "owner()": {
        "details": "Returns the address of the current owner."
      },
      "renounceOwnership()": {
        "details": "Leaves the contract without owner. It will not be possible to call `onlyOwner` functions anymore. Can only be called by the current owner. NOTE: Renouncing ownership will leave the contract without an owner, thereby removing any functionality that is only available to the owner."
      },
      "setApy(uint256)": {
        "details": "Set the reward APY",
        "params": {
          "_apy": "The new reward APY"
        }
      },
      "setRewardToken(address)": {
        "details": "Set the reward token ",
        "params": {
          "_token": "The address of the new reward token"
        }
      },
      "transferOwnership(address)": {
        "details": "Transfers ownership of the contract to a new account (`newOwner`). Can only be called by the current owner."
      }
    },
    "title": "HodlUpRewardsManager",
    "version": 1
  },
  "userdoc": {
    "kind": "user",
    "methods": {},
    "version": 1
  }
}