{
  "contractName": "HodlUpHub",
  "abi": [
    {
      "inputs": [
        {
          "internalType": "address",
          "name": "_uniswapRouter",
          "type": "address"
        },
        {
          "internalType": "uint256",
          "name": "_depositFee",
          "type": "uint256"
        },
        {
          "internalType": "uint256",
          "name": "_swapFee",
          "type": "uint256"
        }
      ],
      "stateMutability": "nonpayable",
      "type": "constructor"
    },
    {
      "anonymous": false,
      "inputs": [
        {
          "indexed": false,
          "internalType": "address",
          "name": "user",
          "type": "address"
        },
        {
          "indexed": false,
          "internalType": "uint256",
          "name": "positionId",
          "type": "uint256"
        },
        {
          "indexed": false,
          "internalType": "address",
          "name": "token_from",
          "type": "address"
        },
        {
          "indexed": false,
          "internalType": "address",
          "name": "token_to",
          "type": "address"
        },
        {
          "indexed": false,
          "internalType": "uint256",
          "name": "amountToSwap",
          "type": "uint256"
        },
        {
          "indexed": false,
          "internalType": "uint256",
          "name": "amountSwapped",
          "type": "uint256"
        },
        {
          "indexed": false,
          "internalType": "uint256",
          "name": "date",
          "type": "uint256"
        }
      ],
      "name": "DCAExecuted",
      "type": "event"
    },
    {
      "anonymous": false,
      "inputs": [
        {
          "indexed": false,
          "internalType": "uint256",
          "name": "interval",
          "type": "uint256"
        },
        {
          "indexed": false,
          "internalType": "uint256",
          "name": "date",
          "type": "uint256"
        }
      ],
      "name": "IntervalAdded",
      "type": "event"
    },
    {
      "anonymous": false,
      "inputs": [
        {
          "indexed": true,
          "internalType": "address",
          "name": "previousOwner",
          "type": "address"
        },
        {
          "indexed": true,
          "internalType": "address",
          "name": "newOwner",
          "type": "address"
        }
      ],
      "name": "OwnershipTransferred",
      "type": "event"
    },
    {
      "anonymous": false,
      "inputs": [
        {
          "indexed": false,
          "internalType": "address",
          "name": "token_from",
          "type": "address"
        },
        {
          "indexed": false,
          "internalType": "address",
          "name": "token_to",
          "type": "address"
        },
        {
          "indexed": false,
          "internalType": "uint256",
          "name": "date",
          "type": "uint256"
        }
      ],
      "name": "PairAdded",
      "type": "event"
    },
    {
      "anonymous": false,
      "inputs": [
        {
          "indexed": false,
          "internalType": "address",
          "name": "sender",
          "type": "address"
        },
        {
          "indexed": false,
          "internalType": "uint256",
          "name": "id",
          "type": "uint256"
        },
        {
          "indexed": false,
          "internalType": "uint256",
          "name": "date",
          "type": "uint256"
        }
      ],
      "name": "PositionCreated",
      "type": "event"
    },
    {
      "anonymous": false,
      "inputs": [
        {
          "indexed": false,
          "internalType": "address",
          "name": "sender",
          "type": "address"
        },
        {
          "indexed": false,
          "internalType": "uint256",
          "name": "id",
          "type": "uint256"
        },
        {
          "indexed": false,
          "internalType": "enum HodlUpHub.Status",
          "name": "status",
          "type": "uint8"
        },
        {
          "indexed": false,
          "internalType": "uint256",
          "name": "date",
          "type": "uint256"
        }
      ],
      "name": "PositionStatusChanged",
      "type": "event"
    },
    {
      "anonymous": false,
      "inputs": [
        {
          "indexed": false,
          "internalType": "address",
          "name": "token",
          "type": "address"
        },
        {
          "indexed": false,
          "internalType": "uint256",
          "name": "amount",
          "type": "uint256"
        },
        {
          "indexed": false,
          "internalType": "uint256",
          "name": "date",
          "type": "uint256"
        }
      ],
      "name": "TokenClaimed",
      "type": "event"
    },
    {
      "inputs": [
        {
          "internalType": "uint256",
          "name": "",
          "type": "uint256"
        }
      ],
      "name": "intervalsAvailable",
      "outputs": [
        {
          "internalType": "uint256",
          "name": "",
          "type": "uint256"
        }
      ],
      "stateMutability": "view",
      "type": "function"
    },
    {
      "inputs": [],
      "name": "owner",
      "outputs": [
        {
          "internalType": "address",
          "name": "",
          "type": "address"
        }
      ],
      "stateMutability": "view",
      "type": "function"
    },
    {
      "inputs": [
        {
          "internalType": "uint256",
          "name": "",
          "type": "uint256"
        }
      ],
      "name": "pairsAvailable",
      "outputs": [
        {
          "internalType": "contract IERC20",
          "name": "token_from",
          "type": "address"
        },
        {
          "internalType": "contract IERC20",
          "name": "token_to",
          "type": "address"
        },
        {
          "internalType": "bool",
          "name": "active",
          "type": "bool"
        }
      ],
      "stateMutability": "view",
      "type": "function"
    },
    {
      "inputs": [],
      "name": "renounceOwnership",
      "outputs": [],
      "stateMutability": "nonpayable",
      "type": "function"
    },
    {
      "inputs": [
        {
          "internalType": "address",
          "name": "newOwner",
          "type": "address"
        }
      ],
      "name": "transferOwnership",
      "outputs": [],
      "stateMutability": "nonpayable",
      "type": "function"
    },
    {
      "inputs": [],
      "name": "_getAllInputTokenAddresses",
      "outputs": [
        {
          "internalType": "address[]",
          "name": "",
          "type": "address[]"
        }
      ],
      "stateMutability": "view",
      "type": "function"
    },
    {
      "inputs": [
        {
          "internalType": "address",
          "name": "_token_from",
          "type": "address"
        },
        {
          "internalType": "address",
          "name": "_token_to",
          "type": "address"
        },
        {
          "internalType": "bool",
          "name": "_active",
          "type": "bool"
        }
      ],
      "name": "addPair",
      "outputs": [],
      "stateMutability": "nonpayable",
      "type": "function"
    },
    {
      "inputs": [
        {
          "internalType": "uint256",
          "name": "_interval",
          "type": "uint256"
        }
      ],
      "name": "addInterval",
      "outputs": [],
      "stateMutability": "nonpayable",
      "type": "function"
    },
    {
      "inputs": [
        {
          "internalType": "string",
          "name": "_name",
          "type": "string"
        },
        {
          "components": [
            {
              "internalType": "contract IERC20",
              "name": "token_from",
              "type": "address"
            },
            {
              "internalType": "contract IERC20",
              "name": "token_to",
              "type": "address"
            },
            {
              "internalType": "bool",
              "name": "active",
              "type": "bool"
            }
          ],
          "internalType": "struct HodlUpHub.Pair",
          "name": "_pair",
          "type": "tuple"
        },
        {
          "internalType": "uint256",
          "name": "_totalAmountToSwap",
          "type": "uint256"
        },
        {
          "internalType": "uint256",
          "name": "_interval",
          "type": "uint256"
        },
        {
          "internalType": "uint256",
          "name": "_amountPerSwap",
          "type": "uint256"
        },
        {
          "internalType": "uint256",
          "name": "_dcaIterations",
          "type": "uint256"
        },
        {
          "internalType": "bool",
          "name": "_stacking",
          "type": "bool"
        }
      ],
      "name": "createPosition",
      "outputs": [],
      "stateMutability": "nonpayable",
      "type": "function"
    },
    {
      "inputs": [
        {
          "internalType": "uint256",
          "name": "_positionId",
          "type": "uint256"
        },
        {
          "internalType": "enum HodlUpHub.Status",
          "name": "_status",
          "type": "uint8"
        }
      ],
      "name": "setPositionStatus",
      "outputs": [],
      "stateMutability": "nonpayable",
      "type": "function"
    },
    {
      "inputs": [
        {
          "internalType": "uint256",
          "name": "_positionId",
          "type": "uint256"
        }
      ],
      "name": "closePosition",
      "outputs": [],
      "stateMutability": "nonpayable",
      "type": "function"
    },
    {
      "inputs": [
        {
          "internalType": "uint256",
          "name": "_positionId",
          "type": "uint256"
        }
      ],
      "name": "claimToken",
      "outputs": [],
      "stateMutability": "nonpayable",
      "type": "function"
    },
    {
      "inputs": [
        {
          "internalType": "uint256",
          "name": "_positionId",
          "type": "uint256"
        }
      ],
      "name": "claimFees",
      "outputs": [],
      "stateMutability": "nonpayable",
      "type": "function"
    }
  ],
  "bytecode": "0x60806040523480156200001157600080fd5b506040516200419238038062004192833981810160405281019062000037919062000220565b620000576200004b620000af60201b60201c565b620000b760201b60201c565b82600360006101000a81548173ffffffffffffffffffffffffffffffffffffffff021916908373ffffffffffffffffffffffffffffffffffffffff16021790555081600781905550806008819055505050506200027c565b600033905090565b60008060009054906101000a900473ffffffffffffffffffffffffffffffffffffffff169050816000806101000a81548173ffffffffffffffffffffffffffffffffffffffff021916908373ffffffffffffffffffffffffffffffffffffffff1602179055508173ffffffffffffffffffffffffffffffffffffffff168173ffffffffffffffffffffffffffffffffffffffff167f8be0079c531659141344cd1fd0a4f28419497f9722a3daafe3b4186f6b6457e060405160405180910390a35050565b600080fd5b600073ffffffffffffffffffffffffffffffffffffffff82169050919050565b6000620001ad8262000180565b9050919050565b620001bf81620001a0565b8114620001cb57600080fd5b50565b600081519050620001df81620001b4565b92915050565b6000819050919050565b620001fa81620001e5565b81146200020657600080fd5b50565b6000815190506200021a81620001ef565b92915050565b6000806000606084860312156200023c576200023b6200017b565b5b60006200024c86828701620001ce565b93505060206200025f8682870162000209565b9250506040620002728682870162000209565b9150509250925092565b613f06806200028c6000396000f3fe608060405234801561001057600080fd5b50600436106100cf5760003560e01c8063a126d6011161008c578063c1c7d5b411610066578063c1c7d5b4146101ec578063c46de5f714610208578063f1be589e14610224578063f2fde38b14610240576100cf565b8063a126d60114610198578063a9e7c2e5146101b4578063ac68a748146101d0576100cf565b806319ef091b146100d45780631e2305e7146100f057806344c7c984146101205780636319eb781461013e578063715018a6146101705780638da5cb5b1461017a575b600080fd5b6100ee60048036038101906100e99190612825565b61025c565b005b61010a600480360381019061010591906128ae565b61062a565b60405161011791906128ea565b60405180910390f35b61012861064e565b60405161013591906129c3565b60405180910390f35b610158600480360381019061015391906128ae565b610835565b60405161016793929190612a53565b60405180910390f35b6101786108bc565b005b6101826108d0565b60405161018f9190612a99565b60405180910390f35b6101b260048036038101906101ad91906128ae565b6108f9565b005b6101ce60048036038101906101c991906128ae565b610f6d565b005b6101ea60048036038101906101e591906128ae565b611085565b005b610206600480360381019061020191906128ae565b61119d565b005b610222600480360381019061021d9190612ad9565b611253565b005b61023e60048036038101906102399190612ba2565b6113a8565b005b61025a60048036038101906102559190612c66565b611b11565b005b610264611b94565b8173ffffffffffffffffffffffffffffffffffffffff168373ffffffffffffffffffffffffffffffffffffffff16036102d2576040517f08c379a00000000000000000000000000000000000000000000000000000000081526004016102c990612d16565b60405180910390fd5b60008373ffffffffffffffffffffffffffffffffffffffff166318160ddd6040518163ffffffff1660e01b8152600401602060405180830381865afa15801561031f573d6000803e3d6000fd5b505050506040513d601f19601f820116820180604052508101906103439190612d4b565b11610383576040517f08c379a000000000000000000000000000000000000000000000000000000000815260040161037a90612dea565b60405180910390fd5b60008273ffffffffffffffffffffffffffffffffffffffff166318160ddd6040518163ffffffff1660e01b8152600401602060405180830381865afa1580156103d0573d6000803e3d6000fd5b505050506040513d601f19601f820116820180604052508101906103f49190612d4b565b11610434576040517f08c379a000000000000000000000000000000000000000000000000000000000815260040161042b90612e7c565b60405180910390fd5b61048660405180606001604052808573ffffffffffffffffffffffffffffffffffffffff1681526020018473ffffffffffffffffffffffffffffffffffffffff16815260200160011515815250611c12565b156104c6576040517f08c379a00000000000000000000000000000000000000000000000000000000081526004016104bd90612ee8565b60405180910390fd5b600160405180606001604052808573ffffffffffffffffffffffffffffffffffffffff1681526020018473ffffffffffffffffffffffffffffffffffffffff168152602001831515815250908060018154018082558091505060019003906000526020600020906002020160009091909190915060008201518160000160006101000a81548173ffffffffffffffffffffffffffffffffffffffff021916908373ffffffffffffffffffffffffffffffffffffffff16021790555060208201518160010160006101000a81548173ffffffffffffffffffffffffffffffffffffffff021916908373ffffffffffffffffffffffffffffffffffffffff16021790555060408201518160010160146101000a81548160ff02191690831515021790555050507fedd4b700a2980a33a301ad39ced5dbc1c98a786ecb28da5bf3926d5165005d1b83834260405161061d93929190612f08565b60405180910390a1505050565b6002818154811061063a57600080fd5b906000526020600020016000915090505481565b6060600060018054905067ffffffffffffffff81111561067157610670612f3f565b5b60405190808252806020026020018201604052801561069f5781602001602082028036833780820191505090505b5090506000805b600180549050811015610829576000805b8381101561076d57600183815481106106d3576106d2612f6e565b5b906000526020600020906002020160000160009054906101000a900473ffffffffffffffffffffffffffffffffffffffff1673ffffffffffffffffffffffffffffffffffffffff1685828151811061072e5761072d612f6e565b5b602002602001015173ffffffffffffffffffffffffffffffffffffffff160361075a576001915061076d565b808061076590612fcc565b9150506106b7565b5080610815576001828154811061078757610786612f6e565b5b906000526020600020906002020160000160009054906101000a900473ffffffffffffffffffffffffffffffffffffffff168484815181106107cc576107cb612f6e565b5b602002602001019073ffffffffffffffffffffffffffffffffffffffff16908173ffffffffffffffffffffffffffffffffffffffff1681525050828061081190612fcc565b9350505b50808061082190612fcc565b9150506106a6565b50808252819250505090565b6001818154811061084557600080fd5b90600052602060002090600202016000915090508060000160009054906101000a900473ffffffffffffffffffffffffffffffffffffffff16908060010160009054906101000a900473ffffffffffffffffffffffffffffffffffffffff16908060010160149054906101000a900460ff16905083565b6108c4611b94565b6108ce6000611d4c565b565b60008060009054906101000a900473ffffffffffffffffffffffffffffffffffffffff16905090565b600460003373ffffffffffffffffffffffffffffffffffffffff1673ffffffffffffffffffffffffffffffffffffffff168152602001908152602001600020600001805490508110610980576040517f08c379a000000000000000000000000000000000000000000000000000000000815260040161097790613060565b60405180910390fd5b600460003373ffffffffffffffffffffffffffffffffffffffff1673ffffffffffffffffffffffffffffffffffffffff168152602001908152602001600020600001805490508110610a07576040517f08c379a00000000000000000000000000000000000000000000000000000000081526004016109fe90613060565b60405180910390fd5b6000600460003373ffffffffffffffffffffffffffffffffffffffff1673ffffffffffffffffffffffffffffffffffffffff1681526020019081526020016000206000018281548110610a5d57610a5c612f6e565b5b90600052602060002090600d0201604051806101e0016040529081600082018054610a87906130af565b80601f0160208091040260200160405190810160405280929190818152602001828054610ab3906130af565b8015610b005780601f10610ad557610100808354040283529160200191610b00565b820191906000526020600020905b815481529060010190602001808311610ae357829003601f168201915b50505050508152602001600182016040518060600160405290816000820160009054906101000a900473ffffffffffffffffffffffffffffffffffffffff1673ffffffffffffffffffffffffffffffffffffffff1673ffffffffffffffffffffffffffffffffffffffff1681526020016001820160009054906101000a900473ffffffffffffffffffffffffffffffffffffffff1673ffffffffffffffffffffffffffffffffffffffff1673ffffffffffffffffffffffffffffffffffffffff1681526020016001820160149054906101000a900460ff161515151581525050815260200160038201548152602001600482015481526020016005820154815260200160068201548152602001600782015481526020016008820154815260200160098201548152602001600a8201548152602001600b8201548152602001600c820160009054906101000a900460ff166003811115610c6357610c626130e0565b5b6003811115610c7557610c746130e0565b5b8152602001600c820160019054906101000a900473ffffffffffffffffffffffffffffffffffffffff1673ffffffffffffffffffffffffffffffffffffffff1673ffffffffffffffffffffffffffffffffffffffff168152602001600c820160159054906101000a900460ff16151515158152602001600c820160169054906101000a900460ff166001811115610d0f57610d0e6130e0565b5b6001811115610d2157610d206130e0565b5b815250509050600380811115610d3a57610d396130e0565b5b8161016001516003811115610d5257610d516130e0565b5b03610d92576040517f08c379a0000000000000000000000000000000000000000000000000000000008152600401610d899061315b565b60405180910390fd5b60008161012001518260400151610da9919061317b565b1115610e2e57610dd6816020015160000151338361012001518460400151610dd1919061317b565b611e10565b7fcb1e26772e882480176a3e649a5f7937dc0ec3f50126283faf56f927b070be808160200151600001518261012001518360400151610e15919061317b565b42604051610e25939291906131af565b60405180910390a15b60008161014001511115610e9d57610e5481602001516020015133836101400151611e10565b7fcb1e26772e882480176a3e649a5f7937dc0ec3f50126283faf56f927b070be8081602001516020015182610140015142604051610e94939291906131af565b60405180910390a15b6002600460003373ffffffffffffffffffffffffffffffffffffffff1673ffffffffffffffffffffffffffffffffffffffff1681526020019081526020016000206000018381548110610ef357610ef2612f6e565b5b90600052602060002090600d0201600c0160006101000a81548160ff02191690836003811115610f2657610f256130e0565b5b02179055507f1ee227ac62b3f06afe9df95df8797497fe7b63f1e4c3cc120f8a333b6f65d1963383600242604051610f61949392919061322e565b60405180910390a15050565b600460003373ffffffffffffffffffffffffffffffffffffffff1673ffffffffffffffffffffffffffffffffffffffff168152602001908152602001600020600001805490508110610ff4576040517f08c379a0000000000000000000000000000000000000000000000000000000008152600401610feb90613060565b60405180910390fd5b6002600460003373ffffffffffffffffffffffffffffffffffffffff1673ffffffffffffffffffffffffffffffffffffffff168152602001908152602001600020600001828154811061104a57611049612f6e565b5b90600052602060002090600d0201600c0160006101000a81548160ff0219169083600381111561107d5761107c6130e0565b5b021790555050565b600460003373ffffffffffffffffffffffffffffffffffffffff1673ffffffffffffffffffffffffffffffffffffffff16815260200190815260200160002060000180549050811061110c576040517f08c379a000000000000000000000000000000000000000000000000000000000815260040161110390613060565b60405180910390fd5b6002600460003373ffffffffffffffffffffffffffffffffffffffff1673ffffffffffffffffffffffffffffffffffffffff168152602001908152602001600020600001828154811061116257611161612f6e565b5b90600052602060002090600d0201600c0160006101000a81548160ff02191690836003811115611195576111946130e0565b5b021790555050565b6111a5611b94565b6111ae81611e96565b156111ee576040517f08c379a00000000000000000000000000000000000000000000000000000000081526004016111e5906132bf565b60405180910390fd5b60028190806001815401808255809150506001900390600052602060002001600090919091909150557f57cb492e05adb4a4f47294924a582ecb2f196432c96c592d9a24ba793dcda7da81426040516112489291906132df565b60405180910390a150565b600460003373ffffffffffffffffffffffffffffffffffffffff1673ffffffffffffffffffffffffffffffffffffffff1681526020019081526020016000206000018054905082106112da576040517f08c379a00000000000000000000000000000000000000000000000000000000081526004016112d190613060565b60405180910390fd5b80600460003373ffffffffffffffffffffffffffffffffffffffff1673ffffffffffffffffffffffffffffffffffffffff168152602001908152602001600020600001838154811061132f5761132e612f6e565b5b90600052602060002090600d0201600c0160006101000a81548160ff02191690836003811115611362576113616130e0565b5b02179055507f1ee227ac62b3f06afe9df95df8797497fe7b63f1e4c3cc120f8a333b6f65d1963383834260405161139c949392919061322e565b60405180910390a15050565b600088889050116113ee576040517f08c379a00000000000000000000000000000000000000000000000000000000081526004016113e590613354565b60405180910390fd5b61144d3389898080601f016020809104026020016040519081016040528093929190818152602001838380828437600081840152601f19601f82011690508083019250505050505050888036038101906114489190613478565b611ef8565b1561148d576040517f08c379a0000000000000000000000000000000000000000000000000000000008152600401611484906134f1565b60405180910390fd5b6114a6868036038101906114a19190613478565b611c12565b6114e5576040517f08c379a00000000000000000000000000000000000000000000000000000000081526004016114dc9061355d565b60405180910390fd5b6114ee84611e96565b61152d576040517f08c379a0000000000000000000000000000000000000000000000000000000008152600401611524906135c9565b60405180910390fd5b60008511611570576040517f08c379a000000000000000000000000000000000000000000000000000000000815260040161156790613635565b60405180910390fd5b600083148015611581575060008214155b806115995750600083141580156115985750600082145b5b6115d8576040517f08c379a00000000000000000000000000000000000000000000000000000000081526004016115cf906136c7565b60405180910390fd5b6000612710600754876115eb91906136e7565b6115f59190613758565b86611600919061317b565b9050600080851161163657612710846127108461161d91906136e7565b6116279190613758565b6116319190613758565b611638565b845b90506000811161167d576040517f08c379a0000000000000000000000000000000000000000000000000000000008152600401611674906137d5565b60405180910390fd5b61169b88600001602081019061169391906137f5565b33308a6123a8565b6116a433612431565b61170c576005339080600181540180825580915050600190039060005260206000200160009091909190916101000a81548173ffffffffffffffffffffffffffffffffffffffff021916908373ffffffffffffffffffffffffffffffffffffffff1602179055505b600460003373ffffffffffffffffffffffffffffffffffffffff1673ffffffffffffffffffffffffffffffffffffffff168152602001908152602001600020600001604051806101e001604052808c8c8080601f016020809104026020016040519081016040528093929190818152602001838380828437600081840152601f19601f8201169050808301925050505050505081526020018a8036038101906117b59190613478565b815260200184815260200188815260200186815260200183815260200142815260200142815260200160008152602001600081526020016000815260200160006003811115611807576118066130e0565b5b81526020013373ffffffffffffffffffffffffffffffffffffffff16815260200185151581526020016000871461183f576000611842565b60015b6001811115611854576118536130e0565b5b81525090806001815401808255809150506001900390600052602060002090600d0201600090919091909150600082015181600001908161189591906139cf565b5060208201518160010160008201518160000160006101000a81548173ffffffffffffffffffffffffffffffffffffffff021916908373ffffffffffffffffffffffffffffffffffffffff16021790555060208201518160010160006101000a81548173ffffffffffffffffffffffffffffffffffffffff021916908373ffffffffffffffffffffffffffffffffffffffff16021790555060408201518160010160146101000a81548160ff021916908315150217905550505060408201518160030155606082015181600401556080820151816005015560a0820151816006015560c0820151816007015560e08201518160080155610100820151816009015561012082015181600a015561014082015181600b015561016082015181600c0160006101000a81548160ff021916908360038111156119d8576119d76130e0565b5b021790555061018082015181600c0160016101000a81548173ffffffffffffffffffffffffffffffffffffffff021916908373ffffffffffffffffffffffffffffffffffffffff1602179055506101a082015181600c0160156101000a81548160ff0219169083151502179055506101c082015181600c0160166101000a81548160ff02191690836001811115611a7257611a716130e0565b5b021790555050507f4b82aa16e071a61de1a6b9aeec9edab0356331f8122c78683b469ac8e685dabc336001600460003373ffffffffffffffffffffffffffffffffffffffff1673ffffffffffffffffffffffffffffffffffffffff16815260200190815260200160002060000180549050611aed919061317b565b42604051611afd939291906131af565b60405180910390a150505050505050505050565b611b19611b94565b600073ffffffffffffffffffffffffffffffffffffffff168173ffffffffffffffffffffffffffffffffffffffff1603611b88576040517f08c379a0000000000000000000000000000000000000000000000000000000008152600401611b7f90613b13565b60405180910390fd5b611b9181611d4c565b50565b611b9c6124df565b73ffffffffffffffffffffffffffffffffffffffff16611bba6108d0565b73ffffffffffffffffffffffffffffffffffffffff1614611c10576040517f08c379a0000000000000000000000000000000000000000000000000000000008152600401611c0790613b7f565b60405180910390fd5b565b600080600090505b600180549050811015611d4157826000015173ffffffffffffffffffffffffffffffffffffffff1660018281548110611c5657611c55612f6e565b5b906000526020600020906002020160000160009054906101000a900473ffffffffffffffffffffffffffffffffffffffff1673ffffffffffffffffffffffffffffffffffffffff16148015611d1f5750826020015173ffffffffffffffffffffffffffffffffffffffff1660018281548110611cd557611cd4612f6e565b5b906000526020600020906002020160010160009054906101000a900473ffffffffffffffffffffffffffffffffffffffff1673ffffffffffffffffffffffffffffffffffffffff16145b15611d2e576001915050611d47565b8080611d3990612fcc565b915050611c1a565b50600090505b919050565b60008060009054906101000a900473ffffffffffffffffffffffffffffffffffffffff169050816000806101000a81548173ffffffffffffffffffffffffffffffffffffffff021916908373ffffffffffffffffffffffffffffffffffffffff1602179055508173ffffffffffffffffffffffffffffffffffffffff168173ffffffffffffffffffffffffffffffffffffffff167f8be0079c531659141344cd1fd0a4f28419497f9722a3daafe3b4186f6b6457e060405160405180910390a35050565b611e918363a9059cbb60e01b8484604051602401611e2f929190613b9f565b604051602081830303815290604052907bffffffffffffffffffffffffffffffffffffffffffffffffffffffff19166020820180517bffffffffffffffffffffffffffffffffffffffffffffffffffffffff83818316178352505050506124e7565b505050565b600080600090505b600280549050811015611eed578260028281548110611ec057611ebf612f6e565b5b906000526020600020015403611eda576001915050611ef3565b8080611ee590612fcc565b915050611e9e565b50600090505b919050565b600080600460008673ffffffffffffffffffffffffffffffffffffffff1673ffffffffffffffffffffffffffffffffffffffff168152602001908152602001600020600001805480602002602001604051908101604052809291908181526020016000905b8282101561223e57838290600052602060002090600d0201604051806101e0016040529081600082018054611f91906130af565b80601f0160208091040260200160405190810160405280929190818152602001828054611fbd906130af565b801561200a5780601f10611fdf5761010080835404028352916020019161200a565b820191906000526020600020905b815481529060010190602001808311611fed57829003601f168201915b50505050508152602001600182016040518060600160405290816000820160009054906101000a900473ffffffffffffffffffffffffffffffffffffffff1673ffffffffffffffffffffffffffffffffffffffff1673ffffffffffffffffffffffffffffffffffffffff1681526020016001820160009054906101000a900473ffffffffffffffffffffffffffffffffffffffff1673ffffffffffffffffffffffffffffffffffffffff1673ffffffffffffffffffffffffffffffffffffffff1681526020016001820160149054906101000a900460ff161515151581525050815260200160038201548152602001600482015481526020016005820154815260200160068201548152602001600782015481526020016008820154815260200160098201548152602001600a8201548152602001600b8201548152602001600c820160009054906101000a900460ff16600381111561216d5761216c6130e0565b5b600381111561217f5761217e6130e0565b5b8152602001600c820160019054906101000a900473ffffffffffffffffffffffffffffffffffffffff1673ffffffffffffffffffffffffffffffffffffffff1673ffffffffffffffffffffffffffffffffffffffff168152602001600c820160159054906101000a900460ff16151515158152602001600c820160169054906101000a900460ff166001811115612219576122186130e0565b5b600181111561222b5761222a6130e0565b5b8152505081526020019060010190611f5d565b50505050905060005b815181101561239a5781818151811061226357612262612f6e565b5b60200260200101516000015160405160200161227f9190613c2e565b60405160208183030381529060405280519060200120856040516020016122a69190613c2e565b6040516020818303038152906040528051906020012014801561231a57508181815181106122d7576122d6612f6e565b5b6020026020010151602001516000015173ffffffffffffffffffffffffffffffffffffffff16846000015173ffffffffffffffffffffffffffffffffffffffff16145b8015612377575081818151811061233457612333612f6e565b5b6020026020010151602001516020015173ffffffffffffffffffffffffffffffffffffffff16846020015173ffffffffffffffffffffffffffffffffffffffff16145b15612387576001925050506123a1565b808061239290612fcc565b915050612247565b5060009150505b9392505050565b61242b846323b872dd60e01b8585856040516024016123c993929190612f08565b604051602081830303815290604052907bffffffffffffffffffffffffffffffffffffffffffffffffffffffff19166020820180517bffffffffffffffffffffffffffffffffffffffffffffffffffffffff83818316178352505050506124e7565b50505050565b600080600090505b6005805490508110156124d4578273ffffffffffffffffffffffffffffffffffffffff166005828154811061247157612470612f6e565b5b9060005260206000200160009054906101000a900473ffffffffffffffffffffffffffffffffffffffff1673ffffffffffffffffffffffffffffffffffffffff16036124c15760019150506124da565b80806124cc90612fcc565b915050612439565b50600090505b919050565b600033905090565b6000612549826040518060400160405280602081526020017f5361666545524332303a206c6f772d6c6576656c2063616c6c206661696c65648152508573ffffffffffffffffffffffffffffffffffffffff166125ae9092919063ffffffff16565b90506000815111156125a957808060200190518101906125699190613c5a565b6125a8576040517f08c379a000000000000000000000000000000000000000000000000000000000815260040161259f90613cf9565b60405180910390fd5b5b505050565b60606125bd84846000856125c6565b90509392505050565b60608247101561260b576040517f08c379a000000000000000000000000000000000000000000000000000000000815260040161260290613d8b565b60405180910390fd5b6000808673ffffffffffffffffffffffffffffffffffffffff1685876040516126349190613df2565b60006040518083038185875af1925050503d8060008114612671576040519150601f19603f3d011682016040523d82523d6000602084013e612676565b606091505b509150915061268787838387612693565b92505050949350505050565b606083156126f55760008351036126ed576126ad85612708565b6126ec576040517f08c379a00000000000000000000000000000000000000000000000000000000081526004016126e390613e55565b60405180910390fd5b5b829050612700565b6126ff838361272b565b5b949350505050565b6000808273ffffffffffffffffffffffffffffffffffffffff163b119050919050565b60008251111561273e5781518083602001fd5b806040517f08c379a00000000000000000000000000000000000000000000000000000000081526004016127729190613eae565b60405180910390fd5b6000604051905090565b600080fd5b600080fd5b600073ffffffffffffffffffffffffffffffffffffffff82169050919050565b60006127ba8261278f565b9050919050565b6127ca816127af565b81146127d557600080fd5b50565b6000813590506127e7816127c1565b92915050565b60008115159050919050565b612802816127ed565b811461280d57600080fd5b50565b60008135905061281f816127f9565b92915050565b60008060006060848603121561283e5761283d612785565b5b600061284c868287016127d8565b935050602061285d868287016127d8565b925050604061286e86828701612810565b9150509250925092565b6000819050919050565b61288b81612878565b811461289657600080fd5b50565b6000813590506128a881612882565b92915050565b6000602082840312156128c4576128c3612785565b5b60006128d284828501612899565b91505092915050565b6128e481612878565b82525050565b60006020820190506128ff60008301846128db565b92915050565b600081519050919050565b600082825260208201905092915050565b6000819050602082019050919050565b61293a816127af565b82525050565b600061294c8383612931565b60208301905092915050565b6000602082019050919050565b600061297082612905565b61297a8185612910565b935061298583612921565b8060005b838110156129b657815161299d8882612940565b97506129a883612958565b925050600181019050612989565b5085935050505092915050565b600060208201905081810360008301526129dd8184612965565b905092915050565b6000819050919050565b6000612a0a612a05612a008461278f565b6129e5565b61278f565b9050919050565b6000612a1c826129ef565b9050919050565b6000612a2e82612a11565b9050919050565b612a3e81612a23565b82525050565b612a4d816127ed565b82525050565b6000606082019050612a686000830186612a35565b612a756020830185612a35565b612a826040830184612a44565b949350505050565b612a93816127af565b82525050565b6000602082019050612aae6000830184612a8a565b92915050565b60048110612ac157600080fd5b50565b600081359050612ad381612ab4565b92915050565b60008060408385031215612af057612aef612785565b5b6000612afe85828601612899565b9250506020612b0f85828601612ac4565b9150509250929050565b600080fd5b600080fd5b600080fd5b60008083601f840112612b3e57612b3d612b19565b5b8235905067ffffffffffffffff811115612b5b57612b5a612b1e565b5b602083019150836001820283011115612b7757612b76612b23565b5b9250929050565b600080fd5b600060608284031215612b9957612b98612b7e565b5b81905092915050565b600080600080600080600080610120898b031215612bc357612bc2612785565b5b600089013567ffffffffffffffff811115612be157612be061278a565b5b612bed8b828c01612b28565b98509850506020612c008b828c01612b83565b9650506080612c118b828c01612899565b95505060a0612c228b828c01612899565b94505060c0612c338b828c01612899565b93505060e0612c448b828c01612899565b925050610100612c568b828c01612810565b9150509295985092959890939650565b600060208284031215612c7c57612c7b612785565b5b6000612c8a848285016127d8565b91505092915050565b600082825260208201905092915050565b7f496e70757420616e64204f757470757420746f6b656e73206d7573742062652060008201527f646966666572656e740000000000000000000000000000000000000000000000602082015250565b6000612d00602983612c93565b9150612d0b82612ca4565b604082019050919050565b60006020820190508181036000830152612d2f81612cf3565b9050919050565b600081519050612d4581612882565b92915050565b600060208284031215612d6157612d60612785565b5b6000612d6f84828501612d36565b91505092915050565b7f496e70757420546f6b656e206973206e6f7420617661696c61626c652e204e6f60008201527f20537570706c7900000000000000000000000000000000000000000000000000602082015250565b6000612dd4602783612c93565b9150612ddf82612d78565b604082019050919050565b60006020820190508181036000830152612e0381612dc7565b9050919050565b7f4f757470757420546f6b656e206973206e6f7420617661696c61626c652e204e60008201527f6f20537570706c79000000000000000000000000000000000000000000000000602082015250565b6000612e66602883612c93565b9150612e7182612e0a565b604082019050919050565b60006020820190508181036000830152612e9581612e59565b9050919050565b7f5061697220616c72656164792065786973747300000000000000000000000000600082015250565b6000612ed2601383612c93565b9150612edd82612e9c565b602082019050919050565b60006020820190508181036000830152612f0181612ec5565b9050919050565b6000606082019050612f1d6000830186612a8a565b612f2a6020830185612a8a565b612f3760408301846128db565b949350505050565b7f4e487b7100000000000000000000000000000000000000000000000000000000600052604160045260246000fd5b7f4e487b7100000000000000000000000000000000000000000000000000000000600052603260045260246000fd5b7f4e487b7100000000000000000000000000000000000000000000000000000000600052601160045260246000fd5b6000612fd782612878565b91507fffffffffffffffffffffffffffffffffffffffffffffffffffffffffffffffff820361300957613008612f9d565b5b600182019050919050565b7f506f736974696f6e20646f65736e277420657869737400000000000000000000600082015250565b600061304a601683612c93565b915061305582613014565b602082019050919050565b600060208201905081810360008301526130798161303d565b9050919050565b7f4e487b7100000000000000000000000000000000000000000000000000000000600052602260045260246000fd5b600060028204905060018216806130c757607f821691505b6020821081036130da576130d9613080565b5b50919050565b7f4e487b7100000000000000000000000000000000000000000000000000000000600052602160045260246000fd5b7f506f736974696f6e206973204c6f636b65643a206e6f6e20636c6f7361626c65600082015250565b6000613145602083612c93565b91506131508261310f565b602082019050919050565b6000602082019050818103600083015261317481613138565b9050919050565b600061318682612878565b915061319183612878565b92508282039050818111156131a9576131a8612f9d565b5b92915050565b60006060820190506131c46000830186612a8a565b6131d160208301856128db565b6131de60408301846128db565b949350505050565b600481106131f7576131f66130e0565b5b50565b6000819050613208826131e6565b919050565b6000613218826131fa565b9050919050565b6132288161320d565b82525050565b60006080820190506132436000830187612a8a565b61325060208301866128db565b61325d604083018561321f565b61326a60608301846128db565b95945050505050565b7f496e74657276616c20616c726561647920616464656400000000000000000000600082015250565b60006132a9601683612c93565b91506132b482613273565b602082019050919050565b600060208201905081810360008301526132d88161329c565b9050919050565b60006040820190506132f460008301856128db565b61330160208301846128db565b9392505050565b7f6e616d65206d7573742062652073657400000000000000000000000000000000600082015250565b600061333e601083612c93565b915061334982613308565b602082019050919050565b6000602082019050818103600083015261336d81613331565b9050919050565b600080fd5b6000601f19601f8301169050919050565b61339382613379565b810181811067ffffffffffffffff821117156133b2576133b1612f3f565b5b80604052505050565b60006133c561277b565b90506133d1828261338a565b919050565b60006133e1826127af565b9050919050565b6133f1816133d6565b81146133fc57600080fd5b50565b60008135905061340e816133e8565b92915050565b60006060828403121561342a57613429613374565b5b61343460606133bb565b90506000613444848285016133ff565b6000830152506020613458848285016133ff565b602083015250604061346c84828501612810565b60408301525092915050565b60006060828403121561348e5761348d612785565b5b600061349c84828501613414565b91505092915050565b7f506f736974696f6e20697320616c7265616479206578697374696e6700000000600082015250565b60006134db601c83612c93565b91506134e6826134a5565b602082019050919050565b6000602082019050818103600083015261350a816134ce565b9050919050565b7f70616972206e6f7420617661696c61626c650000000000000000000000000000600082015250565b6000613547601283612c93565b915061355282613511565b602082019050919050565b600060208201905081810360008301526135768161353a565b9050919050565b7f7468697320696e74657276616c206973206e6f7420616c6c6f77656400000000600082015250565b60006135b3601c83612c93565b91506135be8261357d565b602082019050919050565b600060208201905081810360008301526135e2816135a6565b9050919050565b7f4e6f20616d6f756e742073657420666f72204443410000000000000000000000600082015250565b600061361f601583612c93565b915061362a826135e9565b602082019050919050565b6000602082019050818103600083015261364e81613612565b9050919050565b7f536574206f6e6c7920616d6f756e74207065722073776170206f72206e756d6260008201527f6572206f6620697465726174696f6e7300000000000000000000000000000000602082015250565b60006136b1603083612c93565b91506136bc82613655565b604082019050919050565b600060208201905081810360008301526136e0816136a4565b9050919050565b60006136f282612878565b91506136fd83612878565b925082820261370b81612878565b9150828204841483151761372257613721612f9d565b5b5092915050565b7f4e487b7100000000000000000000000000000000000000000000000000000000600052601260045260246000fd5b600061376382612878565b915061376e83612878565b92508261377e5761377d613729565b5b828204905092915050565b7f616d6f756e742070657220737761702063616e6e6f7420626520300000000000600082015250565b60006137bf601b83612c93565b91506137ca82613789565b602082019050919050565b600060208201905081810360008301526137ee816137b2565b9050919050565b60006020828403121561380b5761380a612785565b5b6000613819848285016133ff565b91505092915050565b600081519050919050565b60008190508160005260206000209050919050565b60006020601f8301049050919050565b600082821b905092915050565b60006008830261388f7fffffffffffffffffffffffffffffffffffffffffffffffffffffffffffffffff82613852565b6138998683613852565b95508019841693508086168417925050509392505050565b60006138cc6138c76138c284612878565b6129e5565b612878565b9050919050565b6000819050919050565b6138e6836138b1565b6138fa6138f2826138d3565b84845461385f565b825550505050565b600090565b61390f613902565b61391a8184846138dd565b505050565b5b8181101561393e57613933600082613907565b600181019050613920565b5050565b601f821115613983576139548161382d565b61395d84613842565b8101602085101561396c578190505b61398061397885613842565b83018261391f565b50505b505050565b600082821c905092915050565b60006139a660001984600802613988565b1980831691505092915050565b60006139bf8383613995565b9150826002028217905092915050565b6139d882613822565b67ffffffffffffffff8111156139f1576139f0612f3f565b5b6139fb82546130af565b613a06828285613942565b600060209050601f831160018114613a395760008415613a27578287015190505b613a3185826139b3565b865550613a99565b601f198416613a478661382d565b60005b82811015613a6f57848901518255600182019150602085019450602081019050613a4a565b86831015613a8c5784890151613a88601f891682613995565b8355505b6001600288020188555050505b505050505050565b7f4f776e61626c653a206e6577206f776e657220697320746865207a65726f206160008201527f6464726573730000000000000000000000000000000000000000000000000000602082015250565b6000613afd602683612c93565b9150613b0882613aa1565b604082019050919050565b60006020820190508181036000830152613b2c81613af0565b9050919050565b7f4f776e61626c653a2063616c6c6572206973206e6f7420746865206f776e6572600082015250565b6000613b69602083612c93565b9150613b7482613b33565b602082019050919050565b60006020820190508181036000830152613b9881613b5c565b9050919050565b6000604082019050613bb46000830185612a8a565b613bc160208301846128db565b9392505050565b600081905092915050565b60005b83811015613bf1578082015181840152602081019050613bd6565b60008484015250505050565b6000613c0882613822565b613c128185613bc8565b9350613c22818560208601613bd3565b80840191505092915050565b6000613c3a8284613bfd565b915081905092915050565b600081519050613c54816127f9565b92915050565b600060208284031215613c7057613c6f612785565b5b6000613c7e84828501613c45565b91505092915050565b7f5361666545524332303a204552433230206f7065726174696f6e20646964206e60008201527f6f74207375636365656400000000000000000000000000000000000000000000602082015250565b6000613ce3602a83612c93565b9150613cee82613c87565b604082019050919050565b60006020820190508181036000830152613d1281613cd6565b9050919050565b7f416464726573733a20696e73756666696369656e742062616c616e636520666f60008201527f722063616c6c0000000000000000000000000000000000000000000000000000602082015250565b6000613d75602683612c93565b9150613d8082613d19565b604082019050919050565b60006020820190508181036000830152613da481613d68565b9050919050565b600081519050919050565b600081905092915050565b6000613dcc82613dab565b613dd68185613db6565b9350613de6818560208601613bd3565b80840191505092915050565b6000613dfe8284613dc1565b915081905092915050565b7f416464726573733a2063616c6c20746f206e6f6e2d636f6e7472616374000000600082015250565b6000613e3f601d83612c93565b9150613e4a82613e09565b602082019050919050565b60006020820190508181036000830152613e6e81613e32565b9050919050565b6000613e8082613822565b613e8a8185612c93565b9350613e9a818560208601613bd3565b613ea381613379565b840191505092915050565b60006020820190508181036000830152613ec88184613e75565b90509291505056fea2646970667358221220213670d4a3c9489993af01dc62ef77fab03105a61a01b180f024c0773e65efbb64736f6c63430008120033",
  "immutableReferences": {},
  "source": "// SPDX-License-Identifier: MIT\n\npragma solidity ^0.8.18;\n\nimport '../node_modules/@uniswap/v2-periphery/contracts/interfaces/IUniswapV2Router02.sol';\nimport '../node_modules/@uniswap/v2-core/contracts/interfaces/IUniswapV2Factory.sol';\nimport '../node_modules/@uniswap/v2-core/contracts/interfaces/IUniswapV2Pair.sol';\nimport \"../node_modules/@openzeppelin/contracts/access/Ownable.sol\";\nimport \"../node_modules/@openzeppelin/contracts/token/ERC20/IERC20.sol\";\nimport \"../node_modules/@openzeppelin/contracts/token/ERC20/utils/SafeERC20.sol\";\nimport \"../node_modules/@ganache/console.log/console.sol\";\nusing SafeERC20 for IERC20;\n\ncontract HodlUpHub is Ownable {\n\n// wallet whale MATIC: 0xe7804c37c13166fF0b37F5aE0BB07A3aEbb6e245\n// token MATIC 0x0000000000000000000000000000000000001010\n// token SAND 0xBbba073C31bF03b8ACf7c28EF0738DeCF3695683\n// token USDC 0x2791Bca1f2de4661ED88A30C99A7a9449Aa84174\n//   ganache --fork https://polygon-mumbai.g.alchemy.com/v2/kN9xDViXa7ZgWWDQgNzzz-I9aIvsxIw3 --seed \"grass permit accident owner lock above hello stick divide cigar void language\" -i --unlock 0xe7804c37c13166fF0b37F5aE0BB07A3aEbb6e245 --networkId 999\n// ganache -f https://polygon-mainnet.g.alchemy.com/v2/E_47dJ_8PBLE24COiPQ1hcE1ZIBVgcps -u 0xe7804c37c13166fF0b37F5aE0BB07A3aEbb6e245 --networkId 999\n// ganache -f https://polygon-mainnet.g.alchemy.com/v2/E_47dJ_8PBLE24COiPQ1hcE1ZIBVgcps -u 0xe7804c37c13166fF0b37F5aE0BB07A3aEbb6e245 --networkId 137 -m \"grass permit accident owner lock above hello stick divide cigar void language\"\n//approve sur l'adresse du token ERC20\n// voir chainlink pour le prix\n//approve sur l'adresse du token ERC20\n// voir chainlink pour le prix\n// paraswap aggreg mais non dispo sur testnet\n//NFT ERC-1155\n\n    // Available statuses for a position\n    enum Status {\n        Active,\n        Pause,\n        Closed,\n        Locked\n    }\n\n    enum DcaMode {\n        Limited,\n        Unlimited\n    }\n\n    Pair[] public pairsAvailable;\n    uint256[] public intervalsAvailable;\n    IUniswapV2Router02 uniswapRouter;\n\n    struct User {\n        Position[] Positions;\n    }\n\n    struct Pair {\n        IERC20 token_from;\n        IERC20 token_to;\n        bool active;\n    }\n\n    struct Position {\n        string name;\n        Pair pair;\n        uint totalAmountToSwap;\n        uint interval;\n        uint dcaIterations;\n        uint amountPerSwap;\n        uint lastPurchaseTimestamp;\n        uint createdTimestamp;\n        uint averagePrice;\n        uint SwappedFromBalance;\n        uint SwappedToBalance;  \n        Status status;\n        address recipient;\n        bool stacking;\n        DcaMode mode;\n    }\n\n    mapping(address => User) users;\n    address [] userAddresses;\n\n    mapping(address => uint) feesBalances;\n\n    // Represents fee percentage taken for deposit. \n    // to avoid rounding errors, we multiply it by 10000. 1% is represented by 100\n    uint depositFee;\n    uint swapFee;\n\n    constructor(address _uniswapRouter, uint _depositFee, uint _swapFee) {\n        uniswapRouter = IUniswapV2Router02(_uniswapRouter);\n        depositFee = _depositFee;\n        swapFee = _swapFee;\n    }\n\n    function _userExists(address _userAddress) internal view returns (bool) {\n        for (uint i = 0; i < userAddresses.length; i++) {\n            if (userAddresses[i] == _userAddress) {\n                return true;\n            }\n        }\n        return false;\n    }\n\n    // execute DCA for users that has choosen to stack\n    function _executeStakedDCA () internal {\n        for (uint i = 0; i < pairsAvailable.length; i++) {\n            uint totalToSwap = _getTotalToSwap(pairsAvailable[i]);\n            uint totalToSwapAfterFees = totalToSwap - (totalToSwap * swapFee / 10000);\n            uint totalSwapped = _swap(pairsAvailable[i], totalToSwapAfterFees, address(this)) ;\n            for (uint256 j = 0; j < userAddresses.length; j++) {\n                Position[] memory positions = users[userAddresses[j]].Positions;\n                for (uint256 k = 0; k < positions.length; k++) {\n                    if (positions[k].status == Status.Locked &&\n                        positions[k].stacking == true &&\n                        block.timestamp > positions[k].lastPurchaseTimestamp + positions[k].interval\n                    ) {\n                        positions[k].SwappedFromBalance = positions[k].SwappedFromBalance + positions[k].amountPerSwap;\n                        uint amountSwapped = ( ( (positions[k].amountPerSwap * 10000) / totalToSwap ) * totalSwapped) / 10000;\n                        positions[k].SwappedToBalance = positions[k].SwappedToBalance + amountSwapped;\n                        positions[k].status = Status.Active;\n                        emit DCAExecuted (userAddresses[j], k, address(positions[k].pair.token_from), address(positions[k].pair.token_to), positions[k].amountPerSwap, amountSwapped, block.timestamp);\n                    }\n                }\n            }\n            //emit DCAExecuted (userAddresses[i], j, address(positions[j].pair.token_from), address(positions[j].pair.token_to), positions[j].amountPerSwap);\n        }\n    }\n\n    // execute DCA for users that want to get back directly to their wallet\n    function _executeIndividualDCA () internal {\n        for (uint256 i = 0; i < userAddresses.length; i++) {\n            Position[] memory positions = users[userAddresses[i]].Positions;\n            for (uint256 j = 0; j < positions.length; j++) {\n                if (positions[j].status == Status.Active &&\n                    positions[j].stacking == false &&\n                    block.timestamp > positions[j].lastPurchaseTimestamp + positions[j].interval\n                ) {\n                    positions[j].status = Status.Locked;\n                    uint amoutPerSwapAfterFees =  positions[j].amountPerSwap - (positions[j].amountPerSwap * swapFee / 10000);\n                    uint resultSwap = _swap( positions[j].pair, amoutPerSwapAfterFees, positions[j].recipient) ;\n                    if (positions[j].mode == DcaMode.Limited){\n                        positions[j].dcaIterations = positions[j].dcaIterations-- ;\n                    }\n                    positions[j].SwappedToBalance = positions[j].SwappedToBalance + resultSwap;\n                    positions[j].SwappedFromBalance = positions[j].SwappedFromBalance + positions[j].amountPerSwap;\n                    positions[j].status = Status.Active;\n                    emit DCAExecuted (userAddresses[i], j, address(positions[j].pair.token_from), address(positions[j].pair.token_to), positions[j].amountPerSwap, resultSwap, block.timestamp);\n                }\n            }\n        }\n    }\n\n    function _pairExists(Pair memory _pair) internal view returns (bool) {\n        for (uint i = 0; i < pairsAvailable.length; i++) {\n            if (pairsAvailable[i].token_from == _pair.token_from && pairsAvailable[i].token_to == _pair.token_to) {\n                return true;\n            }\n        }\n        return false;\n    }\n\n    function _intervalExists(uint256 interval) internal view returns (bool) {\n        for (uint i = 0; i < intervalsAvailable.length; i++) {\n            if (intervalsAvailable[i]==interval) {\n                return true;\n            }\n        }\n        return false;\n    }\n\n    function _getTotalToSwap(Pair memory _pair) internal view returns(uint256) {\n        uint totalToSwap;\n        for (uint256 i = 0; i < userAddresses.length; i++) {\n            Position[] memory positions = users[userAddresses[i]].Positions;\n            for (uint256 j = 0; j < positions.length; j++) {\n                if (positions[j].pair.token_from == _pair.token_from &&\n                    positions[j].pair.token_to == _pair.token_to &&\n                    positions[j].status == Status.Active &&\n                    positions[j].stacking == true &&\n                    block.timestamp > positions[j].lastPurchaseTimestamp + positions[j].interval\n                ) {                 \n                    totalToSwap +=  positions[j].amountPerSwap;\n                    positions[j].status = Status.Locked;\n                }\n            }\n        }\n        return totalToSwap;\n    }\n\n    function _swap(Pair memory _pair, uint256 _amount, address _receiver) internal returns(uint256) {\n        //require(block.timestamp >= lastSwapTime + swapInterval, \"DCAUniswapV2: Not enough time has passed since the last swap\");\n        require(IERC20(_pair.token_from).balanceOf(address(this)) > _amount, \"Insufficient balance of origin Token\");\n        IERC20(_pair.token_from).approve(address(uniswapRouter), _amount);\n\n        address pair = IUniswapV2Factory(IUniswapV2Router02(uniswapRouter).factory()).getPair(address(_pair.token_from), address(_pair.token_to));\n        if (pair != address(0)){\n\n            address[] memory path = new address[](2);\n            path[0] = address(_pair.token_from);\n            path[1] = address(_pair.token_to);\n\n            //uint[] memory amounts = uniswapRouter.getAmountsOut(_pair.token_from, path);\n             // require(amounts[1] >= montant deduit de chainlink +/- 10%, \"Uniswap returned insufficient output amount\");\n            if (_amount != 0){\n                    uint[] memory outputAmounts = uniswapRouter.swapExactTokensForTokens(_amount, 0, path, _receiver, block.timestamp + 1800);\n                    return outputAmounts[1];\n            }\n            else{\n                return 0;\n            }\n        }\n        else{\n            revert(\"Pair doesn't exist\");\n        }\n    }\n\n    function _positionExists(address _user, Position memory _position) internal view returns (bool) {\n        Position[] memory positions = users[_user].Positions;\n        for (uint256 i = 0; i < positions.length; i++) {\n            if(keccak256(abi.encodePacked(_position.name)) == keccak256(abi.encodePacked(positions[i].name)) &&\n                _position.pair.token_from == positions[i].pair.token_from && _position.pair.token_to == positions[i].pair.token_to) {\n                return true;\n            }\n        }\n        return false;\n    }\n\n    function _positionExists(address _user, string memory _name, Pair memory _pair) internal view returns (bool) {\n        Position[] memory positions = users[_user].Positions;\n        for (uint256 i = 0; i < positions.length; i++) {\n            if(keccak256(abi.encodePacked(_name)) == keccak256(abi.encodePacked(positions[i].name)) &&\n                _pair.token_from == positions[i].pair.token_from && _pair.token_to == positions[i].pair.token_to) {\n                return true;\n            }\n        }\n        return false;\n    }\n\n    function _getAllInputTokenAddresses() external view returns (address[] memory) {\n        address[] memory tokenAddresses = new address[](pairsAvailable.length);\n        uint256 distinctTokenCount = 0;\n        \n        for (uint256 i = 0; i < pairsAvailable.length; i++) {\n            // Check if the token_from address has already been added to the list\n            bool exists = false;\n            for (uint256 j = 0; j < distinctTokenCount; j++) {\n                if (tokenAddresses[j] == address(pairsAvailable[i].token_from)) {\n                    exists = true;\n                    break;\n                }\n            }\n            // If token_from has not been added to the list yet, add it\n            if (!exists) {\n                tokenAddresses[distinctTokenCount] = address(pairsAvailable[i].token_from);\n                distinctTokenCount++;\n            }\n        }\n        // Resize the tokenAddresses array to remove any empty elements\n        assembly {\n            mstore(tokenAddresses, distinctTokenCount)\n        } \n        return tokenAddresses;\n    }\n\n    function addPair(address _token_from, address _token_to, bool _active) external onlyOwner {\n        require(_token_from != _token_to, \"Input and Output tokens must be different\");\n        require(IERC20(_token_from).totalSupply() > 0, \"Input Token is not available. No Supply\");\n        require(IERC20(_token_to).totalSupply() > 0, \"Output Token is not available. No Supply\");\n        require(!_pairExists(Pair(IERC20(_token_from), IERC20(_token_to), true)), \"Pair already exists\");\n        pairsAvailable.push(Pair(IERC20(_token_from), IERC20(_token_to), _active)); \n        emit PairAdded(_token_from, _token_to, block.timestamp);\n    }\n\n    function addInterval(uint256 _interval) external onlyOwner {\n        require(!_intervalExists(_interval), \"Interval already added\");\n        intervalsAvailable.push(_interval); \n        emit IntervalAdded(_interval, block.timestamp);\n    }\n\n    function createPosition(string calldata _name, Pair calldata _pair, uint _totalAmountToSwap, uint _interval, uint _amountPerSwap, uint _dcaIterations, bool _stacking) external {\n        require(bytes(_name).length > 0, \"name must be set\"); \n        require(!_positionExists(msg.sender, _name, _pair), \"Position is already existing\");\n        require(_pairExists(_pair), \"pair not available\");\n        require(_intervalExists(_interval), \"this interval is not allowed\");\n        require(_totalAmountToSwap > 0, \"No amount set for DCA\");\n        require( (_amountPerSwap == 0 && _dcaIterations != 0) || (_amountPerSwap != 0 && _dcaIterations == 0), \"Set only amount per swap or number of iterations\" );\n\n        uint totalToSwapAfterFees = _totalAmountToSwap - (_totalAmountToSwap * depositFee / 10000);\n        uint amountPerSwap = _amountPerSwap > 0 ? _amountPerSwap : ((totalToSwapAfterFees * 10000) / _dcaIterations) / 10000;\n\n        require (amountPerSwap > 0, \"amount per swap cannot be 0\");\n\n        SafeERC20.safeTransferFrom(_pair.token_from, msg.sender, address(this), _totalAmountToSwap);   \n                if (!_userExists(msg.sender)){\n            userAddresses.push(msg.sender);\n        }\n        users[msg.sender].Positions.push(Position(_name, _pair, totalToSwapAfterFees, _interval, _dcaIterations, amountPerSwap, block.timestamp, block.timestamp, 0, 0, 0, Status.Active ,msg.sender, _stacking, _dcaIterations == 0 ? DcaMode.Unlimited : DcaMode.Limited ));\n    \n        emit PositionCreated (msg.sender, users[msg.sender].Positions.length-1, block.timestamp);  \n    }\n\n    function setPositionStatus(uint _positionId, Status _status) external {\n        require(_positionId < users[msg.sender].Positions.length , \"Position doesn't exist\");\n        users[msg.sender].Positions[_positionId].status=_status;\n        emit PositionStatusChanged (msg.sender, _positionId, _status, block.timestamp);  \n    }\n\n    function closePosition(uint _positionId) external {\n        require(_positionId < users[msg.sender].Positions.length , \"Position doesn't exist\");\n        require(_positionId < users[msg.sender].Positions.length , \"Position doesn't exist\");\n        Position memory positionToClose = users[msg.sender].Positions[_positionId];\n        require(positionToClose.status != Status.Locked, \"Position is Locked: non closable\");\n\n        if ( (positionToClose.totalAmountToSwap - positionToClose.SwappedFromBalance) > 0 ) {\n            SafeERC20.safeTransfer(positionToClose.pair.token_from, msg.sender, positionToClose.totalAmountToSwap - positionToClose.SwappedFromBalance);\n            emit TokenClaimed( address (positionToClose.pair.token_from), positionToClose.totalAmountToSwap - positionToClose.SwappedFromBalance, block.timestamp );\n        }\n        if ( (positionToClose.SwappedToBalance) > 0 ) {\n            SafeERC20.safeTransfer(positionToClose.pair.token_to, msg.sender, positionToClose.SwappedToBalance);\n            emit TokenClaimed( address (positionToClose.pair.token_to), positionToClose.SwappedToBalance, block.timestamp );\n        }\n        users[msg.sender].Positions[_positionId].status = Status.Closed;\n        emit PositionStatusChanged (msg.sender, _positionId, Status.Closed, block.timestamp);  \n    }\n\n    function claimToken(uint _positionId) external {\n        require(_positionId < users[msg.sender].Positions.length , \"Position doesn't exist\");\n        users[msg.sender].Positions[_positionId].status = Status.Closed;\n    }\n\n    function claimFees(uint _positionId) external {\n        require(_positionId < users[msg.sender].Positions.length , \"Position doesn't exist\");\n        users[msg.sender].Positions[_positionId].status = Status.Closed;\n        //emit PositionStatusChanged (msg.sender, _positionId, Status.Closed);  \n    }\n\n    event PairAdded(address token_from, address token_to, uint date);\n    event IntervalAdded(uint256 interval, uint date);\n    event PositionCreated (address sender, uint256 id, uint date);\n    event PositionStatusChanged (address sender, uint256 id, Status status, uint date);\n    event DCAExecuted (address user, uint positionId, address token_from, address token_to, uint amountToSwap, uint amountSwapped, uint date);\n    event TokenClaimed (address token, uint amount, uint date);\n\n}\n\n",
  "sourcePath": "/home/sjouany/ProjetFinal/HodlUp/truffle/contracts/HodlUpHub.sol",
  "compiler": {
    "name": "solc",
    "version": "0.8.18+commit.87f61d96.Emscripten.clang"
  },
  "schemaVersion": "3.4.13",
  "updatedAt": "2023-04-02T00:25:55.593Z",
  "devdoc": {
    "kind": "dev",
    "methods": {
      "owner()": {
        "details": "Returns the address of the current owner."
      },
      "renounceOwnership()": {
        "details": "Leaves the contract without owner. It will not be possible to call `onlyOwner` functions anymore. Can only be called by the current owner. NOTE: Renouncing ownership will leave the contract without an owner, thereby removing any functionality that is only available to the owner."
      },
      "transferOwnership(address)": {
        "details": "Transfers ownership of the contract to a new account (`newOwner`). Can only be called by the current owner."
      }
    },
    "version": 1
  },
  "userdoc": {
    "kind": "user",
    "methods": {},
    "version": 1
  }
}